{
	"data": {
		"bytecode": {
			"linkReferences": {
				"remix_tests.sol": {
					"Assert": [
						{
							"length": 20,
							"start": 215
						},
						{
							"length": 20,
							"start": 1165
						}
					]
				}
			},
			"object": "608060405234801561001057600080fd5b50614b4d806100206000396000f3fe60806040523480156200001157600080fd5b50600436106200005e5760003560e01c806306de293a14620000635780636331e7d4146200006f5780637fea0d4b146200007b578063dcb57dc01462000087578063f634181714620000a9575b600080fd5b6200006d620000b5565b005b62000079620001c9565b005b62000085620001cb565b005b62000091620002c7565b604051620000a09190620009e8565b60405180910390f35b620000b3620002eb565b005b73__$acbfb1c35000d78352310b16a054a6b106$__63abcd796060008054906101000a900473ffffffffffffffffffffffffffffffffffffffff1673ffffffffffffffffffffffffffffffffffffffff166318160ddd6040518163ffffffff1660e01b8152600401602060405180830381865afa1580156200013b573d6000803e3d6000fd5b505050506040513d601f19601f8201168201806040525081019062000161919062000a45565b60006040518363ffffffff1660e01b81526004016200018292919062000b52565b602060405180830381865af4158015620001a0573d6000803e3d6000fd5b505050506040513d601f19601f82011682018060405250810190620001c6919062000bd1565b50565b565b33604051620001da906200094f565b620001e6919062000c28565b604051809103906000f08015801562000203573d6000803e3d6000fd5b506000806101000a81548173ffffffffffffffffffffffffffffffffffffffff021916908373ffffffffffffffffffffffffffffffffffffffff16021790555060008054906101000a900473ffffffffffffffffffffffffffffffffffffffff1673ffffffffffffffffffffffffffffffffffffffff166332e43a116040518163ffffffff1660e01b8152600401600060405180830381600087803b158015620002ac57600080fd5b505af1158015620002c1573d6000803e3d6000fd5b50505050565b60008054906101000a900473ffffffffffffffffffffffffffffffffffffffff1681565b62000318620003123373ffffffffffffffffffffffffffffffffffffffff1660146200062e565b62000889565b620003d6620003d060008054906101000a900473ffffffffffffffffffffffffffffffffffffffff1673ffffffffffffffffffffffffffffffffffffffff16638f84aa096040518163ffffffff1660e01b8152600401602060405180830381865afa1580156200038c573d6000803e3d6000fd5b505050506040513d601f19601f82011682018060405250810190620003b2919062000c76565b73ffffffffffffffffffffffffffffffffffffffff1660146200062e565b62000889565b60006001905060008054906101000a900473ffffffffffffffffffffffffffffffffffffffff1673ffffffffffffffffffffffffffffffffffffffff16636ecd2306826040518263ffffffff1660e01b815260040162000437919062000cc6565b600060405180830381600087803b1580156200045257600080fd5b505af115801562000467573d6000803e3d6000fd5b5050505073__$acbfb1c35000d78352310b16a054a6b106$__63abcd796060008054906101000a900473ffffffffffffffffffffffffffffffffffffffff1673ffffffffffffffffffffffffffffffffffffffff166318160ddd6040518163ffffffff1660e01b8152600401602060405180830381865afa158015620004f1573d6000803e3d6000fd5b505050506040513d601f19601f8201168201806040525081019062000517919062000a45565b60008054906101000a900473ffffffffffffffffffffffffffffffffffffffff1673ffffffffffffffffffffffffffffffffffffffff1663313ce5676040518163ffffffff1660e01b8152600401602060405180830381865afa15801562000583573d6000803e3d6000fd5b505050506040513d601f19601f82011682018060405250810190620005a9919062000d14565b600a620005b7919062000ec9565b8460ff16620005c7919062000f1a565b6040518363ffffffff1660e01b8152600401620005e692919062000fdb565b602060405180830381865af415801562000604573d6000803e3d6000fd5b505050506040513d601f19601f820116820180604052508101906200062a919062000bd1565b5050565b60606000600283600262000643919062000f1a565b6200064f91906200101d565b67ffffffffffffffff8111156200066b576200066a62001058565b5b6040519080825280601f01601f1916602001820160405280156200069e5781602001600182028036833780820191505090505b5090507f300000000000000000000000000000000000000000000000000000000000000081600081518110620006d957620006d862001087565b5b60200101907effffffffffffffffffffffffffffffffffffffffffffffffffffffffffffff1916908160001a9053507f78000000000000000000000000000000000000000000000000000000000000008160018151811062000740576200073f62001087565b5b60200101907effffffffffffffffffffffffffffffffffffffffffffffffffffffffffffff1916908160001a9053506000600184600262000782919062000f1a565b6200078e91906200101d565b90505b600181111562000838577f3031323334353637383961626364656600000000000000000000000000000000600f861660108110620007d457620007d362001087565b5b1a60f81b828281518110620007ee57620007ed62001087565b5b60200101907effffffffffffffffffffffffffffffffffffffffffffffffffffffffffffff1916908160001a905350600485901c9450806200083090620010b6565b905062000791565b50600084146200087f576040517f08c379a0000000000000000000000000000000000000000000000000000000008152600401620008769062001145565b60405180910390fd5b8091505092915050565b6200092381604051602401620008a09190620011f0565b6040516020818303038152906040527f41304fac000000000000000000000000000000000000000000000000000000007bffffffffffffffffffffffffffffffffffffffffffffffffffffffff19166020820180517bffffffffffffffffffffffffffffffffffffffffffffffffffffffff838183161783525050505062000926565b50565b60008151905060006a636f6e736f6c652e6c6f679050602083016000808483855afa5050505050565b613903806200121583390190565b600073ffffffffffffffffffffffffffffffffffffffff82169050919050565b6000819050919050565b6000620009a8620009a26200099c846200095d565b6200097d565b6200095d565b9050919050565b6000620009bc8262000987565b9050919050565b6000620009d082620009af565b9050919050565b620009e281620009c3565b82525050565b6000602082019050620009ff6000830184620009d7565b92915050565b600080fd5b6000819050919050565b62000a1f8162000a0a565b811462000a2b57600080fd5b50565b60008151905062000a3f8162000a14565b92915050565b60006020828403121562000a5e5762000a5d62000a05565b5b600062000a6e8482850162000a2e565b91505092915050565b62000a828162000a0a565b82525050565b6000819050919050565b600062000ab362000aad62000aa78462000a88565b6200097d565b62000a0a565b9050919050565b62000ac58162000a92565b82525050565b600082825260208201905092915050565b7f537570706c792073686f756c64206265207a65726f207768656e20746f6b656e60008201527f20696e7469616c6c792063726561746564000000000000000000000000000000602082015250565b600062000b3a60318362000acb565b915062000b478262000adc565b604082019050919050565b600060608201905062000b69600083018562000a77565b62000b78602083018462000aba565b818103604083015262000b8b8162000b2b565b90509392505050565b60008115159050919050565b62000bab8162000b94565b811462000bb757600080fd5b50565b60008151905062000bcb8162000ba0565b92915050565b60006020828403121562000bea5762000be962000a05565b5b600062000bfa8482850162000bba565b91505092915050565b600062000c10826200095d565b9050919050565b62000c228162000c03565b82525050565b600060208201905062000c3f600083018462000c17565b92915050565b62000c508162000c03565b811462000c5c57600080fd5b50565b60008151905062000c708162000c45565b92915050565b60006020828403121562000c8f5762000c8e62000a05565b5b600062000c9f8482850162000c5f565b91505092915050565b600060ff82169050919050565b62000cc08162000ca8565b82525050565b600060208201905062000cdd600083018462000cb5565b92915050565b62000cee8162000ca8565b811462000cfa57600080fd5b50565b60008151905062000d0e8162000ce3565b92915050565b60006020828403121562000d2d5762000d2c62000a05565b5b600062000d3d8482850162000cfd565b91505092915050565b7f4e487b7100000000000000000000000000000000000000000000000000000000600052601160045260246000fd5b60008160011c9050919050565b6000808291508390505b600185111562000dd45780860481111562000dac5762000dab62000d46565b5b600185161562000dbc5780820291505b808102905062000dcc8562000d75565b945062000d8c565b94509492505050565b60008262000def576001905062000ec2565b8162000dff576000905062000ec2565b816001811462000e18576002811462000e235762000e59565b600191505062000ec2565b60ff84111562000e385762000e3762000d46565b5b8360020a91508482111562000e525762000e5162000d46565b5b5062000ec2565b5060208310610133831016604e8410600b841016171562000e935782820a90508381111562000e8d5762000e8c62000d46565b5b62000ec2565b62000ea2848484600162000d82565b9250905081840481111562000ebc5762000ebb62000d46565b5b81810290505b9392505050565b600062000ed68262000a0a565b915062000ee38362000ca8565b925062000f127fffffffffffffffffffffffffffffffffffffffffffffffffffffffffffffffff848462000ddd565b905092915050565b600062000f278262000a0a565b915062000f348362000a0a565b925082820262000f448162000a0a565b9150828204841483151762000f5e5762000f5d62000d46565b5b5092915050565b7f537570706c792073686f756c6420626520657175616c20746f20746865206e7560008201527f6d626572206d696e746564000000000000000000000000000000000000000000602082015250565b600062000fc3602b8362000acb565b915062000fd08262000f65565b604082019050919050565b600060608201905062000ff2600083018562000a77565b62001001602083018462000a77565b8181036040830152620010148162000fb4565b90509392505050565b60006200102a8262000a0a565b9150620010378362000a0a565b925082820190508082111562001052576200105162000d46565b5b92915050565b7f4e487b7100000000000000000000000000000000000000000000000000000000600052604160045260246000fd5b7f4e487b7100000000000000000000000000000000000000000000000000000000600052603260045260246000fd5b6000620010c38262000a0a565b915060008203620010d957620010d862000d46565b5b600182039050919050565b600082825260208201905092915050565b7f537472696e67733a20686578206c656e67746820696e73756666696369656e74600082015250565b60006200112d602083620010e4565b91506200113a82620010f5565b602082019050919050565b6000602082019050818103600083015262001160816200111e565b9050919050565b600081519050919050565b60005b838110156200119257808201518184015260208101905062001175565b60008484015250505050565b6000601f19601f8301169050919050565b6000620011bc8262001167565b620011c88185620010e4565b9350620011da81856020860162001172565b620011e5816200119e565b840191505092915050565b600060208201905081810360008301526200120c8184620011af565b90509291505056fe60806040523480156200001157600080fd5b506040516200390338038062003903833981810160405281019062000037919062000520565b8060026040518060400160405280600d81526020017f555344537461626c65436f696e000000000000000000000000000000000000008152506040518060400160405280600381526020017f55534300000000000000000000000000000000000000000000000000000000008152508160039081620000b79190620007cc565b508060049081620000c99190620007cc565b5050506000600560006101000a81548160ff0219169083151502179055506200012a620001198373ffffffffffffffffffffffffffffffffffffffff1660146200018f60201b6200110a1760201c565b620003ea60201b620013461760201c565b81600560016101000a81548173ffffffffffffffffffffffffffffffffffffffff021916908373ffffffffffffffffffffffffffffffffffffffff16021790555080600560156101000a81548160ff021916908360ff16021790555050505062000aea565b606060006002836002620001a49190620008e2565b620001b091906200092d565b67ffffffffffffffff811115620001cc57620001cb6200055d565b5b6040519080825280601f01601f191660200182016040528015620001ff5781602001600182028036833780820191505090505b5090507f3000000000000000000000000000000000000000000000000000000000000000816000815181106200023a576200023962000968565b5b60200101907effffffffffffffffffffffffffffffffffffffffffffffffffffffffffffff1916908160001a9053507f780000000000000000000000000000000000000000000000000000000000000081600181518110620002a157620002a062000968565b5b60200101907effffffffffffffffffffffffffffffffffffffffffffffffffffffffffffff1916908160001a90535060006001846002620002e39190620008e2565b620002ef91906200092d565b90505b600181111562000399577f3031323334353637383961626364656600000000000000000000000000000000600f86166010811062000335576200033462000968565b5b1a60f81b8282815181106200034f576200034e62000968565b5b60200101907effffffffffffffffffffffffffffffffffffffffffffffffffffffffffffff1916908160001a905350600485901c945080620003919062000997565b9050620002f2565b5060008414620003e0576040517f08c379a0000000000000000000000000000000000000000000000000000000008152600401620003d79062000a26565b60405180910390fd5b8091505092915050565b6200048a8160405160240162000401919062000ac6565b6040516020818303038152906040527f41304fac000000000000000000000000000000000000000000000000000000007bffffffffffffffffffffffffffffffffffffffffffffffffffffffff19166020820180517bffffffffffffffffffffffffffffffffffffffffffffffffffffffff83818316178352505050506200048d60201b60201c565b50565b60008151905060006a636f6e736f6c652e6c6f679050602083016000808483855afa5050505050565b600080fd5b600073ffffffffffffffffffffffffffffffffffffffff82169050919050565b6000620004e882620004bb565b9050919050565b620004fa81620004db565b81146200050657600080fd5b50565b6000815190506200051a81620004ef565b92915050565b600060208284031215620005395762000538620004b6565b5b6000620005498482850162000509565b91505092915050565b600081519050919050565b7f4e487b7100000000000000000000000000000000000000000000000000000000600052604160045260246000fd5b7f4e487b7100000000000000000000000000000000000000000000000000000000600052602260045260246000fd5b60006002820490506001821680620005d457607f821691505b602082108103620005ea57620005e96200058c565b5b50919050565b60008190508160005260206000209050919050565b60006020601f8301049050919050565b600082821b905092915050565b600060088302620006547fffffffffffffffffffffffffffffffffffffffffffffffffffffffffffffffff8262000615565b62000660868362000615565b95508019841693508086168417925050509392505050565b6000819050919050565b6000819050919050565b6000620006ad620006a7620006a18462000678565b62000682565b62000678565b9050919050565b6000819050919050565b620006c9836200068c565b620006e1620006d882620006b4565b84845462000622565b825550505050565b600090565b620006f8620006e9565b62000705818484620006be565b505050565b5b818110156200072d5762000721600082620006ee565b6001810190506200070b565b5050565b601f8211156200077c576200074681620005f0565b620007518462000605565b8101602085101562000761578190505b62000779620007708562000605565b8301826200070a565b50505b505050565b600082821c905092915050565b6000620007a16000198460080262000781565b1980831691505092915050565b6000620007bc83836200078e565b9150826002028217905092915050565b620007d78262000552565b67ffffffffffffffff811115620007f357620007f26200055d565b5b620007ff8254620005bb565b6200080c82828562000731565b600060209050601f8311600181146200084457600084156200082f578287015190505b6200083b8582620007ae565b865550620008ab565b601f1984166200085486620005f0565b60005b828110156200087e5784890151825560018201915060208501945060208101905062000857565b868310156200089e57848901516200089a601f8916826200078e565b8355505b6001600288020188555050505b505050505050565b7f4e487b7100000000000000000000000000000000000000000000000000000000600052601160045260246000fd5b6000620008ef8262000678565b9150620008fc8362000678565b92508282026200090c8162000678565b91508282048414831517620009265762000925620008b3565b5b5092915050565b60006200093a8262000678565b9150620009478362000678565b9250828201905080821115620009625762000961620008b3565b5b92915050565b7f4e487b7100000000000000000000000000000000000000000000000000000000600052603260045260246000fd5b6000620009a48262000678565b915060008203620009ba57620009b9620008b3565b5b600182039050919050565b600082825260208201905092915050565b7f537472696e67733a20686578206c656e67746820696e73756666696369656e74600082015250565b600062000a0e602083620009c5565b915062000a1b82620009d6565b602082019050919050565b6000602082019050818103600083015262000a4181620009ff565b9050919050565b60005b8381101562000a6857808201518184015260208101905062000a4b565b60008484015250505050565b6000601f19601f8301169050919050565b600062000a928262000552565b62000a9e8185620009c5565b935062000ab081856020860162000a48565b62000abb8162000a74565b840191505092915050565b6000602082019050818103600083015262000ae2818462000a85565b905092915050565b612e098062000afa6000396000f3fe608060405234801561001057600080fd5b506004361061012c5760003560e01c806370a08231116100ad578063a41a016a11610071578063a41a016a1461030f578063a457c2d714610319578063a9059cbb14610349578063dcbdac3014610379578063dd62ed3e146103975761012c565b806370a082311461027b5780638456cb59146102ab5780638da5cb5b146102b55780638f84aa09146102d357806395d89b41146102f15761012c565b806332e43a11116100f457806332e43a11146101eb57806339509351146101f557806342966c68146102255780635c975abb146102415780636ecd23061461025f5761012c565b806306fdde0314610131578063095ea7b31461014f57806318160ddd1461017f57806323b872dd1461019d578063313ce567146101cd575b600080fd5b6101396103c7565b6040516101469190611e49565b60405180910390f35b61016960048036038101906101649190611f04565b610459565b6040516101769190611f5f565b60405180910390f35b61018761047c565b6040516101949190611f89565b60405180910390f35b6101b760048036038101906101b29190611fa4565b610486565b6040516101c49190611f5f565b60405180910390f35b6101d56104b5565b6040516101e29190612013565b60405180910390f35b6101f36104cc565b005b61020f600480360381019061020a9190611f04565b61075a565b60405161021c9190611f5f565b60405180910390f35b61023f600480360381019061023a919061202e565b610791565b005b610249610968565b6040516102569190611f5f565b60405180910390f35b61027960048036038101906102749190612087565b61097f565b005b610295600480360381019061029091906120b4565b610b59565b6040516102a29190611f89565b60405180910390f35b6102b3610ba1565b005b6102bd610d46565b6040516102ca91906120f0565b60405180910390f35b6102db610d6c565b6040516102e891906120f0565b60405180910390f35b6102f9610d96565b6040516103069190611e49565b60405180910390f35b610317610e28565b005b610333600480360381019061032e9190611f04565b610fce565b6040516103409190611f5f565b60405180910390f35b610363600480360381019061035e9190611f04565b611045565b6040516103709190611f5f565b60405180910390f35b610381611068565b60405161038e9190611f89565b60405180910390f35b6103b160048036038101906103ac919061210b565b611083565b6040516103be9190611f89565b60405180910390f35b6060600380546103d69061217a565b80601f01602080910402602001604051908101604052809291908181526020018280546104029061217a565b801561044f5780601f106104245761010080835404028352916020019161044f565b820191906000526020600020905b81548152906001019060200180831161043257829003601f168201915b5050505050905090565b6000806104646113df565b90506104718185856113e7565b600191505092915050565b6000600254905090565b6000806104916113df565b905061049e8582856115b0565b6104a985858561163c565b60019150509392505050565b6000600560159054906101000a900460ff16905090565b6105146104f03373ffffffffffffffffffffffffffffffffffffffff16601461110a565b604051602001610500919061220d565b604051602081830303815290604052611346565b6105ca6105a63073ffffffffffffffffffffffffffffffffffffffff16638f84aa096040518163ffffffff1660e01b8152600401602060405180830381865afa158015610565573d6000803e3d6000fd5b505050506040513d601f19601f820116820180604052508101906105899190612248565b73ffffffffffffffffffffffffffffffffffffffff16601461110a565b6040516020016105b6919061229b565b604051602081830303815290604052611346565b600560019054906101000a900473ffffffffffffffffffffffffffffffffffffffff1673ffffffffffffffffffffffffffffffffffffffff163373ffffffffffffffffffffffffffffffffffffffff161461065a576040517f08c379a000000000000000000000000000000000000000000000000000000000815260040161065190612333565b60405180910390fd5b6106a261067e3373ffffffffffffffffffffffffffffffffffffffff16601461110a565b60405160200161068e9190612379565b604051602081830303815290604052611346565b6107586107343073ffffffffffffffffffffffffffffffffffffffff16638f84aa096040518163ffffffff1660e01b8152600401602060405180830381865afa1580156106f3573d6000803e3d6000fd5b505050506040513d601f19601f820116820180604052508101906107179190612248565b73ffffffffffffffffffffffffffffffffffffffff16601461110a565b60405160200161074491906123c5565b604051602081830303815290604052611346565b565b6000806107656113df565b90506107868185856107778589611083565b610781919061241a565b6113e7565b600191505092915050565b6107d96107b53373ffffffffffffffffffffffffffffffffffffffff16601461110a565b6040516020016107c5919061220d565b604051602081830303815290604052611346565b61088f61086b3073ffffffffffffffffffffffffffffffffffffffff16638f84aa096040518163ffffffff1660e01b8152600401602060405180830381865afa15801561082a573d6000803e3d6000fd5b505050506040513d601f19601f8201168201806040525081019061084e9190612248565b73ffffffffffffffffffffffffffffffffffffffff16601461110a565b60405160200161087b919061229b565b604051602081830303815290604052611346565b600560019054906101000a900473ffffffffffffffffffffffffffffffffffffffff1673ffffffffffffffffffffffffffffffffffffffff163373ffffffffffffffffffffffffffffffffffffffff161461091f576040517f08c379a000000000000000000000000000000000000000000000000000000000815260040161091690612333565b60405180910390fd5b6109276118b2565b610965600560019054906101000a900473ffffffffffffffffffffffffffffffffffffffff16610955611068565b83610960919061244e565b6118fc565b50565b6000600560009054906101000a900460ff16905090565b6109c76109a33373ffffffffffffffffffffffffffffffffffffffff16601461110a565b6040516020016109b3919061220d565b604051602081830303815290604052611346565b610a7d610a593073ffffffffffffffffffffffffffffffffffffffff16638f84aa096040518163ffffffff1660e01b8152600401602060405180830381865afa158015610a18573d6000803e3d6000fd5b505050506040513d601f19601f82011682018060405250810190610a3c9190612248565b73ffffffffffffffffffffffffffffffffffffffff16601461110a565b604051602001610a69919061229b565b604051602081830303815290604052611346565b600560019054906101000a900473ffffffffffffffffffffffffffffffffffffffff1673ffffffffffffffffffffffffffffffffffffffff163373ffffffffffffffffffffffffffffffffffffffff1614610b0d576040517f08c379a0000000000000000000000000000000000000000000000000000000008152600401610b0490612333565b60405180910390fd5b610b156118b2565b610b56600560019054906101000a900473ffffffffffffffffffffffffffffffffffffffff16610b43611068565b8360ff16610b51919061244e565b611ac9565b50565b60008060008373ffffffffffffffffffffffffffffffffffffffff1673ffffffffffffffffffffffffffffffffffffffff168152602001908152602001600020549050919050565b610be9610bc53373ffffffffffffffffffffffffffffffffffffffff16601461110a565b604051602001610bd5919061220d565b604051602081830303815290604052611346565b610c9f610c7b3073ffffffffffffffffffffffffffffffffffffffff16638f84aa096040518163ffffffff1660e01b8152600401602060405180830381865afa158015610c3a573d6000803e3d6000fd5b505050506040513d601f19601f82011682018060405250810190610c5e9190612248565b73ffffffffffffffffffffffffffffffffffffffff16601461110a565b604051602001610c8b919061229b565b604051602081830303815290604052611346565b600560019054906101000a900473ffffffffffffffffffffffffffffffffffffffff1673ffffffffffffffffffffffffffffffffffffffff163373ffffffffffffffffffffffffffffffffffffffff1614610d2f576040517f08c379a0000000000000000000000000000000000000000000000000000000008152600401610d2690612333565b60405180910390fd5b610d37610968565b610d4457610d43611c1f565b5b565b600560019054906101000a900473ffffffffffffffffffffffffffffffffffffffff1681565b6000600560019054906101000a900473ffffffffffffffffffffffffffffffffffffffff16905090565b606060048054610da59061217a565b80601f0160208091040260200160405190810160405280929190818152602001828054610dd19061217a565b8015610e1e5780601f10610df357610100808354040283529160200191610e1e565b820191906000526020600020905b815481529060010190602001808311610e0157829003601f168201915b5050505050905090565b610e70610e4c3373ffffffffffffffffffffffffffffffffffffffff16601461110a565b604051602001610e5c919061220d565b604051602081830303815290604052611346565b610f26610f023073ffffffffffffffffffffffffffffffffffffffff16638f84aa096040518163ffffffff1660e01b8152600401602060405180830381865afa158015610ec1573d6000803e3d6000fd5b505050506040513d601f19601f82011682018060405250810190610ee59190612248565b73ffffffffffffffffffffffffffffffffffffffff16601461110a565b604051602001610f12919061229b565b604051602081830303815290604052611346565b600560019054906101000a900473ffffffffffffffffffffffffffffffffffffffff1673ffffffffffffffffffffffffffffffffffffffff163373ffffffffffffffffffffffffffffffffffffffff1614610fb6576040517f08c379a0000000000000000000000000000000000000000000000000000000008152600401610fad90612333565b60405180910390fd5b610fbe610968565b15610fcc57610fcb611c82565b5b565b600080610fd96113df565b90506000610fe78286611083565b90508381101561102c576040517f08c379a000000000000000000000000000000000000000000000000000000000815260040161102390612502565b60405180910390fd5b61103982868684036113e7565b60019250505092915050565b6000806110506113df565b905061105d81858561163c565b600191505092915050565b60006110726104b5565b600a61107e9190612655565b905090565b6000600160008473ffffffffffffffffffffffffffffffffffffffff1673ffffffffffffffffffffffffffffffffffffffff16815260200190815260200160002060008373ffffffffffffffffffffffffffffffffffffffff1673ffffffffffffffffffffffffffffffffffffffff16815260200190815260200160002054905092915050565b60606000600283600261111d919061244e565b611127919061241a565b67ffffffffffffffff8111156111405761113f6126a0565b5b6040519080825280601f01601f1916602001820160405280156111725781602001600182028036833780820191505090505b5090507f3000000000000000000000000000000000000000000000000000000000000000816000815181106111aa576111a96126cf565b5b60200101907effffffffffffffffffffffffffffffffffffffffffffffffffffffffffffff1916908160001a9053507f78000000000000000000000000000000000000000000000000000000000000008160018151811061120e5761120d6126cf565b5b60200101907effffffffffffffffffffffffffffffffffffffffffffffffffffffffffffff1916908160001a9053506000600184600261124e919061244e565b611258919061241a565b90505b60018111156112f8577f3031323334353637383961626364656600000000000000000000000000000000600f86166010811061129a576112996126cf565b5b1a60f81b8282815181106112b1576112b06126cf565b5b60200101907effffffffffffffffffffffffffffffffffffffffffffffffffffffffffffff1916908160001a905350600485901c9450806112f1906126fe565b905061125b565b506000841461133c576040517f08c379a000000000000000000000000000000000000000000000000000000000815260040161133390612773565b60405180910390fd5b8091505092915050565b6113dc8160405160240161135a9190611e49565b6040516020818303038152906040527f41304fac000000000000000000000000000000000000000000000000000000007bffffffffffffffffffffffffffffffffffffffffffffffffffffffff19166020820180517bffffffffffffffffffffffffffffffffffffffffffffffffffffffff8381831617835250505050611ce5565b50565b600033905090565b600073ffffffffffffffffffffffffffffffffffffffff168373ffffffffffffffffffffffffffffffffffffffff1603611456576040517f08c379a000000000000000000000000000000000000000000000000000000000815260040161144d90612805565b60405180910390fd5b600073ffffffffffffffffffffffffffffffffffffffff168273ffffffffffffffffffffffffffffffffffffffff16036114c5576040517f08c379a00000000000000000000000000000000000000000000000000000000081526004016114bc90612897565b60405180910390fd5b80600160008573ffffffffffffffffffffffffffffffffffffffff1673ffffffffffffffffffffffffffffffffffffffff16815260200190815260200160002060008473ffffffffffffffffffffffffffffffffffffffff1673ffffffffffffffffffffffffffffffffffffffff168152602001908152602001600020819055508173ffffffffffffffffffffffffffffffffffffffff168373ffffffffffffffffffffffffffffffffffffffff167f8c5be1e5ebec7d5bd14f71427d1e84f3dd0314c0f7b2291e5b200ac8c7c3b925836040516115a39190611f89565b60405180910390a3505050565b60006115bc8484611083565b90507fffffffffffffffffffffffffffffffffffffffffffffffffffffffffffffffff81146116365781811015611628576040517f08c379a000000000000000000000000000000000000000000000000000000000815260040161161f90612903565b60405180910390fd5b61163584848484036113e7565b5b50505050565b600073ffffffffffffffffffffffffffffffffffffffff168373ffffffffffffffffffffffffffffffffffffffff16036116ab576040517f08c379a00000000000000000000000000000000000000000000000000000000081526004016116a290612995565b60405180910390fd5b600073ffffffffffffffffffffffffffffffffffffffff168273ffffffffffffffffffffffffffffffffffffffff160361171a576040517f08c379a000000000000000000000000000000000000000000000000000000000815260040161171190612a27565b60405180910390fd5b611725838383611d0e565b60008060008573ffffffffffffffffffffffffffffffffffffffff1673ffffffffffffffffffffffffffffffffffffffff168152602001908152602001600020549050818110156117ab576040517f08c379a00000000000000000000000000000000000000000000000000000000081526004016117a290612ab9565b60405180910390fd5b8181036000808673ffffffffffffffffffffffffffffffffffffffff1673ffffffffffffffffffffffffffffffffffffffff16815260200190815260200160002081905550816000808573ffffffffffffffffffffffffffffffffffffffff1673ffffffffffffffffffffffffffffffffffffffff168152602001908152602001600020600082825401925050819055508273ffffffffffffffffffffffffffffffffffffffff168473ffffffffffffffffffffffffffffffffffffffff167fddf252ad1be2c89b69c2b068fc378daa952ba7f163c4a11628f55a4df523b3ef846040516118999190611f89565b60405180910390a36118ac848484611d66565b50505050565b6118ba610968565b156118fa576040517f08c379a00000000000000000000000000000000000000000000000000000000081526004016118f190612b25565b60405180910390fd5b565b600073ffffffffffffffffffffffffffffffffffffffff168273ffffffffffffffffffffffffffffffffffffffff160361196b576040517f08c379a000000000000000000000000000000000000000000000000000000000815260040161196290612bb7565b60405180910390fd5b61197782600083611d0e565b60008060008473ffffffffffffffffffffffffffffffffffffffff1673ffffffffffffffffffffffffffffffffffffffff168152602001908152602001600020549050818110156119fd576040517f08c379a00000000000000000000000000000000000000000000000000000000081526004016119f490612c49565b60405180910390fd5b8181036000808573ffffffffffffffffffffffffffffffffffffffff1673ffffffffffffffffffffffffffffffffffffffff1681526020019081526020016000208190555081600260008282540392505081905550600073ffffffffffffffffffffffffffffffffffffffff168373ffffffffffffffffffffffffffffffffffffffff167fddf252ad1be2c89b69c2b068fc378daa952ba7f163c4a11628f55a4df523b3ef84604051611ab09190611f89565b60405180910390a3611ac483600084611d66565b505050565b600073ffffffffffffffffffffffffffffffffffffffff168273ffffffffffffffffffffffffffffffffffffffff1603611b38576040517f08c379a0000000000000000000000000000000000000000000000000000000008152600401611b2f90612cb5565b60405180910390fd5b611b4460008383611d0e565b8060026000828254611b56919061241a565b92505081905550806000808473ffffffffffffffffffffffffffffffffffffffff1673ffffffffffffffffffffffffffffffffffffffff168152602001908152602001600020600082825401925050819055508173ffffffffffffffffffffffffffffffffffffffff16600073ffffffffffffffffffffffffffffffffffffffff167fddf252ad1be2c89b69c2b068fc378daa952ba7f163c4a11628f55a4df523b3ef83604051611c079190611f89565b60405180910390a3611c1b60008383611d66565b5050565b611c276118b2565b6001600560006101000a81548160ff0219169083151502179055507f62e78cea01bee320cd4e420270b5ea74000d11b0c9f74754ebdbfc544b05a258611c6b6113df565b604051611c7891906120f0565b60405180910390a1565b611c8a611d6b565b6000600560006101000a81548160ff0219169083151502179055507f5db9ee0a495bf2e6ff9c91a7834c1ba4fdd244a5e8aa4e537bd38aeae4b073aa611cce6113df565b604051611cdb91906120f0565b60405180910390a1565b60008151905060006a636f6e736f6c652e6c6f679050602083016000808483855afa5050505050565b611d19838383611db4565b611d21610968565b15611d61576040517f08c379a0000000000000000000000000000000000000000000000000000000008152600401611d5890612d47565b60405180910390fd5b505050565b505050565b611d73610968565b611db2576040517f08c379a0000000000000000000000000000000000000000000000000000000008152600401611da990612db3565b60405180910390fd5b565b505050565b600081519050919050565b600082825260208201905092915050565b60005b83811015611df3578082015181840152602081019050611dd8565b60008484015250505050565b6000601f19601f8301169050919050565b6000611e1b82611db9565b611e258185611dc4565b9350611e35818560208601611dd5565b611e3e81611dff565b840191505092915050565b60006020820190508181036000830152611e638184611e10565b905092915050565b600080fd5b600073ffffffffffffffffffffffffffffffffffffffff82169050919050565b6000611e9b82611e70565b9050919050565b611eab81611e90565b8114611eb657600080fd5b50565b600081359050611ec881611ea2565b92915050565b6000819050919050565b611ee181611ece565b8114611eec57600080fd5b50565b600081359050611efe81611ed8565b92915050565b60008060408385031215611f1b57611f1a611e6b565b5b6000611f2985828601611eb9565b9250506020611f3a85828601611eef565b9150509250929050565b60008115159050919050565b611f5981611f44565b82525050565b6000602082019050611f746000830184611f50565b92915050565b611f8381611ece565b82525050565b6000602082019050611f9e6000830184611f7a565b92915050565b600080600060608486031215611fbd57611fbc611e6b565b5b6000611fcb86828701611eb9565b9350506020611fdc86828701611eb9565b9250506040611fed86828701611eef565b9150509250925092565b600060ff82169050919050565b61200d81611ff7565b82525050565b60006020820190506120286000830184612004565b92915050565b60006020828403121561204457612043611e6b565b5b600061205284828501611eef565b91505092915050565b61206481611ff7565b811461206f57600080fd5b50565b6000813590506120818161205b565b92915050565b60006020828403121561209d5761209c611e6b565b5b60006120ab84828501612072565b91505092915050565b6000602082840312156120ca576120c9611e6b565b5b60006120d884828501611eb9565b91505092915050565b6120ea81611e90565b82525050565b600060208201905061210560008301846120e1565b92915050565b6000806040838503121561212257612121611e6b565b5b600061213085828601611eb9565b925050602061214185828601611eb9565b9150509250929050565b7f4e487b7100000000000000000000000000000000000000000000000000000000600052602260045260246000fd5b6000600282049050600182168061219257607f821691505b6020821081036121a5576121a461214b565b5b50919050565b7f4f4f206d73672e73656e6465723a200000000000000000000000000000000000815250565b600081905092915050565b60006121e782611db9565b6121f181856121d1565b9350612201818560208601611dd5565b80840191505092915050565b6000612218826121ab565b600f8201915061222882846121dc565b915081905092915050565b60008151905061224281611ea2565b92915050565b60006020828403121561225e5761225d611e6b565b5b600061226c84828501612233565b91505092915050565b7f4f4f206f776e65723a2000000000000000000000000000000000000000000000815250565b60006122a682612275565b600a820191506122b682846121dc565b915081905092915050565b7f4f6e6c7920746865206f776e65722063616e2063616c6c20746869732066756e60008201527f6374696f6e000000000000000000000000000000000000000000000000000000602082015250565b600061231d602583611dc4565b9150612328826122c1565b604082019050919050565b6000602082019050818103600083015261234c81612310565b9050919050565b7f4444206d73672e73656e6465723a200000000000000000000000000000000000815250565b600061238482612353565b600f8201915061239482846121dc565b915081905092915050565b7f4444206f776e65723a2000000000000000000000000000000000000000000000815250565b60006123d08261239f565b600a820191506123e082846121dc565b915081905092915050565b7f4e487b7100000000000000000000000000000000000000000000000000000000600052601160045260246000fd5b600061242582611ece565b915061243083611ece565b9250828201905080821115612448576124476123eb565b5b92915050565b600061245982611ece565b915061246483611ece565b925082820261247281611ece565b91508282048414831517612489576124886123eb565b5b5092915050565b7f45524332303a2064656372656173656420616c6c6f77616e63652062656c6f7760008201527f207a65726f000000000000000000000000000000000000000000000000000000602082015250565b60006124ec602583611dc4565b91506124f782612490565b604082019050919050565b6000602082019050818103600083015261251b816124df565b9050919050565b60008160011c9050919050565b6000808291508390505b600185111561257957808604811115612555576125546123eb565b5b60018516156125645780820291505b808102905061257285612522565b9450612539565b94509492505050565b600082612592576001905061264e565b816125a0576000905061264e565b81600181146125b657600281146125c0576125ef565b600191505061264e565b60ff8411156125d2576125d16123eb565b5b8360020a9150848211156125e9576125e86123eb565b5b5061264e565b5060208310610133831016604e8410600b84101617156126245782820a90508381111561261f5761261e6123eb565b5b61264e565b612631848484600161252f565b92509050818404811115612648576126476123eb565b5b81810290505b9392505050565b600061266082611ece565b915061266b83611ff7565b92506126987fffffffffffffffffffffffffffffffffffffffffffffffffffffffffffffffff8484612582565b905092915050565b7f4e487b7100000000000000000000000000000000000000000000000000000000600052604160045260246000fd5b7f4e487b7100000000000000000000000000000000000000000000000000000000600052603260045260246000fd5b600061270982611ece565b91506000820361271c5761271b6123eb565b5b600182039050919050565b7f537472696e67733a20686578206c656e67746820696e73756666696369656e74600082015250565b600061275d602083611dc4565b915061276882612727565b602082019050919050565b6000602082019050818103600083015261278c81612750565b9050919050565b7f45524332303a20617070726f76652066726f6d20746865207a65726f2061646460008201527f7265737300000000000000000000000000000000000000000000000000000000602082015250565b60006127ef602483611dc4565b91506127fa82612793565b604082019050919050565b6000602082019050818103600083015261281e816127e2565b9050919050565b7f45524332303a20617070726f766520746f20746865207a65726f20616464726560008201527f7373000000000000000000000000000000000000000000000000000000000000602082015250565b6000612881602283611dc4565b915061288c82612825565b604082019050919050565b600060208201905081810360008301526128b081612874565b9050919050565b7f45524332303a20696e73756666696369656e7420616c6c6f77616e6365000000600082015250565b60006128ed601d83611dc4565b91506128f8826128b7565b602082019050919050565b6000602082019050818103600083015261291c816128e0565b9050919050565b7f45524332303a207472616e736665722066726f6d20746865207a65726f20616460008201527f6472657373000000000000000000000000000000000000000000000000000000602082015250565b600061297f602583611dc4565b915061298a82612923565b604082019050919050565b600060208201905081810360008301526129ae81612972565b9050919050565b7f45524332303a207472616e7366657220746f20746865207a65726f206164647260008201527f6573730000000000000000000000000000000000000000000000000000000000602082015250565b6000612a11602383611dc4565b9150612a1c826129b5565b604082019050919050565b60006020820190508181036000830152612a4081612a04565b9050919050565b7f45524332303a207472616e7366657220616d6f756e742065786365656473206260008201527f616c616e63650000000000000000000000000000000000000000000000000000602082015250565b6000612aa3602683611dc4565b9150612aae82612a47565b604082019050919050565b60006020820190508181036000830152612ad281612a96565b9050919050565b7f5061757361626c653a2070617573656400000000000000000000000000000000600082015250565b6000612b0f601083611dc4565b9150612b1a82612ad9565b602082019050919050565b60006020820190508181036000830152612b3e81612b02565b9050919050565b7f45524332303a206275726e2066726f6d20746865207a65726f2061646472657360008201527f7300000000000000000000000000000000000000000000000000000000000000602082015250565b6000612ba1602183611dc4565b9150612bac82612b45565b604082019050919050565b60006020820190508181036000830152612bd081612b94565b9050919050565b7f45524332303a206275726e20616d6f756e7420657863656564732062616c616e60008201527f6365000000000000000000000000000000000000000000000000000000000000602082015250565b6000612c33602283611dc4565b9150612c3e82612bd7565b604082019050919050565b60006020820190508181036000830152612c6281612c26565b9050919050565b7f45524332303a206d696e7420746f20746865207a65726f206164647265737300600082015250565b6000612c9f601f83611dc4565b9150612caa82612c69565b602082019050919050565b60006020820190508181036000830152612cce81612c92565b9050919050565b7f45524332305061757361626c653a20746f6b656e207472616e7366657220776860008201527f696c652070617573656400000000000000000000000000000000000000000000602082015250565b6000612d31602a83611dc4565b9150612d3c82612cd5565b604082019050919050565b60006020820190508181036000830152612d6081612d24565b9050919050565b7f5061757361626c653a206e6f7420706175736564000000000000000000000000600082015250565b6000612d9d601483611dc4565b9150612da882612d67565b602082019050919050565b60006020820190508181036000830152612dcc81612d90565b905091905056fea2646970667358221220652914d79688eb28273208f87c589873ec3de1ad2a61e479cfa3e85a93cfcae364736f6c63430008110033a26469706673582212201a53a177744c74a0cc6091d6304209a617d0f77753c03a3f5d10710fcc7d681264736f6c63430008110033",
			"opcodes": "PUSH1 0x80 PUSH1 0x40 MSTORE CALLVALUE DUP1 ISZERO PUSH2 0x10 JUMPI PUSH1 0x0 DUP1 REVERT JUMPDEST POP PUSH2 0x4B4D DUP1 PUSH2 0x20 PUSH1 0x0 CODECOPY PUSH1 0x0 RETURN INVALID PUSH1 0x80 PUSH1 0x40 MSTORE CALLVALUE DUP1 ISZERO PUSH3 0x11 JUMPI PUSH1 0x0 DUP1 REVERT JUMPDEST POP PUSH1 0x4 CALLDATASIZE LT PUSH3 0x5E JUMPI PUSH1 0x0 CALLDATALOAD PUSH1 0xE0 SHR DUP1 PUSH4 0x6DE293A EQ PUSH3 0x63 JUMPI DUP1 PUSH4 0x6331E7D4 EQ PUSH3 0x6F JUMPI DUP1 PUSH4 0x7FEA0D4B EQ PUSH3 0x7B JUMPI DUP1 PUSH4 0xDCB57DC0 EQ PUSH3 0x87 JUMPI DUP1 PUSH4 0xF6341817 EQ PUSH3 0xA9 JUMPI JUMPDEST PUSH1 0x0 DUP1 REVERT JUMPDEST PUSH3 0x6D PUSH3 0xB5 JUMP JUMPDEST STOP JUMPDEST PUSH3 0x79 PUSH3 0x1C9 JUMP JUMPDEST STOP JUMPDEST PUSH3 0x85 PUSH3 0x1CB JUMP JUMPDEST STOP JUMPDEST PUSH3 0x91 PUSH3 0x2C7 JUMP JUMPDEST PUSH1 0x40 MLOAD PUSH3 0xA0 SWAP2 SWAP1 PUSH3 0x9E8 JUMP JUMPDEST PUSH1 0x40 MLOAD DUP1 SWAP2 SUB SWAP1 RETURN JUMPDEST PUSH3 0xB3 PUSH3 0x2EB JUMP JUMPDEST STOP JUMPDEST PUSH20 0x0 PUSH4 0xABCD7960 PUSH1 0x0 DUP1 SLOAD SWAP1 PUSH2 0x100 EXP SWAP1 DIV PUSH20 0xFFFFFFFFFFFFFFFFFFFFFFFFFFFFFFFFFFFFFFFF AND PUSH20 0xFFFFFFFFFFFFFFFFFFFFFFFFFFFFFFFFFFFFFFFF AND PUSH4 0x18160DDD PUSH1 0x40 MLOAD DUP2 PUSH4 0xFFFFFFFF AND PUSH1 0xE0 SHL DUP2 MSTORE PUSH1 0x4 ADD PUSH1 0x20 PUSH1 0x40 MLOAD DUP1 DUP4 SUB DUP2 DUP7 GAS STATICCALL ISZERO DUP1 ISZERO PUSH3 0x13B JUMPI RETURNDATASIZE PUSH1 0x0 DUP1 RETURNDATACOPY RETURNDATASIZE PUSH1 0x0 REVERT JUMPDEST POP POP POP POP PUSH1 0x40 MLOAD RETURNDATASIZE PUSH1 0x1F NOT PUSH1 0x1F DUP3 ADD AND DUP3 ADD DUP1 PUSH1 0x40 MSTORE POP DUP2 ADD SWAP1 PUSH3 0x161 SWAP2 SWAP1 PUSH3 0xA45 JUMP JUMPDEST PUSH1 0x0 PUSH1 0x40 MLOAD DUP4 PUSH4 0xFFFFFFFF AND PUSH1 0xE0 SHL DUP2 MSTORE PUSH1 0x4 ADD PUSH3 0x182 SWAP3 SWAP2 SWAP1 PUSH3 0xB52 JUMP JUMPDEST PUSH1 0x20 PUSH1 0x40 MLOAD DUP1 DUP4 SUB DUP2 DUP7 GAS DELEGATECALL ISZERO DUP1 ISZERO PUSH3 0x1A0 JUMPI RETURNDATASIZE PUSH1 0x0 DUP1 RETURNDATACOPY RETURNDATASIZE PUSH1 0x0 REVERT JUMPDEST POP POP POP POP PUSH1 0x40 MLOAD RETURNDATASIZE PUSH1 0x1F NOT PUSH1 0x1F DUP3 ADD AND DUP3 ADD DUP1 PUSH1 0x40 MSTORE POP DUP2 ADD SWAP1 PUSH3 0x1C6 SWAP2 SWAP1 PUSH3 0xBD1 JUMP JUMPDEST POP JUMP JUMPDEST JUMP JUMPDEST CALLER PUSH1 0x40 MLOAD PUSH3 0x1DA SWAP1 PUSH3 0x94F JUMP JUMPDEST PUSH3 0x1E6 SWAP2 SWAP1 PUSH3 0xC28 JUMP JUMPDEST PUSH1 0x40 MLOAD DUP1 SWAP2 SUB SWAP1 PUSH1 0x0 CREATE DUP1 ISZERO DUP1 ISZERO PUSH3 0x203 JUMPI RETURNDATASIZE PUSH1 0x0 DUP1 RETURNDATACOPY RETURNDATASIZE PUSH1 0x0 REVERT JUMPDEST POP PUSH1 0x0 DUP1 PUSH2 0x100 EXP DUP2 SLOAD DUP2 PUSH20 0xFFFFFFFFFFFFFFFFFFFFFFFFFFFFFFFFFFFFFFFF MUL NOT AND SWAP1 DUP4 PUSH20 0xFFFFFFFFFFFFFFFFFFFFFFFFFFFFFFFFFFFFFFFF AND MUL OR SWAP1 SSTORE POP PUSH1 0x0 DUP1 SLOAD SWAP1 PUSH2 0x100 EXP SWAP1 DIV PUSH20 0xFFFFFFFFFFFFFFFFFFFFFFFFFFFFFFFFFFFFFFFF AND PUSH20 0xFFFFFFFFFFFFFFFFFFFFFFFFFFFFFFFFFFFFFFFF AND PUSH4 0x32E43A11 PUSH1 0x40 MLOAD DUP2 PUSH4 0xFFFFFFFF AND PUSH1 0xE0 SHL DUP2 MSTORE PUSH1 0x4 ADD PUSH1 0x0 PUSH1 0x40 MLOAD DUP1 DUP4 SUB DUP2 PUSH1 0x0 DUP8 DUP1 EXTCODESIZE ISZERO DUP1 ISZERO PUSH3 0x2AC JUMPI PUSH1 0x0 DUP1 REVERT JUMPDEST POP GAS CALL ISZERO DUP1 ISZERO PUSH3 0x2C1 JUMPI RETURNDATASIZE PUSH1 0x0 DUP1 RETURNDATACOPY RETURNDATASIZE PUSH1 0x0 REVERT JUMPDEST POP POP POP POP JUMP JUMPDEST PUSH1 0x0 DUP1 SLOAD SWAP1 PUSH2 0x100 EXP SWAP1 DIV PUSH20 0xFFFFFFFFFFFFFFFFFFFFFFFFFFFFFFFFFFFFFFFF AND DUP2 JUMP JUMPDEST PUSH3 0x318 PUSH3 0x312 CALLER PUSH20 0xFFFFFFFFFFFFFFFFFFFFFFFFFFFFFFFFFFFFFFFF AND PUSH1 0x14 PUSH3 0x62E JUMP JUMPDEST PUSH3 0x889 JUMP JUMPDEST PUSH3 0x3D6 PUSH3 0x3D0 PUSH1 0x0 DUP1 SLOAD SWAP1 PUSH2 0x100 EXP SWAP1 DIV PUSH20 0xFFFFFFFFFFFFFFFFFFFFFFFFFFFFFFFFFFFFFFFF AND PUSH20 0xFFFFFFFFFFFFFFFFFFFFFFFFFFFFFFFFFFFFFFFF AND PUSH4 0x8F84AA09 PUSH1 0x40 MLOAD DUP2 PUSH4 0xFFFFFFFF AND PUSH1 0xE0 SHL DUP2 MSTORE PUSH1 0x4 ADD PUSH1 0x20 PUSH1 0x40 MLOAD DUP1 DUP4 SUB DUP2 DUP7 GAS STATICCALL ISZERO DUP1 ISZERO PUSH3 0x38C JUMPI RETURNDATASIZE PUSH1 0x0 DUP1 RETURNDATACOPY RETURNDATASIZE PUSH1 0x0 REVERT JUMPDEST POP POP POP POP PUSH1 0x40 MLOAD RETURNDATASIZE PUSH1 0x1F NOT PUSH1 0x1F DUP3 ADD AND DUP3 ADD DUP1 PUSH1 0x40 MSTORE POP DUP2 ADD SWAP1 PUSH3 0x3B2 SWAP2 SWAP1 PUSH3 0xC76 JUMP JUMPDEST PUSH20 0xFFFFFFFFFFFFFFFFFFFFFFFFFFFFFFFFFFFFFFFF AND PUSH1 0x14 PUSH3 0x62E JUMP JUMPDEST PUSH3 0x889 JUMP JUMPDEST PUSH1 0x0 PUSH1 0x1 SWAP1 POP PUSH1 0x0 DUP1 SLOAD SWAP1 PUSH2 0x100 EXP SWAP1 DIV PUSH20 0xFFFFFFFFFFFFFFFFFFFFFFFFFFFFFFFFFFFFFFFF AND PUSH20 0xFFFFFFFFFFFFFFFFFFFFFFFFFFFFFFFFFFFFFFFF AND PUSH4 0x6ECD2306 DUP3 PUSH1 0x40 MLOAD DUP3 PUSH4 0xFFFFFFFF AND PUSH1 0xE0 SHL DUP2 MSTORE PUSH1 0x4 ADD PUSH3 0x437 SWAP2 SWAP1 PUSH3 0xCC6 JUMP JUMPDEST PUSH1 0x0 PUSH1 0x40 MLOAD DUP1 DUP4 SUB DUP2 PUSH1 0x0 DUP8 DUP1 EXTCODESIZE ISZERO DUP1 ISZERO PUSH3 0x452 JUMPI PUSH1 0x0 DUP1 REVERT JUMPDEST POP GAS CALL ISZERO DUP1 ISZERO PUSH3 0x467 JUMPI RETURNDATASIZE PUSH1 0x0 DUP1 RETURNDATACOPY RETURNDATASIZE PUSH1 0x0 REVERT JUMPDEST POP POP POP POP PUSH20 0x0 PUSH4 0xABCD7960 PUSH1 0x0 DUP1 SLOAD SWAP1 PUSH2 0x100 EXP SWAP1 DIV PUSH20 0xFFFFFFFFFFFFFFFFFFFFFFFFFFFFFFFFFFFFFFFF AND PUSH20 0xFFFFFFFFFFFFFFFFFFFFFFFFFFFFFFFFFFFFFFFF AND PUSH4 0x18160DDD PUSH1 0x40 MLOAD DUP2 PUSH4 0xFFFFFFFF AND PUSH1 0xE0 SHL DUP2 MSTORE PUSH1 0x4 ADD PUSH1 0x20 PUSH1 0x40 MLOAD DUP1 DUP4 SUB DUP2 DUP7 GAS STATICCALL ISZERO DUP1 ISZERO PUSH3 0x4F1 JUMPI RETURNDATASIZE PUSH1 0x0 DUP1 RETURNDATACOPY RETURNDATASIZE PUSH1 0x0 REVERT JUMPDEST POP POP POP POP PUSH1 0x40 MLOAD RETURNDATASIZE PUSH1 0x1F NOT PUSH1 0x1F DUP3 ADD AND DUP3 ADD DUP1 PUSH1 0x40 MSTORE POP DUP2 ADD SWAP1 PUSH3 0x517 SWAP2 SWAP1 PUSH3 0xA45 JUMP JUMPDEST PUSH1 0x0 DUP1 SLOAD SWAP1 PUSH2 0x100 EXP SWAP1 DIV PUSH20 0xFFFFFFFFFFFFFFFFFFFFFFFFFFFFFFFFFFFFFFFF AND PUSH20 0xFFFFFFFFFFFFFFFFFFFFFFFFFFFFFFFFFFFFFFFF AND PUSH4 0x313CE567 PUSH1 0x40 MLOAD DUP2 PUSH4 0xFFFFFFFF AND PUSH1 0xE0 SHL DUP2 MSTORE PUSH1 0x4 ADD PUSH1 0x20 PUSH1 0x40 MLOAD DUP1 DUP4 SUB DUP2 DUP7 GAS STATICCALL ISZERO DUP1 ISZERO PUSH3 0x583 JUMPI RETURNDATASIZE PUSH1 0x0 DUP1 RETURNDATACOPY RETURNDATASIZE PUSH1 0x0 REVERT JUMPDEST POP POP POP POP PUSH1 0x40 MLOAD RETURNDATASIZE PUSH1 0x1F NOT PUSH1 0x1F DUP3 ADD AND DUP3 ADD DUP1 PUSH1 0x40 MSTORE POP DUP2 ADD SWAP1 PUSH3 0x5A9 SWAP2 SWAP1 PUSH3 0xD14 JUMP JUMPDEST PUSH1 0xA PUSH3 0x5B7 SWAP2 SWAP1 PUSH3 0xEC9 JUMP JUMPDEST DUP5 PUSH1 0xFF AND PUSH3 0x5C7 SWAP2 SWAP1 PUSH3 0xF1A JUMP JUMPDEST PUSH1 0x40 MLOAD DUP4 PUSH4 0xFFFFFFFF AND PUSH1 0xE0 SHL DUP2 MSTORE PUSH1 0x4 ADD PUSH3 0x5E6 SWAP3 SWAP2 SWAP1 PUSH3 0xFDB JUMP JUMPDEST PUSH1 0x20 PUSH1 0x40 MLOAD DUP1 DUP4 SUB DUP2 DUP7 GAS DELEGATECALL ISZERO DUP1 ISZERO PUSH3 0x604 JUMPI RETURNDATASIZE PUSH1 0x0 DUP1 RETURNDATACOPY RETURNDATASIZE PUSH1 0x0 REVERT JUMPDEST POP POP POP POP PUSH1 0x40 MLOAD RETURNDATASIZE PUSH1 0x1F NOT PUSH1 0x1F DUP3 ADD AND DUP3 ADD DUP1 PUSH1 0x40 MSTORE POP DUP2 ADD SWAP1 PUSH3 0x62A SWAP2 SWAP1 PUSH3 0xBD1 JUMP JUMPDEST POP POP JUMP JUMPDEST PUSH1 0x60 PUSH1 0x0 PUSH1 0x2 DUP4 PUSH1 0x2 PUSH3 0x643 SWAP2 SWAP1 PUSH3 0xF1A JUMP JUMPDEST PUSH3 0x64F SWAP2 SWAP1 PUSH3 0x101D JUMP JUMPDEST PUSH8 0xFFFFFFFFFFFFFFFF DUP2 GT ISZERO PUSH3 0x66B JUMPI PUSH3 0x66A PUSH3 0x1058 JUMP JUMPDEST JUMPDEST PUSH1 0x40 MLOAD SWAP1 DUP1 DUP3 MSTORE DUP1 PUSH1 0x1F ADD PUSH1 0x1F NOT AND PUSH1 0x20 ADD DUP3 ADD PUSH1 0x40 MSTORE DUP1 ISZERO PUSH3 0x69E JUMPI DUP2 PUSH1 0x20 ADD PUSH1 0x1 DUP3 MUL DUP1 CALLDATASIZE DUP4 CALLDATACOPY DUP1 DUP3 ADD SWAP2 POP POP SWAP1 POP JUMPDEST POP SWAP1 POP PUSH32 0x3000000000000000000000000000000000000000000000000000000000000000 DUP2 PUSH1 0x0 DUP2 MLOAD DUP2 LT PUSH3 0x6D9 JUMPI PUSH3 0x6D8 PUSH3 0x1087 JUMP JUMPDEST JUMPDEST PUSH1 0x20 ADD ADD SWAP1 PUSH31 0xFFFFFFFFFFFFFFFFFFFFFFFFFFFFFFFFFFFFFFFFFFFFFFFFFFFFFFFFFFFFFF NOT AND SWAP1 DUP2 PUSH1 0x0 BYTE SWAP1 MSTORE8 POP PUSH32 0x7800000000000000000000000000000000000000000000000000000000000000 DUP2 PUSH1 0x1 DUP2 MLOAD DUP2 LT PUSH3 0x740 JUMPI PUSH3 0x73F PUSH3 0x1087 JUMP JUMPDEST JUMPDEST PUSH1 0x20 ADD ADD SWAP1 PUSH31 0xFFFFFFFFFFFFFFFFFFFFFFFFFFFFFFFFFFFFFFFFFFFFFFFFFFFFFFFFFFFFFF NOT AND SWAP1 DUP2 PUSH1 0x0 BYTE SWAP1 MSTORE8 POP PUSH1 0x0 PUSH1 0x1 DUP5 PUSH1 0x2 PUSH3 0x782 SWAP2 SWAP1 PUSH3 0xF1A JUMP JUMPDEST PUSH3 0x78E SWAP2 SWAP1 PUSH3 0x101D JUMP JUMPDEST SWAP1 POP JUMPDEST PUSH1 0x1 DUP2 GT ISZERO PUSH3 0x838 JUMPI PUSH32 0x3031323334353637383961626364656600000000000000000000000000000000 PUSH1 0xF DUP7 AND PUSH1 0x10 DUP2 LT PUSH3 0x7D4 JUMPI PUSH3 0x7D3 PUSH3 0x1087 JUMP JUMPDEST JUMPDEST BYTE PUSH1 0xF8 SHL DUP3 DUP3 DUP2 MLOAD DUP2 LT PUSH3 0x7EE JUMPI PUSH3 0x7ED PUSH3 0x1087 JUMP JUMPDEST JUMPDEST PUSH1 0x20 ADD ADD SWAP1 PUSH31 0xFFFFFFFFFFFFFFFFFFFFFFFFFFFFFFFFFFFFFFFFFFFFFFFFFFFFFFFFFFFFFF NOT AND SWAP1 DUP2 PUSH1 0x0 BYTE SWAP1 MSTORE8 POP PUSH1 0x4 DUP6 SWAP1 SHR SWAP5 POP DUP1 PUSH3 0x830 SWAP1 PUSH3 0x10B6 JUMP JUMPDEST SWAP1 POP PUSH3 0x791 JUMP JUMPDEST POP PUSH1 0x0 DUP5 EQ PUSH3 0x87F JUMPI PUSH1 0x40 MLOAD PUSH32 0x8C379A000000000000000000000000000000000000000000000000000000000 DUP2 MSTORE PUSH1 0x4 ADD PUSH3 0x876 SWAP1 PUSH3 0x1145 JUMP JUMPDEST PUSH1 0x40 MLOAD DUP1 SWAP2 SUB SWAP1 REVERT JUMPDEST DUP1 SWAP2 POP POP SWAP3 SWAP2 POP POP JUMP JUMPDEST PUSH3 0x923 DUP2 PUSH1 0x40 MLOAD PUSH1 0x24 ADD PUSH3 0x8A0 SWAP2 SWAP1 PUSH3 0x11F0 JUMP JUMPDEST PUSH1 0x40 MLOAD PUSH1 0x20 DUP2 DUP4 SUB SUB DUP2 MSTORE SWAP1 PUSH1 0x40 MSTORE PUSH32 0x41304FAC00000000000000000000000000000000000000000000000000000000 PUSH28 0xFFFFFFFFFFFFFFFFFFFFFFFFFFFFFFFFFFFFFFFFFFFFFFFFFFFFFFFF NOT AND PUSH1 0x20 DUP3 ADD DUP1 MLOAD PUSH28 0xFFFFFFFFFFFFFFFFFFFFFFFFFFFFFFFFFFFFFFFFFFFFFFFFFFFFFFFF DUP4 DUP2 DUP4 AND OR DUP4 MSTORE POP POP POP POP PUSH3 0x926 JUMP JUMPDEST POP JUMP JUMPDEST PUSH1 0x0 DUP2 MLOAD SWAP1 POP PUSH1 0x0 PUSH11 0x636F6E736F6C652E6C6F67 SWAP1 POP PUSH1 0x20 DUP4 ADD PUSH1 0x0 DUP1 DUP5 DUP4 DUP6 GAS STATICCALL POP POP POP POP POP JUMP JUMPDEST PUSH2 0x3903 DUP1 PUSH3 0x1215 DUP4 CODECOPY ADD SWAP1 JUMP JUMPDEST PUSH1 0x0 PUSH20 0xFFFFFFFFFFFFFFFFFFFFFFFFFFFFFFFFFFFFFFFF DUP3 AND SWAP1 POP SWAP2 SWAP1 POP JUMP JUMPDEST PUSH1 0x0 DUP2 SWAP1 POP SWAP2 SWAP1 POP JUMP JUMPDEST PUSH1 0x0 PUSH3 0x9A8 PUSH3 0x9A2 PUSH3 0x99C DUP5 PUSH3 0x95D JUMP JUMPDEST PUSH3 0x97D JUMP JUMPDEST PUSH3 0x95D JUMP JUMPDEST SWAP1 POP SWAP2 SWAP1 POP JUMP JUMPDEST PUSH1 0x0 PUSH3 0x9BC DUP3 PUSH3 0x987 JUMP JUMPDEST SWAP1 POP SWAP2 SWAP1 POP JUMP JUMPDEST PUSH1 0x0 PUSH3 0x9D0 DUP3 PUSH3 0x9AF JUMP JUMPDEST SWAP1 POP SWAP2 SWAP1 POP JUMP JUMPDEST PUSH3 0x9E2 DUP2 PUSH3 0x9C3 JUMP JUMPDEST DUP3 MSTORE POP POP JUMP JUMPDEST PUSH1 0x0 PUSH1 0x20 DUP3 ADD SWAP1 POP PUSH3 0x9FF PUSH1 0x0 DUP4 ADD DUP5 PUSH3 0x9D7 JUMP JUMPDEST SWAP3 SWAP2 POP POP JUMP JUMPDEST PUSH1 0x0 DUP1 REVERT JUMPDEST PUSH1 0x0 DUP2 SWAP1 POP SWAP2 SWAP1 POP JUMP JUMPDEST PUSH3 0xA1F DUP2 PUSH3 0xA0A JUMP JUMPDEST DUP2 EQ PUSH3 0xA2B JUMPI PUSH1 0x0 DUP1 REVERT JUMPDEST POP JUMP JUMPDEST PUSH1 0x0 DUP2 MLOAD SWAP1 POP PUSH3 0xA3F DUP2 PUSH3 0xA14 JUMP JUMPDEST SWAP3 SWAP2 POP POP JUMP JUMPDEST PUSH1 0x0 PUSH1 0x20 DUP3 DUP5 SUB SLT ISZERO PUSH3 0xA5E JUMPI PUSH3 0xA5D PUSH3 0xA05 JUMP JUMPDEST JUMPDEST PUSH1 0x0 PUSH3 0xA6E DUP5 DUP3 DUP6 ADD PUSH3 0xA2E JUMP JUMPDEST SWAP2 POP POP SWAP3 SWAP2 POP POP JUMP JUMPDEST PUSH3 0xA82 DUP2 PUSH3 0xA0A JUMP JUMPDEST DUP3 MSTORE POP POP JUMP JUMPDEST PUSH1 0x0 DUP2 SWAP1 POP SWAP2 SWAP1 POP JUMP JUMPDEST PUSH1 0x0 PUSH3 0xAB3 PUSH3 0xAAD PUSH3 0xAA7 DUP5 PUSH3 0xA88 JUMP JUMPDEST PUSH3 0x97D JUMP JUMPDEST PUSH3 0xA0A JUMP JUMPDEST SWAP1 POP SWAP2 SWAP1 POP JUMP JUMPDEST PUSH3 0xAC5 DUP2 PUSH3 0xA92 JUMP JUMPDEST DUP3 MSTORE POP POP JUMP JUMPDEST PUSH1 0x0 DUP3 DUP3 MSTORE PUSH1 0x20 DUP3 ADD SWAP1 POP SWAP3 SWAP2 POP POP JUMP JUMPDEST PUSH32 0x537570706C792073686F756C64206265207A65726F207768656E20746F6B656E PUSH1 0x0 DUP3 ADD MSTORE PUSH32 0x20696E7469616C6C792063726561746564000000000000000000000000000000 PUSH1 0x20 DUP3 ADD MSTORE POP JUMP JUMPDEST PUSH1 0x0 PUSH3 0xB3A PUSH1 0x31 DUP4 PUSH3 0xACB JUMP JUMPDEST SWAP2 POP PUSH3 0xB47 DUP3 PUSH3 0xADC JUMP JUMPDEST PUSH1 0x40 DUP3 ADD SWAP1 POP SWAP2 SWAP1 POP JUMP JUMPDEST PUSH1 0x0 PUSH1 0x60 DUP3 ADD SWAP1 POP PUSH3 0xB69 PUSH1 0x0 DUP4 ADD DUP6 PUSH3 0xA77 JUMP JUMPDEST PUSH3 0xB78 PUSH1 0x20 DUP4 ADD DUP5 PUSH3 0xABA JUMP JUMPDEST DUP2 DUP2 SUB PUSH1 0x40 DUP4 ADD MSTORE PUSH3 0xB8B DUP2 PUSH3 0xB2B JUMP JUMPDEST SWAP1 POP SWAP4 SWAP3 POP POP POP JUMP JUMPDEST PUSH1 0x0 DUP2 ISZERO ISZERO SWAP1 POP SWAP2 SWAP1 POP JUMP JUMPDEST PUSH3 0xBAB DUP2 PUSH3 0xB94 JUMP JUMPDEST DUP2 EQ PUSH3 0xBB7 JUMPI PUSH1 0x0 DUP1 REVERT JUMPDEST POP JUMP JUMPDEST PUSH1 0x0 DUP2 MLOAD SWAP1 POP PUSH3 0xBCB DUP2 PUSH3 0xBA0 JUMP JUMPDEST SWAP3 SWAP2 POP POP JUMP JUMPDEST PUSH1 0x0 PUSH1 0x20 DUP3 DUP5 SUB SLT ISZERO PUSH3 0xBEA JUMPI PUSH3 0xBE9 PUSH3 0xA05 JUMP JUMPDEST JUMPDEST PUSH1 0x0 PUSH3 0xBFA DUP5 DUP3 DUP6 ADD PUSH3 0xBBA JUMP JUMPDEST SWAP2 POP POP SWAP3 SWAP2 POP POP JUMP JUMPDEST PUSH1 0x0 PUSH3 0xC10 DUP3 PUSH3 0x95D JUMP JUMPDEST SWAP1 POP SWAP2 SWAP1 POP JUMP JUMPDEST PUSH3 0xC22 DUP2 PUSH3 0xC03 JUMP JUMPDEST DUP3 MSTORE POP POP JUMP JUMPDEST PUSH1 0x0 PUSH1 0x20 DUP3 ADD SWAP1 POP PUSH3 0xC3F PUSH1 0x0 DUP4 ADD DUP5 PUSH3 0xC17 JUMP JUMPDEST SWAP3 SWAP2 POP POP JUMP JUMPDEST PUSH3 0xC50 DUP2 PUSH3 0xC03 JUMP JUMPDEST DUP2 EQ PUSH3 0xC5C JUMPI PUSH1 0x0 DUP1 REVERT JUMPDEST POP JUMP JUMPDEST PUSH1 0x0 DUP2 MLOAD SWAP1 POP PUSH3 0xC70 DUP2 PUSH3 0xC45 JUMP JUMPDEST SWAP3 SWAP2 POP POP JUMP JUMPDEST PUSH1 0x0 PUSH1 0x20 DUP3 DUP5 SUB SLT ISZERO PUSH3 0xC8F JUMPI PUSH3 0xC8E PUSH3 0xA05 JUMP JUMPDEST JUMPDEST PUSH1 0x0 PUSH3 0xC9F DUP5 DUP3 DUP6 ADD PUSH3 0xC5F JUMP JUMPDEST SWAP2 POP POP SWAP3 SWAP2 POP POP JUMP JUMPDEST PUSH1 0x0 PUSH1 0xFF DUP3 AND SWAP1 POP SWAP2 SWAP1 POP JUMP JUMPDEST PUSH3 0xCC0 DUP2 PUSH3 0xCA8 JUMP JUMPDEST DUP3 MSTORE POP POP JUMP JUMPDEST PUSH1 0x0 PUSH1 0x20 DUP3 ADD SWAP1 POP PUSH3 0xCDD PUSH1 0x0 DUP4 ADD DUP5 PUSH3 0xCB5 JUMP JUMPDEST SWAP3 SWAP2 POP POP JUMP JUMPDEST PUSH3 0xCEE DUP2 PUSH3 0xCA8 JUMP JUMPDEST DUP2 EQ PUSH3 0xCFA JUMPI PUSH1 0x0 DUP1 REVERT JUMPDEST POP JUMP JUMPDEST PUSH1 0x0 DUP2 MLOAD SWAP1 POP PUSH3 0xD0E DUP2 PUSH3 0xCE3 JUMP JUMPDEST SWAP3 SWAP2 POP POP JUMP JUMPDEST PUSH1 0x0 PUSH1 0x20 DUP3 DUP5 SUB SLT ISZERO PUSH3 0xD2D JUMPI PUSH3 0xD2C PUSH3 0xA05 JUMP JUMPDEST JUMPDEST PUSH1 0x0 PUSH3 0xD3D DUP5 DUP3 DUP6 ADD PUSH3 0xCFD JUMP JUMPDEST SWAP2 POP POP SWAP3 SWAP2 POP POP JUMP JUMPDEST PUSH32 0x4E487B7100000000000000000000000000000000000000000000000000000000 PUSH1 0x0 MSTORE PUSH1 0x11 PUSH1 0x4 MSTORE PUSH1 0x24 PUSH1 0x0 REVERT JUMPDEST PUSH1 0x0 DUP2 PUSH1 0x1 SHR SWAP1 POP SWAP2 SWAP1 POP JUMP JUMPDEST PUSH1 0x0 DUP1 DUP3 SWAP2 POP DUP4 SWAP1 POP JUMPDEST PUSH1 0x1 DUP6 GT ISZERO PUSH3 0xDD4 JUMPI DUP1 DUP7 DIV DUP2 GT ISZERO PUSH3 0xDAC JUMPI PUSH3 0xDAB PUSH3 0xD46 JUMP JUMPDEST JUMPDEST PUSH1 0x1 DUP6 AND ISZERO PUSH3 0xDBC JUMPI DUP1 DUP3 MUL SWAP2 POP JUMPDEST DUP1 DUP2 MUL SWAP1 POP PUSH3 0xDCC DUP6 PUSH3 0xD75 JUMP JUMPDEST SWAP5 POP PUSH3 0xD8C JUMP JUMPDEST SWAP5 POP SWAP5 SWAP3 POP POP POP JUMP JUMPDEST PUSH1 0x0 DUP3 PUSH3 0xDEF JUMPI PUSH1 0x1 SWAP1 POP PUSH3 0xEC2 JUMP JUMPDEST DUP2 PUSH3 0xDFF JUMPI PUSH1 0x0 SWAP1 POP PUSH3 0xEC2 JUMP JUMPDEST DUP2 PUSH1 0x1 DUP2 EQ PUSH3 0xE18 JUMPI PUSH1 0x2 DUP2 EQ PUSH3 0xE23 JUMPI PUSH3 0xE59 JUMP JUMPDEST PUSH1 0x1 SWAP2 POP POP PUSH3 0xEC2 JUMP JUMPDEST PUSH1 0xFF DUP5 GT ISZERO PUSH3 0xE38 JUMPI PUSH3 0xE37 PUSH3 0xD46 JUMP JUMPDEST JUMPDEST DUP4 PUSH1 0x2 EXP SWAP2 POP DUP5 DUP3 GT ISZERO PUSH3 0xE52 JUMPI PUSH3 0xE51 PUSH3 0xD46 JUMP JUMPDEST JUMPDEST POP PUSH3 0xEC2 JUMP JUMPDEST POP PUSH1 0x20 DUP4 LT PUSH2 0x133 DUP4 LT AND PUSH1 0x4E DUP5 LT PUSH1 0xB DUP5 LT AND OR ISZERO PUSH3 0xE93 JUMPI DUP3 DUP3 EXP SWAP1 POP DUP4 DUP2 GT ISZERO PUSH3 0xE8D JUMPI PUSH3 0xE8C PUSH3 0xD46 JUMP JUMPDEST JUMPDEST PUSH3 0xEC2 JUMP JUMPDEST PUSH3 0xEA2 DUP5 DUP5 DUP5 PUSH1 0x1 PUSH3 0xD82 JUMP JUMPDEST SWAP3 POP SWAP1 POP DUP2 DUP5 DIV DUP2 GT ISZERO PUSH3 0xEBC JUMPI PUSH3 0xEBB PUSH3 0xD46 JUMP JUMPDEST JUMPDEST DUP2 DUP2 MUL SWAP1 POP JUMPDEST SWAP4 SWAP3 POP POP POP JUMP JUMPDEST PUSH1 0x0 PUSH3 0xED6 DUP3 PUSH3 0xA0A JUMP JUMPDEST SWAP2 POP PUSH3 0xEE3 DUP4 PUSH3 0xCA8 JUMP JUMPDEST SWAP3 POP PUSH3 0xF12 PUSH32 0xFFFFFFFFFFFFFFFFFFFFFFFFFFFFFFFFFFFFFFFFFFFFFFFFFFFFFFFFFFFFFFFF DUP5 DUP5 PUSH3 0xDDD JUMP JUMPDEST SWAP1 POP SWAP3 SWAP2 POP POP JUMP JUMPDEST PUSH1 0x0 PUSH3 0xF27 DUP3 PUSH3 0xA0A JUMP JUMPDEST SWAP2 POP PUSH3 0xF34 DUP4 PUSH3 0xA0A JUMP JUMPDEST SWAP3 POP DUP3 DUP3 MUL PUSH3 0xF44 DUP2 PUSH3 0xA0A JUMP JUMPDEST SWAP2 POP DUP3 DUP3 DIV DUP5 EQ DUP4 ISZERO OR PUSH3 0xF5E JUMPI PUSH3 0xF5D PUSH3 0xD46 JUMP JUMPDEST JUMPDEST POP SWAP3 SWAP2 POP POP JUMP JUMPDEST PUSH32 0x537570706C792073686F756C6420626520657175616C20746F20746865206E75 PUSH1 0x0 DUP3 ADD MSTORE PUSH32 0x6D626572206D696E746564000000000000000000000000000000000000000000 PUSH1 0x20 DUP3 ADD MSTORE POP JUMP JUMPDEST PUSH1 0x0 PUSH3 0xFC3 PUSH1 0x2B DUP4 PUSH3 0xACB JUMP JUMPDEST SWAP2 POP PUSH3 0xFD0 DUP3 PUSH3 0xF65 JUMP JUMPDEST PUSH1 0x40 DUP3 ADD SWAP1 POP SWAP2 SWAP1 POP JUMP JUMPDEST PUSH1 0x0 PUSH1 0x60 DUP3 ADD SWAP1 POP PUSH3 0xFF2 PUSH1 0x0 DUP4 ADD DUP6 PUSH3 0xA77 JUMP JUMPDEST PUSH3 0x1001 PUSH1 0x20 DUP4 ADD DUP5 PUSH3 0xA77 JUMP JUMPDEST DUP2 DUP2 SUB PUSH1 0x40 DUP4 ADD MSTORE PUSH3 0x1014 DUP2 PUSH3 0xFB4 JUMP JUMPDEST SWAP1 POP SWAP4 SWAP3 POP POP POP JUMP JUMPDEST PUSH1 0x0 PUSH3 0x102A DUP3 PUSH3 0xA0A JUMP JUMPDEST SWAP2 POP PUSH3 0x1037 DUP4 PUSH3 0xA0A JUMP JUMPDEST SWAP3 POP DUP3 DUP3 ADD SWAP1 POP DUP1 DUP3 GT ISZERO PUSH3 0x1052 JUMPI PUSH3 0x1051 PUSH3 0xD46 JUMP JUMPDEST JUMPDEST SWAP3 SWAP2 POP POP JUMP JUMPDEST PUSH32 0x4E487B7100000000000000000000000000000000000000000000000000000000 PUSH1 0x0 MSTORE PUSH1 0x41 PUSH1 0x4 MSTORE PUSH1 0x24 PUSH1 0x0 REVERT JUMPDEST PUSH32 0x4E487B7100000000000000000000000000000000000000000000000000000000 PUSH1 0x0 MSTORE PUSH1 0x32 PUSH1 0x4 MSTORE PUSH1 0x24 PUSH1 0x0 REVERT JUMPDEST PUSH1 0x0 PUSH3 0x10C3 DUP3 PUSH3 0xA0A JUMP JUMPDEST SWAP2 POP PUSH1 0x0 DUP3 SUB PUSH3 0x10D9 JUMPI PUSH3 0x10D8 PUSH3 0xD46 JUMP JUMPDEST JUMPDEST PUSH1 0x1 DUP3 SUB SWAP1 POP SWAP2 SWAP1 POP JUMP JUMPDEST PUSH1 0x0 DUP3 DUP3 MSTORE PUSH1 0x20 DUP3 ADD SWAP1 POP SWAP3 SWAP2 POP POP JUMP JUMPDEST PUSH32 0x537472696E67733A20686578206C656E67746820696E73756666696369656E74 PUSH1 0x0 DUP3 ADD MSTORE POP JUMP JUMPDEST PUSH1 0x0 PUSH3 0x112D PUSH1 0x20 DUP4 PUSH3 0x10E4 JUMP JUMPDEST SWAP2 POP PUSH3 0x113A DUP3 PUSH3 0x10F5 JUMP JUMPDEST PUSH1 0x20 DUP3 ADD SWAP1 POP SWAP2 SWAP1 POP JUMP JUMPDEST PUSH1 0x0 PUSH1 0x20 DUP3 ADD SWAP1 POP DUP2 DUP2 SUB PUSH1 0x0 DUP4 ADD MSTORE PUSH3 0x1160 DUP2 PUSH3 0x111E JUMP JUMPDEST SWAP1 POP SWAP2 SWAP1 POP JUMP JUMPDEST PUSH1 0x0 DUP2 MLOAD SWAP1 POP SWAP2 SWAP1 POP JUMP JUMPDEST PUSH1 0x0 JUMPDEST DUP4 DUP2 LT ISZERO PUSH3 0x1192 JUMPI DUP1 DUP3 ADD MLOAD DUP2 DUP5 ADD MSTORE PUSH1 0x20 DUP2 ADD SWAP1 POP PUSH3 0x1175 JUMP JUMPDEST PUSH1 0x0 DUP5 DUP5 ADD MSTORE POP POP POP POP JUMP JUMPDEST PUSH1 0x0 PUSH1 0x1F NOT PUSH1 0x1F DUP4 ADD AND SWAP1 POP SWAP2 SWAP1 POP JUMP JUMPDEST PUSH1 0x0 PUSH3 0x11BC DUP3 PUSH3 0x1167 JUMP JUMPDEST PUSH3 0x11C8 DUP2 DUP6 PUSH3 0x10E4 JUMP JUMPDEST SWAP4 POP PUSH3 0x11DA DUP2 DUP6 PUSH1 0x20 DUP7 ADD PUSH3 0x1172 JUMP JUMPDEST PUSH3 0x11E5 DUP2 PUSH3 0x119E JUMP JUMPDEST DUP5 ADD SWAP2 POP POP SWAP3 SWAP2 POP POP JUMP JUMPDEST PUSH1 0x0 PUSH1 0x20 DUP3 ADD SWAP1 POP DUP2 DUP2 SUB PUSH1 0x0 DUP4 ADD MSTORE PUSH3 0x120C DUP2 DUP5 PUSH3 0x11AF JUMP JUMPDEST SWAP1 POP SWAP3 SWAP2 POP POP JUMP INVALID PUSH1 0x80 PUSH1 0x40 MSTORE CALLVALUE DUP1 ISZERO PUSH3 0x11 JUMPI PUSH1 0x0 DUP1 REVERT JUMPDEST POP PUSH1 0x40 MLOAD PUSH3 0x3903 CODESIZE SUB DUP1 PUSH3 0x3903 DUP4 CODECOPY DUP2 DUP2 ADD PUSH1 0x40 MSTORE DUP2 ADD SWAP1 PUSH3 0x37 SWAP2 SWAP1 PUSH3 0x520 JUMP JUMPDEST DUP1 PUSH1 0x2 PUSH1 0x40 MLOAD DUP1 PUSH1 0x40 ADD PUSH1 0x40 MSTORE DUP1 PUSH1 0xD DUP2 MSTORE PUSH1 0x20 ADD PUSH32 0x555344537461626C65436F696E00000000000000000000000000000000000000 DUP2 MSTORE POP PUSH1 0x40 MLOAD DUP1 PUSH1 0x40 ADD PUSH1 0x40 MSTORE DUP1 PUSH1 0x3 DUP2 MSTORE PUSH1 0x20 ADD PUSH32 0x5553430000000000000000000000000000000000000000000000000000000000 DUP2 MSTORE POP DUP2 PUSH1 0x3 SWAP1 DUP2 PUSH3 0xB7 SWAP2 SWAP1 PUSH3 0x7CC JUMP JUMPDEST POP DUP1 PUSH1 0x4 SWAP1 DUP2 PUSH3 0xC9 SWAP2 SWAP1 PUSH3 0x7CC JUMP JUMPDEST POP POP POP PUSH1 0x0 PUSH1 0x5 PUSH1 0x0 PUSH2 0x100 EXP DUP2 SLOAD DUP2 PUSH1 0xFF MUL NOT AND SWAP1 DUP4 ISZERO ISZERO MUL OR SWAP1 SSTORE POP PUSH3 0x12A PUSH3 0x119 DUP4 PUSH20 0xFFFFFFFFFFFFFFFFFFFFFFFFFFFFFFFFFFFFFFFF AND PUSH1 0x14 PUSH3 0x18F PUSH1 0x20 SHL PUSH3 0x110A OR PUSH1 0x20 SHR JUMP JUMPDEST PUSH3 0x3EA PUSH1 0x20 SHL PUSH3 0x1346 OR PUSH1 0x20 SHR JUMP JUMPDEST DUP2 PUSH1 0x5 PUSH1 0x1 PUSH2 0x100 EXP DUP2 SLOAD DUP2 PUSH20 0xFFFFFFFFFFFFFFFFFFFFFFFFFFFFFFFFFFFFFFFF MUL NOT AND SWAP1 DUP4 PUSH20 0xFFFFFFFFFFFFFFFFFFFFFFFFFFFFFFFFFFFFFFFF AND MUL OR SWAP1 SSTORE POP DUP1 PUSH1 0x5 PUSH1 0x15 PUSH2 0x100 EXP DUP2 SLOAD DUP2 PUSH1 0xFF MUL NOT AND SWAP1 DUP4 PUSH1 0xFF AND MUL OR SWAP1 SSTORE POP POP POP POP PUSH3 0xAEA JUMP JUMPDEST PUSH1 0x60 PUSH1 0x0 PUSH1 0x2 DUP4 PUSH1 0x2 PUSH3 0x1A4 SWAP2 SWAP1 PUSH3 0x8E2 JUMP JUMPDEST PUSH3 0x1B0 SWAP2 SWAP1 PUSH3 0x92D JUMP JUMPDEST PUSH8 0xFFFFFFFFFFFFFFFF DUP2 GT ISZERO PUSH3 0x1CC JUMPI PUSH3 0x1CB PUSH3 0x55D JUMP JUMPDEST JUMPDEST PUSH1 0x40 MLOAD SWAP1 DUP1 DUP3 MSTORE DUP1 PUSH1 0x1F ADD PUSH1 0x1F NOT AND PUSH1 0x20 ADD DUP3 ADD PUSH1 0x40 MSTORE DUP1 ISZERO PUSH3 0x1FF JUMPI DUP2 PUSH1 0x20 ADD PUSH1 0x1 DUP3 MUL DUP1 CALLDATASIZE DUP4 CALLDATACOPY DUP1 DUP3 ADD SWAP2 POP POP SWAP1 POP JUMPDEST POP SWAP1 POP PUSH32 0x3000000000000000000000000000000000000000000000000000000000000000 DUP2 PUSH1 0x0 DUP2 MLOAD DUP2 LT PUSH3 0x23A JUMPI PUSH3 0x239 PUSH3 0x968 JUMP JUMPDEST JUMPDEST PUSH1 0x20 ADD ADD SWAP1 PUSH31 0xFFFFFFFFFFFFFFFFFFFFFFFFFFFFFFFFFFFFFFFFFFFFFFFFFFFFFFFFFFFFFF NOT AND SWAP1 DUP2 PUSH1 0x0 BYTE SWAP1 MSTORE8 POP PUSH32 0x7800000000000000000000000000000000000000000000000000000000000000 DUP2 PUSH1 0x1 DUP2 MLOAD DUP2 LT PUSH3 0x2A1 JUMPI PUSH3 0x2A0 PUSH3 0x968 JUMP JUMPDEST JUMPDEST PUSH1 0x20 ADD ADD SWAP1 PUSH31 0xFFFFFFFFFFFFFFFFFFFFFFFFFFFFFFFFFFFFFFFFFFFFFFFFFFFFFFFFFFFFFF NOT AND SWAP1 DUP2 PUSH1 0x0 BYTE SWAP1 MSTORE8 POP PUSH1 0x0 PUSH1 0x1 DUP5 PUSH1 0x2 PUSH3 0x2E3 SWAP2 SWAP1 PUSH3 0x8E2 JUMP JUMPDEST PUSH3 0x2EF SWAP2 SWAP1 PUSH3 0x92D JUMP JUMPDEST SWAP1 POP JUMPDEST PUSH1 0x1 DUP2 GT ISZERO PUSH3 0x399 JUMPI PUSH32 0x3031323334353637383961626364656600000000000000000000000000000000 PUSH1 0xF DUP7 AND PUSH1 0x10 DUP2 LT PUSH3 0x335 JUMPI PUSH3 0x334 PUSH3 0x968 JUMP JUMPDEST JUMPDEST BYTE PUSH1 0xF8 SHL DUP3 DUP3 DUP2 MLOAD DUP2 LT PUSH3 0x34F JUMPI PUSH3 0x34E PUSH3 0x968 JUMP JUMPDEST JUMPDEST PUSH1 0x20 ADD ADD SWAP1 PUSH31 0xFFFFFFFFFFFFFFFFFFFFFFFFFFFFFFFFFFFFFFFFFFFFFFFFFFFFFFFFFFFFFF NOT AND SWAP1 DUP2 PUSH1 0x0 BYTE SWAP1 MSTORE8 POP PUSH1 0x4 DUP6 SWAP1 SHR SWAP5 POP DUP1 PUSH3 0x391 SWAP1 PUSH3 0x997 JUMP JUMPDEST SWAP1 POP PUSH3 0x2F2 JUMP JUMPDEST POP PUSH1 0x0 DUP5 EQ PUSH3 0x3E0 JUMPI PUSH1 0x40 MLOAD PUSH32 0x8C379A000000000000000000000000000000000000000000000000000000000 DUP2 MSTORE PUSH1 0x4 ADD PUSH3 0x3D7 SWAP1 PUSH3 0xA26 JUMP JUMPDEST PUSH1 0x40 MLOAD DUP1 SWAP2 SUB SWAP1 REVERT JUMPDEST DUP1 SWAP2 POP POP SWAP3 SWAP2 POP POP JUMP JUMPDEST PUSH3 0x48A DUP2 PUSH1 0x40 MLOAD PUSH1 0x24 ADD PUSH3 0x401 SWAP2 SWAP1 PUSH3 0xAC6 JUMP JUMPDEST PUSH1 0x40 MLOAD PUSH1 0x20 DUP2 DUP4 SUB SUB DUP2 MSTORE SWAP1 PUSH1 0x40 MSTORE PUSH32 0x41304FAC00000000000000000000000000000000000000000000000000000000 PUSH28 0xFFFFFFFFFFFFFFFFFFFFFFFFFFFFFFFFFFFFFFFFFFFFFFFFFFFFFFFF NOT AND PUSH1 0x20 DUP3 ADD DUP1 MLOAD PUSH28 0xFFFFFFFFFFFFFFFFFFFFFFFFFFFFFFFFFFFFFFFFFFFFFFFFFFFFFFFF DUP4 DUP2 DUP4 AND OR DUP4 MSTORE POP POP POP POP PUSH3 0x48D PUSH1 0x20 SHL PUSH1 0x20 SHR JUMP JUMPDEST POP JUMP JUMPDEST PUSH1 0x0 DUP2 MLOAD SWAP1 POP PUSH1 0x0 PUSH11 0x636F6E736F6C652E6C6F67 SWAP1 POP PUSH1 0x20 DUP4 ADD PUSH1 0x0 DUP1 DUP5 DUP4 DUP6 GAS STATICCALL POP POP POP POP POP JUMP JUMPDEST PUSH1 0x0 DUP1 REVERT JUMPDEST PUSH1 0x0 PUSH20 0xFFFFFFFFFFFFFFFFFFFFFFFFFFFFFFFFFFFFFFFF DUP3 AND SWAP1 POP SWAP2 SWAP1 POP JUMP JUMPDEST PUSH1 0x0 PUSH3 0x4E8 DUP3 PUSH3 0x4BB JUMP JUMPDEST SWAP1 POP SWAP2 SWAP1 POP JUMP JUMPDEST PUSH3 0x4FA DUP2 PUSH3 0x4DB JUMP JUMPDEST DUP2 EQ PUSH3 0x506 JUMPI PUSH1 0x0 DUP1 REVERT JUMPDEST POP JUMP JUMPDEST PUSH1 0x0 DUP2 MLOAD SWAP1 POP PUSH3 0x51A DUP2 PUSH3 0x4EF JUMP JUMPDEST SWAP3 SWAP2 POP POP JUMP JUMPDEST PUSH1 0x0 PUSH1 0x20 DUP3 DUP5 SUB SLT ISZERO PUSH3 0x539 JUMPI PUSH3 0x538 PUSH3 0x4B6 JUMP JUMPDEST JUMPDEST PUSH1 0x0 PUSH3 0x549 DUP5 DUP3 DUP6 ADD PUSH3 0x509 JUMP JUMPDEST SWAP2 POP POP SWAP3 SWAP2 POP POP JUMP JUMPDEST PUSH1 0x0 DUP2 MLOAD SWAP1 POP SWAP2 SWAP1 POP JUMP JUMPDEST PUSH32 0x4E487B7100000000000000000000000000000000000000000000000000000000 PUSH1 0x0 MSTORE PUSH1 0x41 PUSH1 0x4 MSTORE PUSH1 0x24 PUSH1 0x0 REVERT JUMPDEST PUSH32 0x4E487B7100000000000000000000000000000000000000000000000000000000 PUSH1 0x0 MSTORE PUSH1 0x22 PUSH1 0x4 MSTORE PUSH1 0x24 PUSH1 0x0 REVERT JUMPDEST PUSH1 0x0 PUSH1 0x2 DUP3 DIV SWAP1 POP PUSH1 0x1 DUP3 AND DUP1 PUSH3 0x5D4 JUMPI PUSH1 0x7F DUP3 AND SWAP2 POP JUMPDEST PUSH1 0x20 DUP3 LT DUP2 SUB PUSH3 0x5EA JUMPI PUSH3 0x5E9 PUSH3 0x58C JUMP JUMPDEST JUMPDEST POP SWAP2 SWAP1 POP JUMP JUMPDEST PUSH1 0x0 DUP2 SWAP1 POP DUP2 PUSH1 0x0 MSTORE PUSH1 0x20 PUSH1 0x0 KECCAK256 SWAP1 POP SWAP2 SWAP1 POP JUMP JUMPDEST PUSH1 0x0 PUSH1 0x20 PUSH1 0x1F DUP4 ADD DIV SWAP1 POP SWAP2 SWAP1 POP JUMP JUMPDEST PUSH1 0x0 DUP3 DUP3 SHL SWAP1 POP SWAP3 SWAP2 POP POP JUMP JUMPDEST PUSH1 0x0 PUSH1 0x8 DUP4 MUL PUSH3 0x654 PUSH32 0xFFFFFFFFFFFFFFFFFFFFFFFFFFFFFFFFFFFFFFFFFFFFFFFFFFFFFFFFFFFFFFFF DUP3 PUSH3 0x615 JUMP JUMPDEST PUSH3 0x660 DUP7 DUP4 PUSH3 0x615 JUMP JUMPDEST SWAP6 POP DUP1 NOT DUP5 AND SWAP4 POP DUP1 DUP7 AND DUP5 OR SWAP3 POP POP POP SWAP4 SWAP3 POP POP POP JUMP JUMPDEST PUSH1 0x0 DUP2 SWAP1 POP SWAP2 SWAP1 POP JUMP JUMPDEST PUSH1 0x0 DUP2 SWAP1 POP SWAP2 SWAP1 POP JUMP JUMPDEST PUSH1 0x0 PUSH3 0x6AD PUSH3 0x6A7 PUSH3 0x6A1 DUP5 PUSH3 0x678 JUMP JUMPDEST PUSH3 0x682 JUMP JUMPDEST PUSH3 0x678 JUMP JUMPDEST SWAP1 POP SWAP2 SWAP1 POP JUMP JUMPDEST PUSH1 0x0 DUP2 SWAP1 POP SWAP2 SWAP1 POP JUMP JUMPDEST PUSH3 0x6C9 DUP4 PUSH3 0x68C JUMP JUMPDEST PUSH3 0x6E1 PUSH3 0x6D8 DUP3 PUSH3 0x6B4 JUMP JUMPDEST DUP5 DUP5 SLOAD PUSH3 0x622 JUMP JUMPDEST DUP3 SSTORE POP POP POP POP JUMP JUMPDEST PUSH1 0x0 SWAP1 JUMP JUMPDEST PUSH3 0x6F8 PUSH3 0x6E9 JUMP JUMPDEST PUSH3 0x705 DUP2 DUP5 DUP5 PUSH3 0x6BE JUMP JUMPDEST POP POP POP JUMP JUMPDEST JUMPDEST DUP2 DUP2 LT ISZERO PUSH3 0x72D JUMPI PUSH3 0x721 PUSH1 0x0 DUP3 PUSH3 0x6EE JUMP JUMPDEST PUSH1 0x1 DUP2 ADD SWAP1 POP PUSH3 0x70B JUMP JUMPDEST POP POP JUMP JUMPDEST PUSH1 0x1F DUP3 GT ISZERO PUSH3 0x77C JUMPI PUSH3 0x746 DUP2 PUSH3 0x5F0 JUMP JUMPDEST PUSH3 0x751 DUP5 PUSH3 0x605 JUMP JUMPDEST DUP2 ADD PUSH1 0x20 DUP6 LT ISZERO PUSH3 0x761 JUMPI DUP2 SWAP1 POP JUMPDEST PUSH3 0x779 PUSH3 0x770 DUP6 PUSH3 0x605 JUMP JUMPDEST DUP4 ADD DUP3 PUSH3 0x70A JUMP JUMPDEST POP POP JUMPDEST POP POP POP JUMP JUMPDEST PUSH1 0x0 DUP3 DUP3 SHR SWAP1 POP SWAP3 SWAP2 POP POP JUMP JUMPDEST PUSH1 0x0 PUSH3 0x7A1 PUSH1 0x0 NOT DUP5 PUSH1 0x8 MUL PUSH3 0x781 JUMP JUMPDEST NOT DUP1 DUP4 AND SWAP2 POP POP SWAP3 SWAP2 POP POP JUMP JUMPDEST PUSH1 0x0 PUSH3 0x7BC DUP4 DUP4 PUSH3 0x78E JUMP JUMPDEST SWAP2 POP DUP3 PUSH1 0x2 MUL DUP3 OR SWAP1 POP SWAP3 SWAP2 POP POP JUMP JUMPDEST PUSH3 0x7D7 DUP3 PUSH3 0x552 JUMP JUMPDEST PUSH8 0xFFFFFFFFFFFFFFFF DUP2 GT ISZERO PUSH3 0x7F3 JUMPI PUSH3 0x7F2 PUSH3 0x55D JUMP JUMPDEST JUMPDEST PUSH3 0x7FF DUP3 SLOAD PUSH3 0x5BB JUMP JUMPDEST PUSH3 0x80C DUP3 DUP3 DUP6 PUSH3 0x731 JUMP JUMPDEST PUSH1 0x0 PUSH1 0x20 SWAP1 POP PUSH1 0x1F DUP4 GT PUSH1 0x1 DUP2 EQ PUSH3 0x844 JUMPI PUSH1 0x0 DUP5 ISZERO PUSH3 0x82F JUMPI DUP3 DUP8 ADD MLOAD SWAP1 POP JUMPDEST PUSH3 0x83B DUP6 DUP3 PUSH3 0x7AE JUMP JUMPDEST DUP7 SSTORE POP PUSH3 0x8AB JUMP JUMPDEST PUSH1 0x1F NOT DUP5 AND PUSH3 0x854 DUP7 PUSH3 0x5F0 JUMP JUMPDEST PUSH1 0x0 JUMPDEST DUP3 DUP2 LT ISZERO PUSH3 0x87E JUMPI DUP5 DUP10 ADD MLOAD DUP3 SSTORE PUSH1 0x1 DUP3 ADD SWAP2 POP PUSH1 0x20 DUP6 ADD SWAP5 POP PUSH1 0x20 DUP2 ADD SWAP1 POP PUSH3 0x857 JUMP JUMPDEST DUP7 DUP4 LT ISZERO PUSH3 0x89E JUMPI DUP5 DUP10 ADD MLOAD PUSH3 0x89A PUSH1 0x1F DUP10 AND DUP3 PUSH3 0x78E JUMP JUMPDEST DUP4 SSTORE POP JUMPDEST PUSH1 0x1 PUSH1 0x2 DUP9 MUL ADD DUP9 SSTORE POP POP POP JUMPDEST POP POP POP POP POP POP JUMP JUMPDEST PUSH32 0x4E487B7100000000000000000000000000000000000000000000000000000000 PUSH1 0x0 MSTORE PUSH1 0x11 PUSH1 0x4 MSTORE PUSH1 0x24 PUSH1 0x0 REVERT JUMPDEST PUSH1 0x0 PUSH3 0x8EF DUP3 PUSH3 0x678 JUMP JUMPDEST SWAP2 POP PUSH3 0x8FC DUP4 PUSH3 0x678 JUMP JUMPDEST SWAP3 POP DUP3 DUP3 MUL PUSH3 0x90C DUP2 PUSH3 0x678 JUMP JUMPDEST SWAP2 POP DUP3 DUP3 DIV DUP5 EQ DUP4 ISZERO OR PUSH3 0x926 JUMPI PUSH3 0x925 PUSH3 0x8B3 JUMP JUMPDEST JUMPDEST POP SWAP3 SWAP2 POP POP JUMP JUMPDEST PUSH1 0x0 PUSH3 0x93A DUP3 PUSH3 0x678 JUMP JUMPDEST SWAP2 POP PUSH3 0x947 DUP4 PUSH3 0x678 JUMP JUMPDEST SWAP3 POP DUP3 DUP3 ADD SWAP1 POP DUP1 DUP3 GT ISZERO PUSH3 0x962 JUMPI PUSH3 0x961 PUSH3 0x8B3 JUMP JUMPDEST JUMPDEST SWAP3 SWAP2 POP POP JUMP JUMPDEST PUSH32 0x4E487B7100000000000000000000000000000000000000000000000000000000 PUSH1 0x0 MSTORE PUSH1 0x32 PUSH1 0x4 MSTORE PUSH1 0x24 PUSH1 0x0 REVERT JUMPDEST PUSH1 0x0 PUSH3 0x9A4 DUP3 PUSH3 0x678 JUMP JUMPDEST SWAP2 POP PUSH1 0x0 DUP3 SUB PUSH3 0x9BA JUMPI PUSH3 0x9B9 PUSH3 0x8B3 JUMP JUMPDEST JUMPDEST PUSH1 0x1 DUP3 SUB SWAP1 POP SWAP2 SWAP1 POP JUMP JUMPDEST PUSH1 0x0 DUP3 DUP3 MSTORE PUSH1 0x20 DUP3 ADD SWAP1 POP SWAP3 SWAP2 POP POP JUMP JUMPDEST PUSH32 0x537472696E67733A20686578206C656E67746820696E73756666696369656E74 PUSH1 0x0 DUP3 ADD MSTORE POP JUMP JUMPDEST PUSH1 0x0 PUSH3 0xA0E PUSH1 0x20 DUP4 PUSH3 0x9C5 JUMP JUMPDEST SWAP2 POP PUSH3 0xA1B DUP3 PUSH3 0x9D6 JUMP JUMPDEST PUSH1 0x20 DUP3 ADD SWAP1 POP SWAP2 SWAP1 POP JUMP JUMPDEST PUSH1 0x0 PUSH1 0x20 DUP3 ADD SWAP1 POP DUP2 DUP2 SUB PUSH1 0x0 DUP4 ADD MSTORE PUSH3 0xA41 DUP2 PUSH3 0x9FF JUMP JUMPDEST SWAP1 POP SWAP2 SWAP1 POP JUMP JUMPDEST PUSH1 0x0 JUMPDEST DUP4 DUP2 LT ISZERO PUSH3 0xA68 JUMPI DUP1 DUP3 ADD MLOAD DUP2 DUP5 ADD MSTORE PUSH1 0x20 DUP2 ADD SWAP1 POP PUSH3 0xA4B JUMP JUMPDEST PUSH1 0x0 DUP5 DUP5 ADD MSTORE POP POP POP POP JUMP JUMPDEST PUSH1 0x0 PUSH1 0x1F NOT PUSH1 0x1F DUP4 ADD AND SWAP1 POP SWAP2 SWAP1 POP JUMP JUMPDEST PUSH1 0x0 PUSH3 0xA92 DUP3 PUSH3 0x552 JUMP JUMPDEST PUSH3 0xA9E DUP2 DUP6 PUSH3 0x9C5 JUMP JUMPDEST SWAP4 POP PUSH3 0xAB0 DUP2 DUP6 PUSH1 0x20 DUP7 ADD PUSH3 0xA48 JUMP JUMPDEST PUSH3 0xABB DUP2 PUSH3 0xA74 JUMP JUMPDEST DUP5 ADD SWAP2 POP POP SWAP3 SWAP2 POP POP JUMP JUMPDEST PUSH1 0x0 PUSH1 0x20 DUP3 ADD SWAP1 POP DUP2 DUP2 SUB PUSH1 0x0 DUP4 ADD MSTORE PUSH3 0xAE2 DUP2 DUP5 PUSH3 0xA85 JUMP JUMPDEST SWAP1 POP SWAP3 SWAP2 POP POP JUMP JUMPDEST PUSH2 0x2E09 DUP1 PUSH3 0xAFA PUSH1 0x0 CODECOPY PUSH1 0x0 RETURN INVALID PUSH1 0x80 PUSH1 0x40 MSTORE CALLVALUE DUP1 ISZERO PUSH2 0x10 JUMPI PUSH1 0x0 DUP1 REVERT JUMPDEST POP PUSH1 0x4 CALLDATASIZE LT PUSH2 0x12C JUMPI PUSH1 0x0 CALLDATALOAD PUSH1 0xE0 SHR DUP1 PUSH4 0x70A08231 GT PUSH2 0xAD JUMPI DUP1 PUSH4 0xA41A016A GT PUSH2 0x71 JUMPI DUP1 PUSH4 0xA41A016A EQ PUSH2 0x30F JUMPI DUP1 PUSH4 0xA457C2D7 EQ PUSH2 0x319 JUMPI DUP1 PUSH4 0xA9059CBB EQ PUSH2 0x349 JUMPI DUP1 PUSH4 0xDCBDAC30 EQ PUSH2 0x379 JUMPI DUP1 PUSH4 0xDD62ED3E EQ PUSH2 0x397 JUMPI PUSH2 0x12C JUMP JUMPDEST DUP1 PUSH4 0x70A08231 EQ PUSH2 0x27B JUMPI DUP1 PUSH4 0x8456CB59 EQ PUSH2 0x2AB JUMPI DUP1 PUSH4 0x8DA5CB5B EQ PUSH2 0x2B5 JUMPI DUP1 PUSH4 0x8F84AA09 EQ PUSH2 0x2D3 JUMPI DUP1 PUSH4 0x95D89B41 EQ PUSH2 0x2F1 JUMPI PUSH2 0x12C JUMP JUMPDEST DUP1 PUSH4 0x32E43A11 GT PUSH2 0xF4 JUMPI DUP1 PUSH4 0x32E43A11 EQ PUSH2 0x1EB JUMPI DUP1 PUSH4 0x39509351 EQ PUSH2 0x1F5 JUMPI DUP1 PUSH4 0x42966C68 EQ PUSH2 0x225 JUMPI DUP1 PUSH4 0x5C975ABB EQ PUSH2 0x241 JUMPI DUP1 PUSH4 0x6ECD2306 EQ PUSH2 0x25F JUMPI PUSH2 0x12C JUMP JUMPDEST DUP1 PUSH4 0x6FDDE03 EQ PUSH2 0x131 JUMPI DUP1 PUSH4 0x95EA7B3 EQ PUSH2 0x14F JUMPI DUP1 PUSH4 0x18160DDD EQ PUSH2 0x17F JUMPI DUP1 PUSH4 0x23B872DD EQ PUSH2 0x19D JUMPI DUP1 PUSH4 0x313CE567 EQ PUSH2 0x1CD JUMPI JUMPDEST PUSH1 0x0 DUP1 REVERT JUMPDEST PUSH2 0x139 PUSH2 0x3C7 JUMP JUMPDEST PUSH1 0x40 MLOAD PUSH2 0x146 SWAP2 SWAP1 PUSH2 0x1E49 JUMP JUMPDEST PUSH1 0x40 MLOAD DUP1 SWAP2 SUB SWAP1 RETURN JUMPDEST PUSH2 0x169 PUSH1 0x4 DUP1 CALLDATASIZE SUB DUP2 ADD SWAP1 PUSH2 0x164 SWAP2 SWAP1 PUSH2 0x1F04 JUMP JUMPDEST PUSH2 0x459 JUMP JUMPDEST PUSH1 0x40 MLOAD PUSH2 0x176 SWAP2 SWAP1 PUSH2 0x1F5F JUMP JUMPDEST PUSH1 0x40 MLOAD DUP1 SWAP2 SUB SWAP1 RETURN JUMPDEST PUSH2 0x187 PUSH2 0x47C JUMP JUMPDEST PUSH1 0x40 MLOAD PUSH2 0x194 SWAP2 SWAP1 PUSH2 0x1F89 JUMP JUMPDEST PUSH1 0x40 MLOAD DUP1 SWAP2 SUB SWAP1 RETURN JUMPDEST PUSH2 0x1B7 PUSH1 0x4 DUP1 CALLDATASIZE SUB DUP2 ADD SWAP1 PUSH2 0x1B2 SWAP2 SWAP1 PUSH2 0x1FA4 JUMP JUMPDEST PUSH2 0x486 JUMP JUMPDEST PUSH1 0x40 MLOAD PUSH2 0x1C4 SWAP2 SWAP1 PUSH2 0x1F5F JUMP JUMPDEST PUSH1 0x40 MLOAD DUP1 SWAP2 SUB SWAP1 RETURN JUMPDEST PUSH2 0x1D5 PUSH2 0x4B5 JUMP JUMPDEST PUSH1 0x40 MLOAD PUSH2 0x1E2 SWAP2 SWAP1 PUSH2 0x2013 JUMP JUMPDEST PUSH1 0x40 MLOAD DUP1 SWAP2 SUB SWAP1 RETURN JUMPDEST PUSH2 0x1F3 PUSH2 0x4CC JUMP JUMPDEST STOP JUMPDEST PUSH2 0x20F PUSH1 0x4 DUP1 CALLDATASIZE SUB DUP2 ADD SWAP1 PUSH2 0x20A SWAP2 SWAP1 PUSH2 0x1F04 JUMP JUMPDEST PUSH2 0x75A JUMP JUMPDEST PUSH1 0x40 MLOAD PUSH2 0x21C SWAP2 SWAP1 PUSH2 0x1F5F JUMP JUMPDEST PUSH1 0x40 MLOAD DUP1 SWAP2 SUB SWAP1 RETURN JUMPDEST PUSH2 0x23F PUSH1 0x4 DUP1 CALLDATASIZE SUB DUP2 ADD SWAP1 PUSH2 0x23A SWAP2 SWAP1 PUSH2 0x202E JUMP JUMPDEST PUSH2 0x791 JUMP JUMPDEST STOP JUMPDEST PUSH2 0x249 PUSH2 0x968 JUMP JUMPDEST PUSH1 0x40 MLOAD PUSH2 0x256 SWAP2 SWAP1 PUSH2 0x1F5F JUMP JUMPDEST PUSH1 0x40 MLOAD DUP1 SWAP2 SUB SWAP1 RETURN JUMPDEST PUSH2 0x279 PUSH1 0x4 DUP1 CALLDATASIZE SUB DUP2 ADD SWAP1 PUSH2 0x274 SWAP2 SWAP1 PUSH2 0x2087 JUMP JUMPDEST PUSH2 0x97F JUMP JUMPDEST STOP JUMPDEST PUSH2 0x295 PUSH1 0x4 DUP1 CALLDATASIZE SUB DUP2 ADD SWAP1 PUSH2 0x290 SWAP2 SWAP1 PUSH2 0x20B4 JUMP JUMPDEST PUSH2 0xB59 JUMP JUMPDEST PUSH1 0x40 MLOAD PUSH2 0x2A2 SWAP2 SWAP1 PUSH2 0x1F89 JUMP JUMPDEST PUSH1 0x40 MLOAD DUP1 SWAP2 SUB SWAP1 RETURN JUMPDEST PUSH2 0x2B3 PUSH2 0xBA1 JUMP JUMPDEST STOP JUMPDEST PUSH2 0x2BD PUSH2 0xD46 JUMP JUMPDEST PUSH1 0x40 MLOAD PUSH2 0x2CA SWAP2 SWAP1 PUSH2 0x20F0 JUMP JUMPDEST PUSH1 0x40 MLOAD DUP1 SWAP2 SUB SWAP1 RETURN JUMPDEST PUSH2 0x2DB PUSH2 0xD6C JUMP JUMPDEST PUSH1 0x40 MLOAD PUSH2 0x2E8 SWAP2 SWAP1 PUSH2 0x20F0 JUMP JUMPDEST PUSH1 0x40 MLOAD DUP1 SWAP2 SUB SWAP1 RETURN JUMPDEST PUSH2 0x2F9 PUSH2 0xD96 JUMP JUMPDEST PUSH1 0x40 MLOAD PUSH2 0x306 SWAP2 SWAP1 PUSH2 0x1E49 JUMP JUMPDEST PUSH1 0x40 MLOAD DUP1 SWAP2 SUB SWAP1 RETURN JUMPDEST PUSH2 0x317 PUSH2 0xE28 JUMP JUMPDEST STOP JUMPDEST PUSH2 0x333 PUSH1 0x4 DUP1 CALLDATASIZE SUB DUP2 ADD SWAP1 PUSH2 0x32E SWAP2 SWAP1 PUSH2 0x1F04 JUMP JUMPDEST PUSH2 0xFCE JUMP JUMPDEST PUSH1 0x40 MLOAD PUSH2 0x340 SWAP2 SWAP1 PUSH2 0x1F5F JUMP JUMPDEST PUSH1 0x40 MLOAD DUP1 SWAP2 SUB SWAP1 RETURN JUMPDEST PUSH2 0x363 PUSH1 0x4 DUP1 CALLDATASIZE SUB DUP2 ADD SWAP1 PUSH2 0x35E SWAP2 SWAP1 PUSH2 0x1F04 JUMP JUMPDEST PUSH2 0x1045 JUMP JUMPDEST PUSH1 0x40 MLOAD PUSH2 0x370 SWAP2 SWAP1 PUSH2 0x1F5F JUMP JUMPDEST PUSH1 0x40 MLOAD DUP1 SWAP2 SUB SWAP1 RETURN JUMPDEST PUSH2 0x381 PUSH2 0x1068 JUMP JUMPDEST PUSH1 0x40 MLOAD PUSH2 0x38E SWAP2 SWAP1 PUSH2 0x1F89 JUMP JUMPDEST PUSH1 0x40 MLOAD DUP1 SWAP2 SUB SWAP1 RETURN JUMPDEST PUSH2 0x3B1 PUSH1 0x4 DUP1 CALLDATASIZE SUB DUP2 ADD SWAP1 PUSH2 0x3AC SWAP2 SWAP1 PUSH2 0x210B JUMP JUMPDEST PUSH2 0x1083 JUMP JUMPDEST PUSH1 0x40 MLOAD PUSH2 0x3BE SWAP2 SWAP1 PUSH2 0x1F89 JUMP JUMPDEST PUSH1 0x40 MLOAD DUP1 SWAP2 SUB SWAP1 RETURN JUMPDEST PUSH1 0x60 PUSH1 0x3 DUP1 SLOAD PUSH2 0x3D6 SWAP1 PUSH2 0x217A JUMP JUMPDEST DUP1 PUSH1 0x1F ADD PUSH1 0x20 DUP1 SWAP2 DIV MUL PUSH1 0x20 ADD PUSH1 0x40 MLOAD SWAP1 DUP2 ADD PUSH1 0x40 MSTORE DUP1 SWAP3 SWAP2 SWAP1 DUP2 DUP2 MSTORE PUSH1 0x20 ADD DUP3 DUP1 SLOAD PUSH2 0x402 SWAP1 PUSH2 0x217A JUMP JUMPDEST DUP1 ISZERO PUSH2 0x44F JUMPI DUP1 PUSH1 0x1F LT PUSH2 0x424 JUMPI PUSH2 0x100 DUP1 DUP4 SLOAD DIV MUL DUP4 MSTORE SWAP2 PUSH1 0x20 ADD SWAP2 PUSH2 0x44F JUMP JUMPDEST DUP3 ADD SWAP2 SWAP1 PUSH1 0x0 MSTORE PUSH1 0x20 PUSH1 0x0 KECCAK256 SWAP1 JUMPDEST DUP2 SLOAD DUP2 MSTORE SWAP1 PUSH1 0x1 ADD SWAP1 PUSH1 0x20 ADD DUP1 DUP4 GT PUSH2 0x432 JUMPI DUP3 SWAP1 SUB PUSH1 0x1F AND DUP3 ADD SWAP2 JUMPDEST POP POP POP POP POP SWAP1 POP SWAP1 JUMP JUMPDEST PUSH1 0x0 DUP1 PUSH2 0x464 PUSH2 0x13DF JUMP JUMPDEST SWAP1 POP PUSH2 0x471 DUP2 DUP6 DUP6 PUSH2 0x13E7 JUMP JUMPDEST PUSH1 0x1 SWAP2 POP POP SWAP3 SWAP2 POP POP JUMP JUMPDEST PUSH1 0x0 PUSH1 0x2 SLOAD SWAP1 POP SWAP1 JUMP JUMPDEST PUSH1 0x0 DUP1 PUSH2 0x491 PUSH2 0x13DF JUMP JUMPDEST SWAP1 POP PUSH2 0x49E DUP6 DUP3 DUP6 PUSH2 0x15B0 JUMP JUMPDEST PUSH2 0x4A9 DUP6 DUP6 DUP6 PUSH2 0x163C JUMP JUMPDEST PUSH1 0x1 SWAP2 POP POP SWAP4 SWAP3 POP POP POP JUMP JUMPDEST PUSH1 0x0 PUSH1 0x5 PUSH1 0x15 SWAP1 SLOAD SWAP1 PUSH2 0x100 EXP SWAP1 DIV PUSH1 0xFF AND SWAP1 POP SWAP1 JUMP JUMPDEST PUSH2 0x514 PUSH2 0x4F0 CALLER PUSH20 0xFFFFFFFFFFFFFFFFFFFFFFFFFFFFFFFFFFFFFFFF AND PUSH1 0x14 PUSH2 0x110A JUMP JUMPDEST PUSH1 0x40 MLOAD PUSH1 0x20 ADD PUSH2 0x500 SWAP2 SWAP1 PUSH2 0x220D JUMP JUMPDEST PUSH1 0x40 MLOAD PUSH1 0x20 DUP2 DUP4 SUB SUB DUP2 MSTORE SWAP1 PUSH1 0x40 MSTORE PUSH2 0x1346 JUMP JUMPDEST PUSH2 0x5CA PUSH2 0x5A6 ADDRESS PUSH20 0xFFFFFFFFFFFFFFFFFFFFFFFFFFFFFFFFFFFFFFFF AND PUSH4 0x8F84AA09 PUSH1 0x40 MLOAD DUP2 PUSH4 0xFFFFFFFF AND PUSH1 0xE0 SHL DUP2 MSTORE PUSH1 0x4 ADD PUSH1 0x20 PUSH1 0x40 MLOAD DUP1 DUP4 SUB DUP2 DUP7 GAS STATICCALL ISZERO DUP1 ISZERO PUSH2 0x565 JUMPI RETURNDATASIZE PUSH1 0x0 DUP1 RETURNDATACOPY RETURNDATASIZE PUSH1 0x0 REVERT JUMPDEST POP POP POP POP PUSH1 0x40 MLOAD RETURNDATASIZE PUSH1 0x1F NOT PUSH1 0x1F DUP3 ADD AND DUP3 ADD DUP1 PUSH1 0x40 MSTORE POP DUP2 ADD SWAP1 PUSH2 0x589 SWAP2 SWAP1 PUSH2 0x2248 JUMP JUMPDEST PUSH20 0xFFFFFFFFFFFFFFFFFFFFFFFFFFFFFFFFFFFFFFFF AND PUSH1 0x14 PUSH2 0x110A JUMP JUMPDEST PUSH1 0x40 MLOAD PUSH1 0x20 ADD PUSH2 0x5B6 SWAP2 SWAP1 PUSH2 0x229B JUMP JUMPDEST PUSH1 0x40 MLOAD PUSH1 0x20 DUP2 DUP4 SUB SUB DUP2 MSTORE SWAP1 PUSH1 0x40 MSTORE PUSH2 0x1346 JUMP JUMPDEST PUSH1 0x5 PUSH1 0x1 SWAP1 SLOAD SWAP1 PUSH2 0x100 EXP SWAP1 DIV PUSH20 0xFFFFFFFFFFFFFFFFFFFFFFFFFFFFFFFFFFFFFFFF AND PUSH20 0xFFFFFFFFFFFFFFFFFFFFFFFFFFFFFFFFFFFFFFFF AND CALLER PUSH20 0xFFFFFFFFFFFFFFFFFFFFFFFFFFFFFFFFFFFFFFFF AND EQ PUSH2 0x65A JUMPI PUSH1 0x40 MLOAD PUSH32 0x8C379A000000000000000000000000000000000000000000000000000000000 DUP2 MSTORE PUSH1 0x4 ADD PUSH2 0x651 SWAP1 PUSH2 0x2333 JUMP JUMPDEST PUSH1 0x40 MLOAD DUP1 SWAP2 SUB SWAP1 REVERT JUMPDEST PUSH2 0x6A2 PUSH2 0x67E CALLER PUSH20 0xFFFFFFFFFFFFFFFFFFFFFFFFFFFFFFFFFFFFFFFF AND PUSH1 0x14 PUSH2 0x110A JUMP JUMPDEST PUSH1 0x40 MLOAD PUSH1 0x20 ADD PUSH2 0x68E SWAP2 SWAP1 PUSH2 0x2379 JUMP JUMPDEST PUSH1 0x40 MLOAD PUSH1 0x20 DUP2 DUP4 SUB SUB DUP2 MSTORE SWAP1 PUSH1 0x40 MSTORE PUSH2 0x1346 JUMP JUMPDEST PUSH2 0x758 PUSH2 0x734 ADDRESS PUSH20 0xFFFFFFFFFFFFFFFFFFFFFFFFFFFFFFFFFFFFFFFF AND PUSH4 0x8F84AA09 PUSH1 0x40 MLOAD DUP2 PUSH4 0xFFFFFFFF AND PUSH1 0xE0 SHL DUP2 MSTORE PUSH1 0x4 ADD PUSH1 0x20 PUSH1 0x40 MLOAD DUP1 DUP4 SUB DUP2 DUP7 GAS STATICCALL ISZERO DUP1 ISZERO PUSH2 0x6F3 JUMPI RETURNDATASIZE PUSH1 0x0 DUP1 RETURNDATACOPY RETURNDATASIZE PUSH1 0x0 REVERT JUMPDEST POP POP POP POP PUSH1 0x40 MLOAD RETURNDATASIZE PUSH1 0x1F NOT PUSH1 0x1F DUP3 ADD AND DUP3 ADD DUP1 PUSH1 0x40 MSTORE POP DUP2 ADD SWAP1 PUSH2 0x717 SWAP2 SWAP1 PUSH2 0x2248 JUMP JUMPDEST PUSH20 0xFFFFFFFFFFFFFFFFFFFFFFFFFFFFFFFFFFFFFFFF AND PUSH1 0x14 PUSH2 0x110A JUMP JUMPDEST PUSH1 0x40 MLOAD PUSH1 0x20 ADD PUSH2 0x744 SWAP2 SWAP1 PUSH2 0x23C5 JUMP JUMPDEST PUSH1 0x40 MLOAD PUSH1 0x20 DUP2 DUP4 SUB SUB DUP2 MSTORE SWAP1 PUSH1 0x40 MSTORE PUSH2 0x1346 JUMP JUMPDEST JUMP JUMPDEST PUSH1 0x0 DUP1 PUSH2 0x765 PUSH2 0x13DF JUMP JUMPDEST SWAP1 POP PUSH2 0x786 DUP2 DUP6 DUP6 PUSH2 0x777 DUP6 DUP10 PUSH2 0x1083 JUMP JUMPDEST PUSH2 0x781 SWAP2 SWAP1 PUSH2 0x241A JUMP JUMPDEST PUSH2 0x13E7 JUMP JUMPDEST PUSH1 0x1 SWAP2 POP POP SWAP3 SWAP2 POP POP JUMP JUMPDEST PUSH2 0x7D9 PUSH2 0x7B5 CALLER PUSH20 0xFFFFFFFFFFFFFFFFFFFFFFFFFFFFFFFFFFFFFFFF AND PUSH1 0x14 PUSH2 0x110A JUMP JUMPDEST PUSH1 0x40 MLOAD PUSH1 0x20 ADD PUSH2 0x7C5 SWAP2 SWAP1 PUSH2 0x220D JUMP JUMPDEST PUSH1 0x40 MLOAD PUSH1 0x20 DUP2 DUP4 SUB SUB DUP2 MSTORE SWAP1 PUSH1 0x40 MSTORE PUSH2 0x1346 JUMP JUMPDEST PUSH2 0x88F PUSH2 0x86B ADDRESS PUSH20 0xFFFFFFFFFFFFFFFFFFFFFFFFFFFFFFFFFFFFFFFF AND PUSH4 0x8F84AA09 PUSH1 0x40 MLOAD DUP2 PUSH4 0xFFFFFFFF AND PUSH1 0xE0 SHL DUP2 MSTORE PUSH1 0x4 ADD PUSH1 0x20 PUSH1 0x40 MLOAD DUP1 DUP4 SUB DUP2 DUP7 GAS STATICCALL ISZERO DUP1 ISZERO PUSH2 0x82A JUMPI RETURNDATASIZE PUSH1 0x0 DUP1 RETURNDATACOPY RETURNDATASIZE PUSH1 0x0 REVERT JUMPDEST POP POP POP POP PUSH1 0x40 MLOAD RETURNDATASIZE PUSH1 0x1F NOT PUSH1 0x1F DUP3 ADD AND DUP3 ADD DUP1 PUSH1 0x40 MSTORE POP DUP2 ADD SWAP1 PUSH2 0x84E SWAP2 SWAP1 PUSH2 0x2248 JUMP JUMPDEST PUSH20 0xFFFFFFFFFFFFFFFFFFFFFFFFFFFFFFFFFFFFFFFF AND PUSH1 0x14 PUSH2 0x110A JUMP JUMPDEST PUSH1 0x40 MLOAD PUSH1 0x20 ADD PUSH2 0x87B SWAP2 SWAP1 PUSH2 0x229B JUMP JUMPDEST PUSH1 0x40 MLOAD PUSH1 0x20 DUP2 DUP4 SUB SUB DUP2 MSTORE SWAP1 PUSH1 0x40 MSTORE PUSH2 0x1346 JUMP JUMPDEST PUSH1 0x5 PUSH1 0x1 SWAP1 SLOAD SWAP1 PUSH2 0x100 EXP SWAP1 DIV PUSH20 0xFFFFFFFFFFFFFFFFFFFFFFFFFFFFFFFFFFFFFFFF AND PUSH20 0xFFFFFFFFFFFFFFFFFFFFFFFFFFFFFFFFFFFFFFFF AND CALLER PUSH20 0xFFFFFFFFFFFFFFFFFFFFFFFFFFFFFFFFFFFFFFFF AND EQ PUSH2 0x91F JUMPI PUSH1 0x40 MLOAD PUSH32 0x8C379A000000000000000000000000000000000000000000000000000000000 DUP2 MSTORE PUSH1 0x4 ADD PUSH2 0x916 SWAP1 PUSH2 0x2333 JUMP JUMPDEST PUSH1 0x40 MLOAD DUP1 SWAP2 SUB SWAP1 REVERT JUMPDEST PUSH2 0x927 PUSH2 0x18B2 JUMP JUMPDEST PUSH2 0x965 PUSH1 0x5 PUSH1 0x1 SWAP1 SLOAD SWAP1 PUSH2 0x100 EXP SWAP1 DIV PUSH20 0xFFFFFFFFFFFFFFFFFFFFFFFFFFFFFFFFFFFFFFFF AND PUSH2 0x955 PUSH2 0x1068 JUMP JUMPDEST DUP4 PUSH2 0x960 SWAP2 SWAP1 PUSH2 0x244E JUMP JUMPDEST PUSH2 0x18FC JUMP JUMPDEST POP JUMP JUMPDEST PUSH1 0x0 PUSH1 0x5 PUSH1 0x0 SWAP1 SLOAD SWAP1 PUSH2 0x100 EXP SWAP1 DIV PUSH1 0xFF AND SWAP1 POP SWAP1 JUMP JUMPDEST PUSH2 0x9C7 PUSH2 0x9A3 CALLER PUSH20 0xFFFFFFFFFFFFFFFFFFFFFFFFFFFFFFFFFFFFFFFF AND PUSH1 0x14 PUSH2 0x110A JUMP JUMPDEST PUSH1 0x40 MLOAD PUSH1 0x20 ADD PUSH2 0x9B3 SWAP2 SWAP1 PUSH2 0x220D JUMP JUMPDEST PUSH1 0x40 MLOAD PUSH1 0x20 DUP2 DUP4 SUB SUB DUP2 MSTORE SWAP1 PUSH1 0x40 MSTORE PUSH2 0x1346 JUMP JUMPDEST PUSH2 0xA7D PUSH2 0xA59 ADDRESS PUSH20 0xFFFFFFFFFFFFFFFFFFFFFFFFFFFFFFFFFFFFFFFF AND PUSH4 0x8F84AA09 PUSH1 0x40 MLOAD DUP2 PUSH4 0xFFFFFFFF AND PUSH1 0xE0 SHL DUP2 MSTORE PUSH1 0x4 ADD PUSH1 0x20 PUSH1 0x40 MLOAD DUP1 DUP4 SUB DUP2 DUP7 GAS STATICCALL ISZERO DUP1 ISZERO PUSH2 0xA18 JUMPI RETURNDATASIZE PUSH1 0x0 DUP1 RETURNDATACOPY RETURNDATASIZE PUSH1 0x0 REVERT JUMPDEST POP POP POP POP PUSH1 0x40 MLOAD RETURNDATASIZE PUSH1 0x1F NOT PUSH1 0x1F DUP3 ADD AND DUP3 ADD DUP1 PUSH1 0x40 MSTORE POP DUP2 ADD SWAP1 PUSH2 0xA3C SWAP2 SWAP1 PUSH2 0x2248 JUMP JUMPDEST PUSH20 0xFFFFFFFFFFFFFFFFFFFFFFFFFFFFFFFFFFFFFFFF AND PUSH1 0x14 PUSH2 0x110A JUMP JUMPDEST PUSH1 0x40 MLOAD PUSH1 0x20 ADD PUSH2 0xA69 SWAP2 SWAP1 PUSH2 0x229B JUMP JUMPDEST PUSH1 0x40 MLOAD PUSH1 0x20 DUP2 DUP4 SUB SUB DUP2 MSTORE SWAP1 PUSH1 0x40 MSTORE PUSH2 0x1346 JUMP JUMPDEST PUSH1 0x5 PUSH1 0x1 SWAP1 SLOAD SWAP1 PUSH2 0x100 EXP SWAP1 DIV PUSH20 0xFFFFFFFFFFFFFFFFFFFFFFFFFFFFFFFFFFFFFFFF AND PUSH20 0xFFFFFFFFFFFFFFFFFFFFFFFFFFFFFFFFFFFFFFFF AND CALLER PUSH20 0xFFFFFFFFFFFFFFFFFFFFFFFFFFFFFFFFFFFFFFFF AND EQ PUSH2 0xB0D JUMPI PUSH1 0x40 MLOAD PUSH32 0x8C379A000000000000000000000000000000000000000000000000000000000 DUP2 MSTORE PUSH1 0x4 ADD PUSH2 0xB04 SWAP1 PUSH2 0x2333 JUMP JUMPDEST PUSH1 0x40 MLOAD DUP1 SWAP2 SUB SWAP1 REVERT JUMPDEST PUSH2 0xB15 PUSH2 0x18B2 JUMP JUMPDEST PUSH2 0xB56 PUSH1 0x5 PUSH1 0x1 SWAP1 SLOAD SWAP1 PUSH2 0x100 EXP SWAP1 DIV PUSH20 0xFFFFFFFFFFFFFFFFFFFFFFFFFFFFFFFFFFFFFFFF AND PUSH2 0xB43 PUSH2 0x1068 JUMP JUMPDEST DUP4 PUSH1 0xFF AND PUSH2 0xB51 SWAP2 SWAP1 PUSH2 0x244E JUMP JUMPDEST PUSH2 0x1AC9 JUMP JUMPDEST POP JUMP JUMPDEST PUSH1 0x0 DUP1 PUSH1 0x0 DUP4 PUSH20 0xFFFFFFFFFFFFFFFFFFFFFFFFFFFFFFFFFFFFFFFF AND PUSH20 0xFFFFFFFFFFFFFFFFFFFFFFFFFFFFFFFFFFFFFFFF AND DUP2 MSTORE PUSH1 0x20 ADD SWAP1 DUP2 MSTORE PUSH1 0x20 ADD PUSH1 0x0 KECCAK256 SLOAD SWAP1 POP SWAP2 SWAP1 POP JUMP JUMPDEST PUSH2 0xBE9 PUSH2 0xBC5 CALLER PUSH20 0xFFFFFFFFFFFFFFFFFFFFFFFFFFFFFFFFFFFFFFFF AND PUSH1 0x14 PUSH2 0x110A JUMP JUMPDEST PUSH1 0x40 MLOAD PUSH1 0x20 ADD PUSH2 0xBD5 SWAP2 SWAP1 PUSH2 0x220D JUMP JUMPDEST PUSH1 0x40 MLOAD PUSH1 0x20 DUP2 DUP4 SUB SUB DUP2 MSTORE SWAP1 PUSH1 0x40 MSTORE PUSH2 0x1346 JUMP JUMPDEST PUSH2 0xC9F PUSH2 0xC7B ADDRESS PUSH20 0xFFFFFFFFFFFFFFFFFFFFFFFFFFFFFFFFFFFFFFFF AND PUSH4 0x8F84AA09 PUSH1 0x40 MLOAD DUP2 PUSH4 0xFFFFFFFF AND PUSH1 0xE0 SHL DUP2 MSTORE PUSH1 0x4 ADD PUSH1 0x20 PUSH1 0x40 MLOAD DUP1 DUP4 SUB DUP2 DUP7 GAS STATICCALL ISZERO DUP1 ISZERO PUSH2 0xC3A JUMPI RETURNDATASIZE PUSH1 0x0 DUP1 RETURNDATACOPY RETURNDATASIZE PUSH1 0x0 REVERT JUMPDEST POP POP POP POP PUSH1 0x40 MLOAD RETURNDATASIZE PUSH1 0x1F NOT PUSH1 0x1F DUP3 ADD AND DUP3 ADD DUP1 PUSH1 0x40 MSTORE POP DUP2 ADD SWAP1 PUSH2 0xC5E SWAP2 SWAP1 PUSH2 0x2248 JUMP JUMPDEST PUSH20 0xFFFFFFFFFFFFFFFFFFFFFFFFFFFFFFFFFFFFFFFF AND PUSH1 0x14 PUSH2 0x110A JUMP JUMPDEST PUSH1 0x40 MLOAD PUSH1 0x20 ADD PUSH2 0xC8B SWAP2 SWAP1 PUSH2 0x229B JUMP JUMPDEST PUSH1 0x40 MLOAD PUSH1 0x20 DUP2 DUP4 SUB SUB DUP2 MSTORE SWAP1 PUSH1 0x40 MSTORE PUSH2 0x1346 JUMP JUMPDEST PUSH1 0x5 PUSH1 0x1 SWAP1 SLOAD SWAP1 PUSH2 0x100 EXP SWAP1 DIV PUSH20 0xFFFFFFFFFFFFFFFFFFFFFFFFFFFFFFFFFFFFFFFF AND PUSH20 0xFFFFFFFFFFFFFFFFFFFFFFFFFFFFFFFFFFFFFFFF AND CALLER PUSH20 0xFFFFFFFFFFFFFFFFFFFFFFFFFFFFFFFFFFFFFFFF AND EQ PUSH2 0xD2F JUMPI PUSH1 0x40 MLOAD PUSH32 0x8C379A000000000000000000000000000000000000000000000000000000000 DUP2 MSTORE PUSH1 0x4 ADD PUSH2 0xD26 SWAP1 PUSH2 0x2333 JUMP JUMPDEST PUSH1 0x40 MLOAD DUP1 SWAP2 SUB SWAP1 REVERT JUMPDEST PUSH2 0xD37 PUSH2 0x968 JUMP JUMPDEST PUSH2 0xD44 JUMPI PUSH2 0xD43 PUSH2 0x1C1F JUMP JUMPDEST JUMPDEST JUMP JUMPDEST PUSH1 0x5 PUSH1 0x1 SWAP1 SLOAD SWAP1 PUSH2 0x100 EXP SWAP1 DIV PUSH20 0xFFFFFFFFFFFFFFFFFFFFFFFFFFFFFFFFFFFFFFFF AND DUP2 JUMP JUMPDEST PUSH1 0x0 PUSH1 0x5 PUSH1 0x1 SWAP1 SLOAD SWAP1 PUSH2 0x100 EXP SWAP1 DIV PUSH20 0xFFFFFFFFFFFFFFFFFFFFFFFFFFFFFFFFFFFFFFFF AND SWAP1 POP SWAP1 JUMP JUMPDEST PUSH1 0x60 PUSH1 0x4 DUP1 SLOAD PUSH2 0xDA5 SWAP1 PUSH2 0x217A JUMP JUMPDEST DUP1 PUSH1 0x1F ADD PUSH1 0x20 DUP1 SWAP2 DIV MUL PUSH1 0x20 ADD PUSH1 0x40 MLOAD SWAP1 DUP2 ADD PUSH1 0x40 MSTORE DUP1 SWAP3 SWAP2 SWAP1 DUP2 DUP2 MSTORE PUSH1 0x20 ADD DUP3 DUP1 SLOAD PUSH2 0xDD1 SWAP1 PUSH2 0x217A JUMP JUMPDEST DUP1 ISZERO PUSH2 0xE1E JUMPI DUP1 PUSH1 0x1F LT PUSH2 0xDF3 JUMPI PUSH2 0x100 DUP1 DUP4 SLOAD DIV MUL DUP4 MSTORE SWAP2 PUSH1 0x20 ADD SWAP2 PUSH2 0xE1E JUMP JUMPDEST DUP3 ADD SWAP2 SWAP1 PUSH1 0x0 MSTORE PUSH1 0x20 PUSH1 0x0 KECCAK256 SWAP1 JUMPDEST DUP2 SLOAD DUP2 MSTORE SWAP1 PUSH1 0x1 ADD SWAP1 PUSH1 0x20 ADD DUP1 DUP4 GT PUSH2 0xE01 JUMPI DUP3 SWAP1 SUB PUSH1 0x1F AND DUP3 ADD SWAP2 JUMPDEST POP POP POP POP POP SWAP1 POP SWAP1 JUMP JUMPDEST PUSH2 0xE70 PUSH2 0xE4C CALLER PUSH20 0xFFFFFFFFFFFFFFFFFFFFFFFFFFFFFFFFFFFFFFFF AND PUSH1 0x14 PUSH2 0x110A JUMP JUMPDEST PUSH1 0x40 MLOAD PUSH1 0x20 ADD PUSH2 0xE5C SWAP2 SWAP1 PUSH2 0x220D JUMP JUMPDEST PUSH1 0x40 MLOAD PUSH1 0x20 DUP2 DUP4 SUB SUB DUP2 MSTORE SWAP1 PUSH1 0x40 MSTORE PUSH2 0x1346 JUMP JUMPDEST PUSH2 0xF26 PUSH2 0xF02 ADDRESS PUSH20 0xFFFFFFFFFFFFFFFFFFFFFFFFFFFFFFFFFFFFFFFF AND PUSH4 0x8F84AA09 PUSH1 0x40 MLOAD DUP2 PUSH4 0xFFFFFFFF AND PUSH1 0xE0 SHL DUP2 MSTORE PUSH1 0x4 ADD PUSH1 0x20 PUSH1 0x40 MLOAD DUP1 DUP4 SUB DUP2 DUP7 GAS STATICCALL ISZERO DUP1 ISZERO PUSH2 0xEC1 JUMPI RETURNDATASIZE PUSH1 0x0 DUP1 RETURNDATACOPY RETURNDATASIZE PUSH1 0x0 REVERT JUMPDEST POP POP POP POP PUSH1 0x40 MLOAD RETURNDATASIZE PUSH1 0x1F NOT PUSH1 0x1F DUP3 ADD AND DUP3 ADD DUP1 PUSH1 0x40 MSTORE POP DUP2 ADD SWAP1 PUSH2 0xEE5 SWAP2 SWAP1 PUSH2 0x2248 JUMP JUMPDEST PUSH20 0xFFFFFFFFFFFFFFFFFFFFFFFFFFFFFFFFFFFFFFFF AND PUSH1 0x14 PUSH2 0x110A JUMP JUMPDEST PUSH1 0x40 MLOAD PUSH1 0x20 ADD PUSH2 0xF12 SWAP2 SWAP1 PUSH2 0x229B JUMP JUMPDEST PUSH1 0x40 MLOAD PUSH1 0x20 DUP2 DUP4 SUB SUB DUP2 MSTORE SWAP1 PUSH1 0x40 MSTORE PUSH2 0x1346 JUMP JUMPDEST PUSH1 0x5 PUSH1 0x1 SWAP1 SLOAD SWAP1 PUSH2 0x100 EXP SWAP1 DIV PUSH20 0xFFFFFFFFFFFFFFFFFFFFFFFFFFFFFFFFFFFFFFFF AND PUSH20 0xFFFFFFFFFFFFFFFFFFFFFFFFFFFFFFFFFFFFFFFF AND CALLER PUSH20 0xFFFFFFFFFFFFFFFFFFFFFFFFFFFFFFFFFFFFFFFF AND EQ PUSH2 0xFB6 JUMPI PUSH1 0x40 MLOAD PUSH32 0x8C379A000000000000000000000000000000000000000000000000000000000 DUP2 MSTORE PUSH1 0x4 ADD PUSH2 0xFAD SWAP1 PUSH2 0x2333 JUMP JUMPDEST PUSH1 0x40 MLOAD DUP1 SWAP2 SUB SWAP1 REVERT JUMPDEST PUSH2 0xFBE PUSH2 0x968 JUMP JUMPDEST ISZERO PUSH2 0xFCC JUMPI PUSH2 0xFCB PUSH2 0x1C82 JUMP JUMPDEST JUMPDEST JUMP JUMPDEST PUSH1 0x0 DUP1 PUSH2 0xFD9 PUSH2 0x13DF JUMP JUMPDEST SWAP1 POP PUSH1 0x0 PUSH2 0xFE7 DUP3 DUP7 PUSH2 0x1083 JUMP JUMPDEST SWAP1 POP DUP4 DUP2 LT ISZERO PUSH2 0x102C JUMPI PUSH1 0x40 MLOAD PUSH32 0x8C379A000000000000000000000000000000000000000000000000000000000 DUP2 MSTORE PUSH1 0x4 ADD PUSH2 0x1023 SWAP1 PUSH2 0x2502 JUMP JUMPDEST PUSH1 0x40 MLOAD DUP1 SWAP2 SUB SWAP1 REVERT JUMPDEST PUSH2 0x1039 DUP3 DUP7 DUP7 DUP5 SUB PUSH2 0x13E7 JUMP JUMPDEST PUSH1 0x1 SWAP3 POP POP POP SWAP3 SWAP2 POP POP JUMP JUMPDEST PUSH1 0x0 DUP1 PUSH2 0x1050 PUSH2 0x13DF JUMP JUMPDEST SWAP1 POP PUSH2 0x105D DUP2 DUP6 DUP6 PUSH2 0x163C JUMP JUMPDEST PUSH1 0x1 SWAP2 POP POP SWAP3 SWAP2 POP POP JUMP JUMPDEST PUSH1 0x0 PUSH2 0x1072 PUSH2 0x4B5 JUMP JUMPDEST PUSH1 0xA PUSH2 0x107E SWAP2 SWAP1 PUSH2 0x2655 JUMP JUMPDEST SWAP1 POP SWAP1 JUMP JUMPDEST PUSH1 0x0 PUSH1 0x1 PUSH1 0x0 DUP5 PUSH20 0xFFFFFFFFFFFFFFFFFFFFFFFFFFFFFFFFFFFFFFFF AND PUSH20 0xFFFFFFFFFFFFFFFFFFFFFFFFFFFFFFFFFFFFFFFF AND DUP2 MSTORE PUSH1 0x20 ADD SWAP1 DUP2 MSTORE PUSH1 0x20 ADD PUSH1 0x0 KECCAK256 PUSH1 0x0 DUP4 PUSH20 0xFFFFFFFFFFFFFFFFFFFFFFFFFFFFFFFFFFFFFFFF AND PUSH20 0xFFFFFFFFFFFFFFFFFFFFFFFFFFFFFFFFFFFFFFFF AND DUP2 MSTORE PUSH1 0x20 ADD SWAP1 DUP2 MSTORE PUSH1 0x20 ADD PUSH1 0x0 KECCAK256 SLOAD SWAP1 POP SWAP3 SWAP2 POP POP JUMP JUMPDEST PUSH1 0x60 PUSH1 0x0 PUSH1 0x2 DUP4 PUSH1 0x2 PUSH2 0x111D SWAP2 SWAP1 PUSH2 0x244E JUMP JUMPDEST PUSH2 0x1127 SWAP2 SWAP1 PUSH2 0x241A JUMP JUMPDEST PUSH8 0xFFFFFFFFFFFFFFFF DUP2 GT ISZERO PUSH2 0x1140 JUMPI PUSH2 0x113F PUSH2 0x26A0 JUMP JUMPDEST JUMPDEST PUSH1 0x40 MLOAD SWAP1 DUP1 DUP3 MSTORE DUP1 PUSH1 0x1F ADD PUSH1 0x1F NOT AND PUSH1 0x20 ADD DUP3 ADD PUSH1 0x40 MSTORE DUP1 ISZERO PUSH2 0x1172 JUMPI DUP2 PUSH1 0x20 ADD PUSH1 0x1 DUP3 MUL DUP1 CALLDATASIZE DUP4 CALLDATACOPY DUP1 DUP3 ADD SWAP2 POP POP SWAP1 POP JUMPDEST POP SWAP1 POP PUSH32 0x3000000000000000000000000000000000000000000000000000000000000000 DUP2 PUSH1 0x0 DUP2 MLOAD DUP2 LT PUSH2 0x11AA JUMPI PUSH2 0x11A9 PUSH2 0x26CF JUMP JUMPDEST JUMPDEST PUSH1 0x20 ADD ADD SWAP1 PUSH31 0xFFFFFFFFFFFFFFFFFFFFFFFFFFFFFFFFFFFFFFFFFFFFFFFFFFFFFFFFFFFFFF NOT AND SWAP1 DUP2 PUSH1 0x0 BYTE SWAP1 MSTORE8 POP PUSH32 0x7800000000000000000000000000000000000000000000000000000000000000 DUP2 PUSH1 0x1 DUP2 MLOAD DUP2 LT PUSH2 0x120E JUMPI PUSH2 0x120D PUSH2 0x26CF JUMP JUMPDEST JUMPDEST PUSH1 0x20 ADD ADD SWAP1 PUSH31 0xFFFFFFFFFFFFFFFFFFFFFFFFFFFFFFFFFFFFFFFFFFFFFFFFFFFFFFFFFFFFFF NOT AND SWAP1 DUP2 PUSH1 0x0 BYTE SWAP1 MSTORE8 POP PUSH1 0x0 PUSH1 0x1 DUP5 PUSH1 0x2 PUSH2 0x124E SWAP2 SWAP1 PUSH2 0x244E JUMP JUMPDEST PUSH2 0x1258 SWAP2 SWAP1 PUSH2 0x241A JUMP JUMPDEST SWAP1 POP JUMPDEST PUSH1 0x1 DUP2 GT ISZERO PUSH2 0x12F8 JUMPI PUSH32 0x3031323334353637383961626364656600000000000000000000000000000000 PUSH1 0xF DUP7 AND PUSH1 0x10 DUP2 LT PUSH2 0x129A JUMPI PUSH2 0x1299 PUSH2 0x26CF JUMP JUMPDEST JUMPDEST BYTE PUSH1 0xF8 SHL DUP3 DUP3 DUP2 MLOAD DUP2 LT PUSH2 0x12B1 JUMPI PUSH2 0x12B0 PUSH2 0x26CF JUMP JUMPDEST JUMPDEST PUSH1 0x20 ADD ADD SWAP1 PUSH31 0xFFFFFFFFFFFFFFFFFFFFFFFFFFFFFFFFFFFFFFFFFFFFFFFFFFFFFFFFFFFFFF NOT AND SWAP1 DUP2 PUSH1 0x0 BYTE SWAP1 MSTORE8 POP PUSH1 0x4 DUP6 SWAP1 SHR SWAP5 POP DUP1 PUSH2 0x12F1 SWAP1 PUSH2 0x26FE JUMP JUMPDEST SWAP1 POP PUSH2 0x125B JUMP JUMPDEST POP PUSH1 0x0 DUP5 EQ PUSH2 0x133C JUMPI PUSH1 0x40 MLOAD PUSH32 0x8C379A000000000000000000000000000000000000000000000000000000000 DUP2 MSTORE PUSH1 0x4 ADD PUSH2 0x1333 SWAP1 PUSH2 0x2773 JUMP JUMPDEST PUSH1 0x40 MLOAD DUP1 SWAP2 SUB SWAP1 REVERT JUMPDEST DUP1 SWAP2 POP POP SWAP3 SWAP2 POP POP JUMP JUMPDEST PUSH2 0x13DC DUP2 PUSH1 0x40 MLOAD PUSH1 0x24 ADD PUSH2 0x135A SWAP2 SWAP1 PUSH2 0x1E49 JUMP JUMPDEST PUSH1 0x40 MLOAD PUSH1 0x20 DUP2 DUP4 SUB SUB DUP2 MSTORE SWAP1 PUSH1 0x40 MSTORE PUSH32 0x41304FAC00000000000000000000000000000000000000000000000000000000 PUSH28 0xFFFFFFFFFFFFFFFFFFFFFFFFFFFFFFFFFFFFFFFFFFFFFFFFFFFFFFFF NOT AND PUSH1 0x20 DUP3 ADD DUP1 MLOAD PUSH28 0xFFFFFFFFFFFFFFFFFFFFFFFFFFFFFFFFFFFFFFFFFFFFFFFFFFFFFFFF DUP4 DUP2 DUP4 AND OR DUP4 MSTORE POP POP POP POP PUSH2 0x1CE5 JUMP JUMPDEST POP JUMP JUMPDEST PUSH1 0x0 CALLER SWAP1 POP SWAP1 JUMP JUMPDEST PUSH1 0x0 PUSH20 0xFFFFFFFFFFFFFFFFFFFFFFFFFFFFFFFFFFFFFFFF AND DUP4 PUSH20 0xFFFFFFFFFFFFFFFFFFFFFFFFFFFFFFFFFFFFFFFF AND SUB PUSH2 0x1456 JUMPI PUSH1 0x40 MLOAD PUSH32 0x8C379A000000000000000000000000000000000000000000000000000000000 DUP2 MSTORE PUSH1 0x4 ADD PUSH2 0x144D SWAP1 PUSH2 0x2805 JUMP JUMPDEST PUSH1 0x40 MLOAD DUP1 SWAP2 SUB SWAP1 REVERT JUMPDEST PUSH1 0x0 PUSH20 0xFFFFFFFFFFFFFFFFFFFFFFFFFFFFFFFFFFFFFFFF AND DUP3 PUSH20 0xFFFFFFFFFFFFFFFFFFFFFFFFFFFFFFFFFFFFFFFF AND SUB PUSH2 0x14C5 JUMPI PUSH1 0x40 MLOAD PUSH32 0x8C379A000000000000000000000000000000000000000000000000000000000 DUP2 MSTORE PUSH1 0x4 ADD PUSH2 0x14BC SWAP1 PUSH2 0x2897 JUMP JUMPDEST PUSH1 0x40 MLOAD DUP1 SWAP2 SUB SWAP1 REVERT JUMPDEST DUP1 PUSH1 0x1 PUSH1 0x0 DUP6 PUSH20 0xFFFFFFFFFFFFFFFFFFFFFFFFFFFFFFFFFFFFFFFF AND PUSH20 0xFFFFFFFFFFFFFFFFFFFFFFFFFFFFFFFFFFFFFFFF AND DUP2 MSTORE PUSH1 0x20 ADD SWAP1 DUP2 MSTORE PUSH1 0x20 ADD PUSH1 0x0 KECCAK256 PUSH1 0x0 DUP5 PUSH20 0xFFFFFFFFFFFFFFFFFFFFFFFFFFFFFFFFFFFFFFFF AND PUSH20 0xFFFFFFFFFFFFFFFFFFFFFFFFFFFFFFFFFFFFFFFF AND DUP2 MSTORE PUSH1 0x20 ADD SWAP1 DUP2 MSTORE PUSH1 0x20 ADD PUSH1 0x0 KECCAK256 DUP2 SWAP1 SSTORE POP DUP2 PUSH20 0xFFFFFFFFFFFFFFFFFFFFFFFFFFFFFFFFFFFFFFFF AND DUP4 PUSH20 0xFFFFFFFFFFFFFFFFFFFFFFFFFFFFFFFFFFFFFFFF AND PUSH32 0x8C5BE1E5EBEC7D5BD14F71427D1E84F3DD0314C0F7B2291E5B200AC8C7C3B925 DUP4 PUSH1 0x40 MLOAD PUSH2 0x15A3 SWAP2 SWAP1 PUSH2 0x1F89 JUMP JUMPDEST PUSH1 0x40 MLOAD DUP1 SWAP2 SUB SWAP1 LOG3 POP POP POP JUMP JUMPDEST PUSH1 0x0 PUSH2 0x15BC DUP5 DUP5 PUSH2 0x1083 JUMP JUMPDEST SWAP1 POP PUSH32 0xFFFFFFFFFFFFFFFFFFFFFFFFFFFFFFFFFFFFFFFFFFFFFFFFFFFFFFFFFFFFFFFF DUP2 EQ PUSH2 0x1636 JUMPI DUP2 DUP2 LT ISZERO PUSH2 0x1628 JUMPI PUSH1 0x40 MLOAD PUSH32 0x8C379A000000000000000000000000000000000000000000000000000000000 DUP2 MSTORE PUSH1 0x4 ADD PUSH2 0x161F SWAP1 PUSH2 0x2903 JUMP JUMPDEST PUSH1 0x40 MLOAD DUP1 SWAP2 SUB SWAP1 REVERT JUMPDEST PUSH2 0x1635 DUP5 DUP5 DUP5 DUP5 SUB PUSH2 0x13E7 JUMP JUMPDEST JUMPDEST POP POP POP POP JUMP JUMPDEST PUSH1 0x0 PUSH20 0xFFFFFFFFFFFFFFFFFFFFFFFFFFFFFFFFFFFFFFFF AND DUP4 PUSH20 0xFFFFFFFFFFFFFFFFFFFFFFFFFFFFFFFFFFFFFFFF AND SUB PUSH2 0x16AB JUMPI PUSH1 0x40 MLOAD PUSH32 0x8C379A000000000000000000000000000000000000000000000000000000000 DUP2 MSTORE PUSH1 0x4 ADD PUSH2 0x16A2 SWAP1 PUSH2 0x2995 JUMP JUMPDEST PUSH1 0x40 MLOAD DUP1 SWAP2 SUB SWAP1 REVERT JUMPDEST PUSH1 0x0 PUSH20 0xFFFFFFFFFFFFFFFFFFFFFFFFFFFFFFFFFFFFFFFF AND DUP3 PUSH20 0xFFFFFFFFFFFFFFFFFFFFFFFFFFFFFFFFFFFFFFFF AND SUB PUSH2 0x171A JUMPI PUSH1 0x40 MLOAD PUSH32 0x8C379A000000000000000000000000000000000000000000000000000000000 DUP2 MSTORE PUSH1 0x4 ADD PUSH2 0x1711 SWAP1 PUSH2 0x2A27 JUMP JUMPDEST PUSH1 0x40 MLOAD DUP1 SWAP2 SUB SWAP1 REVERT JUMPDEST PUSH2 0x1725 DUP4 DUP4 DUP4 PUSH2 0x1D0E JUMP JUMPDEST PUSH1 0x0 DUP1 PUSH1 0x0 DUP6 PUSH20 0xFFFFFFFFFFFFFFFFFFFFFFFFFFFFFFFFFFFFFFFF AND PUSH20 0xFFFFFFFFFFFFFFFFFFFFFFFFFFFFFFFFFFFFFFFF AND DUP2 MSTORE PUSH1 0x20 ADD SWAP1 DUP2 MSTORE PUSH1 0x20 ADD PUSH1 0x0 KECCAK256 SLOAD SWAP1 POP DUP2 DUP2 LT ISZERO PUSH2 0x17AB JUMPI PUSH1 0x40 MLOAD PUSH32 0x8C379A000000000000000000000000000000000000000000000000000000000 DUP2 MSTORE PUSH1 0x4 ADD PUSH2 0x17A2 SWAP1 PUSH2 0x2AB9 JUMP JUMPDEST PUSH1 0x40 MLOAD DUP1 SWAP2 SUB SWAP1 REVERT JUMPDEST DUP2 DUP2 SUB PUSH1 0x0 DUP1 DUP7 PUSH20 0xFFFFFFFFFFFFFFFFFFFFFFFFFFFFFFFFFFFFFFFF AND PUSH20 0xFFFFFFFFFFFFFFFFFFFFFFFFFFFFFFFFFFFFFFFF AND DUP2 MSTORE PUSH1 0x20 ADD SWAP1 DUP2 MSTORE PUSH1 0x20 ADD PUSH1 0x0 KECCAK256 DUP2 SWAP1 SSTORE POP DUP2 PUSH1 0x0 DUP1 DUP6 PUSH20 0xFFFFFFFFFFFFFFFFFFFFFFFFFFFFFFFFFFFFFFFF AND PUSH20 0xFFFFFFFFFFFFFFFFFFFFFFFFFFFFFFFFFFFFFFFF AND DUP2 MSTORE PUSH1 0x20 ADD SWAP1 DUP2 MSTORE PUSH1 0x20 ADD PUSH1 0x0 KECCAK256 PUSH1 0x0 DUP3 DUP3 SLOAD ADD SWAP3 POP POP DUP2 SWAP1 SSTORE POP DUP3 PUSH20 0xFFFFFFFFFFFFFFFFFFFFFFFFFFFFFFFFFFFFFFFF AND DUP5 PUSH20 0xFFFFFFFFFFFFFFFFFFFFFFFFFFFFFFFFFFFFFFFF AND PUSH32 0xDDF252AD1BE2C89B69C2B068FC378DAA952BA7F163C4A11628F55A4DF523B3EF DUP5 PUSH1 0x40 MLOAD PUSH2 0x1899 SWAP2 SWAP1 PUSH2 0x1F89 JUMP JUMPDEST PUSH1 0x40 MLOAD DUP1 SWAP2 SUB SWAP1 LOG3 PUSH2 0x18AC DUP5 DUP5 DUP5 PUSH2 0x1D66 JUMP JUMPDEST POP POP POP POP JUMP JUMPDEST PUSH2 0x18BA PUSH2 0x968 JUMP JUMPDEST ISZERO PUSH2 0x18FA JUMPI PUSH1 0x40 MLOAD PUSH32 0x8C379A000000000000000000000000000000000000000000000000000000000 DUP2 MSTORE PUSH1 0x4 ADD PUSH2 0x18F1 SWAP1 PUSH2 0x2B25 JUMP JUMPDEST PUSH1 0x40 MLOAD DUP1 SWAP2 SUB SWAP1 REVERT JUMPDEST JUMP JUMPDEST PUSH1 0x0 PUSH20 0xFFFFFFFFFFFFFFFFFFFFFFFFFFFFFFFFFFFFFFFF AND DUP3 PUSH20 0xFFFFFFFFFFFFFFFFFFFFFFFFFFFFFFFFFFFFFFFF AND SUB PUSH2 0x196B JUMPI PUSH1 0x40 MLOAD PUSH32 0x8C379A000000000000000000000000000000000000000000000000000000000 DUP2 MSTORE PUSH1 0x4 ADD PUSH2 0x1962 SWAP1 PUSH2 0x2BB7 JUMP JUMPDEST PUSH1 0x40 MLOAD DUP1 SWAP2 SUB SWAP1 REVERT JUMPDEST PUSH2 0x1977 DUP3 PUSH1 0x0 DUP4 PUSH2 0x1D0E JUMP JUMPDEST PUSH1 0x0 DUP1 PUSH1 0x0 DUP5 PUSH20 0xFFFFFFFFFFFFFFFFFFFFFFFFFFFFFFFFFFFFFFFF AND PUSH20 0xFFFFFFFFFFFFFFFFFFFFFFFFFFFFFFFFFFFFFFFF AND DUP2 MSTORE PUSH1 0x20 ADD SWAP1 DUP2 MSTORE PUSH1 0x20 ADD PUSH1 0x0 KECCAK256 SLOAD SWAP1 POP DUP2 DUP2 LT ISZERO PUSH2 0x19FD JUMPI PUSH1 0x40 MLOAD PUSH32 0x8C379A000000000000000000000000000000000000000000000000000000000 DUP2 MSTORE PUSH1 0x4 ADD PUSH2 0x19F4 SWAP1 PUSH2 0x2C49 JUMP JUMPDEST PUSH1 0x40 MLOAD DUP1 SWAP2 SUB SWAP1 REVERT JUMPDEST DUP2 DUP2 SUB PUSH1 0x0 DUP1 DUP6 PUSH20 0xFFFFFFFFFFFFFFFFFFFFFFFFFFFFFFFFFFFFFFFF AND PUSH20 0xFFFFFFFFFFFFFFFFFFFFFFFFFFFFFFFFFFFFFFFF AND DUP2 MSTORE PUSH1 0x20 ADD SWAP1 DUP2 MSTORE PUSH1 0x20 ADD PUSH1 0x0 KECCAK256 DUP2 SWAP1 SSTORE POP DUP2 PUSH1 0x2 PUSH1 0x0 DUP3 DUP3 SLOAD SUB SWAP3 POP POP DUP2 SWAP1 SSTORE POP PUSH1 0x0 PUSH20 0xFFFFFFFFFFFFFFFFFFFFFFFFFFFFFFFFFFFFFFFF AND DUP4 PUSH20 0xFFFFFFFFFFFFFFFFFFFFFFFFFFFFFFFFFFFFFFFF AND PUSH32 0xDDF252AD1BE2C89B69C2B068FC378DAA952BA7F163C4A11628F55A4DF523B3EF DUP5 PUSH1 0x40 MLOAD PUSH2 0x1AB0 SWAP2 SWAP1 PUSH2 0x1F89 JUMP JUMPDEST PUSH1 0x40 MLOAD DUP1 SWAP2 SUB SWAP1 LOG3 PUSH2 0x1AC4 DUP4 PUSH1 0x0 DUP5 PUSH2 0x1D66 JUMP JUMPDEST POP POP POP JUMP JUMPDEST PUSH1 0x0 PUSH20 0xFFFFFFFFFFFFFFFFFFFFFFFFFFFFFFFFFFFFFFFF AND DUP3 PUSH20 0xFFFFFFFFFFFFFFFFFFFFFFFFFFFFFFFFFFFFFFFF AND SUB PUSH2 0x1B38 JUMPI PUSH1 0x40 MLOAD PUSH32 0x8C379A000000000000000000000000000000000000000000000000000000000 DUP2 MSTORE PUSH1 0x4 ADD PUSH2 0x1B2F SWAP1 PUSH2 0x2CB5 JUMP JUMPDEST PUSH1 0x40 MLOAD DUP1 SWAP2 SUB SWAP1 REVERT JUMPDEST PUSH2 0x1B44 PUSH1 0x0 DUP4 DUP4 PUSH2 0x1D0E JUMP JUMPDEST DUP1 PUSH1 0x2 PUSH1 0x0 DUP3 DUP3 SLOAD PUSH2 0x1B56 SWAP2 SWAP1 PUSH2 0x241A JUMP JUMPDEST SWAP3 POP POP DUP2 SWAP1 SSTORE POP DUP1 PUSH1 0x0 DUP1 DUP5 PUSH20 0xFFFFFFFFFFFFFFFFFFFFFFFFFFFFFFFFFFFFFFFF AND PUSH20 0xFFFFFFFFFFFFFFFFFFFFFFFFFFFFFFFFFFFFFFFF AND DUP2 MSTORE PUSH1 0x20 ADD SWAP1 DUP2 MSTORE PUSH1 0x20 ADD PUSH1 0x0 KECCAK256 PUSH1 0x0 DUP3 DUP3 SLOAD ADD SWAP3 POP POP DUP2 SWAP1 SSTORE POP DUP2 PUSH20 0xFFFFFFFFFFFFFFFFFFFFFFFFFFFFFFFFFFFFFFFF AND PUSH1 0x0 PUSH20 0xFFFFFFFFFFFFFFFFFFFFFFFFFFFFFFFFFFFFFFFF AND PUSH32 0xDDF252AD1BE2C89B69C2B068FC378DAA952BA7F163C4A11628F55A4DF523B3EF DUP4 PUSH1 0x40 MLOAD PUSH2 0x1C07 SWAP2 SWAP1 PUSH2 0x1F89 JUMP JUMPDEST PUSH1 0x40 MLOAD DUP1 SWAP2 SUB SWAP1 LOG3 PUSH2 0x1C1B PUSH1 0x0 DUP4 DUP4 PUSH2 0x1D66 JUMP JUMPDEST POP POP JUMP JUMPDEST PUSH2 0x1C27 PUSH2 0x18B2 JUMP JUMPDEST PUSH1 0x1 PUSH1 0x5 PUSH1 0x0 PUSH2 0x100 EXP DUP2 SLOAD DUP2 PUSH1 0xFF MUL NOT AND SWAP1 DUP4 ISZERO ISZERO MUL OR SWAP1 SSTORE POP PUSH32 0x62E78CEA01BEE320CD4E420270B5EA74000D11B0C9F74754EBDBFC544B05A258 PUSH2 0x1C6B PUSH2 0x13DF JUMP JUMPDEST PUSH1 0x40 MLOAD PUSH2 0x1C78 SWAP2 SWAP1 PUSH2 0x20F0 JUMP JUMPDEST PUSH1 0x40 MLOAD DUP1 SWAP2 SUB SWAP1 LOG1 JUMP JUMPDEST PUSH2 0x1C8A PUSH2 0x1D6B JUMP JUMPDEST PUSH1 0x0 PUSH1 0x5 PUSH1 0x0 PUSH2 0x100 EXP DUP2 SLOAD DUP2 PUSH1 0xFF MUL NOT AND SWAP1 DUP4 ISZERO ISZERO MUL OR SWAP1 SSTORE POP PUSH32 0x5DB9EE0A495BF2E6FF9C91A7834C1BA4FDD244A5E8AA4E537BD38AEAE4B073AA PUSH2 0x1CCE PUSH2 0x13DF JUMP JUMPDEST PUSH1 0x40 MLOAD PUSH2 0x1CDB SWAP2 SWAP1 PUSH2 0x20F0 JUMP JUMPDEST PUSH1 0x40 MLOAD DUP1 SWAP2 SUB SWAP1 LOG1 JUMP JUMPDEST PUSH1 0x0 DUP2 MLOAD SWAP1 POP PUSH1 0x0 PUSH11 0x636F6E736F6C652E6C6F67 SWAP1 POP PUSH1 0x20 DUP4 ADD PUSH1 0x0 DUP1 DUP5 DUP4 DUP6 GAS STATICCALL POP POP POP POP POP JUMP JUMPDEST PUSH2 0x1D19 DUP4 DUP4 DUP4 PUSH2 0x1DB4 JUMP JUMPDEST PUSH2 0x1D21 PUSH2 0x968 JUMP JUMPDEST ISZERO PUSH2 0x1D61 JUMPI PUSH1 0x40 MLOAD PUSH32 0x8C379A000000000000000000000000000000000000000000000000000000000 DUP2 MSTORE PUSH1 0x4 ADD PUSH2 0x1D58 SWAP1 PUSH2 0x2D47 JUMP JUMPDEST PUSH1 0x40 MLOAD DUP1 SWAP2 SUB SWAP1 REVERT JUMPDEST POP POP POP JUMP JUMPDEST POP POP POP JUMP JUMPDEST PUSH2 0x1D73 PUSH2 0x968 JUMP JUMPDEST PUSH2 0x1DB2 JUMPI PUSH1 0x40 MLOAD PUSH32 0x8C379A000000000000000000000000000000000000000000000000000000000 DUP2 MSTORE PUSH1 0x4 ADD PUSH2 0x1DA9 SWAP1 PUSH2 0x2DB3 JUMP JUMPDEST PUSH1 0x40 MLOAD DUP1 SWAP2 SUB SWAP1 REVERT JUMPDEST JUMP JUMPDEST POP POP POP JUMP JUMPDEST PUSH1 0x0 DUP2 MLOAD SWAP1 POP SWAP2 SWAP1 POP JUMP JUMPDEST PUSH1 0x0 DUP3 DUP3 MSTORE PUSH1 0x20 DUP3 ADD SWAP1 POP SWAP3 SWAP2 POP POP JUMP JUMPDEST PUSH1 0x0 JUMPDEST DUP4 DUP2 LT ISZERO PUSH2 0x1DF3 JUMPI DUP1 DUP3 ADD MLOAD DUP2 DUP5 ADD MSTORE PUSH1 0x20 DUP2 ADD SWAP1 POP PUSH2 0x1DD8 JUMP JUMPDEST PUSH1 0x0 DUP5 DUP5 ADD MSTORE POP POP POP POP JUMP JUMPDEST PUSH1 0x0 PUSH1 0x1F NOT PUSH1 0x1F DUP4 ADD AND SWAP1 POP SWAP2 SWAP1 POP JUMP JUMPDEST PUSH1 0x0 PUSH2 0x1E1B DUP3 PUSH2 0x1DB9 JUMP JUMPDEST PUSH2 0x1E25 DUP2 DUP6 PUSH2 0x1DC4 JUMP JUMPDEST SWAP4 POP PUSH2 0x1E35 DUP2 DUP6 PUSH1 0x20 DUP7 ADD PUSH2 0x1DD5 JUMP JUMPDEST PUSH2 0x1E3E DUP2 PUSH2 0x1DFF JUMP JUMPDEST DUP5 ADD SWAP2 POP POP SWAP3 SWAP2 POP POP JUMP JUMPDEST PUSH1 0x0 PUSH1 0x20 DUP3 ADD SWAP1 POP DUP2 DUP2 SUB PUSH1 0x0 DUP4 ADD MSTORE PUSH2 0x1E63 DUP2 DUP5 PUSH2 0x1E10 JUMP JUMPDEST SWAP1 POP SWAP3 SWAP2 POP POP JUMP JUMPDEST PUSH1 0x0 DUP1 REVERT JUMPDEST PUSH1 0x0 PUSH20 0xFFFFFFFFFFFFFFFFFFFFFFFFFFFFFFFFFFFFFFFF DUP3 AND SWAP1 POP SWAP2 SWAP1 POP JUMP JUMPDEST PUSH1 0x0 PUSH2 0x1E9B DUP3 PUSH2 0x1E70 JUMP JUMPDEST SWAP1 POP SWAP2 SWAP1 POP JUMP JUMPDEST PUSH2 0x1EAB DUP2 PUSH2 0x1E90 JUMP JUMPDEST DUP2 EQ PUSH2 0x1EB6 JUMPI PUSH1 0x0 DUP1 REVERT JUMPDEST POP JUMP JUMPDEST PUSH1 0x0 DUP2 CALLDATALOAD SWAP1 POP PUSH2 0x1EC8 DUP2 PUSH2 0x1EA2 JUMP JUMPDEST SWAP3 SWAP2 POP POP JUMP JUMPDEST PUSH1 0x0 DUP2 SWAP1 POP SWAP2 SWAP1 POP JUMP JUMPDEST PUSH2 0x1EE1 DUP2 PUSH2 0x1ECE JUMP JUMPDEST DUP2 EQ PUSH2 0x1EEC JUMPI PUSH1 0x0 DUP1 REVERT JUMPDEST POP JUMP JUMPDEST PUSH1 0x0 DUP2 CALLDATALOAD SWAP1 POP PUSH2 0x1EFE DUP2 PUSH2 0x1ED8 JUMP JUMPDEST SWAP3 SWAP2 POP POP JUMP JUMPDEST PUSH1 0x0 DUP1 PUSH1 0x40 DUP4 DUP6 SUB SLT ISZERO PUSH2 0x1F1B JUMPI PUSH2 0x1F1A PUSH2 0x1E6B JUMP JUMPDEST JUMPDEST PUSH1 0x0 PUSH2 0x1F29 DUP6 DUP3 DUP7 ADD PUSH2 0x1EB9 JUMP JUMPDEST SWAP3 POP POP PUSH1 0x20 PUSH2 0x1F3A DUP6 DUP3 DUP7 ADD PUSH2 0x1EEF JUMP JUMPDEST SWAP2 POP POP SWAP3 POP SWAP3 SWAP1 POP JUMP JUMPDEST PUSH1 0x0 DUP2 ISZERO ISZERO SWAP1 POP SWAP2 SWAP1 POP JUMP JUMPDEST PUSH2 0x1F59 DUP2 PUSH2 0x1F44 JUMP JUMPDEST DUP3 MSTORE POP POP JUMP JUMPDEST PUSH1 0x0 PUSH1 0x20 DUP3 ADD SWAP1 POP PUSH2 0x1F74 PUSH1 0x0 DUP4 ADD DUP5 PUSH2 0x1F50 JUMP JUMPDEST SWAP3 SWAP2 POP POP JUMP JUMPDEST PUSH2 0x1F83 DUP2 PUSH2 0x1ECE JUMP JUMPDEST DUP3 MSTORE POP POP JUMP JUMPDEST PUSH1 0x0 PUSH1 0x20 DUP3 ADD SWAP1 POP PUSH2 0x1F9E PUSH1 0x0 DUP4 ADD DUP5 PUSH2 0x1F7A JUMP JUMPDEST SWAP3 SWAP2 POP POP JUMP JUMPDEST PUSH1 0x0 DUP1 PUSH1 0x0 PUSH1 0x60 DUP5 DUP7 SUB SLT ISZERO PUSH2 0x1FBD JUMPI PUSH2 0x1FBC PUSH2 0x1E6B JUMP JUMPDEST JUMPDEST PUSH1 0x0 PUSH2 0x1FCB DUP7 DUP3 DUP8 ADD PUSH2 0x1EB9 JUMP JUMPDEST SWAP4 POP POP PUSH1 0x20 PUSH2 0x1FDC DUP7 DUP3 DUP8 ADD PUSH2 0x1EB9 JUMP JUMPDEST SWAP3 POP POP PUSH1 0x40 PUSH2 0x1FED DUP7 DUP3 DUP8 ADD PUSH2 0x1EEF JUMP JUMPDEST SWAP2 POP POP SWAP3 POP SWAP3 POP SWAP3 JUMP JUMPDEST PUSH1 0x0 PUSH1 0xFF DUP3 AND SWAP1 POP SWAP2 SWAP1 POP JUMP JUMPDEST PUSH2 0x200D DUP2 PUSH2 0x1FF7 JUMP JUMPDEST DUP3 MSTORE POP POP JUMP JUMPDEST PUSH1 0x0 PUSH1 0x20 DUP3 ADD SWAP1 POP PUSH2 0x2028 PUSH1 0x0 DUP4 ADD DUP5 PUSH2 0x2004 JUMP JUMPDEST SWAP3 SWAP2 POP POP JUMP JUMPDEST PUSH1 0x0 PUSH1 0x20 DUP3 DUP5 SUB SLT ISZERO PUSH2 0x2044 JUMPI PUSH2 0x2043 PUSH2 0x1E6B JUMP JUMPDEST JUMPDEST PUSH1 0x0 PUSH2 0x2052 DUP5 DUP3 DUP6 ADD PUSH2 0x1EEF JUMP JUMPDEST SWAP2 POP POP SWAP3 SWAP2 POP POP JUMP JUMPDEST PUSH2 0x2064 DUP2 PUSH2 0x1FF7 JUMP JUMPDEST DUP2 EQ PUSH2 0x206F JUMPI PUSH1 0x0 DUP1 REVERT JUMPDEST POP JUMP JUMPDEST PUSH1 0x0 DUP2 CALLDATALOAD SWAP1 POP PUSH2 0x2081 DUP2 PUSH2 0x205B JUMP JUMPDEST SWAP3 SWAP2 POP POP JUMP JUMPDEST PUSH1 0x0 PUSH1 0x20 DUP3 DUP5 SUB SLT ISZERO PUSH2 0x209D JUMPI PUSH2 0x209C PUSH2 0x1E6B JUMP JUMPDEST JUMPDEST PUSH1 0x0 PUSH2 0x20AB DUP5 DUP3 DUP6 ADD PUSH2 0x2072 JUMP JUMPDEST SWAP2 POP POP SWAP3 SWAP2 POP POP JUMP JUMPDEST PUSH1 0x0 PUSH1 0x20 DUP3 DUP5 SUB SLT ISZERO PUSH2 0x20CA JUMPI PUSH2 0x20C9 PUSH2 0x1E6B JUMP JUMPDEST JUMPDEST PUSH1 0x0 PUSH2 0x20D8 DUP5 DUP3 DUP6 ADD PUSH2 0x1EB9 JUMP JUMPDEST SWAP2 POP POP SWAP3 SWAP2 POP POP JUMP JUMPDEST PUSH2 0x20EA DUP2 PUSH2 0x1E90 JUMP JUMPDEST DUP3 MSTORE POP POP JUMP JUMPDEST PUSH1 0x0 PUSH1 0x20 DUP3 ADD SWAP1 POP PUSH2 0x2105 PUSH1 0x0 DUP4 ADD DUP5 PUSH2 0x20E1 JUMP JUMPDEST SWAP3 SWAP2 POP POP JUMP JUMPDEST PUSH1 0x0 DUP1 PUSH1 0x40 DUP4 DUP6 SUB SLT ISZERO PUSH2 0x2122 JUMPI PUSH2 0x2121 PUSH2 0x1E6B JUMP JUMPDEST JUMPDEST PUSH1 0x0 PUSH2 0x2130 DUP6 DUP3 DUP7 ADD PUSH2 0x1EB9 JUMP JUMPDEST SWAP3 POP POP PUSH1 0x20 PUSH2 0x2141 DUP6 DUP3 DUP7 ADD PUSH2 0x1EB9 JUMP JUMPDEST SWAP2 POP POP SWAP3 POP SWAP3 SWAP1 POP JUMP JUMPDEST PUSH32 0x4E487B7100000000000000000000000000000000000000000000000000000000 PUSH1 0x0 MSTORE PUSH1 0x22 PUSH1 0x4 MSTORE PUSH1 0x24 PUSH1 0x0 REVERT JUMPDEST PUSH1 0x0 PUSH1 0x2 DUP3 DIV SWAP1 POP PUSH1 0x1 DUP3 AND DUP1 PUSH2 0x2192 JUMPI PUSH1 0x7F DUP3 AND SWAP2 POP JUMPDEST PUSH1 0x20 DUP3 LT DUP2 SUB PUSH2 0x21A5 JUMPI PUSH2 0x21A4 PUSH2 0x214B JUMP JUMPDEST JUMPDEST POP SWAP2 SWAP1 POP JUMP JUMPDEST PUSH32 0x4F4F206D73672E73656E6465723A200000000000000000000000000000000000 DUP2 MSTORE POP JUMP JUMPDEST PUSH1 0x0 DUP2 SWAP1 POP SWAP3 SWAP2 POP POP JUMP JUMPDEST PUSH1 0x0 PUSH2 0x21E7 DUP3 PUSH2 0x1DB9 JUMP JUMPDEST PUSH2 0x21F1 DUP2 DUP6 PUSH2 0x21D1 JUMP JUMPDEST SWAP4 POP PUSH2 0x2201 DUP2 DUP6 PUSH1 0x20 DUP7 ADD PUSH2 0x1DD5 JUMP JUMPDEST DUP1 DUP5 ADD SWAP2 POP POP SWAP3 SWAP2 POP POP JUMP JUMPDEST PUSH1 0x0 PUSH2 0x2218 DUP3 PUSH2 0x21AB JUMP JUMPDEST PUSH1 0xF DUP3 ADD SWAP2 POP PUSH2 0x2228 DUP3 DUP5 PUSH2 0x21DC JUMP JUMPDEST SWAP2 POP DUP2 SWAP1 POP SWAP3 SWAP2 POP POP JUMP JUMPDEST PUSH1 0x0 DUP2 MLOAD SWAP1 POP PUSH2 0x2242 DUP2 PUSH2 0x1EA2 JUMP JUMPDEST SWAP3 SWAP2 POP POP JUMP JUMPDEST PUSH1 0x0 PUSH1 0x20 DUP3 DUP5 SUB SLT ISZERO PUSH2 0x225E JUMPI PUSH2 0x225D PUSH2 0x1E6B JUMP JUMPDEST JUMPDEST PUSH1 0x0 PUSH2 0x226C DUP5 DUP3 DUP6 ADD PUSH2 0x2233 JUMP JUMPDEST SWAP2 POP POP SWAP3 SWAP2 POP POP JUMP JUMPDEST PUSH32 0x4F4F206F776E65723A2000000000000000000000000000000000000000000000 DUP2 MSTORE POP JUMP JUMPDEST PUSH1 0x0 PUSH2 0x22A6 DUP3 PUSH2 0x2275 JUMP JUMPDEST PUSH1 0xA DUP3 ADD SWAP2 POP PUSH2 0x22B6 DUP3 DUP5 PUSH2 0x21DC JUMP JUMPDEST SWAP2 POP DUP2 SWAP1 POP SWAP3 SWAP2 POP POP JUMP JUMPDEST PUSH32 0x4F6E6C7920746865206F776E65722063616E2063616C6C20746869732066756E PUSH1 0x0 DUP3 ADD MSTORE PUSH32 0x6374696F6E000000000000000000000000000000000000000000000000000000 PUSH1 0x20 DUP3 ADD MSTORE POP JUMP JUMPDEST PUSH1 0x0 PUSH2 0x231D PUSH1 0x25 DUP4 PUSH2 0x1DC4 JUMP JUMPDEST SWAP2 POP PUSH2 0x2328 DUP3 PUSH2 0x22C1 JUMP JUMPDEST PUSH1 0x40 DUP3 ADD SWAP1 POP SWAP2 SWAP1 POP JUMP JUMPDEST PUSH1 0x0 PUSH1 0x20 DUP3 ADD SWAP1 POP DUP2 DUP2 SUB PUSH1 0x0 DUP4 ADD MSTORE PUSH2 0x234C DUP2 PUSH2 0x2310 JUMP JUMPDEST SWAP1 POP SWAP2 SWAP1 POP JUMP JUMPDEST PUSH32 0x4444206D73672E73656E6465723A200000000000000000000000000000000000 DUP2 MSTORE POP JUMP JUMPDEST PUSH1 0x0 PUSH2 0x2384 DUP3 PUSH2 0x2353 JUMP JUMPDEST PUSH1 0xF DUP3 ADD SWAP2 POP PUSH2 0x2394 DUP3 DUP5 PUSH2 0x21DC JUMP JUMPDEST SWAP2 POP DUP2 SWAP1 POP SWAP3 SWAP2 POP POP JUMP JUMPDEST PUSH32 0x4444206F776E65723A2000000000000000000000000000000000000000000000 DUP2 MSTORE POP JUMP JUMPDEST PUSH1 0x0 PUSH2 0x23D0 DUP3 PUSH2 0x239F JUMP JUMPDEST PUSH1 0xA DUP3 ADD SWAP2 POP PUSH2 0x23E0 DUP3 DUP5 PUSH2 0x21DC JUMP JUMPDEST SWAP2 POP DUP2 SWAP1 POP SWAP3 SWAP2 POP POP JUMP JUMPDEST PUSH32 0x4E487B7100000000000000000000000000000000000000000000000000000000 PUSH1 0x0 MSTORE PUSH1 0x11 PUSH1 0x4 MSTORE PUSH1 0x24 PUSH1 0x0 REVERT JUMPDEST PUSH1 0x0 PUSH2 0x2425 DUP3 PUSH2 0x1ECE JUMP JUMPDEST SWAP2 POP PUSH2 0x2430 DUP4 PUSH2 0x1ECE JUMP JUMPDEST SWAP3 POP DUP3 DUP3 ADD SWAP1 POP DUP1 DUP3 GT ISZERO PUSH2 0x2448 JUMPI PUSH2 0x2447 PUSH2 0x23EB JUMP JUMPDEST JUMPDEST SWAP3 SWAP2 POP POP JUMP JUMPDEST PUSH1 0x0 PUSH2 0x2459 DUP3 PUSH2 0x1ECE JUMP JUMPDEST SWAP2 POP PUSH2 0x2464 DUP4 PUSH2 0x1ECE JUMP JUMPDEST SWAP3 POP DUP3 DUP3 MUL PUSH2 0x2472 DUP2 PUSH2 0x1ECE JUMP JUMPDEST SWAP2 POP DUP3 DUP3 DIV DUP5 EQ DUP4 ISZERO OR PUSH2 0x2489 JUMPI PUSH2 0x2488 PUSH2 0x23EB JUMP JUMPDEST JUMPDEST POP SWAP3 SWAP2 POP POP JUMP JUMPDEST PUSH32 0x45524332303A2064656372656173656420616C6C6F77616E63652062656C6F77 PUSH1 0x0 DUP3 ADD MSTORE PUSH32 0x207A65726F000000000000000000000000000000000000000000000000000000 PUSH1 0x20 DUP3 ADD MSTORE POP JUMP JUMPDEST PUSH1 0x0 PUSH2 0x24EC PUSH1 0x25 DUP4 PUSH2 0x1DC4 JUMP JUMPDEST SWAP2 POP PUSH2 0x24F7 DUP3 PUSH2 0x2490 JUMP JUMPDEST PUSH1 0x40 DUP3 ADD SWAP1 POP SWAP2 SWAP1 POP JUMP JUMPDEST PUSH1 0x0 PUSH1 0x20 DUP3 ADD SWAP1 POP DUP2 DUP2 SUB PUSH1 0x0 DUP4 ADD MSTORE PUSH2 0x251B DUP2 PUSH2 0x24DF JUMP JUMPDEST SWAP1 POP SWAP2 SWAP1 POP JUMP JUMPDEST PUSH1 0x0 DUP2 PUSH1 0x1 SHR SWAP1 POP SWAP2 SWAP1 POP JUMP JUMPDEST PUSH1 0x0 DUP1 DUP3 SWAP2 POP DUP4 SWAP1 POP JUMPDEST PUSH1 0x1 DUP6 GT ISZERO PUSH2 0x2579 JUMPI DUP1 DUP7 DIV DUP2 GT ISZERO PUSH2 0x2555 JUMPI PUSH2 0x2554 PUSH2 0x23EB JUMP JUMPDEST JUMPDEST PUSH1 0x1 DUP6 AND ISZERO PUSH2 0x2564 JUMPI DUP1 DUP3 MUL SWAP2 POP JUMPDEST DUP1 DUP2 MUL SWAP1 POP PUSH2 0x2572 DUP6 PUSH2 0x2522 JUMP JUMPDEST SWAP5 POP PUSH2 0x2539 JUMP JUMPDEST SWAP5 POP SWAP5 SWAP3 POP POP POP JUMP JUMPDEST PUSH1 0x0 DUP3 PUSH2 0x2592 JUMPI PUSH1 0x1 SWAP1 POP PUSH2 0x264E JUMP JUMPDEST DUP2 PUSH2 0x25A0 JUMPI PUSH1 0x0 SWAP1 POP PUSH2 0x264E JUMP JUMPDEST DUP2 PUSH1 0x1 DUP2 EQ PUSH2 0x25B6 JUMPI PUSH1 0x2 DUP2 EQ PUSH2 0x25C0 JUMPI PUSH2 0x25EF JUMP JUMPDEST PUSH1 0x1 SWAP2 POP POP PUSH2 0x264E JUMP JUMPDEST PUSH1 0xFF DUP5 GT ISZERO PUSH2 0x25D2 JUMPI PUSH2 0x25D1 PUSH2 0x23EB JUMP JUMPDEST JUMPDEST DUP4 PUSH1 0x2 EXP SWAP2 POP DUP5 DUP3 GT ISZERO PUSH2 0x25E9 JUMPI PUSH2 0x25E8 PUSH2 0x23EB JUMP JUMPDEST JUMPDEST POP PUSH2 0x264E JUMP JUMPDEST POP PUSH1 0x20 DUP4 LT PUSH2 0x133 DUP4 LT AND PUSH1 0x4E DUP5 LT PUSH1 0xB DUP5 LT AND OR ISZERO PUSH2 0x2624 JUMPI DUP3 DUP3 EXP SWAP1 POP DUP4 DUP2 GT ISZERO PUSH2 0x261F JUMPI PUSH2 0x261E PUSH2 0x23EB JUMP JUMPDEST JUMPDEST PUSH2 0x264E JUMP JUMPDEST PUSH2 0x2631 DUP5 DUP5 DUP5 PUSH1 0x1 PUSH2 0x252F JUMP JUMPDEST SWAP3 POP SWAP1 POP DUP2 DUP5 DIV DUP2 GT ISZERO PUSH2 0x2648 JUMPI PUSH2 0x2647 PUSH2 0x23EB JUMP JUMPDEST JUMPDEST DUP2 DUP2 MUL SWAP1 POP JUMPDEST SWAP4 SWAP3 POP POP POP JUMP JUMPDEST PUSH1 0x0 PUSH2 0x2660 DUP3 PUSH2 0x1ECE JUMP JUMPDEST SWAP2 POP PUSH2 0x266B DUP4 PUSH2 0x1FF7 JUMP JUMPDEST SWAP3 POP PUSH2 0x2698 PUSH32 0xFFFFFFFFFFFFFFFFFFFFFFFFFFFFFFFFFFFFFFFFFFFFFFFFFFFFFFFFFFFFFFFF DUP5 DUP5 PUSH2 0x2582 JUMP JUMPDEST SWAP1 POP SWAP3 SWAP2 POP POP JUMP JUMPDEST PUSH32 0x4E487B7100000000000000000000000000000000000000000000000000000000 PUSH1 0x0 MSTORE PUSH1 0x41 PUSH1 0x4 MSTORE PUSH1 0x24 PUSH1 0x0 REVERT JUMPDEST PUSH32 0x4E487B7100000000000000000000000000000000000000000000000000000000 PUSH1 0x0 MSTORE PUSH1 0x32 PUSH1 0x4 MSTORE PUSH1 0x24 PUSH1 0x0 REVERT JUMPDEST PUSH1 0x0 PUSH2 0x2709 DUP3 PUSH2 0x1ECE JUMP JUMPDEST SWAP2 POP PUSH1 0x0 DUP3 SUB PUSH2 0x271C JUMPI PUSH2 0x271B PUSH2 0x23EB JUMP JUMPDEST JUMPDEST PUSH1 0x1 DUP3 SUB SWAP1 POP SWAP2 SWAP1 POP JUMP JUMPDEST PUSH32 0x537472696E67733A20686578206C656E67746820696E73756666696369656E74 PUSH1 0x0 DUP3 ADD MSTORE POP JUMP JUMPDEST PUSH1 0x0 PUSH2 0x275D PUSH1 0x20 DUP4 PUSH2 0x1DC4 JUMP JUMPDEST SWAP2 POP PUSH2 0x2768 DUP3 PUSH2 0x2727 JUMP JUMPDEST PUSH1 0x20 DUP3 ADD SWAP1 POP SWAP2 SWAP1 POP JUMP JUMPDEST PUSH1 0x0 PUSH1 0x20 DUP3 ADD SWAP1 POP DUP2 DUP2 SUB PUSH1 0x0 DUP4 ADD MSTORE PUSH2 0x278C DUP2 PUSH2 0x2750 JUMP JUMPDEST SWAP1 POP SWAP2 SWAP1 POP JUMP JUMPDEST PUSH32 0x45524332303A20617070726F76652066726F6D20746865207A65726F20616464 PUSH1 0x0 DUP3 ADD MSTORE PUSH32 0x7265737300000000000000000000000000000000000000000000000000000000 PUSH1 0x20 DUP3 ADD MSTORE POP JUMP JUMPDEST PUSH1 0x0 PUSH2 0x27EF PUSH1 0x24 DUP4 PUSH2 0x1DC4 JUMP JUMPDEST SWAP2 POP PUSH2 0x27FA DUP3 PUSH2 0x2793 JUMP JUMPDEST PUSH1 0x40 DUP3 ADD SWAP1 POP SWAP2 SWAP1 POP JUMP JUMPDEST PUSH1 0x0 PUSH1 0x20 DUP3 ADD SWAP1 POP DUP2 DUP2 SUB PUSH1 0x0 DUP4 ADD MSTORE PUSH2 0x281E DUP2 PUSH2 0x27E2 JUMP JUMPDEST SWAP1 POP SWAP2 SWAP1 POP JUMP JUMPDEST PUSH32 0x45524332303A20617070726F766520746F20746865207A65726F206164647265 PUSH1 0x0 DUP3 ADD MSTORE PUSH32 0x7373000000000000000000000000000000000000000000000000000000000000 PUSH1 0x20 DUP3 ADD MSTORE POP JUMP JUMPDEST PUSH1 0x0 PUSH2 0x2881 PUSH1 0x22 DUP4 PUSH2 0x1DC4 JUMP JUMPDEST SWAP2 POP PUSH2 0x288C DUP3 PUSH2 0x2825 JUMP JUMPDEST PUSH1 0x40 DUP3 ADD SWAP1 POP SWAP2 SWAP1 POP JUMP JUMPDEST PUSH1 0x0 PUSH1 0x20 DUP3 ADD SWAP1 POP DUP2 DUP2 SUB PUSH1 0x0 DUP4 ADD MSTORE PUSH2 0x28B0 DUP2 PUSH2 0x2874 JUMP JUMPDEST SWAP1 POP SWAP2 SWAP1 POP JUMP JUMPDEST PUSH32 0x45524332303A20696E73756666696369656E7420616C6C6F77616E6365000000 PUSH1 0x0 DUP3 ADD MSTORE POP JUMP JUMPDEST PUSH1 0x0 PUSH2 0x28ED PUSH1 0x1D DUP4 PUSH2 0x1DC4 JUMP JUMPDEST SWAP2 POP PUSH2 0x28F8 DUP3 PUSH2 0x28B7 JUMP JUMPDEST PUSH1 0x20 DUP3 ADD SWAP1 POP SWAP2 SWAP1 POP JUMP JUMPDEST PUSH1 0x0 PUSH1 0x20 DUP3 ADD SWAP1 POP DUP2 DUP2 SUB PUSH1 0x0 DUP4 ADD MSTORE PUSH2 0x291C DUP2 PUSH2 0x28E0 JUMP JUMPDEST SWAP1 POP SWAP2 SWAP1 POP JUMP JUMPDEST PUSH32 0x45524332303A207472616E736665722066726F6D20746865207A65726F206164 PUSH1 0x0 DUP3 ADD MSTORE PUSH32 0x6472657373000000000000000000000000000000000000000000000000000000 PUSH1 0x20 DUP3 ADD MSTORE POP JUMP JUMPDEST PUSH1 0x0 PUSH2 0x297F PUSH1 0x25 DUP4 PUSH2 0x1DC4 JUMP JUMPDEST SWAP2 POP PUSH2 0x298A DUP3 PUSH2 0x2923 JUMP JUMPDEST PUSH1 0x40 DUP3 ADD SWAP1 POP SWAP2 SWAP1 POP JUMP JUMPDEST PUSH1 0x0 PUSH1 0x20 DUP3 ADD SWAP1 POP DUP2 DUP2 SUB PUSH1 0x0 DUP4 ADD MSTORE PUSH2 0x29AE DUP2 PUSH2 0x2972 JUMP JUMPDEST SWAP1 POP SWAP2 SWAP1 POP JUMP JUMPDEST PUSH32 0x45524332303A207472616E7366657220746F20746865207A65726F2061646472 PUSH1 0x0 DUP3 ADD MSTORE PUSH32 0x6573730000000000000000000000000000000000000000000000000000000000 PUSH1 0x20 DUP3 ADD MSTORE POP JUMP JUMPDEST PUSH1 0x0 PUSH2 0x2A11 PUSH1 0x23 DUP4 PUSH2 0x1DC4 JUMP JUMPDEST SWAP2 POP PUSH2 0x2A1C DUP3 PUSH2 0x29B5 JUMP JUMPDEST PUSH1 0x40 DUP3 ADD SWAP1 POP SWAP2 SWAP1 POP JUMP JUMPDEST PUSH1 0x0 PUSH1 0x20 DUP3 ADD SWAP1 POP DUP2 DUP2 SUB PUSH1 0x0 DUP4 ADD MSTORE PUSH2 0x2A40 DUP2 PUSH2 0x2A04 JUMP JUMPDEST SWAP1 POP SWAP2 SWAP1 POP JUMP JUMPDEST PUSH32 0x45524332303A207472616E7366657220616D6F756E7420657863656564732062 PUSH1 0x0 DUP3 ADD MSTORE PUSH32 0x616C616E63650000000000000000000000000000000000000000000000000000 PUSH1 0x20 DUP3 ADD MSTORE POP JUMP JUMPDEST PUSH1 0x0 PUSH2 0x2AA3 PUSH1 0x26 DUP4 PUSH2 0x1DC4 JUMP JUMPDEST SWAP2 POP PUSH2 0x2AAE DUP3 PUSH2 0x2A47 JUMP JUMPDEST PUSH1 0x40 DUP3 ADD SWAP1 POP SWAP2 SWAP1 POP JUMP JUMPDEST PUSH1 0x0 PUSH1 0x20 DUP3 ADD SWAP1 POP DUP2 DUP2 SUB PUSH1 0x0 DUP4 ADD MSTORE PUSH2 0x2AD2 DUP2 PUSH2 0x2A96 JUMP JUMPDEST SWAP1 POP SWAP2 SWAP1 POP JUMP JUMPDEST PUSH32 0x5061757361626C653A2070617573656400000000000000000000000000000000 PUSH1 0x0 DUP3 ADD MSTORE POP JUMP JUMPDEST PUSH1 0x0 PUSH2 0x2B0F PUSH1 0x10 DUP4 PUSH2 0x1DC4 JUMP JUMPDEST SWAP2 POP PUSH2 0x2B1A DUP3 PUSH2 0x2AD9 JUMP JUMPDEST PUSH1 0x20 DUP3 ADD SWAP1 POP SWAP2 SWAP1 POP JUMP JUMPDEST PUSH1 0x0 PUSH1 0x20 DUP3 ADD SWAP1 POP DUP2 DUP2 SUB PUSH1 0x0 DUP4 ADD MSTORE PUSH2 0x2B3E DUP2 PUSH2 0x2B02 JUMP JUMPDEST SWAP1 POP SWAP2 SWAP1 POP JUMP JUMPDEST PUSH32 0x45524332303A206275726E2066726F6D20746865207A65726F20616464726573 PUSH1 0x0 DUP3 ADD MSTORE PUSH32 0x7300000000000000000000000000000000000000000000000000000000000000 PUSH1 0x20 DUP3 ADD MSTORE POP JUMP JUMPDEST PUSH1 0x0 PUSH2 0x2BA1 PUSH1 0x21 DUP4 PUSH2 0x1DC4 JUMP JUMPDEST SWAP2 POP PUSH2 0x2BAC DUP3 PUSH2 0x2B45 JUMP JUMPDEST PUSH1 0x40 DUP3 ADD SWAP1 POP SWAP2 SWAP1 POP JUMP JUMPDEST PUSH1 0x0 PUSH1 0x20 DUP3 ADD SWAP1 POP DUP2 DUP2 SUB PUSH1 0x0 DUP4 ADD MSTORE PUSH2 0x2BD0 DUP2 PUSH2 0x2B94 JUMP JUMPDEST SWAP1 POP SWAP2 SWAP1 POP JUMP JUMPDEST PUSH32 0x45524332303A206275726E20616D6F756E7420657863656564732062616C616E PUSH1 0x0 DUP3 ADD MSTORE PUSH32 0x6365000000000000000000000000000000000000000000000000000000000000 PUSH1 0x20 DUP3 ADD MSTORE POP JUMP JUMPDEST PUSH1 0x0 PUSH2 0x2C33 PUSH1 0x22 DUP4 PUSH2 0x1DC4 JUMP JUMPDEST SWAP2 POP PUSH2 0x2C3E DUP3 PUSH2 0x2BD7 JUMP JUMPDEST PUSH1 0x40 DUP3 ADD SWAP1 POP SWAP2 SWAP1 POP JUMP JUMPDEST PUSH1 0x0 PUSH1 0x20 DUP3 ADD SWAP1 POP DUP2 DUP2 SUB PUSH1 0x0 DUP4 ADD MSTORE PUSH2 0x2C62 DUP2 PUSH2 0x2C26 JUMP JUMPDEST SWAP1 POP SWAP2 SWAP1 POP JUMP JUMPDEST PUSH32 0x45524332303A206D696E7420746F20746865207A65726F206164647265737300 PUSH1 0x0 DUP3 ADD MSTORE POP JUMP JUMPDEST PUSH1 0x0 PUSH2 0x2C9F PUSH1 0x1F DUP4 PUSH2 0x1DC4 JUMP JUMPDEST SWAP2 POP PUSH2 0x2CAA DUP3 PUSH2 0x2C69 JUMP JUMPDEST PUSH1 0x20 DUP3 ADD SWAP1 POP SWAP2 SWAP1 POP JUMP JUMPDEST PUSH1 0x0 PUSH1 0x20 DUP3 ADD SWAP1 POP DUP2 DUP2 SUB PUSH1 0x0 DUP4 ADD MSTORE PUSH2 0x2CCE DUP2 PUSH2 0x2C92 JUMP JUMPDEST SWAP1 POP SWAP2 SWAP1 POP JUMP JUMPDEST PUSH32 0x45524332305061757361626C653A20746F6B656E207472616E73666572207768 PUSH1 0x0 DUP3 ADD MSTORE PUSH32 0x696C652070617573656400000000000000000000000000000000000000000000 PUSH1 0x20 DUP3 ADD MSTORE POP JUMP JUMPDEST PUSH1 0x0 PUSH2 0x2D31 PUSH1 0x2A DUP4 PUSH2 0x1DC4 JUMP JUMPDEST SWAP2 POP PUSH2 0x2D3C DUP3 PUSH2 0x2CD5 JUMP JUMPDEST PUSH1 0x40 DUP3 ADD SWAP1 POP SWAP2 SWAP1 POP JUMP JUMPDEST PUSH1 0x0 PUSH1 0x20 DUP3 ADD SWAP1 POP DUP2 DUP2 SUB PUSH1 0x0 DUP4 ADD MSTORE PUSH2 0x2D60 DUP2 PUSH2 0x2D24 JUMP JUMPDEST SWAP1 POP SWAP2 SWAP1 POP JUMP JUMPDEST PUSH32 0x5061757361626C653A206E6F7420706175736564000000000000000000000000 PUSH1 0x0 DUP3 ADD MSTORE POP JUMP JUMPDEST PUSH1 0x0 PUSH2 0x2D9D PUSH1 0x14 DUP4 PUSH2 0x1DC4 JUMP JUMPDEST SWAP2 POP PUSH2 0x2DA8 DUP3 PUSH2 0x2D67 JUMP JUMPDEST PUSH1 0x20 DUP3 ADD SWAP1 POP SWAP2 SWAP1 POP JUMP JUMPDEST PUSH1 0x0 PUSH1 0x20 DUP3 ADD SWAP1 POP DUP2 DUP2 SUB PUSH1 0x0 DUP4 ADD MSTORE PUSH2 0x2DCC DUP2 PUSH2 0x2D90 JUMP JUMPDEST SWAP1 POP SWAP2 SWAP1 POP JUMP INVALID LOG2 PUSH5 0x6970667358 0x22 SLT KECCAK256 PUSH6 0x2914D79688EB 0x28 0x27 ORIGIN ADDMOD 0xF8 PUSH29 0x589873EC3DE1AD2A61E479CFA3E85A93CFCAE364736F6C634300081100 CALLER LOG2 PUSH5 0x6970667358 0x22 SLT KECCAK256 BYTE MSTORE8 LOG1 PUSH24 0x744C74A0CC6091D6304209A617D0F77753C03A3F5D10710F 0xCC PUSH30 0x681264736F6C634300081100330000000000000000000000000000000000 "
		},
		"gasEstimates": {
			"creation": {
				"codeDepositCost": "3855400",
				"executionCost": "4379",
				"totalCost": "3859779"
			},
			"external": {
				"beforeAll()": "infinite",
				"beforeEach()": "144",
				"checkInitial()": "infinite",
				"checkMintAndBurn()": "infinite",
				"usdStableCoin()": "infinite"
			}
		},
		"methodIdentifiers": {
			"beforeAll()": "7fea0d4b",
			"beforeEach()": "6331e7d4",
			"checkInitial()": "06de293a",
			"checkMintAndBurn()": "f6341817",
			"usdStableCoin()": "dcb57dc0"
		}
	},
	"abi": [
		{
			"inputs": [],
			"name": "beforeAll",
			"outputs": [],
			"stateMutability": "nonpayable",
			"type": "function"
		},
		{
			"inputs": [],
			"name": "beforeEach",
			"outputs": [],
			"stateMutability": "nonpayable",
			"type": "function"
		},
		{
			"inputs": [],
			"name": "checkInitial",
			"outputs": [],
			"stateMutability": "nonpayable",
			"type": "function"
		},
		{
			"inputs": [],
			"name": "checkMintAndBurn",
			"outputs": [],
			"stateMutability": "nonpayable",
			"type": "function"
		},
		{
			"inputs": [],
			"name": "usdStableCoin",
			"outputs": [
				{
					"internalType": "contract ERC20USDStableCoin",
					"name": "",
					"type": "address"
				}
			],
			"stateMutability": "view",
			"type": "function"
		}
	]
}