{
	"contracts/stable-coins/ERC20USDStableCoin.sol": {
		"ERC20USDStableCoin": {
			"abi": [
				{
					"inputs": [],
					"stateMutability": "nonpayable",
					"type": "constructor"
				},
				{
					"anonymous": false,
					"inputs": [
						{
							"indexed": true,
							"internalType": "address",
							"name": "owner",
							"type": "address"
						},
						{
							"indexed": true,
							"internalType": "address",
							"name": "spender",
							"type": "address"
						},
						{
							"indexed": false,
							"internalType": "uint256",
							"name": "value",
							"type": "uint256"
						}
					],
					"name": "Approval",
					"type": "event"
				},
				{
					"anonymous": false,
					"inputs": [
						{
							"indexed": false,
							"internalType": "address",
							"name": "account",
							"type": "address"
						}
					],
					"name": "Paused",
					"type": "event"
				},
				{
					"anonymous": false,
					"inputs": [
						{
							"indexed": true,
							"internalType": "address",
							"name": "from",
							"type": "address"
						},
						{
							"indexed": true,
							"internalType": "address",
							"name": "to",
							"type": "address"
						},
						{
							"indexed": false,
							"internalType": "uint256",
							"name": "value",
							"type": "uint256"
						}
					],
					"name": "Transfer",
					"type": "event"
				},
				{
					"anonymous": false,
					"inputs": [
						{
							"indexed": false,
							"internalType": "address",
							"name": "account",
							"type": "address"
						}
					],
					"name": "Unpaused",
					"type": "event"
				},
				{
					"inputs": [],
					"name": "_owner",
					"outputs": [
						{
							"internalType": "address payable",
							"name": "",
							"type": "address"
						}
					],
					"stateMutability": "view",
					"type": "function"
				},
				{
					"inputs": [
						{
							"internalType": "address",
							"name": "owner",
							"type": "address"
						},
						{
							"internalType": "address",
							"name": "spender",
							"type": "address"
						}
					],
					"name": "allowance",
					"outputs": [
						{
							"internalType": "uint256",
							"name": "",
							"type": "uint256"
						}
					],
					"stateMutability": "view",
					"type": "function"
				},
				{
					"inputs": [
						{
							"internalType": "address",
							"name": "spender",
							"type": "address"
						},
						{
							"internalType": "uint256",
							"name": "amount",
							"type": "uint256"
						}
					],
					"name": "approve",
					"outputs": [
						{
							"internalType": "bool",
							"name": "",
							"type": "bool"
						}
					],
					"stateMutability": "nonpayable",
					"type": "function"
				},
				{
					"inputs": [
						{
							"internalType": "address",
							"name": "account",
							"type": "address"
						}
					],
					"name": "balanceOf",
					"outputs": [
						{
							"internalType": "uint256",
							"name": "",
							"type": "uint256"
						}
					],
					"stateMutability": "view",
					"type": "function"
				},
				{
					"inputs": [
						{
							"internalType": "uint256",
							"name": "amount",
							"type": "uint256"
						}
					],
					"name": "burn",
					"outputs": [],
					"stateMutability": "nonpayable",
					"type": "function"
				},
				{
					"inputs": [],
					"name": "decimals",
					"outputs": [
						{
							"internalType": "uint8",
							"name": "",
							"type": "uint8"
						}
					],
					"stateMutability": "view",
					"type": "function"
				},
				{
					"inputs": [
						{
							"internalType": "address",
							"name": "spender",
							"type": "address"
						},
						{
							"internalType": "uint256",
							"name": "subtractedValue",
							"type": "uint256"
						}
					],
					"name": "decreaseAllowance",
					"outputs": [
						{
							"internalType": "bool",
							"name": "",
							"type": "bool"
						}
					],
					"stateMutability": "nonpayable",
					"type": "function"
				},
				{
					"inputs": [
						{
							"internalType": "address",
							"name": "spender",
							"type": "address"
						},
						{
							"internalType": "uint256",
							"name": "addedValue",
							"type": "uint256"
						}
					],
					"name": "increaseAllowance",
					"outputs": [
						{
							"internalType": "bool",
							"name": "",
							"type": "bool"
						}
					],
					"stateMutability": "nonpayable",
					"type": "function"
				},
				{
					"inputs": [
						{
							"internalType": "uint8",
							"name": "amount",
							"type": "uint8"
						}
					],
					"name": "mint",
					"outputs": [],
					"stateMutability": "nonpayable",
					"type": "function"
				},
				{
					"inputs": [],
					"name": "name",
					"outputs": [
						{
							"internalType": "string",
							"name": "",
							"type": "string"
						}
					],
					"stateMutability": "view",
					"type": "function"
				},
				{
					"inputs": [],
					"name": "ownerBal",
					"outputs": [
						{
							"internalType": "uint256",
							"name": "",
							"type": "uint256"
						}
					],
					"stateMutability": "view",
					"type": "function"
				},
				{
					"inputs": [],
					"name": "pause",
					"outputs": [],
					"stateMutability": "nonpayable",
					"type": "function"
				},
				{
					"inputs": [],
					"name": "paused",
					"outputs": [
						{
							"internalType": "bool",
							"name": "",
							"type": "bool"
						}
					],
					"stateMutability": "view",
					"type": "function"
				},
				{
					"inputs": [],
					"name": "symbol",
					"outputs": [
						{
							"internalType": "string",
							"name": "",
							"type": "string"
						}
					],
					"stateMutability": "view",
					"type": "function"
				},
				{
					"inputs": [],
					"name": "totalSupply",
					"outputs": [
						{
							"internalType": "uint256",
							"name": "",
							"type": "uint256"
						}
					],
					"stateMutability": "view",
					"type": "function"
				},
				{
					"inputs": [
						{
							"internalType": "address",
							"name": "to",
							"type": "address"
						},
						{
							"internalType": "uint256",
							"name": "amount",
							"type": "uint256"
						}
					],
					"name": "transfer",
					"outputs": [
						{
							"internalType": "bool",
							"name": "",
							"type": "bool"
						}
					],
					"stateMutability": "nonpayable",
					"type": "function"
				},
				{
					"inputs": [
						{
							"internalType": "address",
							"name": "from",
							"type": "address"
						},
						{
							"internalType": "address",
							"name": "to",
							"type": "address"
						},
						{
							"internalType": "uint256",
							"name": "amount",
							"type": "uint256"
						}
					],
					"name": "transferFrom",
					"outputs": [
						{
							"internalType": "bool",
							"name": "",
							"type": "bool"
						}
					],
					"stateMutability": "nonpayable",
					"type": "function"
				},
				{
					"inputs": [],
					"name": "unitsPerToken",
					"outputs": [
						{
							"internalType": "uint256",
							"name": "",
							"type": "uint256"
						}
					],
					"stateMutability": "view",
					"type": "function"
				},
				{
					"inputs": [],
					"name": "uppause",
					"outputs": [],
					"stateMutability": "nonpayable",
					"type": "function"
				}
			],
			"devdoc": {
				"kind": "dev",
				"methods": {
					"allowance(address,address)": {
						"details": "See {IERC20-allowance}."
					},
					"approve(address,uint256)": {
						"details": "See {IERC20-approve}. NOTE: If `amount` is the maximum `uint256`, the allowance is not updated on `transferFrom`. This is semantically equivalent to an infinite approval. Requirements: - `spender` cannot be the zero address."
					},
					"balanceOf(address)": {
						"details": "See {IERC20-balanceOf}."
					},
					"decreaseAllowance(address,uint256)": {
						"details": "Atomically decreases the allowance granted to `spender` by the caller. This is an alternative to {approve} that can be used as a mitigation for problems described in {IERC20-approve}. Emits an {Approval} event indicating the updated allowance. Requirements: - `spender` cannot be the zero address. - `spender` must have allowance for the caller of at least `subtractedValue`."
					},
					"increaseAllowance(address,uint256)": {
						"details": "Atomically increases the allowance granted to `spender` by the caller. This is an alternative to {approve} that can be used as a mitigation for problems described in {IERC20-approve}. Emits an {Approval} event indicating the updated allowance. Requirements: - `spender` cannot be the zero address."
					},
					"name()": {
						"details": "Returns the name of the token."
					},
					"paused()": {
						"details": "Returns true if the contract is paused, and false otherwise."
					},
					"symbol()": {
						"details": "Returns the symbol of the token, usually a shorter version of the name."
					},
					"totalSupply()": {
						"details": "See {IERC20-totalSupply}."
					},
					"transfer(address,uint256)": {
						"details": "See {IERC20-transfer}. Requirements: - `to` cannot be the zero address. - the caller must have a balance of at least `amount`."
					},
					"transferFrom(address,address,uint256)": {
						"details": "See {IERC20-transferFrom}. Emits an {Approval} event indicating the updated allowance. This is not required by the EIP. See the note at the beginning of {ERC20}. NOTE: Does not update the allowance if the current allowance is the maximum `uint256`. Requirements: - `from` and `to` cannot be the zero address. - `from` must have a balance of at least `amount`. - the caller must have allowance for ``from``'s tokens of at least `amount`."
					}
				},
				"version": 1
			},
			"evm": {
				"assembly": "    /* \"contracts/stable-coins/ERC20USDStableCoin.sol\":120:428  contract ERC20USDStableCoin is ERC20StableCoin {... */\n  mstore(0x40, 0x80)\n    /* \"contracts/stable-coins/ERC20USDStableCoin.sol\":342:426  constructor() ERC20StableCoin(_2decimal_places) ERC20(_token_name, _token_symbol) {} */\n  callvalue\n  dup1\n  iszero\n  tag_1\n  jumpi\n  0x00\n  dup1\n  revert\ntag_1:\n  pop\n    /* \"contracts/stable-coins/ERC20USDStableCoin.sol\":325:326  2 */\n  0x02\n    /* \"contracts/stable-coins/ERC20USDStableCoin.sol\":396:407  _token_name */\n  mload(0x40)\n  dup1\n  0x40\n  add\n  0x40\n  mstore\n  dup1\n  0x0d\n  dup2\n  mstore\n  0x20\n  add\n  0x555344537461626c65436f696e00000000000000000000000000000000000000\n  dup2\n  mstore\n  pop\n    /* \"contracts/stable-coins/ERC20USDStableCoin.sol\":409:422  _token_symbol */\n  mload(0x40)\n  dup1\n  0x40\n  add\n  0x40\n  mstore\n  dup1\n  0x03\n  dup2\n  mstore\n  0x20\n  add\n  0x5553430000000000000000000000000000000000000000000000000000000000\n  dup2\n  mstore\n  pop\n    /* \"@openzeppelin/contracts/token/ERC20/ERC20.sol\":2050:2055  name_ */\n  dup2\n    /* \"@openzeppelin/contracts/token/ERC20/ERC20.sol\":2042:2047  _name */\n  0x03\n    /* \"@openzeppelin/contracts/token/ERC20/ERC20.sol\":2042:2055  _name = name_ */\n  swap1\n  dup2\n  tag_7\n  swap2\n  swap1\n  tag_8\n  jump\t// in\ntag_7:\n  pop\n    /* \"@openzeppelin/contracts/token/ERC20/ERC20.sol\":2075:2082  symbol_ */\n  dup1\n    /* \"@openzeppelin/contracts/token/ERC20/ERC20.sol\":2065:2072  _symbol */\n  0x04\n    /* \"@openzeppelin/contracts/token/ERC20/ERC20.sol\":2065:2082  _symbol = symbol_ */\n  swap1\n  dup2\n  tag_9\n  swap2\n  swap1\n  tag_8\n  jump\t// in\ntag_9:\n  pop\n    /* \"@openzeppelin/contracts/token/ERC20/ERC20.sol\":1976:2089  constructor(string memory name_, string memory symbol_) {... */\n  pop\n  pop\n    /* \"@openzeppelin/contracts/security/Pausable.sol\":1006:1011  false */\n  0x00\n    /* \"@openzeppelin/contracts/security/Pausable.sol\":996:1003  _paused */\n  0x05\n  0x00\n    /* \"@openzeppelin/contracts/security/Pausable.sol\":996:1011  _paused = false */\n  0x0100\n  exp\n  dup2\n  sload\n  dup2\n  0xff\n  mul\n  not\n  and\n  swap1\n  dup4\n  iszero\n  iszero\n  mul\n  or\n  swap1\n  sstore\n  pop\n    /* \"contracts/stable-coins/ERC20StableCoin.sol\":397:407  msg.sender */\n  caller\n    /* \"contracts/stable-coins/ERC20StableCoin.sol\":380:386  _owner */\n  0x05\n  0x01\n    /* \"contracts/stable-coins/ERC20StableCoin.sol\":380:408  _owner = payable(msg.sender) */\n  0x0100\n  exp\n  dup2\n  sload\n  dup2\n  0xffffffffffffffffffffffffffffffffffffffff\n  mul\n  not\n  and\n  swap1\n  dup4\n  0xffffffffffffffffffffffffffffffffffffffff\n  and\n  mul\n  or\n  swap1\n  sstore\n  pop\n    /* \"contracts/stable-coins/ERC20StableCoin.sol\":430:439  decimals_ */\n  dup1\n    /* \"contracts/stable-coins/ERC20StableCoin.sol\":418:427  _decimals */\n  0x05\n  0x15\n    /* \"contracts/stable-coins/ERC20StableCoin.sol\":418:439  _decimals = decimals_ */\n  0x0100\n  exp\n  dup2\n  sload\n  dup2\n  0xff\n  mul\n  not\n  and\n  swap1\n  dup4\n  0xff\n  and\n  mul\n  or\n  swap1\n  sstore\n  pop\n    /* \"contracts/stable-coins/ERC20StableCoin.sol\":341:446  constructor(uint8 decimals_) {... */\n  pop\n    /* \"contracts/stable-coins/ERC20USDStableCoin.sol\":120:428  contract ERC20USDStableCoin is ERC20StableCoin {... */\n  jump(tag_13)\n    /* \"#utility.yul\":7:106   */\ntag_14:\n    /* \"#utility.yul\":59:65   */\n  0x00\n    /* \"#utility.yul\":93:98   */\n  dup2\n    /* \"#utility.yul\":87:99   */\n  mload\n    /* \"#utility.yul\":77:99   */\n  swap1\n  pop\n    /* \"#utility.yul\":7:106   */\n  swap2\n  swap1\n  pop\n  jump\t// out\n    /* \"#utility.yul\":112:292   */\ntag_15:\n    /* \"#utility.yul\":160:237   */\n  0x4e487b7100000000000000000000000000000000000000000000000000000000\n    /* \"#utility.yul\":157:158   */\n  0x00\n    /* \"#utility.yul\":150:238   */\n  mstore\n    /* \"#utility.yul\":257:261   */\n  0x41\n    /* \"#utility.yul\":254:255   */\n  0x04\n    /* \"#utility.yul\":247:262   */\n  mstore\n    /* \"#utility.yul\":281:285   */\n  0x24\n    /* \"#utility.yul\":278:279   */\n  0x00\n    /* \"#utility.yul\":271:286   */\n  revert\n    /* \"#utility.yul\":298:478   */\ntag_16:\n    /* \"#utility.yul\":346:423   */\n  0x4e487b7100000000000000000000000000000000000000000000000000000000\n    /* \"#utility.yul\":343:344   */\n  0x00\n    /* \"#utility.yul\":336:424   */\n  mstore\n    /* \"#utility.yul\":443:447   */\n  0x22\n    /* \"#utility.yul\":440:441   */\n  0x04\n    /* \"#utility.yul\":433:448   */\n  mstore\n    /* \"#utility.yul\":467:471   */\n  0x24\n    /* \"#utility.yul\":464:465   */\n  0x00\n    /* \"#utility.yul\":457:472   */\n  revert\n    /* \"#utility.yul\":484:804   */\ntag_17:\n    /* \"#utility.yul\":528:534   */\n  0x00\n    /* \"#utility.yul\":565:566   */\n  0x02\n    /* \"#utility.yul\":559:563   */\n  dup3\n    /* \"#utility.yul\":555:567   */\n  div\n    /* \"#utility.yul\":545:567   */\n  swap1\n  pop\n    /* \"#utility.yul\":612:613   */\n  0x01\n    /* \"#utility.yul\":606:610   */\n  dup3\n    /* \"#utility.yul\":602:614   */\n  and\n    /* \"#utility.yul\":633:651   */\n  dup1\n    /* \"#utility.yul\":623:704   */\n  tag_39\n  jumpi\n    /* \"#utility.yul\":689:693   */\n  0x7f\n    /* \"#utility.yul\":681:687   */\n  dup3\n    /* \"#utility.yul\":677:694   */\n  and\n    /* \"#utility.yul\":667:694   */\n  swap2\n  pop\n    /* \"#utility.yul\":623:704   */\ntag_39:\n    /* \"#utility.yul\":751:753   */\n  0x20\n    /* \"#utility.yul\":743:749   */\n  dup3\n    /* \"#utility.yul\":740:754   */\n  lt\n    /* \"#utility.yul\":720:738   */\n  dup2\n    /* \"#utility.yul\":717:755   */\n  sub\n    /* \"#utility.yul\":714:798   */\n  tag_40\n  jumpi\n    /* \"#utility.yul\":770:788   */\n  tag_41\n  tag_16\n  jump\t// in\ntag_41:\n    /* \"#utility.yul\":714:798   */\ntag_40:\n    /* \"#utility.yul\":535:804   */\n  pop\n    /* \"#utility.yul\":484:804   */\n  swap2\n  swap1\n  pop\n  jump\t// out\n    /* \"#utility.yul\":810:951   */\ntag_18:\n    /* \"#utility.yul\":859:863   */\n  0x00\n    /* \"#utility.yul\":882:885   */\n  dup2\n    /* \"#utility.yul\":874:885   */\n  swap1\n  pop\n    /* \"#utility.yul\":905:908   */\n  dup2\n    /* \"#utility.yul\":902:903   */\n  0x00\n    /* \"#utility.yul\":895:909   */\n  mstore\n    /* \"#utility.yul\":939:943   */\n  0x20\n    /* \"#utility.yul\":936:937   */\n  0x00\n    /* \"#utility.yul\":926:944   */\n  keccak256\n    /* \"#utility.yul\":918:944   */\n  swap1\n  pop\n    /* \"#utility.yul\":810:951   */\n  swap2\n  swap1\n  pop\n  jump\t// out\n    /* \"#utility.yul\":957:1050   */\ntag_19:\n    /* \"#utility.yul\":994:1000   */\n  0x00\n    /* \"#utility.yul\":1041:1043   */\n  0x20\n    /* \"#utility.yul\":1036:1038   */\n  0x1f\n    /* \"#utility.yul\":1029:1034   */\n  dup4\n    /* \"#utility.yul\":1025:1039   */\n  add\n    /* \"#utility.yul\":1021:1044   */\n  div\n    /* \"#utility.yul\":1011:1044   */\n  swap1\n  pop\n    /* \"#utility.yul\":957:1050   */\n  swap2\n  swap1\n  pop\n  jump\t// out\n    /* \"#utility.yul\":1056:1163   */\ntag_20:\n    /* \"#utility.yul\":1100:1108   */\n  0x00\n    /* \"#utility.yul\":1150:1155   */\n  dup3\n    /* \"#utility.yul\":1144:1148   */\n  dup3\n    /* \"#utility.yul\":1140:1156   */\n  shl\n    /* \"#utility.yul\":1119:1156   */\n  swap1\n  pop\n    /* \"#utility.yul\":1056:1163   */\n  swap3\n  swap2\n  pop\n  pop\n  jump\t// out\n    /* \"#utility.yul\":1169:1562   */\ntag_21:\n    /* \"#utility.yul\":1238:1244   */\n  0x00\n    /* \"#utility.yul\":1288:1289   */\n  0x08\n    /* \"#utility.yul\":1276:1286   */\n  dup4\n    /* \"#utility.yul\":1272:1290   */\n  mul\n    /* \"#utility.yul\":1311:1408   */\n  tag_46\n    /* \"#utility.yul\":1341:1407   */\n  0xffffffffffffffffffffffffffffffffffffffffffffffffffffffffffffffff\n    /* \"#utility.yul\":1330:1339   */\n  dup3\n    /* \"#utility.yul\":1311:1408   */\n  tag_20\n  jump\t// in\ntag_46:\n    /* \"#utility.yul\":1429:1468   */\n  tag_47\n    /* \"#utility.yul\":1459:1467   */\n  dup7\n    /* \"#utility.yul\":1448:1457   */\n  dup4\n    /* \"#utility.yul\":1429:1468   */\n  tag_20\n  jump\t// in\ntag_47:\n    /* \"#utility.yul\":1417:1468   */\n  swap6\n  pop\n    /* \"#utility.yul\":1501:1505   */\n  dup1\n    /* \"#utility.yul\":1497:1506   */\n  not\n    /* \"#utility.yul\":1490:1495   */\n  dup5\n    /* \"#utility.yul\":1486:1507   */\n  and\n    /* \"#utility.yul\":1477:1507   */\n  swap4\n  pop\n    /* \"#utility.yul\":1550:1554   */\n  dup1\n    /* \"#utility.yul\":1540:1548   */\n  dup7\n    /* \"#utility.yul\":1536:1555   */\n  and\n    /* \"#utility.yul\":1529:1534   */\n  dup5\n    /* \"#utility.yul\":1526:1556   */\n  or\n    /* \"#utility.yul\":1516:1556   */\n  swap3\n  pop\n    /* \"#utility.yul\":1245:1562   */\n  pop\n  pop\n    /* \"#utility.yul\":1169:1562   */\n  swap4\n  swap3\n  pop\n  pop\n  pop\n  jump\t// out\n    /* \"#utility.yul\":1568:1645   */\ntag_22:\n    /* \"#utility.yul\":1605:1612   */\n  0x00\n    /* \"#utility.yul\":1634:1639   */\n  dup2\n    /* \"#utility.yul\":1623:1639   */\n  swap1\n  pop\n    /* \"#utility.yul\":1568:1645   */\n  swap2\n  swap1\n  pop\n  jump\t// out\n    /* \"#utility.yul\":1651:1711   */\ntag_23:\n    /* \"#utility.yul\":1679:1682   */\n  0x00\n    /* \"#utility.yul\":1700:1705   */\n  dup2\n    /* \"#utility.yul\":1693:1705   */\n  swap1\n  pop\n    /* \"#utility.yul\":1651:1711   */\n  swap2\n  swap1\n  pop\n  jump\t// out\n    /* \"#utility.yul\":1717:1859   */\ntag_24:\n    /* \"#utility.yul\":1767:1776   */\n  0x00\n    /* \"#utility.yul\":1800:1853   */\n  tag_51\n    /* \"#utility.yul\":1818:1852   */\n  tag_52\n    /* \"#utility.yul\":1827:1851   */\n  tag_53\n    /* \"#utility.yul\":1845:1850   */\n  dup5\n    /* \"#utility.yul\":1827:1851   */\n  tag_22\n  jump\t// in\ntag_53:\n    /* \"#utility.yul\":1818:1852   */\n  tag_23\n  jump\t// in\ntag_52:\n    /* \"#utility.yul\":1800:1853   */\n  tag_22\n  jump\t// in\ntag_51:\n    /* \"#utility.yul\":1787:1853   */\n  swap1\n  pop\n    /* \"#utility.yul\":1717:1859   */\n  swap2\n  swap1\n  pop\n  jump\t// out\n    /* \"#utility.yul\":1865:1940   */\ntag_25:\n    /* \"#utility.yul\":1908:1911   */\n  0x00\n    /* \"#utility.yul\":1929:1934   */\n  dup2\n    /* \"#utility.yul\":1922:1934   */\n  swap1\n  pop\n    /* \"#utility.yul\":1865:1940   */\n  swap2\n  swap1\n  pop\n  jump\t// out\n    /* \"#utility.yul\":1946:2215   */\ntag_26:\n    /* \"#utility.yul\":2056:2095   */\n  tag_56\n    /* \"#utility.yul\":2087:2094   */\n  dup4\n    /* \"#utility.yul\":2056:2095   */\n  tag_24\n  jump\t// in\ntag_56:\n    /* \"#utility.yul\":2117:2208   */\n  tag_57\n    /* \"#utility.yul\":2166:2207   */\n  tag_58\n    /* \"#utility.yul\":2190:2206   */\n  dup3\n    /* \"#utility.yul\":2166:2207   */\n  tag_25\n  jump\t// in\ntag_58:\n    /* \"#utility.yul\":2158:2164   */\n  dup5\n    /* \"#utility.yul\":2151:2155   */\n  dup5\n    /* \"#utility.yul\":2145:2156   */\n  sload\n    /* \"#utility.yul\":2117:2208   */\n  tag_21\n  jump\t// in\ntag_57:\n    /* \"#utility.yul\":2111:2115   */\n  dup3\n    /* \"#utility.yul\":2104:2209   */\n  sstore\n    /* \"#utility.yul\":2022:2215   */\n  pop\n    /* \"#utility.yul\":1946:2215   */\n  pop\n  pop\n  pop\n  jump\t// out\n    /* \"#utility.yul\":2221:2294   */\ntag_27:\n    /* \"#utility.yul\":2266:2269   */\n  0x00\n    /* \"#utility.yul\":2221:2294   */\n  swap1\n  jump\t// out\n    /* \"#utility.yul\":2300:2489   */\ntag_28:\n    /* \"#utility.yul\":2377:2409   */\n  tag_61\n  tag_27\n  jump\t// in\ntag_61:\n    /* \"#utility.yul\":2418:2483   */\n  tag_62\n    /* \"#utility.yul\":2476:2482   */\n  dup2\n    /* \"#utility.yul\":2468:2474   */\n  dup5\n    /* \"#utility.yul\":2462:2466   */\n  dup5\n    /* \"#utility.yul\":2418:2483   */\n  tag_26\n  jump\t// in\ntag_62:\n    /* \"#utility.yul\":2353:2489   */\n  pop\n    /* \"#utility.yul\":2300:2489   */\n  pop\n  pop\n  jump\t// out\n    /* \"#utility.yul\":2495:2681   */\ntag_29:\n    /* \"#utility.yul\":2555:2675   */\ntag_64:\n    /* \"#utility.yul\":2572:2575   */\n  dup2\n    /* \"#utility.yul\":2565:2570   */\n  dup2\n    /* \"#utility.yul\":2562:2576   */\n  lt\n    /* \"#utility.yul\":2555:2675   */\n  iszero\n  tag_66\n  jumpi\n    /* \"#utility.yul\":2626:2665   */\n  tag_67\n    /* \"#utility.yul\":2663:2664   */\n  0x00\n    /* \"#utility.yul\":2656:2661   */\n  dup3\n    /* \"#utility.yul\":2626:2665   */\n  tag_28\n  jump\t// in\ntag_67:\n    /* \"#utility.yul\":2599:2600   */\n  0x01\n    /* \"#utility.yul\":2592:2597   */\n  dup2\n    /* \"#utility.yul\":2588:2601   */\n  add\n    /* \"#utility.yul\":2579:2601   */\n  swap1\n  pop\n    /* \"#utility.yul\":2555:2675   */\n  jump(tag_64)\ntag_66:\n    /* \"#utility.yul\":2495:2681   */\n  pop\n  pop\n  jump\t// out\n    /* \"#utility.yul\":2687:3230   */\ntag_30:\n    /* \"#utility.yul\":2788:2790   */\n  0x1f\n    /* \"#utility.yul\":2783:2786   */\n  dup3\n    /* \"#utility.yul\":2780:2791   */\n  gt\n    /* \"#utility.yul\":2777:3223   */\n  iszero\n  tag_69\n  jumpi\n    /* \"#utility.yul\":2822:2860   */\n  tag_70\n    /* \"#utility.yul\":2854:2859   */\n  dup2\n    /* \"#utility.yul\":2822:2860   */\n  tag_18\n  jump\t// in\ntag_70:\n    /* \"#utility.yul\":2906:2935   */\n  tag_71\n    /* \"#utility.yul\":2924:2934   */\n  dup5\n    /* \"#utility.yul\":2906:2935   */\n  tag_19\n  jump\t// in\ntag_71:\n    /* \"#utility.yul\":2896:2904   */\n  dup2\n    /* \"#utility.yul\":2892:2936   */\n  add\n    /* \"#utility.yul\":3089:3091   */\n  0x20\n    /* \"#utility.yul\":3077:3087   */\n  dup6\n    /* \"#utility.yul\":3074:3092   */\n  lt\n    /* \"#utility.yul\":3071:3120   */\n  iszero\n  tag_72\n  jumpi\n    /* \"#utility.yul\":3110:3118   */\n  dup2\n    /* \"#utility.yul\":3095:3118   */\n  swap1\n  pop\n    /* \"#utility.yul\":3071:3120   */\ntag_72:\n    /* \"#utility.yul\":3133:3213   */\n  tag_73\n    /* \"#utility.yul\":3189:3211   */\n  tag_74\n    /* \"#utility.yul\":3207:3210   */\n  dup6\n    /* \"#utility.yul\":3189:3211   */\n  tag_19\n  jump\t// in\ntag_74:\n    /* \"#utility.yul\":3179:3187   */\n  dup4\n    /* \"#utility.yul\":3175:3212   */\n  add\n    /* \"#utility.yul\":3162:3173   */\n  dup3\n    /* \"#utility.yul\":3133:3213   */\n  tag_29\n  jump\t// in\ntag_73:\n    /* \"#utility.yul\":2792:3223   */\n  pop\n  pop\n    /* \"#utility.yul\":2777:3223   */\ntag_69:\n    /* \"#utility.yul\":2687:3230   */\n  pop\n  pop\n  pop\n  jump\t// out\n    /* \"#utility.yul\":3236:3353   */\ntag_31:\n    /* \"#utility.yul\":3290:3298   */\n  0x00\n    /* \"#utility.yul\":3340:3345   */\n  dup3\n    /* \"#utility.yul\":3334:3338   */\n  dup3\n    /* \"#utility.yul\":3330:3346   */\n  shr\n    /* \"#utility.yul\":3309:3346   */\n  swap1\n  pop\n    /* \"#utility.yul\":3236:3353   */\n  swap3\n  swap2\n  pop\n  pop\n  jump\t// out\n    /* \"#utility.yul\":3359:3528   */\ntag_32:\n    /* \"#utility.yul\":3403:3409   */\n  0x00\n    /* \"#utility.yul\":3436:3487   */\n  tag_77\n    /* \"#utility.yul\":3484:3485   */\n  0x00\n    /* \"#utility.yul\":3480:3486   */\n  not\n    /* \"#utility.yul\":3472:3477   */\n  dup5\n    /* \"#utility.yul\":3469:3470   */\n  0x08\n    /* \"#utility.yul\":3465:3478   */\n  mul\n    /* \"#utility.yul\":3436:3487   */\n  tag_31\n  jump\t// in\ntag_77:\n    /* \"#utility.yul\":3432:3488   */\n  not\n    /* \"#utility.yul\":3517:3521   */\n  dup1\n    /* \"#utility.yul\":3511:3515   */\n  dup4\n    /* \"#utility.yul\":3507:3522   */\n  and\n    /* \"#utility.yul\":3497:3522   */\n  swap2\n  pop\n    /* \"#utility.yul\":3410:3528   */\n  pop\n    /* \"#utility.yul\":3359:3528   */\n  swap3\n  swap2\n  pop\n  pop\n  jump\t// out\n    /* \"#utility.yul\":3533:3828   */\ntag_33:\n    /* \"#utility.yul\":3609:3613   */\n  0x00\n    /* \"#utility.yul\":3755:3784   */\n  tag_79\n    /* \"#utility.yul\":3780:3783   */\n  dup4\n    /* \"#utility.yul\":3774:3778   */\n  dup4\n    /* \"#utility.yul\":3755:3784   */\n  tag_32\n  jump\t// in\ntag_79:\n    /* \"#utility.yul\":3747:3784   */\n  swap2\n  pop\n    /* \"#utility.yul\":3817:3820   */\n  dup3\n    /* \"#utility.yul\":3814:3815   */\n  0x02\n    /* \"#utility.yul\":3810:3821   */\n  mul\n    /* \"#utility.yul\":3804:3808   */\n  dup3\n    /* \"#utility.yul\":3801:3822   */\n  or\n    /* \"#utility.yul\":3793:3822   */\n  swap1\n  pop\n    /* \"#utility.yul\":3533:3828   */\n  swap3\n  swap2\n  pop\n  pop\n  jump\t// out\n    /* \"#utility.yul\":3833:5228   */\ntag_8:\n    /* \"#utility.yul\":3950:3987   */\n  tag_81\n    /* \"#utility.yul\":3983:3986   */\n  dup3\n    /* \"#utility.yul\":3950:3987   */\n  tag_14\n  jump\t// in\ntag_81:\n    /* \"#utility.yul\":4052:4070   */\n  0xffffffffffffffff\n    /* \"#utility.yul\":4044:4050   */\n  dup2\n    /* \"#utility.yul\":4041:4071   */\n  gt\n    /* \"#utility.yul\":4038:4094   */\n  iszero\n  tag_82\n  jumpi\n    /* \"#utility.yul\":4074:4092   */\n  tag_83\n  tag_15\n  jump\t// in\ntag_83:\n    /* \"#utility.yul\":4038:4094   */\ntag_82:\n    /* \"#utility.yul\":4118:4156   */\n  tag_84\n    /* \"#utility.yul\":4150:4154   */\n  dup3\n    /* \"#utility.yul\":4144:4155   */\n  sload\n    /* \"#utility.yul\":4118:4156   */\n  tag_17\n  jump\t// in\ntag_84:\n    /* \"#utility.yul\":4203:4270   */\n  tag_85\n    /* \"#utility.yul\":4263:4269   */\n  dup3\n    /* \"#utility.yul\":4255:4261   */\n  dup3\n    /* \"#utility.yul\":4249:4253   */\n  dup6\n    /* \"#utility.yul\":4203:4270   */\n  tag_30\n  jump\t// in\ntag_85:\n    /* \"#utility.yul\":4297:4298   */\n  0x00\n    /* \"#utility.yul\":4321:4325   */\n  0x20\n    /* \"#utility.yul\":4308:4325   */\n  swap1\n  pop\n    /* \"#utility.yul\":4353:4355   */\n  0x1f\n    /* \"#utility.yul\":4345:4351   */\n  dup4\n    /* \"#utility.yul\":4342:4356   */\n  gt\n    /* \"#utility.yul\":4370:4371   */\n  0x01\n    /* \"#utility.yul\":4365:4983   */\n  dup2\n  eq\n  tag_87\n  jumpi\n    /* \"#utility.yul\":5027:5028   */\n  0x00\n    /* \"#utility.yul\":5044:5050   */\n  dup5\n    /* \"#utility.yul\":5041:5118   */\n  iszero\n  tag_88\n  jumpi\n    /* \"#utility.yul\":5093:5102   */\n  dup3\n    /* \"#utility.yul\":5088:5091   */\n  dup8\n    /* \"#utility.yul\":5084:5103   */\n  add\n    /* \"#utility.yul\":5078:5104   */\n  mload\n    /* \"#utility.yul\":5069:5104   */\n  swap1\n  pop\n    /* \"#utility.yul\":5041:5118   */\ntag_88:\n    /* \"#utility.yul\":5144:5211   */\n  tag_89\n    /* \"#utility.yul\":5204:5210   */\n  dup6\n    /* \"#utility.yul\":5197:5202   */\n  dup3\n    /* \"#utility.yul\":5144:5211   */\n  tag_33\n  jump\t// in\ntag_89:\n    /* \"#utility.yul\":5138:5142   */\n  dup7\n    /* \"#utility.yul\":5131:5212   */\n  sstore\n    /* \"#utility.yul\":5000:5222   */\n  pop\n    /* \"#utility.yul\":4335:5222   */\n  jump(tag_86)\n    /* \"#utility.yul\":4365:4983   */\ntag_87:\n    /* \"#utility.yul\":4417:4421   */\n  0x1f\n    /* \"#utility.yul\":4413:4422   */\n  not\n    /* \"#utility.yul\":4405:4411   */\n  dup5\n    /* \"#utility.yul\":4401:4423   */\n  and\n    /* \"#utility.yul\":4451:4488   */\n  tag_90\n    /* \"#utility.yul\":4483:4487   */\n  dup7\n    /* \"#utility.yul\":4451:4488   */\n  tag_18\n  jump\t// in\ntag_90:\n    /* \"#utility.yul\":4510:4511   */\n  0x00\n    /* \"#utility.yul\":4524:4732   */\ntag_91:\n    /* \"#utility.yul\":4538:4545   */\n  dup3\n    /* \"#utility.yul\":4535:4536   */\n  dup2\n    /* \"#utility.yul\":4532:4546   */\n  lt\n    /* \"#utility.yul\":4524:4732   */\n  iszero\n  tag_93\n  jumpi\n    /* \"#utility.yul\":4617:4626   */\n  dup5\n    /* \"#utility.yul\":4612:4615   */\n  dup10\n    /* \"#utility.yul\":4608:4627   */\n  add\n    /* \"#utility.yul\":4602:4628   */\n  mload\n    /* \"#utility.yul\":4594:4600   */\n  dup3\n    /* \"#utility.yul\":4587:4629   */\n  sstore\n    /* \"#utility.yul\":4668:4669   */\n  0x01\n    /* \"#utility.yul\":4660:4666   */\n  dup3\n    /* \"#utility.yul\":4656:4670   */\n  add\n    /* \"#utility.yul\":4646:4670   */\n  swap2\n  pop\n    /* \"#utility.yul\":4715:4717   */\n  0x20\n    /* \"#utility.yul\":4704:4713   */\n  dup6\n    /* \"#utility.yul\":4700:4718   */\n  add\n    /* \"#utility.yul\":4687:4718   */\n  swap5\n  pop\n    /* \"#utility.yul\":4561:4565   */\n  0x20\n    /* \"#utility.yul\":4558:4559   */\n  dup2\n    /* \"#utility.yul\":4554:4566   */\n  add\n    /* \"#utility.yul\":4549:4566   */\n  swap1\n  pop\n    /* \"#utility.yul\":4524:4732   */\n  jump(tag_91)\ntag_93:\n    /* \"#utility.yul\":4760:4766   */\n  dup7\n    /* \"#utility.yul\":4751:4758   */\n  dup4\n    /* \"#utility.yul\":4748:4767   */\n  lt\n    /* \"#utility.yul\":4745:4924   */\n  iszero\n  tag_94\n  jumpi\n    /* \"#utility.yul\":4818:4827   */\n  dup5\n    /* \"#utility.yul\":4813:4816   */\n  dup10\n    /* \"#utility.yul\":4809:4828   */\n  add\n    /* \"#utility.yul\":4803:4829   */\n  mload\n    /* \"#utility.yul\":4861:4909   */\n  tag_95\n    /* \"#utility.yul\":4903:4907   */\n  0x1f\n    /* \"#utility.yul\":4895:4901   */\n  dup10\n    /* \"#utility.yul\":4891:4908   */\n  and\n    /* \"#utility.yul\":4880:4889   */\n  dup3\n    /* \"#utility.yul\":4861:4909   */\n  tag_32\n  jump\t// in\ntag_95:\n    /* \"#utility.yul\":4853:4859   */\n  dup4\n    /* \"#utility.yul\":4846:4910   */\n  sstore\n    /* \"#utility.yul\":4768:4924   */\n  pop\n    /* \"#utility.yul\":4745:4924   */\ntag_94:\n    /* \"#utility.yul\":4970:4971   */\n  0x01\n    /* \"#utility.yul\":4966:4967   */\n  0x02\n    /* \"#utility.yul\":4958:4964   */\n  dup9\n    /* \"#utility.yul\":4954:4968   */\n  mul\n    /* \"#utility.yul\":4950:4972   */\n  add\n    /* \"#utility.yul\":4944:4948   */\n  dup9\n    /* \"#utility.yul\":4937:4973   */\n  sstore\n    /* \"#utility.yul\":4372:4983   */\n  pop\n  pop\n  pop\n    /* \"#utility.yul\":4335:5222   */\ntag_86:\n  pop\n    /* \"#utility.yul\":3925:5228   */\n  pop\n  pop\n  pop\n    /* \"#utility.yul\":3833:5228   */\n  pop\n  pop\n  jump\t// out\n    /* \"contracts/stable-coins/ERC20USDStableCoin.sol\":120:428  contract ERC20USDStableCoin is ERC20StableCoin {... */\ntag_13:\n  dataSize(sub_0)\n  dup1\n  dataOffset(sub_0)\n  0x00\n  codecopy\n  0x00\n  return\nstop\n\nsub_0: assembly {\n        /* \"contracts/stable-coins/ERC20USDStableCoin.sol\":120:428  contract ERC20USDStableCoin is ERC20StableCoin {... */\n      mstore(0x40, 0x80)\n      callvalue\n      dup1\n      iszero\n      tag_1\n      jumpi\n      0x00\n      dup1\n      revert\n    tag_1:\n      pop\n      jumpi(tag_2, lt(calldatasize, 0x04))\n      shr(0xe0, calldataload(0x00))\n      dup1\n      0x6ecd2306\n      gt\n      tag_22\n      jumpi\n      dup1\n      0xa457c2d7\n      gt\n      tag_23\n      jumpi\n      dup1\n      0xa457c2d7\n      eq\n      tag_17\n      jumpi\n      dup1\n      0xa9059cbb\n      eq\n      tag_18\n      jumpi\n      dup1\n      0xb2bdfa7b\n      eq\n      tag_19\n      jumpi\n      dup1\n      0xdcbdac30\n      eq\n      tag_20\n      jumpi\n      dup1\n      0xdd62ed3e\n      eq\n      tag_21\n      jumpi\n      jump(tag_2)\n    tag_23:\n      dup1\n      0x6ecd2306\n      eq\n      tag_12\n      jumpi\n      dup1\n      0x70a08231\n      eq\n      tag_13\n      jumpi\n      dup1\n      0x8456cb59\n      eq\n      tag_14\n      jumpi\n      dup1\n      0x95d89b41\n      eq\n      tag_15\n      jumpi\n      dup1\n      0xa41a016a\n      eq\n      tag_16\n      jumpi\n      jump(tag_2)\n    tag_22:\n      dup1\n      0x23b872dd\n      gt\n      tag_24\n      jumpi\n      dup1\n      0x23b872dd\n      eq\n      tag_7\n      jumpi\n      dup1\n      0x313ce567\n      eq\n      tag_8\n      jumpi\n      dup1\n      0x39509351\n      eq\n      tag_9\n      jumpi\n      dup1\n      0x42966c68\n      eq\n      tag_10\n      jumpi\n      dup1\n      0x5c975abb\n      eq\n      tag_11\n      jumpi\n      jump(tag_2)\n    tag_24:\n      dup1\n      0x06fdde03\n      eq\n      tag_3\n      jumpi\n      dup1\n      0x07d49020\n      eq\n      tag_4\n      jumpi\n      dup1\n      0x095ea7b3\n      eq\n      tag_5\n      jumpi\n      dup1\n      0x18160ddd\n      eq\n      tag_6\n      jumpi\n    tag_2:\n      0x00\n      dup1\n      revert\n        /* \"@openzeppelin/contracts/token/ERC20/ERC20.sol\":2154:2252  function name() public view virtual override returns (string memory) {... */\n    tag_3:\n      tag_25\n      tag_26\n      jump\t// in\n    tag_25:\n      mload(0x40)\n      tag_27\n      swap2\n      swap1\n      tag_28\n      jump\t// in\n    tag_27:\n      mload(0x40)\n      dup1\n      swap2\n      sub\n      swap1\n      return\n        /* \"contracts/stable-coins/ERC20StableCoin.sol\":1680:1777  function ownerBal() public view returns (uint256) {... */\n    tag_4:\n      tag_29\n      tag_30\n      jump\t// in\n    tag_29:\n      mload(0x40)\n      tag_31\n      swap2\n      swap1\n      tag_32\n      jump\t// in\n    tag_31:\n      mload(0x40)\n      dup1\n      swap2\n      sub\n      swap1\n      return\n        /* \"@openzeppelin/contracts/token/ERC20/ERC20.sol\":4431:4628  function approve(address spender, uint256 amount) public virtual override returns (bool) {... */\n    tag_5:\n      tag_33\n      0x04\n      dup1\n      calldatasize\n      sub\n      dup2\n      add\n      swap1\n      tag_34\n      swap2\n      swap1\n      tag_35\n      jump\t// in\n    tag_34:\n      tag_36\n      jump\t// in\n    tag_33:\n      mload(0x40)\n      tag_37\n      swap2\n      swap1\n      tag_38\n      jump\t// in\n    tag_37:\n      mload(0x40)\n      dup1\n      swap2\n      sub\n      swap1\n      return\n        /* \"@openzeppelin/contracts/token/ERC20/ERC20.sol\":3242:3348  function totalSupply() public view virtual override returns (uint256) {... */\n    tag_6:\n      tag_39\n      tag_40\n      jump\t// in\n    tag_39:\n      mload(0x40)\n      tag_41\n      swap2\n      swap1\n      tag_32\n      jump\t// in\n    tag_41:\n      mload(0x40)\n      dup1\n      swap2\n      sub\n      swap1\n      return\n        /* \"@openzeppelin/contracts/token/ERC20/ERC20.sol\":5190:5476  function transferFrom(... */\n    tag_7:\n      tag_42\n      0x04\n      dup1\n      calldatasize\n      sub\n      dup2\n      add\n      swap1\n      tag_43\n      swap2\n      swap1\n      tag_44\n      jump\t// in\n    tag_43:\n      tag_45\n      jump\t// in\n    tag_42:\n      mload(0x40)\n      tag_46\n      swap2\n      swap1\n      tag_38\n      jump\t// in\n    tag_46:\n      mload(0x40)\n      dup1\n      swap2\n      sub\n      swap1\n      return\n        /* \"contracts/stable-coins/ERC20StableCoin.sol\":1405:1503  function decimals() public view virtual override returns (uint8) {... */\n    tag_8:\n      tag_47\n      tag_48\n      jump\t// in\n    tag_47:\n      mload(0x40)\n      tag_49\n      swap2\n      swap1\n      tag_50\n      jump\t// in\n    tag_49:\n      mload(0x40)\n      dup1\n      swap2\n      sub\n      swap1\n      return\n        /* \"@openzeppelin/contracts/token/ERC20/ERC20.sol\":5871:6105  function increaseAllowance(address spender, uint256 addedValue) public virtual returns (bool) {... */\n    tag_9:\n      tag_51\n      0x04\n      dup1\n      calldatasize\n      sub\n      dup2\n      add\n      swap1\n      tag_52\n      swap2\n      swap1\n      tag_35\n      jump\t// in\n    tag_52:\n      tag_53\n      jump\t// in\n    tag_51:\n      mload(0x40)\n      tag_54\n      swap2\n      swap1\n      tag_38\n      jump\t// in\n    tag_54:\n      mload(0x40)\n      dup1\n      swap2\n      sub\n      swap1\n      return\n        /* \"contracts/stable-coins/ERC20StableCoin.sol\":749:872  function burn(uint256 amount) public onlyOwner whenNotPaused {... */\n    tag_10:\n      tag_55\n      0x04\n      dup1\n      calldatasize\n      sub\n      dup2\n      add\n      swap1\n      tag_56\n      swap2\n      swap1\n      tag_57\n      jump\t// in\n    tag_56:\n      tag_58\n      jump\t// in\n    tag_55:\n      stop\n        /* \"@openzeppelin/contracts/security/Pausable.sol\":1615:1699  function paused() public view virtual returns (bool) {... */\n    tag_11:\n      tag_59\n      tag_60\n      jump\t// in\n    tag_59:\n      mload(0x40)\n      tag_61\n      swap2\n      swap1\n      tag_38\n      jump\t// in\n    tag_61:\n      mload(0x40)\n      dup1\n      swap2\n      sub\n      swap1\n      return\n        /* \"contracts/stable-coins/ERC20StableCoin.sol\":537:658  function mint(uint8 amount) public onlyOwner whenNotPaused {... */\n    tag_12:\n      tag_62\n      0x04\n      dup1\n      calldatasize\n      sub\n      dup2\n      add\n      swap1\n      tag_63\n      swap2\n      swap1\n      tag_64\n      jump\t// in\n    tag_63:\n      tag_65\n      jump\t// in\n    tag_62:\n      stop\n        /* \"@openzeppelin/contracts/token/ERC20/ERC20.sol\":3406:3531  function balanceOf(address account) public view virtual override returns (uint256) {... */\n    tag_13:\n      tag_66\n      0x04\n      dup1\n      calldatasize\n      sub\n      dup2\n      add\n      swap1\n      tag_67\n      swap2\n      swap1\n      tag_68\n      jump\t// in\n    tag_67:\n      tag_69\n      jump\t// in\n    tag_66:\n      mload(0x40)\n      tag_70\n      swap2\n      swap1\n      tag_32\n      jump\t// in\n    tag_70:\n      mload(0x40)\n      dup1\n      swap2\n      sub\n      swap1\n      return\n        /* \"contracts/stable-coins/ERC20StableCoin.sol\":927:1031  function pause() public onlyOwner {... */\n    tag_14:\n      tag_71\n      tag_72\n      jump\t// in\n    tag_71:\n      stop\n        /* \"@openzeppelin/contracts/token/ERC20/ERC20.sol\":2365:2467  function symbol() public view virtual override returns (string memory) {... */\n    tag_15:\n      tag_73\n      tag_74\n      jump\t// in\n    tag_73:\n      mload(0x40)\n      tag_75\n      swap2\n      swap1\n      tag_28\n      jump\t// in\n    tag_75:\n      mload(0x40)\n      dup1\n      swap2\n      sub\n      swap1\n      return\n        /* \"contracts/stable-coins/ERC20StableCoin.sol\":1089:1196  function uppause() public onlyOwner {... */\n    tag_16:\n      tag_76\n      tag_77\n      jump\t// in\n    tag_76:\n      stop\n        /* \"@openzeppelin/contracts/token/ERC20/ERC20.sol\":6592:7019  function decreaseAllowance(address spender, uint256 subtractedValue) public virtual returns (bool) {... */\n    tag_17:\n      tag_78\n      0x04\n      dup1\n      calldatasize\n      sub\n      dup2\n      add\n      swap1\n      tag_79\n      swap2\n      swap1\n      tag_35\n      jump\t// in\n    tag_79:\n      tag_80\n      jump\t// in\n    tag_78:\n      mload(0x40)\n      tag_81\n      swap2\n      swap1\n      tag_38\n      jump\t// in\n    tag_81:\n      mload(0x40)\n      dup1\n      swap2\n      sub\n      swap1\n      return\n        /* \"@openzeppelin/contracts/token/ERC20/ERC20.sol\":3727:3916  function transfer(address to, uint256 amount) public virtual override returns (bool) {... */\n    tag_18:\n      tag_82\n      0x04\n      dup1\n      calldatasize\n      sub\n      dup2\n      add\n      swap1\n      tag_83\n      swap2\n      swap1\n      tag_35\n      jump\t// in\n    tag_83:\n      tag_84\n      jump\t// in\n    tag_82:\n      mload(0x40)\n      tag_85\n      swap2\n      swap1\n      tag_38\n      jump\t// in\n    tag_85:\n      mload(0x40)\n      dup1\n      swap2\n      sub\n      swap1\n      return\n        /* \"contracts/stable-coins/ERC20StableCoin.sol\":276:305  address payable public _owner */\n    tag_19:\n      tag_86\n      tag_87\n      jump\t// in\n    tag_86:\n      mload(0x40)\n      tag_88\n      swap2\n      swap1\n      tag_89\n      jump\t// in\n    tag_88:\n      mload(0x40)\n      dup1\n      swap2\n      sub\n      swap1\n      return\n        /* \"contracts/stable-coins/ERC20StableCoin.sol\":1573:1674  function unitsPerToken() public view virtual returns (uint256) {... */\n    tag_20:\n      tag_90\n      tag_91\n      jump\t// in\n    tag_90:\n      mload(0x40)\n      tag_92\n      swap2\n      swap1\n      tag_32\n      jump\t// in\n    tag_92:\n      mload(0x40)\n      dup1\n      swap2\n      sub\n      swap1\n      return\n        /* \"@openzeppelin/contracts/token/ERC20/ERC20.sol\":3974:4123  function allowance(address owner, address spender) public view virtual override returns (uint256) {... */\n    tag_21:\n      tag_93\n      0x04\n      dup1\n      calldatasize\n      sub\n      dup2\n      add\n      swap1\n      tag_94\n      swap2\n      swap1\n      tag_95\n      jump\t// in\n    tag_94:\n      tag_96\n      jump\t// in\n    tag_93:\n      mload(0x40)\n      tag_97\n      swap2\n      swap1\n      tag_32\n      jump\t// in\n    tag_97:\n      mload(0x40)\n      dup1\n      swap2\n      sub\n      swap1\n      return\n        /* \"@openzeppelin/contracts/token/ERC20/ERC20.sol\":2154:2252  function name() public view virtual override returns (string memory) {... */\n    tag_26:\n        /* \"@openzeppelin/contracts/token/ERC20/ERC20.sol\":2208:2221  string memory */\n      0x60\n        /* \"@openzeppelin/contracts/token/ERC20/ERC20.sol\":2240:2245  _name */\n      0x03\n        /* \"@openzeppelin/contracts/token/ERC20/ERC20.sol\":2233:2245  return _name */\n      dup1\n      sload\n      tag_99\n      swap1\n      tag_100\n      jump\t// in\n    tag_99:\n      dup1\n      0x1f\n      add\n      0x20\n      dup1\n      swap2\n      div\n      mul\n      0x20\n      add\n      mload(0x40)\n      swap1\n      dup2\n      add\n      0x40\n      mstore\n      dup1\n      swap3\n      swap2\n      swap1\n      dup2\n      dup2\n      mstore\n      0x20\n      add\n      dup3\n      dup1\n      sload\n      tag_101\n      swap1\n      tag_100\n      jump\t// in\n    tag_101:\n      dup1\n      iszero\n      tag_102\n      jumpi\n      dup1\n      0x1f\n      lt\n      tag_103\n      jumpi\n      0x0100\n      dup1\n      dup4\n      sload\n      div\n      mul\n      dup4\n      mstore\n      swap2\n      0x20\n      add\n      swap2\n      jump(tag_102)\n    tag_103:\n      dup3\n      add\n      swap2\n      swap1\n      0x00\n      mstore\n      keccak256(0x00, 0x20)\n      swap1\n    tag_104:\n      dup2\n      sload\n      dup2\n      mstore\n      swap1\n      0x01\n      add\n      swap1\n      0x20\n      add\n      dup1\n      dup4\n      gt\n      tag_104\n      jumpi\n      dup3\n      swap1\n      sub\n      0x1f\n      and\n      dup3\n      add\n      swap2\n    tag_102:\n      pop\n      pop\n      pop\n      pop\n      pop\n      swap1\n      pop\n        /* \"@openzeppelin/contracts/token/ERC20/ERC20.sol\":2154:2252  function name() public view virtual override returns (string memory) {... */\n      swap1\n      jump\t// out\n        /* \"contracts/stable-coins/ERC20StableCoin.sol\":1680:1777  function ownerBal() public view returns (uint256) {... */\n    tag_30:\n        /* \"contracts/stable-coins/ERC20StableCoin.sol\":1721:1728  uint256 */\n      0x00\n        /* \"contracts/stable-coins/ERC20StableCoin.sol\":1747:1770  super.balanceOf(_owner) */\n      tag_106\n        /* \"contracts/stable-coins/ERC20StableCoin.sol\":1763:1769  _owner */\n      0x05\n      0x01\n      swap1\n      sload\n      swap1\n      0x0100\n      exp\n      swap1\n      div\n      0xffffffffffffffffffffffffffffffffffffffff\n      and\n        /* \"contracts/stable-coins/ERC20StableCoin.sol\":1747:1762  super.balanceOf */\n      tag_69\n        /* \"contracts/stable-coins/ERC20StableCoin.sol\":1747:1770  super.balanceOf(_owner) */\n      jump\t// in\n    tag_106:\n        /* \"contracts/stable-coins/ERC20StableCoin.sol\":1740:1770  return super.balanceOf(_owner) */\n      swap1\n      pop\n        /* \"contracts/stable-coins/ERC20StableCoin.sol\":1680:1777  function ownerBal() public view returns (uint256) {... */\n      swap1\n      jump\t// out\n        /* \"@openzeppelin/contracts/token/ERC20/ERC20.sol\":4431:4628  function approve(address spender, uint256 amount) public virtual override returns (bool) {... */\n    tag_36:\n        /* \"@openzeppelin/contracts/token/ERC20/ERC20.sol\":4514:4518  bool */\n      0x00\n        /* \"@openzeppelin/contracts/token/ERC20/ERC20.sol\":4530:4543  address owner */\n      dup1\n        /* \"@openzeppelin/contracts/token/ERC20/ERC20.sol\":4546:4558  _msgSender() */\n      tag_108\n        /* \"@openzeppelin/contracts/token/ERC20/ERC20.sol\":4546:4556  _msgSender */\n      tag_109\n        /* \"@openzeppelin/contracts/token/ERC20/ERC20.sol\":4546:4558  _msgSender() */\n      jump\t// in\n    tag_108:\n        /* \"@openzeppelin/contracts/token/ERC20/ERC20.sol\":4530:4558  address owner = _msgSender() */\n      swap1\n      pop\n        /* \"@openzeppelin/contracts/token/ERC20/ERC20.sol\":4568:4600  _approve(owner, spender, amount) */\n      tag_110\n        /* \"@openzeppelin/contracts/token/ERC20/ERC20.sol\":4577:4582  owner */\n      dup2\n        /* \"@openzeppelin/contracts/token/ERC20/ERC20.sol\":4584:4591  spender */\n      dup6\n        /* \"@openzeppelin/contracts/token/ERC20/ERC20.sol\":4593:4599  amount */\n      dup6\n        /* \"@openzeppelin/contracts/token/ERC20/ERC20.sol\":4568:4576  _approve */\n      tag_111\n        /* \"@openzeppelin/contracts/token/ERC20/ERC20.sol\":4568:4600  _approve(owner, spender, amount) */\n      jump\t// in\n    tag_110:\n        /* \"@openzeppelin/contracts/token/ERC20/ERC20.sol\":4617:4621  true */\n      0x01\n        /* \"@openzeppelin/contracts/token/ERC20/ERC20.sol\":4610:4621  return true */\n      swap2\n      pop\n      pop\n        /* \"@openzeppelin/contracts/token/ERC20/ERC20.sol\":4431:4628  function approve(address spender, uint256 amount) public virtual override returns (bool) {... */\n      swap3\n      swap2\n      pop\n      pop\n      jump\t// out\n        /* \"@openzeppelin/contracts/token/ERC20/ERC20.sol\":3242:3348  function totalSupply() public view virtual override returns (uint256) {... */\n    tag_40:\n        /* \"@openzeppelin/contracts/token/ERC20/ERC20.sol\":3303:3310  uint256 */\n      0x00\n        /* \"@openzeppelin/contracts/token/ERC20/ERC20.sol\":3329:3341  _totalSupply */\n      sload(0x02)\n        /* \"@openzeppelin/contracts/token/ERC20/ERC20.sol\":3322:3341  return _totalSupply */\n      swap1\n      pop\n        /* \"@openzeppelin/contracts/token/ERC20/ERC20.sol\":3242:3348  function totalSupply() public view virtual override returns (uint256) {... */\n      swap1\n      jump\t// out\n        /* \"@openzeppelin/contracts/token/ERC20/ERC20.sol\":5190:5476  function transferFrom(... */\n    tag_45:\n        /* \"@openzeppelin/contracts/token/ERC20/ERC20.sol\":5317:5321  bool */\n      0x00\n        /* \"@openzeppelin/contracts/token/ERC20/ERC20.sol\":5333:5348  address spender */\n      dup1\n        /* \"@openzeppelin/contracts/token/ERC20/ERC20.sol\":5351:5363  _msgSender() */\n      tag_114\n        /* \"@openzeppelin/contracts/token/ERC20/ERC20.sol\":5351:5361  _msgSender */\n      tag_109\n        /* \"@openzeppelin/contracts/token/ERC20/ERC20.sol\":5351:5363  _msgSender() */\n      jump\t// in\n    tag_114:\n        /* \"@openzeppelin/contracts/token/ERC20/ERC20.sol\":5333:5363  address spender = _msgSender() */\n      swap1\n      pop\n        /* \"@openzeppelin/contracts/token/ERC20/ERC20.sol\":5373:5411  _spendAllowance(from, spender, amount) */\n      tag_115\n        /* \"@openzeppelin/contracts/token/ERC20/ERC20.sol\":5389:5393  from */\n      dup6\n        /* \"@openzeppelin/contracts/token/ERC20/ERC20.sol\":5395:5402  spender */\n      dup3\n        /* \"@openzeppelin/contracts/token/ERC20/ERC20.sol\":5404:5410  amount */\n      dup6\n        /* \"@openzeppelin/contracts/token/ERC20/ERC20.sol\":5373:5388  _spendAllowance */\n      tag_116\n        /* \"@openzeppelin/contracts/token/ERC20/ERC20.sol\":5373:5411  _spendAllowance(from, spender, amount) */\n      jump\t// in\n    tag_115:\n        /* \"@openzeppelin/contracts/token/ERC20/ERC20.sol\":5421:5448  _transfer(from, to, amount) */\n      tag_117\n        /* \"@openzeppelin/contracts/token/ERC20/ERC20.sol\":5431:5435  from */\n      dup6\n        /* \"@openzeppelin/contracts/token/ERC20/ERC20.sol\":5437:5439  to */\n      dup6\n        /* \"@openzeppelin/contracts/token/ERC20/ERC20.sol\":5441:5447  amount */\n      dup6\n        /* \"@openzeppelin/contracts/token/ERC20/ERC20.sol\":5421:5430  _transfer */\n      tag_118\n        /* \"@openzeppelin/contracts/token/ERC20/ERC20.sol\":5421:5448  _transfer(from, to, amount) */\n      jump\t// in\n    tag_117:\n        /* \"@openzeppelin/contracts/token/ERC20/ERC20.sol\":5465:5469  true */\n      0x01\n        /* \"@openzeppelin/contracts/token/ERC20/ERC20.sol\":5458:5469  return true */\n      swap2\n      pop\n      pop\n        /* \"@openzeppelin/contracts/token/ERC20/ERC20.sol\":5190:5476  function transferFrom(... */\n      swap4\n      swap3\n      pop\n      pop\n      pop\n      jump\t// out\n        /* \"contracts/stable-coins/ERC20StableCoin.sol\":1405:1503  function decimals() public view virtual override returns (uint8) {... */\n    tag_48:\n        /* \"contracts/stable-coins/ERC20StableCoin.sol\":1463:1468  uint8 */\n      0x00\n        /* \"contracts/stable-coins/ERC20StableCoin.sol\":1487:1496  _decimals */\n      0x05\n      0x15\n      swap1\n      sload\n      swap1\n      0x0100\n      exp\n      swap1\n      div\n      0xff\n      and\n        /* \"contracts/stable-coins/ERC20StableCoin.sol\":1480:1496  return _decimals */\n      swap1\n      pop\n        /* \"contracts/stable-coins/ERC20StableCoin.sol\":1405:1503  function decimals() public view virtual override returns (uint8) {... */\n      swap1\n      jump\t// out\n        /* \"@openzeppelin/contracts/token/ERC20/ERC20.sol\":5871:6105  function increaseAllowance(address spender, uint256 addedValue) public virtual returns (bool) {... */\n    tag_53:\n        /* \"@openzeppelin/contracts/token/ERC20/ERC20.sol\":5959:5963  bool */\n      0x00\n        /* \"@openzeppelin/contracts/token/ERC20/ERC20.sol\":5975:5988  address owner */\n      dup1\n        /* \"@openzeppelin/contracts/token/ERC20/ERC20.sol\":5991:6003  _msgSender() */\n      tag_121\n        /* \"@openzeppelin/contracts/token/ERC20/ERC20.sol\":5991:6001  _msgSender */\n      tag_109\n        /* \"@openzeppelin/contracts/token/ERC20/ERC20.sol\":5991:6003  _msgSender() */\n      jump\t// in\n    tag_121:\n        /* \"@openzeppelin/contracts/token/ERC20/ERC20.sol\":5975:6003  address owner = _msgSender() */\n      swap1\n      pop\n        /* \"@openzeppelin/contracts/token/ERC20/ERC20.sol\":6013:6077  _approve(owner, spender, allowance(owner, spender) + addedValue) */\n      tag_122\n        /* \"@openzeppelin/contracts/token/ERC20/ERC20.sol\":6022:6027  owner */\n      dup2\n        /* \"@openzeppelin/contracts/token/ERC20/ERC20.sol\":6029:6036  spender */\n      dup6\n        /* \"@openzeppelin/contracts/token/ERC20/ERC20.sol\":6066:6076  addedValue */\n      dup6\n        /* \"@openzeppelin/contracts/token/ERC20/ERC20.sol\":6038:6063  allowance(owner, spender) */\n      tag_123\n        /* \"@openzeppelin/contracts/token/ERC20/ERC20.sol\":6048:6053  owner */\n      dup6\n        /* \"@openzeppelin/contracts/token/ERC20/ERC20.sol\":6055:6062  spender */\n      dup10\n        /* \"@openzeppelin/contracts/token/ERC20/ERC20.sol\":6038:6047  allowance */\n      tag_96\n        /* \"@openzeppelin/contracts/token/ERC20/ERC20.sol\":6038:6063  allowance(owner, spender) */\n      jump\t// in\n    tag_123:\n        /* \"@openzeppelin/contracts/token/ERC20/ERC20.sol\":6038:6076  allowance(owner, spender) + addedValue */\n      tag_124\n      swap2\n      swap1\n      tag_125\n      jump\t// in\n    tag_124:\n        /* \"@openzeppelin/contracts/token/ERC20/ERC20.sol\":6013:6021  _approve */\n      tag_111\n        /* \"@openzeppelin/contracts/token/ERC20/ERC20.sol\":6013:6077  _approve(owner, spender, allowance(owner, spender) + addedValue) */\n      jump\t// in\n    tag_122:\n        /* \"@openzeppelin/contracts/token/ERC20/ERC20.sol\":6094:6098  true */\n      0x01\n        /* \"@openzeppelin/contracts/token/ERC20/ERC20.sol\":6087:6098  return true */\n      swap2\n      pop\n      pop\n        /* \"@openzeppelin/contracts/token/ERC20/ERC20.sol\":5871:6105  function increaseAllowance(address spender, uint256 addedValue) public virtual returns (bool) {... */\n      swap3\n      swap2\n      pop\n      pop\n      jump\t// out\n        /* \"contracts/stable-coins/ERC20StableCoin.sol\":749:872  function burn(uint256 amount) public onlyOwner whenNotPaused {... */\n    tag_58:\n        /* \"contracts/stable-coins/ERC20StableCoin.sol\":1255:1261  _owner */\n      0x05\n      0x01\n      swap1\n      sload\n      swap1\n      0x0100\n      exp\n      swap1\n      div\n      0xffffffffffffffffffffffffffffffffffffffff\n      and\n        /* \"contracts/stable-coins/ERC20StableCoin.sol\":1241:1261  msg.sender == _owner */\n      0xffffffffffffffffffffffffffffffffffffffff\n      and\n        /* \"contracts/stable-coins/ERC20StableCoin.sol\":1241:1251  msg.sender */\n      caller\n        /* \"contracts/stable-coins/ERC20StableCoin.sol\":1241:1261  msg.sender == _owner */\n      0xffffffffffffffffffffffffffffffffffffffff\n      and\n      eq\n        /* \"contracts/stable-coins/ERC20StableCoin.sol\":1233:1303  require(msg.sender == _owner, \"Only the owner can call this function\") */\n      tag_127\n      jumpi\n      mload(0x40)\n      0x08c379a000000000000000000000000000000000000000000000000000000000\n      dup2\n      mstore\n      0x04\n      add\n      tag_128\n      swap1\n      tag_129\n      jump\t// in\n    tag_128:\n      mload(0x40)\n      dup1\n      swap2\n      sub\n      swap1\n      revert\n    tag_127:\n        /* \"@openzeppelin/contracts/security/Pausable.sol\":1239:1258  _requireNotPaused() */\n      tag_131\n        /* \"@openzeppelin/contracts/security/Pausable.sol\":1239:1256  _requireNotPaused */\n      tag_132\n        /* \"@openzeppelin/contracts/security/Pausable.sol\":1239:1258  _requireNotPaused() */\n      jump\t// in\n    tag_131:\n        /* \"contracts/stable-coins/ERC20StableCoin.sol\":820:865  super._burn(_owner, amount * unitsPerToken()) */\n      tag_134\n        /* \"contracts/stable-coins/ERC20StableCoin.sol\":832:838  _owner */\n      0x05\n      0x01\n      swap1\n      sload\n      swap1\n      0x0100\n      exp\n      swap1\n      div\n      0xffffffffffffffffffffffffffffffffffffffff\n      and\n        /* \"contracts/stable-coins/ERC20StableCoin.sol\":849:864  unitsPerToken() */\n      tag_135\n        /* \"contracts/stable-coins/ERC20StableCoin.sol\":849:862  unitsPerToken */\n      tag_91\n        /* \"contracts/stable-coins/ERC20StableCoin.sol\":849:864  unitsPerToken() */\n      jump\t// in\n    tag_135:\n        /* \"contracts/stable-coins/ERC20StableCoin.sol\":840:846  amount */\n      dup4\n        /* \"contracts/stable-coins/ERC20StableCoin.sol\":840:864  amount * unitsPerToken() */\n      tag_136\n      swap2\n      swap1\n      tag_137\n      jump\t// in\n    tag_136:\n        /* \"contracts/stable-coins/ERC20StableCoin.sol\":820:831  super._burn */\n      tag_138\n        /* \"contracts/stable-coins/ERC20StableCoin.sol\":820:865  super._burn(_owner, amount * unitsPerToken()) */\n      jump\t// in\n    tag_134:\n        /* \"contracts/stable-coins/ERC20StableCoin.sol\":749:872  function burn(uint256 amount) public onlyOwner whenNotPaused {... */\n      pop\n      jump\t// out\n        /* \"@openzeppelin/contracts/security/Pausable.sol\":1615:1699  function paused() public view virtual returns (bool) {... */\n    tag_60:\n        /* \"@openzeppelin/contracts/security/Pausable.sol\":1662:1666  bool */\n      0x00\n        /* \"@openzeppelin/contracts/security/Pausable.sol\":1685:1692  _paused */\n      0x05\n      0x00\n      swap1\n      sload\n      swap1\n      0x0100\n      exp\n      swap1\n      div\n      0xff\n      and\n        /* \"@openzeppelin/contracts/security/Pausable.sol\":1678:1692  return _paused */\n      swap1\n      pop\n        /* \"@openzeppelin/contracts/security/Pausable.sol\":1615:1699  function paused() public view virtual returns (bool) {... */\n      swap1\n      jump\t// out\n        /* \"contracts/stable-coins/ERC20StableCoin.sol\":537:658  function mint(uint8 amount) public onlyOwner whenNotPaused {... */\n    tag_65:\n        /* \"contracts/stable-coins/ERC20StableCoin.sol\":1255:1261  _owner */\n      0x05\n      0x01\n      swap1\n      sload\n      swap1\n      0x0100\n      exp\n      swap1\n      div\n      0xffffffffffffffffffffffffffffffffffffffff\n      and\n        /* \"contracts/stable-coins/ERC20StableCoin.sol\":1241:1261  msg.sender == _owner */\n      0xffffffffffffffffffffffffffffffffffffffff\n      and\n        /* \"contracts/stable-coins/ERC20StableCoin.sol\":1241:1251  msg.sender */\n      caller\n        /* \"contracts/stable-coins/ERC20StableCoin.sol\":1241:1261  msg.sender == _owner */\n      0xffffffffffffffffffffffffffffffffffffffff\n      and\n      eq\n        /* \"contracts/stable-coins/ERC20StableCoin.sol\":1233:1303  require(msg.sender == _owner, \"Only the owner can call this function\") */\n      tag_141\n      jumpi\n      mload(0x40)\n      0x08c379a000000000000000000000000000000000000000000000000000000000\n      dup2\n      mstore\n      0x04\n      add\n      tag_142\n      swap1\n      tag_129\n      jump\t// in\n    tag_142:\n      mload(0x40)\n      dup1\n      swap2\n      sub\n      swap1\n      revert\n    tag_141:\n        /* \"@openzeppelin/contracts/security/Pausable.sol\":1239:1258  _requireNotPaused() */\n      tag_144\n        /* \"@openzeppelin/contracts/security/Pausable.sol\":1239:1256  _requireNotPaused */\n      tag_132\n        /* \"@openzeppelin/contracts/security/Pausable.sol\":1239:1258  _requireNotPaused() */\n      jump\t// in\n    tag_144:\n        /* \"contracts/stable-coins/ERC20StableCoin.sol\":606:651  super._mint(_owner, amount * unitsPerToken()) */\n      tag_146\n        /* \"contracts/stable-coins/ERC20StableCoin.sol\":618:624  _owner */\n      0x05\n      0x01\n      swap1\n      sload\n      swap1\n      0x0100\n      exp\n      swap1\n      div\n      0xffffffffffffffffffffffffffffffffffffffff\n      and\n        /* \"contracts/stable-coins/ERC20StableCoin.sol\":635:650  unitsPerToken() */\n      tag_147\n        /* \"contracts/stable-coins/ERC20StableCoin.sol\":635:648  unitsPerToken */\n      tag_91\n        /* \"contracts/stable-coins/ERC20StableCoin.sol\":635:650  unitsPerToken() */\n      jump\t// in\n    tag_147:\n        /* \"contracts/stable-coins/ERC20StableCoin.sol\":626:632  amount */\n      dup4\n        /* \"contracts/stable-coins/ERC20StableCoin.sol\":626:650  amount * unitsPerToken() */\n      0xff\n      and\n      tag_148\n      swap2\n      swap1\n      tag_137\n      jump\t// in\n    tag_148:\n        /* \"contracts/stable-coins/ERC20StableCoin.sol\":606:617  super._mint */\n      tag_149\n        /* \"contracts/stable-coins/ERC20StableCoin.sol\":606:651  super._mint(_owner, amount * unitsPerToken()) */\n      jump\t// in\n    tag_146:\n        /* \"contracts/stable-coins/ERC20StableCoin.sol\":537:658  function mint(uint8 amount) public onlyOwner whenNotPaused {... */\n      pop\n      jump\t// out\n        /* \"@openzeppelin/contracts/token/ERC20/ERC20.sol\":3406:3531  function balanceOf(address account) public view virtual override returns (uint256) {... */\n    tag_69:\n        /* \"@openzeppelin/contracts/token/ERC20/ERC20.sol\":3480:3487  uint256 */\n      0x00\n        /* \"@openzeppelin/contracts/token/ERC20/ERC20.sol\":3506:3515  _balances */\n      dup1\n        /* \"@openzeppelin/contracts/token/ERC20/ERC20.sol\":3506:3524  _balances[account] */\n      0x00\n        /* \"@openzeppelin/contracts/token/ERC20/ERC20.sol\":3516:3523  account */\n      dup4\n        /* \"@openzeppelin/contracts/token/ERC20/ERC20.sol\":3506:3524  _balances[account] */\n      0xffffffffffffffffffffffffffffffffffffffff\n      and\n      0xffffffffffffffffffffffffffffffffffffffff\n      and\n      dup2\n      mstore\n      0x20\n      add\n      swap1\n      dup2\n      mstore\n      0x20\n      add\n      0x00\n      keccak256\n      sload\n        /* \"@openzeppelin/contracts/token/ERC20/ERC20.sol\":3499:3524  return _balances[account] */\n      swap1\n      pop\n        /* \"@openzeppelin/contracts/token/ERC20/ERC20.sol\":3406:3531  function balanceOf(address account) public view virtual override returns (uint256) {... */\n      swap2\n      swap1\n      pop\n      jump\t// out\n        /* \"contracts/stable-coins/ERC20StableCoin.sol\":927:1031  function pause() public onlyOwner {... */\n    tag_72:\n        /* \"contracts/stable-coins/ERC20StableCoin.sol\":1255:1261  _owner */\n      0x05\n      0x01\n      swap1\n      sload\n      swap1\n      0x0100\n      exp\n      swap1\n      div\n      0xffffffffffffffffffffffffffffffffffffffff\n      and\n        /* \"contracts/stable-coins/ERC20StableCoin.sol\":1241:1261  msg.sender == _owner */\n      0xffffffffffffffffffffffffffffffffffffffff\n      and\n        /* \"contracts/stable-coins/ERC20StableCoin.sol\":1241:1251  msg.sender */\n      caller\n        /* \"contracts/stable-coins/ERC20StableCoin.sol\":1241:1261  msg.sender == _owner */\n      0xffffffffffffffffffffffffffffffffffffffff\n      and\n      eq\n        /* \"contracts/stable-coins/ERC20StableCoin.sol\":1233:1303  require(msg.sender == _owner, \"Only the owner can call this function\") */\n      tag_152\n      jumpi\n      mload(0x40)\n      0x08c379a000000000000000000000000000000000000000000000000000000000\n      dup2\n      mstore\n      0x04\n      add\n      tag_153\n      swap1\n      tag_129\n      jump\t// in\n    tag_153:\n      mload(0x40)\n      dup1\n      swap2\n      sub\n      swap1\n      revert\n    tag_152:\n        /* \"contracts/stable-coins/ERC20StableCoin.sol\":976:984  paused() */\n      tag_155\n        /* \"contracts/stable-coins/ERC20StableCoin.sol\":976:982  paused */\n      tag_60\n        /* \"contracts/stable-coins/ERC20StableCoin.sol\":976:984  paused() */\n      jump\t// in\n    tag_155:\n        /* \"contracts/stable-coins/ERC20StableCoin.sol\":971:1025  if (!paused()) {... */\n      tag_156\n      jumpi\n        /* \"contracts/stable-coins/ERC20StableCoin.sol\":1000:1014  super._pause() */\n      tag_157\n        /* \"contracts/stable-coins/ERC20StableCoin.sol\":1000:1012  super._pause */\n      tag_158\n        /* \"contracts/stable-coins/ERC20StableCoin.sol\":1000:1014  super._pause() */\n      jump\t// in\n    tag_157:\n        /* \"contracts/stable-coins/ERC20StableCoin.sol\":971:1025  if (!paused()) {... */\n    tag_156:\n        /* \"contracts/stable-coins/ERC20StableCoin.sol\":927:1031  function pause() public onlyOwner {... */\n      jump\t// out\n        /* \"@openzeppelin/contracts/token/ERC20/ERC20.sol\":2365:2467  function symbol() public view virtual override returns (string memory) {... */\n    tag_74:\n        /* \"@openzeppelin/contracts/token/ERC20/ERC20.sol\":2421:2434  string memory */\n      0x60\n        /* \"@openzeppelin/contracts/token/ERC20/ERC20.sol\":2453:2460  _symbol */\n      0x04\n        /* \"@openzeppelin/contracts/token/ERC20/ERC20.sol\":2446:2460  return _symbol */\n      dup1\n      sload\n      tag_160\n      swap1\n      tag_100\n      jump\t// in\n    tag_160:\n      dup1\n      0x1f\n      add\n      0x20\n      dup1\n      swap2\n      div\n      mul\n      0x20\n      add\n      mload(0x40)\n      swap1\n      dup2\n      add\n      0x40\n      mstore\n      dup1\n      swap3\n      swap2\n      swap1\n      dup2\n      dup2\n      mstore\n      0x20\n      add\n      dup3\n      dup1\n      sload\n      tag_161\n      swap1\n      tag_100\n      jump\t// in\n    tag_161:\n      dup1\n      iszero\n      tag_162\n      jumpi\n      dup1\n      0x1f\n      lt\n      tag_163\n      jumpi\n      0x0100\n      dup1\n      dup4\n      sload\n      div\n      mul\n      dup4\n      mstore\n      swap2\n      0x20\n      add\n      swap2\n      jump(tag_162)\n    tag_163:\n      dup3\n      add\n      swap2\n      swap1\n      0x00\n      mstore\n      keccak256(0x00, 0x20)\n      swap1\n    tag_164:\n      dup2\n      sload\n      dup2\n      mstore\n      swap1\n      0x01\n      add\n      swap1\n      0x20\n      add\n      dup1\n      dup4\n      gt\n      tag_164\n      jumpi\n      dup3\n      swap1\n      sub\n      0x1f\n      and\n      dup3\n      add\n      swap2\n    tag_162:\n      pop\n      pop\n      pop\n      pop\n      pop\n      swap1\n      pop\n        /* \"@openzeppelin/contracts/token/ERC20/ERC20.sol\":2365:2467  function symbol() public view virtual override returns (string memory) {... */\n      swap1\n      jump\t// out\n        /* \"contracts/stable-coins/ERC20StableCoin.sol\":1089:1196  function uppause() public onlyOwner {... */\n    tag_77:\n        /* \"contracts/stable-coins/ERC20StableCoin.sol\":1255:1261  _owner */\n      0x05\n      0x01\n      swap1\n      sload\n      swap1\n      0x0100\n      exp\n      swap1\n      div\n      0xffffffffffffffffffffffffffffffffffffffff\n      and\n        /* \"contracts/stable-coins/ERC20StableCoin.sol\":1241:1261  msg.sender == _owner */\n      0xffffffffffffffffffffffffffffffffffffffff\n      and\n        /* \"contracts/stable-coins/ERC20StableCoin.sol\":1241:1251  msg.sender */\n      caller\n        /* \"contracts/stable-coins/ERC20StableCoin.sol\":1241:1261  msg.sender == _owner */\n      0xffffffffffffffffffffffffffffffffffffffff\n      and\n      eq\n        /* \"contracts/stable-coins/ERC20StableCoin.sol\":1233:1303  require(msg.sender == _owner, \"Only the owner can call this function\") */\n      tag_166\n      jumpi\n      mload(0x40)\n      0x08c379a000000000000000000000000000000000000000000000000000000000\n      dup2\n      mstore\n      0x04\n      add\n      tag_167\n      swap1\n      tag_129\n      jump\t// in\n    tag_167:\n      mload(0x40)\n      dup1\n      swap2\n      sub\n      swap1\n      revert\n    tag_166:\n        /* \"contracts/stable-coins/ERC20StableCoin.sol\":1139:1147  paused() */\n      tag_169\n        /* \"contracts/stable-coins/ERC20StableCoin.sol\":1139:1145  paused */\n      tag_60\n        /* \"contracts/stable-coins/ERC20StableCoin.sol\":1139:1147  paused() */\n      jump\t// in\n    tag_169:\n        /* \"contracts/stable-coins/ERC20StableCoin.sol\":1135:1190  if (paused()) {... */\n      iszero\n      tag_170\n      jumpi\n        /* \"contracts/stable-coins/ERC20StableCoin.sol\":1163:1179  super._unpause() */\n      tag_171\n        /* \"contracts/stable-coins/ERC20StableCoin.sol\":1163:1177  super._unpause */\n      tag_172\n        /* \"contracts/stable-coins/ERC20StableCoin.sol\":1163:1179  super._unpause() */\n      jump\t// in\n    tag_171:\n        /* \"contracts/stable-coins/ERC20StableCoin.sol\":1135:1190  if (paused()) {... */\n    tag_170:\n        /* \"contracts/stable-coins/ERC20StableCoin.sol\":1089:1196  function uppause() public onlyOwner {... */\n      jump\t// out\n        /* \"@openzeppelin/contracts/token/ERC20/ERC20.sol\":6592:7019  function decreaseAllowance(address spender, uint256 subtractedValue) public virtual returns (bool) {... */\n    tag_80:\n        /* \"@openzeppelin/contracts/token/ERC20/ERC20.sol\":6685:6689  bool */\n      0x00\n        /* \"@openzeppelin/contracts/token/ERC20/ERC20.sol\":6701:6714  address owner */\n      dup1\n        /* \"@openzeppelin/contracts/token/ERC20/ERC20.sol\":6717:6729  _msgSender() */\n      tag_174\n        /* \"@openzeppelin/contracts/token/ERC20/ERC20.sol\":6717:6727  _msgSender */\n      tag_109\n        /* \"@openzeppelin/contracts/token/ERC20/ERC20.sol\":6717:6729  _msgSender() */\n      jump\t// in\n    tag_174:\n        /* \"@openzeppelin/contracts/token/ERC20/ERC20.sol\":6701:6729  address owner = _msgSender() */\n      swap1\n      pop\n        /* \"@openzeppelin/contracts/token/ERC20/ERC20.sol\":6739:6763  uint256 currentAllowance */\n      0x00\n        /* \"@openzeppelin/contracts/token/ERC20/ERC20.sol\":6766:6791  allowance(owner, spender) */\n      tag_175\n        /* \"@openzeppelin/contracts/token/ERC20/ERC20.sol\":6776:6781  owner */\n      dup3\n        /* \"@openzeppelin/contracts/token/ERC20/ERC20.sol\":6783:6790  spender */\n      dup7\n        /* \"@openzeppelin/contracts/token/ERC20/ERC20.sol\":6766:6775  allowance */\n      tag_96\n        /* \"@openzeppelin/contracts/token/ERC20/ERC20.sol\":6766:6791  allowance(owner, spender) */\n      jump\t// in\n    tag_175:\n        /* \"@openzeppelin/contracts/token/ERC20/ERC20.sol\":6739:6791  uint256 currentAllowance = allowance(owner, spender) */\n      swap1\n      pop\n        /* \"@openzeppelin/contracts/token/ERC20/ERC20.sol\":6829:6844  subtractedValue */\n      dup4\n        /* \"@openzeppelin/contracts/token/ERC20/ERC20.sol\":6809:6825  currentAllowance */\n      dup2\n        /* \"@openzeppelin/contracts/token/ERC20/ERC20.sol\":6809:6844  currentAllowance >= subtractedValue */\n      lt\n      iszero\n        /* \"@openzeppelin/contracts/token/ERC20/ERC20.sol\":6801:6886  require(currentAllowance >= subtractedValue, \"ERC20: decreased allowance below zero\") */\n      tag_176\n      jumpi\n      mload(0x40)\n      0x08c379a000000000000000000000000000000000000000000000000000000000\n      dup2\n      mstore\n      0x04\n      add\n      tag_177\n      swap1\n      tag_178\n      jump\t// in\n    tag_177:\n      mload(0x40)\n      dup1\n      swap2\n      sub\n      swap1\n      revert\n    tag_176:\n        /* \"@openzeppelin/contracts/token/ERC20/ERC20.sol\":6920:6980  _approve(owner, spender, currentAllowance - subtractedValue) */\n      tag_179\n        /* \"@openzeppelin/contracts/token/ERC20/ERC20.sol\":6929:6934  owner */\n      dup3\n        /* \"@openzeppelin/contracts/token/ERC20/ERC20.sol\":6936:6943  spender */\n      dup7\n        /* \"@openzeppelin/contracts/token/ERC20/ERC20.sol\":6964:6979  subtractedValue */\n      dup7\n        /* \"@openzeppelin/contracts/token/ERC20/ERC20.sol\":6945:6961  currentAllowance */\n      dup5\n        /* \"@openzeppelin/contracts/token/ERC20/ERC20.sol\":6945:6979  currentAllowance - subtractedValue */\n      sub\n        /* \"@openzeppelin/contracts/token/ERC20/ERC20.sol\":6920:6928  _approve */\n      tag_111\n        /* \"@openzeppelin/contracts/token/ERC20/ERC20.sol\":6920:6980  _approve(owner, spender, currentAllowance - subtractedValue) */\n      jump\t// in\n    tag_179:\n        /* \"@openzeppelin/contracts/token/ERC20/ERC20.sol\":7008:7012  true */\n      0x01\n        /* \"@openzeppelin/contracts/token/ERC20/ERC20.sol\":7001:7012  return true */\n      swap3\n      pop\n      pop\n      pop\n        /* \"@openzeppelin/contracts/token/ERC20/ERC20.sol\":6592:7019  function decreaseAllowance(address spender, uint256 subtractedValue) public virtual returns (bool) {... */\n      swap3\n      swap2\n      pop\n      pop\n      jump\t// out\n        /* \"@openzeppelin/contracts/token/ERC20/ERC20.sol\":3727:3916  function transfer(address to, uint256 amount) public virtual override returns (bool) {... */\n    tag_84:\n        /* \"@openzeppelin/contracts/token/ERC20/ERC20.sol\":3806:3810  bool */\n      0x00\n        /* \"@openzeppelin/contracts/token/ERC20/ERC20.sol\":3822:3835  address owner */\n      dup1\n        /* \"@openzeppelin/contracts/token/ERC20/ERC20.sol\":3838:3850  _msgSender() */\n      tag_181\n        /* \"@openzeppelin/contracts/token/ERC20/ERC20.sol\":3838:3848  _msgSender */\n      tag_109\n        /* \"@openzeppelin/contracts/token/ERC20/ERC20.sol\":3838:3850  _msgSender() */\n      jump\t// in\n    tag_181:\n        /* \"@openzeppelin/contracts/token/ERC20/ERC20.sol\":3822:3850  address owner = _msgSender() */\n      swap1\n      pop\n        /* \"@openzeppelin/contracts/token/ERC20/ERC20.sol\":3860:3888  _transfer(owner, to, amount) */\n      tag_182\n        /* \"@openzeppelin/contracts/token/ERC20/ERC20.sol\":3870:3875  owner */\n      dup2\n        /* \"@openzeppelin/contracts/token/ERC20/ERC20.sol\":3877:3879  to */\n      dup6\n        /* \"@openzeppelin/contracts/token/ERC20/ERC20.sol\":3881:3887  amount */\n      dup6\n        /* \"@openzeppelin/contracts/token/ERC20/ERC20.sol\":3860:3869  _transfer */\n      tag_118\n        /* \"@openzeppelin/contracts/token/ERC20/ERC20.sol\":3860:3888  _transfer(owner, to, amount) */\n      jump\t// in\n    tag_182:\n        /* \"@openzeppelin/contracts/token/ERC20/ERC20.sol\":3905:3909  true */\n      0x01\n        /* \"@openzeppelin/contracts/token/ERC20/ERC20.sol\":3898:3909  return true */\n      swap2\n      pop\n      pop\n        /* \"@openzeppelin/contracts/token/ERC20/ERC20.sol\":3727:3916  function transfer(address to, uint256 amount) public virtual override returns (bool) {... */\n      swap3\n      swap2\n      pop\n      pop\n      jump\t// out\n        /* \"contracts/stable-coins/ERC20StableCoin.sol\":276:305  address payable public _owner */\n    tag_87:\n      0x05\n      0x01\n      swap1\n      sload\n      swap1\n      0x0100\n      exp\n      swap1\n      div\n      0xffffffffffffffffffffffffffffffffffffffff\n      and\n      dup2\n      jump\t// out\n        /* \"contracts/stable-coins/ERC20StableCoin.sol\":1573:1674  function unitsPerToken() public view virtual returns (uint256) {... */\n    tag_91:\n        /* \"contracts/stable-coins/ERC20StableCoin.sol\":1627:1634  uint256 */\n      0x00\n        /* \"contracts/stable-coins/ERC20StableCoin.sol\":1657:1667  decimals() */\n      tag_184\n        /* \"contracts/stable-coins/ERC20StableCoin.sol\":1657:1665  decimals */\n      tag_48\n        /* \"contracts/stable-coins/ERC20StableCoin.sol\":1657:1667  decimals() */\n      jump\t// in\n    tag_184:\n        /* \"contracts/stable-coins/ERC20StableCoin.sol\":1653:1655  10 */\n      0x0a\n        /* \"contracts/stable-coins/ERC20StableCoin.sol\":1653:1667  10**decimals() */\n      tag_185\n      swap2\n      swap1\n      tag_186\n      jump\t// in\n    tag_185:\n        /* \"contracts/stable-coins/ERC20StableCoin.sol\":1646:1667  return 10**decimals() */\n      swap1\n      pop\n        /* \"contracts/stable-coins/ERC20StableCoin.sol\":1573:1674  function unitsPerToken() public view virtual returns (uint256) {... */\n      swap1\n      jump\t// out\n        /* \"@openzeppelin/contracts/token/ERC20/ERC20.sol\":3974:4123  function allowance(address owner, address spender) public view virtual override returns (uint256) {... */\n    tag_96:\n        /* \"@openzeppelin/contracts/token/ERC20/ERC20.sol\":4063:4070  uint256 */\n      0x00\n        /* \"@openzeppelin/contracts/token/ERC20/ERC20.sol\":4089:4100  _allowances */\n      0x01\n        /* \"@openzeppelin/contracts/token/ERC20/ERC20.sol\":4089:4107  _allowances[owner] */\n      0x00\n        /* \"@openzeppelin/contracts/token/ERC20/ERC20.sol\":4101:4106  owner */\n      dup5\n        /* \"@openzeppelin/contracts/token/ERC20/ERC20.sol\":4089:4107  _allowances[owner] */\n      0xffffffffffffffffffffffffffffffffffffffff\n      and\n      0xffffffffffffffffffffffffffffffffffffffff\n      and\n      dup2\n      mstore\n      0x20\n      add\n      swap1\n      dup2\n      mstore\n      0x20\n      add\n      0x00\n      keccak256\n        /* \"@openzeppelin/contracts/token/ERC20/ERC20.sol\":4089:4116  _allowances[owner][spender] */\n      0x00\n        /* \"@openzeppelin/contracts/token/ERC20/ERC20.sol\":4108:4115  spender */\n      dup4\n        /* \"@openzeppelin/contracts/token/ERC20/ERC20.sol\":4089:4116  _allowances[owner][spender] */\n      0xffffffffffffffffffffffffffffffffffffffff\n      and\n      0xffffffffffffffffffffffffffffffffffffffff\n      and\n      dup2\n      mstore\n      0x20\n      add\n      swap1\n      dup2\n      mstore\n      0x20\n      add\n      0x00\n      keccak256\n      sload\n        /* \"@openzeppelin/contracts/token/ERC20/ERC20.sol\":4082:4116  return _allowances[owner][spender] */\n      swap1\n      pop\n        /* \"@openzeppelin/contracts/token/ERC20/ERC20.sol\":3974:4123  function allowance(address owner, address spender) public view virtual override returns (uint256) {... */\n      swap3\n      swap2\n      pop\n      pop\n      jump\t// out\n        /* \"@openzeppelin/contracts/utils/Context.sol\":640:736  function _msgSender() internal view virtual returns (address) {... */\n    tag_109:\n        /* \"@openzeppelin/contracts/utils/Context.sol\":693:700  address */\n      0x00\n        /* \"@openzeppelin/contracts/utils/Context.sol\":719:729  msg.sender */\n      caller\n        /* \"@openzeppelin/contracts/utils/Context.sol\":712:729  return msg.sender */\n      swap1\n      pop\n        /* \"@openzeppelin/contracts/utils/Context.sol\":640:736  function _msgSender() internal view virtual returns (address) {... */\n      swap1\n      jump\t// out\n        /* \"@openzeppelin/contracts/token/ERC20/ERC20.sol\":10504:10874  function _approve(... */\n    tag_111:\n        /* \"@openzeppelin/contracts/token/ERC20/ERC20.sol\":10652:10653  0 */\n      0x00\n        /* \"@openzeppelin/contracts/token/ERC20/ERC20.sol\":10635:10654  owner != address(0) */\n      0xffffffffffffffffffffffffffffffffffffffff\n      and\n        /* \"@openzeppelin/contracts/token/ERC20/ERC20.sol\":10635:10640  owner */\n      dup4\n        /* \"@openzeppelin/contracts/token/ERC20/ERC20.sol\":10635:10654  owner != address(0) */\n      0xffffffffffffffffffffffffffffffffffffffff\n      and\n      sub\n        /* \"@openzeppelin/contracts/token/ERC20/ERC20.sol\":10627:10695  require(owner != address(0), \"ERC20: approve from the zero address\") */\n      tag_190\n      jumpi\n      mload(0x40)\n      0x08c379a000000000000000000000000000000000000000000000000000000000\n      dup2\n      mstore\n      0x04\n      add\n      tag_191\n      swap1\n      tag_192\n      jump\t// in\n    tag_191:\n      mload(0x40)\n      dup1\n      swap2\n      sub\n      swap1\n      revert\n    tag_190:\n        /* \"@openzeppelin/contracts/token/ERC20/ERC20.sol\":10732:10733  0 */\n      0x00\n        /* \"@openzeppelin/contracts/token/ERC20/ERC20.sol\":10713:10734  spender != address(0) */\n      0xffffffffffffffffffffffffffffffffffffffff\n      and\n        /* \"@openzeppelin/contracts/token/ERC20/ERC20.sol\":10713:10720  spender */\n      dup3\n        /* \"@openzeppelin/contracts/token/ERC20/ERC20.sol\":10713:10734  spender != address(0) */\n      0xffffffffffffffffffffffffffffffffffffffff\n      and\n      sub\n        /* \"@openzeppelin/contracts/token/ERC20/ERC20.sol\":10705:10773  require(spender != address(0), \"ERC20: approve to the zero address\") */\n      tag_193\n      jumpi\n      mload(0x40)\n      0x08c379a000000000000000000000000000000000000000000000000000000000\n      dup2\n      mstore\n      0x04\n      add\n      tag_194\n      swap1\n      tag_195\n      jump\t// in\n    tag_194:\n      mload(0x40)\n      dup1\n      swap2\n      sub\n      swap1\n      revert\n    tag_193:\n        /* \"@openzeppelin/contracts/token/ERC20/ERC20.sol\":10814:10820  amount */\n      dup1\n        /* \"@openzeppelin/contracts/token/ERC20/ERC20.sol\":10784:10795  _allowances */\n      0x01\n        /* \"@openzeppelin/contracts/token/ERC20/ERC20.sol\":10784:10802  _allowances[owner] */\n      0x00\n        /* \"@openzeppelin/contracts/token/ERC20/ERC20.sol\":10796:10801  owner */\n      dup6\n        /* \"@openzeppelin/contracts/token/ERC20/ERC20.sol\":10784:10802  _allowances[owner] */\n      0xffffffffffffffffffffffffffffffffffffffff\n      and\n      0xffffffffffffffffffffffffffffffffffffffff\n      and\n      dup2\n      mstore\n      0x20\n      add\n      swap1\n      dup2\n      mstore\n      0x20\n      add\n      0x00\n      keccak256\n        /* \"@openzeppelin/contracts/token/ERC20/ERC20.sol\":10784:10811  _allowances[owner][spender] */\n      0x00\n        /* \"@openzeppelin/contracts/token/ERC20/ERC20.sol\":10803:10810  spender */\n      dup5\n        /* \"@openzeppelin/contracts/token/ERC20/ERC20.sol\":10784:10811  _allowances[owner][spender] */\n      0xffffffffffffffffffffffffffffffffffffffff\n      and\n      0xffffffffffffffffffffffffffffffffffffffff\n      and\n      dup2\n      mstore\n      0x20\n      add\n      swap1\n      dup2\n      mstore\n      0x20\n      add\n      0x00\n      keccak256\n        /* \"@openzeppelin/contracts/token/ERC20/ERC20.sol\":10784:10820  _allowances[owner][spender] = amount */\n      dup2\n      swap1\n      sstore\n      pop\n        /* \"@openzeppelin/contracts/token/ERC20/ERC20.sol\":10851:10858  spender */\n      dup2\n        /* \"@openzeppelin/contracts/token/ERC20/ERC20.sol\":10835:10867  Approval(owner, spender, amount) */\n      0xffffffffffffffffffffffffffffffffffffffff\n      and\n        /* \"@openzeppelin/contracts/token/ERC20/ERC20.sol\":10844:10849  owner */\n      dup4\n        /* \"@openzeppelin/contracts/token/ERC20/ERC20.sol\":10835:10867  Approval(owner, spender, amount) */\n      0xffffffffffffffffffffffffffffffffffffffff\n      and\n      0x8c5be1e5ebec7d5bd14f71427d1e84f3dd0314c0f7b2291e5b200ac8c7c3b925\n        /* \"@openzeppelin/contracts/token/ERC20/ERC20.sol\":10860:10866  amount */\n      dup4\n        /* \"@openzeppelin/contracts/token/ERC20/ERC20.sol\":10835:10867  Approval(owner, spender, amount) */\n      mload(0x40)\n      tag_196\n      swap2\n      swap1\n      tag_32\n      jump\t// in\n    tag_196:\n      mload(0x40)\n      dup1\n      swap2\n      sub\n      swap1\n      log3\n        /* \"@openzeppelin/contracts/token/ERC20/ERC20.sol\":10504:10874  function _approve(... */\n      pop\n      pop\n      pop\n      jump\t// out\n        /* \"@openzeppelin/contracts/token/ERC20/ERC20.sol\":11155:11596  function _spendAllowance(... */\n    tag_116:\n        /* \"@openzeppelin/contracts/token/ERC20/ERC20.sol\":11285:11309  uint256 currentAllowance */\n      0x00\n        /* \"@openzeppelin/contracts/token/ERC20/ERC20.sol\":11312:11337  allowance(owner, spender) */\n      tag_198\n        /* \"@openzeppelin/contracts/token/ERC20/ERC20.sol\":11322:11327  owner */\n      dup5\n        /* \"@openzeppelin/contracts/token/ERC20/ERC20.sol\":11329:11336  spender */\n      dup5\n        /* \"@openzeppelin/contracts/token/ERC20/ERC20.sol\":11312:11321  allowance */\n      tag_96\n        /* \"@openzeppelin/contracts/token/ERC20/ERC20.sol\":11312:11337  allowance(owner, spender) */\n      jump\t// in\n    tag_198:\n        /* \"@openzeppelin/contracts/token/ERC20/ERC20.sol\":11285:11337  uint256 currentAllowance = allowance(owner, spender) */\n      swap1\n      pop\n        /* \"@openzeppelin/contracts/token/ERC20/ERC20.sol\":11371:11388  type(uint256).max */\n      0xffffffffffffffffffffffffffffffffffffffffffffffffffffffffffffffff\n        /* \"@openzeppelin/contracts/token/ERC20/ERC20.sol\":11351:11367  currentAllowance */\n      dup2\n        /* \"@openzeppelin/contracts/token/ERC20/ERC20.sol\":11351:11388  currentAllowance != type(uint256).max */\n      eq\n        /* \"@openzeppelin/contracts/token/ERC20/ERC20.sol\":11347:11590  if (currentAllowance != type(uint256).max) {... */\n      tag_199\n      jumpi\n        /* \"@openzeppelin/contracts/token/ERC20/ERC20.sol\":11432:11438  amount */\n      dup2\n        /* \"@openzeppelin/contracts/token/ERC20/ERC20.sol\":11412:11428  currentAllowance */\n      dup2\n        /* \"@openzeppelin/contracts/token/ERC20/ERC20.sol\":11412:11438  currentAllowance >= amount */\n      lt\n      iszero\n        /* \"@openzeppelin/contracts/token/ERC20/ERC20.sol\":11404:11472  require(currentAllowance >= amount, \"ERC20: insufficient allowance\") */\n      tag_200\n      jumpi\n      mload(0x40)\n      0x08c379a000000000000000000000000000000000000000000000000000000000\n      dup2\n      mstore\n      0x04\n      add\n      tag_201\n      swap1\n      tag_202\n      jump\t// in\n    tag_201:\n      mload(0x40)\n      dup1\n      swap2\n      sub\n      swap1\n      revert\n    tag_200:\n        /* \"@openzeppelin/contracts/token/ERC20/ERC20.sol\":11514:11565  _approve(owner, spender, currentAllowance - amount) */\n      tag_203\n        /* \"@openzeppelin/contracts/token/ERC20/ERC20.sol\":11523:11528  owner */\n      dup5\n        /* \"@openzeppelin/contracts/token/ERC20/ERC20.sol\":11530:11537  spender */\n      dup5\n        /* \"@openzeppelin/contracts/token/ERC20/ERC20.sol\":11558:11564  amount */\n      dup5\n        /* \"@openzeppelin/contracts/token/ERC20/ERC20.sol\":11539:11555  currentAllowance */\n      dup5\n        /* \"@openzeppelin/contracts/token/ERC20/ERC20.sol\":11539:11564  currentAllowance - amount */\n      sub\n        /* \"@openzeppelin/contracts/token/ERC20/ERC20.sol\":11514:11522  _approve */\n      tag_111\n        /* \"@openzeppelin/contracts/token/ERC20/ERC20.sol\":11514:11565  _approve(owner, spender, currentAllowance - amount) */\n      jump\t// in\n    tag_203:\n        /* \"@openzeppelin/contracts/token/ERC20/ERC20.sol\":11347:11590  if (currentAllowance != type(uint256).max) {... */\n    tag_199:\n        /* \"@openzeppelin/contracts/token/ERC20/ERC20.sol\":11275:11596  {... */\n      pop\n        /* \"@openzeppelin/contracts/token/ERC20/ERC20.sol\":11155:11596  function _spendAllowance(... */\n      pop\n      pop\n      pop\n      jump\t// out\n        /* \"@openzeppelin/contracts/token/ERC20/ERC20.sol\":7473:8291  function _transfer(... */\n    tag_118:\n        /* \"@openzeppelin/contracts/token/ERC20/ERC20.sol\":7615:7616  0 */\n      0x00\n        /* \"@openzeppelin/contracts/token/ERC20/ERC20.sol\":7599:7617  from != address(0) */\n      0xffffffffffffffffffffffffffffffffffffffff\n      and\n        /* \"@openzeppelin/contracts/token/ERC20/ERC20.sol\":7599:7603  from */\n      dup4\n        /* \"@openzeppelin/contracts/token/ERC20/ERC20.sol\":7599:7617  from != address(0) */\n      0xffffffffffffffffffffffffffffffffffffffff\n      and\n      sub\n        /* \"@openzeppelin/contracts/token/ERC20/ERC20.sol\":7591:7659  require(from != address(0), \"ERC20: transfer from the zero address\") */\n      tag_205\n      jumpi\n      mload(0x40)\n      0x08c379a000000000000000000000000000000000000000000000000000000000\n      dup2\n      mstore\n      0x04\n      add\n      tag_206\n      swap1\n      tag_207\n      jump\t// in\n    tag_206:\n      mload(0x40)\n      dup1\n      swap2\n      sub\n      swap1\n      revert\n    tag_205:\n        /* \"@openzeppelin/contracts/token/ERC20/ERC20.sol\":7691:7692  0 */\n      0x00\n        /* \"@openzeppelin/contracts/token/ERC20/ERC20.sol\":7677:7693  to != address(0) */\n      0xffffffffffffffffffffffffffffffffffffffff\n      and\n        /* \"@openzeppelin/contracts/token/ERC20/ERC20.sol\":7677:7679  to */\n      dup3\n        /* \"@openzeppelin/contracts/token/ERC20/ERC20.sol\":7677:7693  to != address(0) */\n      0xffffffffffffffffffffffffffffffffffffffff\n      and\n      sub\n        /* \"@openzeppelin/contracts/token/ERC20/ERC20.sol\":7669:7733  require(to != address(0), \"ERC20: transfer to the zero address\") */\n      tag_208\n      jumpi\n      mload(0x40)\n      0x08c379a000000000000000000000000000000000000000000000000000000000\n      dup2\n      mstore\n      0x04\n      add\n      tag_209\n      swap1\n      tag_210\n      jump\t// in\n    tag_209:\n      mload(0x40)\n      dup1\n      swap2\n      sub\n      swap1\n      revert\n    tag_208:\n        /* \"@openzeppelin/contracts/token/ERC20/ERC20.sol\":7744:7782  _beforeTokenTransfer(from, to, amount) */\n      tag_211\n        /* \"@openzeppelin/contracts/token/ERC20/ERC20.sol\":7765:7769  from */\n      dup4\n        /* \"@openzeppelin/contracts/token/ERC20/ERC20.sol\":7771:7773  to */\n      dup4\n        /* \"@openzeppelin/contracts/token/ERC20/ERC20.sol\":7775:7781  amount */\n      dup4\n        /* \"@openzeppelin/contracts/token/ERC20/ERC20.sol\":7744:7764  _beforeTokenTransfer */\n      tag_212\n        /* \"@openzeppelin/contracts/token/ERC20/ERC20.sol\":7744:7782  _beforeTokenTransfer(from, to, amount) */\n      jump\t// in\n    tag_211:\n        /* \"@openzeppelin/contracts/token/ERC20/ERC20.sol\":7793:7812  uint256 fromBalance */\n      0x00\n        /* \"@openzeppelin/contracts/token/ERC20/ERC20.sol\":7815:7824  _balances */\n      dup1\n        /* \"@openzeppelin/contracts/token/ERC20/ERC20.sol\":7815:7830  _balances[from] */\n      0x00\n        /* \"@openzeppelin/contracts/token/ERC20/ERC20.sol\":7825:7829  from */\n      dup6\n        /* \"@openzeppelin/contracts/token/ERC20/ERC20.sol\":7815:7830  _balances[from] */\n      0xffffffffffffffffffffffffffffffffffffffff\n      and\n      0xffffffffffffffffffffffffffffffffffffffff\n      and\n      dup2\n      mstore\n      0x20\n      add\n      swap1\n      dup2\n      mstore\n      0x20\n      add\n      0x00\n      keccak256\n      sload\n        /* \"@openzeppelin/contracts/token/ERC20/ERC20.sol\":7793:7830  uint256 fromBalance = _balances[from] */\n      swap1\n      pop\n        /* \"@openzeppelin/contracts/token/ERC20/ERC20.sol\":7863:7869  amount */\n      dup2\n        /* \"@openzeppelin/contracts/token/ERC20/ERC20.sol\":7848:7859  fromBalance */\n      dup2\n        /* \"@openzeppelin/contracts/token/ERC20/ERC20.sol\":7848:7869  fromBalance >= amount */\n      lt\n      iszero\n        /* \"@openzeppelin/contracts/token/ERC20/ERC20.sol\":7840:7912  require(fromBalance >= amount, \"ERC20: transfer amount exceeds balance\") */\n      tag_213\n      jumpi\n      mload(0x40)\n      0x08c379a000000000000000000000000000000000000000000000000000000000\n      dup2\n      mstore\n      0x04\n      add\n      tag_214\n      swap1\n      tag_215\n      jump\t// in\n    tag_214:\n      mload(0x40)\n      dup1\n      swap2\n      sub\n      swap1\n      revert\n    tag_213:\n        /* \"@openzeppelin/contracts/token/ERC20/ERC20.sol\":7978:7984  amount */\n      dup2\n        /* \"@openzeppelin/contracts/token/ERC20/ERC20.sol\":7964:7975  fromBalance */\n      dup2\n        /* \"@openzeppelin/contracts/token/ERC20/ERC20.sol\":7964:7984  fromBalance - amount */\n      sub\n        /* \"@openzeppelin/contracts/token/ERC20/ERC20.sol\":7946:7955  _balances */\n      0x00\n        /* \"@openzeppelin/contracts/token/ERC20/ERC20.sol\":7946:7961  _balances[from] */\n      dup1\n        /* \"@openzeppelin/contracts/token/ERC20/ERC20.sol\":7956:7960  from */\n      dup7\n        /* \"@openzeppelin/contracts/token/ERC20/ERC20.sol\":7946:7961  _balances[from] */\n      0xffffffffffffffffffffffffffffffffffffffff\n      and\n      0xffffffffffffffffffffffffffffffffffffffff\n      and\n      dup2\n      mstore\n      0x20\n      add\n      swap1\n      dup2\n      mstore\n      0x20\n      add\n      0x00\n      keccak256\n        /* \"@openzeppelin/contracts/token/ERC20/ERC20.sol\":7946:7984  _balances[from] = fromBalance - amount */\n      dup2\n      swap1\n      sstore\n      pop\n        /* \"@openzeppelin/contracts/token/ERC20/ERC20.sol\":8178:8184  amount */\n      dup2\n        /* \"@openzeppelin/contracts/token/ERC20/ERC20.sol\":8161:8170  _balances */\n      0x00\n        /* \"@openzeppelin/contracts/token/ERC20/ERC20.sol\":8161:8174  _balances[to] */\n      dup1\n        /* \"@openzeppelin/contracts/token/ERC20/ERC20.sol\":8171:8173  to */\n      dup6\n        /* \"@openzeppelin/contracts/token/ERC20/ERC20.sol\":8161:8174  _balances[to] */\n      0xffffffffffffffffffffffffffffffffffffffff\n      and\n      0xffffffffffffffffffffffffffffffffffffffff\n      and\n      dup2\n      mstore\n      0x20\n      add\n      swap1\n      dup2\n      mstore\n      0x20\n      add\n      0x00\n      keccak256\n      0x00\n        /* \"@openzeppelin/contracts/token/ERC20/ERC20.sol\":8161:8184  _balances[to] += amount */\n      dup3\n      dup3\n      sload\n      add\n      swap3\n      pop\n      pop\n      dup2\n      swap1\n      sstore\n      pop\n        /* \"@openzeppelin/contracts/token/ERC20/ERC20.sol\":8225:8227  to */\n      dup3\n        /* \"@openzeppelin/contracts/token/ERC20/ERC20.sol\":8210:8236  Transfer(from, to, amount) */\n      0xffffffffffffffffffffffffffffffffffffffff\n      and\n        /* \"@openzeppelin/contracts/token/ERC20/ERC20.sol\":8219:8223  from */\n      dup5\n        /* \"@openzeppelin/contracts/token/ERC20/ERC20.sol\":8210:8236  Transfer(from, to, amount) */\n      0xffffffffffffffffffffffffffffffffffffffff\n      and\n      0xddf252ad1be2c89b69c2b068fc378daa952ba7f163c4a11628f55a4df523b3ef\n        /* \"@openzeppelin/contracts/token/ERC20/ERC20.sol\":8229:8235  amount */\n      dup5\n        /* \"@openzeppelin/contracts/token/ERC20/ERC20.sol\":8210:8236  Transfer(from, to, amount) */\n      mload(0x40)\n      tag_216\n      swap2\n      swap1\n      tag_32\n      jump\t// in\n    tag_216:\n      mload(0x40)\n      dup1\n      swap2\n      sub\n      swap1\n      log3\n        /* \"@openzeppelin/contracts/token/ERC20/ERC20.sol\":8247:8284  _afterTokenTransfer(from, to, amount) */\n      tag_217\n        /* \"@openzeppelin/contracts/token/ERC20/ERC20.sol\":8267:8271  from */\n      dup5\n        /* \"@openzeppelin/contracts/token/ERC20/ERC20.sol\":8273:8275  to */\n      dup5\n        /* \"@openzeppelin/contracts/token/ERC20/ERC20.sol\":8277:8283  amount */\n      dup5\n        /* \"@openzeppelin/contracts/token/ERC20/ERC20.sol\":8247:8266  _afterTokenTransfer */\n      tag_218\n        /* \"@openzeppelin/contracts/token/ERC20/ERC20.sol\":8247:8284  _afterTokenTransfer(from, to, amount) */\n      jump\t// in\n    tag_217:\n        /* \"@openzeppelin/contracts/token/ERC20/ERC20.sol\":7581:8291  {... */\n      pop\n        /* \"@openzeppelin/contracts/token/ERC20/ERC20.sol\":7473:8291  function _transfer(... */\n      pop\n      pop\n      pop\n      jump\t// out\n        /* \"@openzeppelin/contracts/security/Pausable.sol\":1767:1873  function _requireNotPaused() internal view virtual {... */\n    tag_132:\n        /* \"@openzeppelin/contracts/security/Pausable.sol\":1837:1845  paused() */\n      tag_220\n        /* \"@openzeppelin/contracts/security/Pausable.sol\":1837:1843  paused */\n      tag_60\n        /* \"@openzeppelin/contracts/security/Pausable.sol\":1837:1845  paused() */\n      jump\t// in\n    tag_220:\n        /* \"@openzeppelin/contracts/security/Pausable.sol\":1836:1845  !paused() */\n      iszero\n        /* \"@openzeppelin/contracts/security/Pausable.sol\":1828:1866  require(!paused(), \"Pausable: paused\") */\n      tag_221\n      jumpi\n      mload(0x40)\n      0x08c379a000000000000000000000000000000000000000000000000000000000\n      dup2\n      mstore\n      0x04\n      add\n      tag_222\n      swap1\n      tag_223\n      jump\t// in\n    tag_222:\n      mload(0x40)\n      dup1\n      swap2\n      sub\n      swap1\n      revert\n    tag_221:\n        /* \"@openzeppelin/contracts/security/Pausable.sol\":1767:1873  function _requireNotPaused() internal view virtual {... */\n      jump\t// out\n        /* \"@openzeppelin/contracts/token/ERC20/ERC20.sol\":9422:10081  function _burn(address account, uint256 amount) internal virtual {... */\n    tag_138:\n        /* \"@openzeppelin/contracts/token/ERC20/ERC20.sol\":9524:9525  0 */\n      0x00\n        /* \"@openzeppelin/contracts/token/ERC20/ERC20.sol\":9505:9526  account != address(0) */\n      0xffffffffffffffffffffffffffffffffffffffff\n      and\n        /* \"@openzeppelin/contracts/token/ERC20/ERC20.sol\":9505:9512  account */\n      dup3\n        /* \"@openzeppelin/contracts/token/ERC20/ERC20.sol\":9505:9526  account != address(0) */\n      0xffffffffffffffffffffffffffffffffffffffff\n      and\n      sub\n        /* \"@openzeppelin/contracts/token/ERC20/ERC20.sol\":9497:9564  require(account != address(0), \"ERC20: burn from the zero address\") */\n      tag_225\n      jumpi\n      mload(0x40)\n      0x08c379a000000000000000000000000000000000000000000000000000000000\n      dup2\n      mstore\n      0x04\n      add\n      tag_226\n      swap1\n      tag_227\n      jump\t// in\n    tag_226:\n      mload(0x40)\n      dup1\n      swap2\n      sub\n      swap1\n      revert\n    tag_225:\n        /* \"@openzeppelin/contracts/token/ERC20/ERC20.sol\":9575:9624  _beforeTokenTransfer(account, address(0), amount) */\n      tag_228\n        /* \"@openzeppelin/contracts/token/ERC20/ERC20.sol\":9596:9603  account */\n      dup3\n        /* \"@openzeppelin/contracts/token/ERC20/ERC20.sol\":9613:9614  0 */\n      0x00\n        /* \"@openzeppelin/contracts/token/ERC20/ERC20.sol\":9617:9623  amount */\n      dup4\n        /* \"@openzeppelin/contracts/token/ERC20/ERC20.sol\":9575:9595  _beforeTokenTransfer */\n      tag_212\n        /* \"@openzeppelin/contracts/token/ERC20/ERC20.sol\":9575:9624  _beforeTokenTransfer(account, address(0), amount) */\n      jump\t// in\n    tag_228:\n        /* \"@openzeppelin/contracts/token/ERC20/ERC20.sol\":9635:9657  uint256 accountBalance */\n      0x00\n        /* \"@openzeppelin/contracts/token/ERC20/ERC20.sol\":9660:9669  _balances */\n      dup1\n        /* \"@openzeppelin/contracts/token/ERC20/ERC20.sol\":9660:9678  _balances[account] */\n      0x00\n        /* \"@openzeppelin/contracts/token/ERC20/ERC20.sol\":9670:9677  account */\n      dup5\n        /* \"@openzeppelin/contracts/token/ERC20/ERC20.sol\":9660:9678  _balances[account] */\n      0xffffffffffffffffffffffffffffffffffffffff\n      and\n      0xffffffffffffffffffffffffffffffffffffffff\n      and\n      dup2\n      mstore\n      0x20\n      add\n      swap1\n      dup2\n      mstore\n      0x20\n      add\n      0x00\n      keccak256\n      sload\n        /* \"@openzeppelin/contracts/token/ERC20/ERC20.sol\":9635:9678  uint256 accountBalance = _balances[account] */\n      swap1\n      pop\n        /* \"@openzeppelin/contracts/token/ERC20/ERC20.sol\":9714:9720  amount */\n      dup2\n        /* \"@openzeppelin/contracts/token/ERC20/ERC20.sol\":9696:9710  accountBalance */\n      dup2\n        /* \"@openzeppelin/contracts/token/ERC20/ERC20.sol\":9696:9720  accountBalance >= amount */\n      lt\n      iszero\n        /* \"@openzeppelin/contracts/token/ERC20/ERC20.sol\":9688:9759  require(accountBalance >= amount, \"ERC20: burn amount exceeds balance\") */\n      tag_229\n      jumpi\n      mload(0x40)\n      0x08c379a000000000000000000000000000000000000000000000000000000000\n      dup2\n      mstore\n      0x04\n      add\n      tag_230\n      swap1\n      tag_231\n      jump\t// in\n    tag_230:\n      mload(0x40)\n      dup1\n      swap2\n      sub\n      swap1\n      revert\n    tag_229:\n        /* \"@openzeppelin/contracts/token/ERC20/ERC20.sol\":9831:9837  amount */\n      dup2\n        /* \"@openzeppelin/contracts/token/ERC20/ERC20.sol\":9814:9828  accountBalance */\n      dup2\n        /* \"@openzeppelin/contracts/token/ERC20/ERC20.sol\":9814:9837  accountBalance - amount */\n      sub\n        /* \"@openzeppelin/contracts/token/ERC20/ERC20.sol\":9793:9802  _balances */\n      0x00\n        /* \"@openzeppelin/contracts/token/ERC20/ERC20.sol\":9793:9811  _balances[account] */\n      dup1\n        /* \"@openzeppelin/contracts/token/ERC20/ERC20.sol\":9803:9810  account */\n      dup6\n        /* \"@openzeppelin/contracts/token/ERC20/ERC20.sol\":9793:9811  _balances[account] */\n      0xffffffffffffffffffffffffffffffffffffffff\n      and\n      0xffffffffffffffffffffffffffffffffffffffff\n      and\n      dup2\n      mstore\n      0x20\n      add\n      swap1\n      dup2\n      mstore\n      0x20\n      add\n      0x00\n      keccak256\n        /* \"@openzeppelin/contracts/token/ERC20/ERC20.sol\":9793:9837  _balances[account] = accountBalance - amount */\n      dup2\n      swap1\n      sstore\n      pop\n        /* \"@openzeppelin/contracts/token/ERC20/ERC20.sol\":9946:9952  amount */\n      dup2\n        /* \"@openzeppelin/contracts/token/ERC20/ERC20.sol\":9930:9942  _totalSupply */\n      0x02\n      0x00\n        /* \"@openzeppelin/contracts/token/ERC20/ERC20.sol\":9930:9952  _totalSupply -= amount */\n      dup3\n      dup3\n      sload\n      sub\n      swap3\n      pop\n      pop\n      dup2\n      swap1\n      sstore\n      pop\n        /* \"@openzeppelin/contracts/token/ERC20/ERC20.sol\":10004:10005  0 */\n      0x00\n        /* \"@openzeppelin/contracts/token/ERC20/ERC20.sol\":9978:10015  Transfer(account, address(0), amount) */\n      0xffffffffffffffffffffffffffffffffffffffff\n      and\n        /* \"@openzeppelin/contracts/token/ERC20/ERC20.sol\":9987:9994  account */\n      dup4\n        /* \"@openzeppelin/contracts/token/ERC20/ERC20.sol\":9978:10015  Transfer(account, address(0), amount) */\n      0xffffffffffffffffffffffffffffffffffffffff\n      and\n      0xddf252ad1be2c89b69c2b068fc378daa952ba7f163c4a11628f55a4df523b3ef\n        /* \"@openzeppelin/contracts/token/ERC20/ERC20.sol\":10008:10014  amount */\n      dup5\n        /* \"@openzeppelin/contracts/token/ERC20/ERC20.sol\":9978:10015  Transfer(account, address(0), amount) */\n      mload(0x40)\n      tag_232\n      swap2\n      swap1\n      tag_32\n      jump\t// in\n    tag_232:\n      mload(0x40)\n      dup1\n      swap2\n      sub\n      swap1\n      log3\n        /* \"@openzeppelin/contracts/token/ERC20/ERC20.sol\":10026:10074  _afterTokenTransfer(account, address(0), amount) */\n      tag_233\n        /* \"@openzeppelin/contracts/token/ERC20/ERC20.sol\":10046:10053  account */\n      dup4\n        /* \"@openzeppelin/contracts/token/ERC20/ERC20.sol\":10063:10064  0 */\n      0x00\n        /* \"@openzeppelin/contracts/token/ERC20/ERC20.sol\":10067:10073  amount */\n      dup5\n        /* \"@openzeppelin/contracts/token/ERC20/ERC20.sol\":10026:10045  _afterTokenTransfer */\n      tag_218\n        /* \"@openzeppelin/contracts/token/ERC20/ERC20.sol\":10026:10074  _afterTokenTransfer(account, address(0), amount) */\n      jump\t// in\n    tag_233:\n        /* \"@openzeppelin/contracts/token/ERC20/ERC20.sol\":9487:10081  {... */\n      pop\n        /* \"@openzeppelin/contracts/token/ERC20/ERC20.sol\":9422:10081  function _burn(address account, uint256 amount) internal virtual {... */\n      pop\n      pop\n      jump\t// out\n        /* \"@openzeppelin/contracts/token/ERC20/ERC20.sol\":8567:9102  function _mint(address account, uint256 amount) internal virtual {... */\n    tag_149:\n        /* \"@openzeppelin/contracts/token/ERC20/ERC20.sol\":8669:8670  0 */\n      0x00\n        /* \"@openzeppelin/contracts/token/ERC20/ERC20.sol\":8650:8671  account != address(0) */\n      0xffffffffffffffffffffffffffffffffffffffff\n      and\n        /* \"@openzeppelin/contracts/token/ERC20/ERC20.sol\":8650:8657  account */\n      dup3\n        /* \"@openzeppelin/contracts/token/ERC20/ERC20.sol\":8650:8671  account != address(0) */\n      0xffffffffffffffffffffffffffffffffffffffff\n      and\n      sub\n        /* \"@openzeppelin/contracts/token/ERC20/ERC20.sol\":8642:8707  require(account != address(0), \"ERC20: mint to the zero address\") */\n      tag_235\n      jumpi\n      mload(0x40)\n      0x08c379a000000000000000000000000000000000000000000000000000000000\n      dup2\n      mstore\n      0x04\n      add\n      tag_236\n      swap1\n      tag_237\n      jump\t// in\n    tag_236:\n      mload(0x40)\n      dup1\n      swap2\n      sub\n      swap1\n      revert\n    tag_235:\n        /* \"@openzeppelin/contracts/token/ERC20/ERC20.sol\":8718:8767  _beforeTokenTransfer(address(0), account, amount) */\n      tag_238\n        /* \"@openzeppelin/contracts/token/ERC20/ERC20.sol\":8747:8748  0 */\n      0x00\n        /* \"@openzeppelin/contracts/token/ERC20/ERC20.sol\":8751:8758  account */\n      dup4\n        /* \"@openzeppelin/contracts/token/ERC20/ERC20.sol\":8760:8766  amount */\n      dup4\n        /* \"@openzeppelin/contracts/token/ERC20/ERC20.sol\":8718:8738  _beforeTokenTransfer */\n      tag_212\n        /* \"@openzeppelin/contracts/token/ERC20/ERC20.sol\":8718:8767  _beforeTokenTransfer(address(0), account, amount) */\n      jump\t// in\n    tag_238:\n        /* \"@openzeppelin/contracts/token/ERC20/ERC20.sol\":8794:8800  amount */\n      dup1\n        /* \"@openzeppelin/contracts/token/ERC20/ERC20.sol\":8778:8790  _totalSupply */\n      0x02\n      0x00\n        /* \"@openzeppelin/contracts/token/ERC20/ERC20.sol\":8778:8800  _totalSupply += amount */\n      dup3\n      dup3\n      sload\n      tag_239\n      swap2\n      swap1\n      tag_125\n      jump\t// in\n    tag_239:\n      swap3\n      pop\n      pop\n      dup2\n      swap1\n      sstore\n      pop\n        /* \"@openzeppelin/contracts/token/ERC20/ERC20.sol\":8968:8974  amount */\n      dup1\n        /* \"@openzeppelin/contracts/token/ERC20/ERC20.sol\":8946:8955  _balances */\n      0x00\n        /* \"@openzeppelin/contracts/token/ERC20/ERC20.sol\":8946:8964  _balances[account] */\n      dup1\n        /* \"@openzeppelin/contracts/token/ERC20/ERC20.sol\":8956:8963  account */\n      dup5\n        /* \"@openzeppelin/contracts/token/ERC20/ERC20.sol\":8946:8964  _balances[account] */\n      0xffffffffffffffffffffffffffffffffffffffff\n      and\n      0xffffffffffffffffffffffffffffffffffffffff\n      and\n      dup2\n      mstore\n      0x20\n      add\n      swap1\n      dup2\n      mstore\n      0x20\n      add\n      0x00\n      keccak256\n      0x00\n        /* \"@openzeppelin/contracts/token/ERC20/ERC20.sol\":8946:8974  _balances[account] += amount */\n      dup3\n      dup3\n      sload\n      add\n      swap3\n      pop\n      pop\n      dup2\n      swap1\n      sstore\n      pop\n        /* \"@openzeppelin/contracts/token/ERC20/ERC20.sol\":9020:9027  account */\n      dup2\n        /* \"@openzeppelin/contracts/token/ERC20/ERC20.sol\":8999:9036  Transfer(address(0), account, amount) */\n      0xffffffffffffffffffffffffffffffffffffffff\n      and\n        /* \"@openzeppelin/contracts/token/ERC20/ERC20.sol\":9016:9017  0 */\n      0x00\n        /* \"@openzeppelin/contracts/token/ERC20/ERC20.sol\":8999:9036  Transfer(address(0), account, amount) */\n      0xffffffffffffffffffffffffffffffffffffffff\n      and\n      0xddf252ad1be2c89b69c2b068fc378daa952ba7f163c4a11628f55a4df523b3ef\n        /* \"@openzeppelin/contracts/token/ERC20/ERC20.sol\":9029:9035  amount */\n      dup4\n        /* \"@openzeppelin/contracts/token/ERC20/ERC20.sol\":8999:9036  Transfer(address(0), account, amount) */\n      mload(0x40)\n      tag_240\n      swap2\n      swap1\n      tag_32\n      jump\t// in\n    tag_240:\n      mload(0x40)\n      dup1\n      swap2\n      sub\n      swap1\n      log3\n        /* \"@openzeppelin/contracts/token/ERC20/ERC20.sol\":9047:9095  _afterTokenTransfer(address(0), account, amount) */\n      tag_241\n        /* \"@openzeppelin/contracts/token/ERC20/ERC20.sol\":9075:9076  0 */\n      0x00\n        /* \"@openzeppelin/contracts/token/ERC20/ERC20.sol\":9079:9086  account */\n      dup4\n        /* \"@openzeppelin/contracts/token/ERC20/ERC20.sol\":9088:9094  amount */\n      dup4\n        /* \"@openzeppelin/contracts/token/ERC20/ERC20.sol\":9047:9066  _afterTokenTransfer */\n      tag_218\n        /* \"@openzeppelin/contracts/token/ERC20/ERC20.sol\":9047:9095  _afterTokenTransfer(address(0), account, amount) */\n      jump\t// in\n    tag_241:\n        /* \"@openzeppelin/contracts/token/ERC20/ERC20.sol\":8567:9102  function _mint(address account, uint256 amount) internal virtual {... */\n      pop\n      pop\n      jump\t// out\n        /* \"@openzeppelin/contracts/security/Pausable.sol\":2186:2301  function _pause() internal virtual whenNotPaused {... */\n    tag_158:\n        /* \"@openzeppelin/contracts/security/Pausable.sol\":1239:1258  _requireNotPaused() */\n      tag_243\n        /* \"@openzeppelin/contracts/security/Pausable.sol\":1239:1256  _requireNotPaused */\n      tag_132\n        /* \"@openzeppelin/contracts/security/Pausable.sol\":1239:1258  _requireNotPaused() */\n      jump\t// in\n    tag_243:\n        /* \"@openzeppelin/contracts/security/Pausable.sol\":2255:2259  true */\n      0x01\n        /* \"@openzeppelin/contracts/security/Pausable.sol\":2245:2252  _paused */\n      0x05\n      0x00\n        /* \"@openzeppelin/contracts/security/Pausable.sol\":2245:2259  _paused = true */\n      0x0100\n      exp\n      dup2\n      sload\n      dup2\n      0xff\n      mul\n      not\n      and\n      swap1\n      dup4\n      iszero\n      iszero\n      mul\n      or\n      swap1\n      sstore\n      pop\n        /* \"@openzeppelin/contracts/security/Pausable.sol\":2274:2294  Paused(_msgSender()) */\n      0x62e78cea01bee320cd4e420270b5ea74000d11b0c9f74754ebdbfc544b05a258\n        /* \"@openzeppelin/contracts/security/Pausable.sol\":2281:2293  _msgSender() */\n      tag_245\n        /* \"@openzeppelin/contracts/security/Pausable.sol\":2281:2291  _msgSender */\n      tag_109\n        /* \"@openzeppelin/contracts/security/Pausable.sol\":2281:2293  _msgSender() */\n      jump\t// in\n    tag_245:\n        /* \"@openzeppelin/contracts/security/Pausable.sol\":2274:2294  Paused(_msgSender()) */\n      mload(0x40)\n      tag_246\n      swap2\n      swap1\n      tag_247\n      jump\t// in\n    tag_246:\n      mload(0x40)\n      dup1\n      swap2\n      sub\n      swap1\n      log1\n        /* \"@openzeppelin/contracts/security/Pausable.sol\":2186:2301  function _pause() internal virtual whenNotPaused {... */\n      jump\t// out\n        /* \"@openzeppelin/contracts/security/Pausable.sol\":2433:2550  function _unpause() internal virtual whenPaused {... */\n    tag_172:\n        /* \"@openzeppelin/contracts/security/Pausable.sol\":1486:1502  _requirePaused() */\n      tag_249\n        /* \"@openzeppelin/contracts/security/Pausable.sol\":1486:1500  _requirePaused */\n      tag_250\n        /* \"@openzeppelin/contracts/security/Pausable.sol\":1486:1502  _requirePaused() */\n      jump\t// in\n    tag_249:\n        /* \"@openzeppelin/contracts/security/Pausable.sol\":2501:2506  false */\n      0x00\n        /* \"@openzeppelin/contracts/security/Pausable.sol\":2491:2498  _paused */\n      0x05\n      0x00\n        /* \"@openzeppelin/contracts/security/Pausable.sol\":2491:2506  _paused = false */\n      0x0100\n      exp\n      dup2\n      sload\n      dup2\n      0xff\n      mul\n      not\n      and\n      swap1\n      dup4\n      iszero\n      iszero\n      mul\n      or\n      swap1\n      sstore\n      pop\n        /* \"@openzeppelin/contracts/security/Pausable.sol\":2521:2543  Unpaused(_msgSender()) */\n      0x5db9ee0a495bf2e6ff9c91a7834c1ba4fdd244a5e8aa4e537bd38aeae4b073aa\n        /* \"@openzeppelin/contracts/security/Pausable.sol\":2530:2542  _msgSender() */\n      tag_252\n        /* \"@openzeppelin/contracts/security/Pausable.sol\":2530:2540  _msgSender */\n      tag_109\n        /* \"@openzeppelin/contracts/security/Pausable.sol\":2530:2542  _msgSender() */\n      jump\t// in\n    tag_252:\n        /* \"@openzeppelin/contracts/security/Pausable.sol\":2521:2543  Unpaused(_msgSender()) */\n      mload(0x40)\n      tag_253\n      swap2\n      swap1\n      tag_247\n      jump\t// in\n    tag_253:\n      mload(0x40)\n      dup1\n      swap2\n      sub\n      swap1\n      log1\n        /* \"@openzeppelin/contracts/security/Pausable.sol\":2433:2550  function _unpause() internal virtual whenPaused {... */\n      jump\t// out\n        /* \"@openzeppelin/contracts/token/ERC20/extensions/ERC20Pausable.sol\":665:929  function _beforeTokenTransfer(... */\n    tag_212:\n        /* \"@openzeppelin/contracts/token/ERC20/extensions/ERC20Pausable.sol\":803:847  super._beforeTokenTransfer(from, to, amount) */\n      tag_255\n        /* \"@openzeppelin/contracts/token/ERC20/extensions/ERC20Pausable.sol\":830:834  from */\n      dup4\n        /* \"@openzeppelin/contracts/token/ERC20/extensions/ERC20Pausable.sol\":836:838  to */\n      dup4\n        /* \"@openzeppelin/contracts/token/ERC20/extensions/ERC20Pausable.sol\":840:846  amount */\n      dup4\n        /* \"@openzeppelin/contracts/token/ERC20/extensions/ERC20Pausable.sol\":803:829  super._beforeTokenTransfer */\n      tag_256\n        /* \"@openzeppelin/contracts/token/ERC20/extensions/ERC20Pausable.sol\":803:847  super._beforeTokenTransfer(from, to, amount) */\n      jump\t// in\n    tag_255:\n        /* \"@openzeppelin/contracts/token/ERC20/extensions/ERC20Pausable.sol\":867:875  paused() */\n      tag_257\n        /* \"@openzeppelin/contracts/token/ERC20/extensions/ERC20Pausable.sol\":867:873  paused */\n      tag_60\n        /* \"@openzeppelin/contracts/token/ERC20/extensions/ERC20Pausable.sol\":867:875  paused() */\n      jump\t// in\n    tag_257:\n        /* \"@openzeppelin/contracts/token/ERC20/extensions/ERC20Pausable.sol\":866:875  !paused() */\n      iszero\n        /* \"@openzeppelin/contracts/token/ERC20/extensions/ERC20Pausable.sol\":858:922  require(!paused(), \"ERC20Pausable: token transfer while paused\") */\n      tag_258\n      jumpi\n      mload(0x40)\n      0x08c379a000000000000000000000000000000000000000000000000000000000\n      dup2\n      mstore\n      0x04\n      add\n      tag_259\n      swap1\n      tag_260\n      jump\t// in\n    tag_259:\n      mload(0x40)\n      dup1\n      swap2\n      sub\n      swap1\n      revert\n    tag_258:\n        /* \"@openzeppelin/contracts/token/ERC20/extensions/ERC20Pausable.sol\":665:929  function _beforeTokenTransfer(... */\n      pop\n      pop\n      pop\n      jump\t// out\n        /* \"@openzeppelin/contracts/token/ERC20/ERC20.sol\":12889:13009  function _afterTokenTransfer(... */\n    tag_218:\n      pop\n      pop\n      pop\n      jump\t// out\n        /* \"@openzeppelin/contracts/security/Pausable.sol\":1945:2051  function _requirePaused() internal view virtual {... */\n    tag_250:\n        /* \"@openzeppelin/contracts/security/Pausable.sol\":2011:2019  paused() */\n      tag_263\n        /* \"@openzeppelin/contracts/security/Pausable.sol\":2011:2017  paused */\n      tag_60\n        /* \"@openzeppelin/contracts/security/Pausable.sol\":2011:2019  paused() */\n      jump\t// in\n    tag_263:\n        /* \"@openzeppelin/contracts/security/Pausable.sol\":2003:2044  require(paused(), \"Pausable: not paused\") */\n      tag_264\n      jumpi\n      mload(0x40)\n      0x08c379a000000000000000000000000000000000000000000000000000000000\n      dup2\n      mstore\n      0x04\n      add\n      tag_265\n      swap1\n      tag_266\n      jump\t// in\n    tag_265:\n      mload(0x40)\n      dup1\n      swap2\n      sub\n      swap1\n      revert\n    tag_264:\n        /* \"@openzeppelin/contracts/security/Pausable.sol\":1945:2051  function _requirePaused() internal view virtual {... */\n      jump\t// out\n        /* \"@openzeppelin/contracts/token/ERC20/ERC20.sol\":12180:12301  function _beforeTokenTransfer(... */\n    tag_256:\n      pop\n      pop\n      pop\n      jump\t// out\n        /* \"#utility.yul\":7:106   */\n    tag_268:\n        /* \"#utility.yul\":59:65   */\n      0x00\n        /* \"#utility.yul\":93:98   */\n      dup2\n        /* \"#utility.yul\":87:99   */\n      mload\n        /* \"#utility.yul\":77:99   */\n      swap1\n      pop\n        /* \"#utility.yul\":7:106   */\n      swap2\n      swap1\n      pop\n      jump\t// out\n        /* \"#utility.yul\":112:281   */\n    tag_269:\n        /* \"#utility.yul\":196:207   */\n      0x00\n        /* \"#utility.yul\":230:236   */\n      dup3\n        /* \"#utility.yul\":225:228   */\n      dup3\n        /* \"#utility.yul\":218:237   */\n      mstore\n        /* \"#utility.yul\":270:274   */\n      0x20\n        /* \"#utility.yul\":265:268   */\n      dup3\n        /* \"#utility.yul\":261:275   */\n      add\n        /* \"#utility.yul\":246:275   */\n      swap1\n      pop\n        /* \"#utility.yul\":112:281   */\n      swap3\n      swap2\n      pop\n      pop\n      jump\t// out\n        /* \"#utility.yul\":287:533   */\n    tag_270:\n        /* \"#utility.yul\":368:369   */\n      0x00\n        /* \"#utility.yul\":378:491   */\n    tag_330:\n        /* \"#utility.yul\":392:398   */\n      dup4\n        /* \"#utility.yul\":389:390   */\n      dup2\n        /* \"#utility.yul\":386:399   */\n      lt\n        /* \"#utility.yul\":378:491   */\n      iszero\n      tag_332\n      jumpi\n        /* \"#utility.yul\":477:478   */\n      dup1\n        /* \"#utility.yul\":472:475   */\n      dup3\n        /* \"#utility.yul\":468:479   */\n      add\n        /* \"#utility.yul\":462:480   */\n      mload\n        /* \"#utility.yul\":458:459   */\n      dup2\n        /* \"#utility.yul\":453:456   */\n      dup5\n        /* \"#utility.yul\":449:460   */\n      add\n        /* \"#utility.yul\":442:481   */\n      mstore\n        /* \"#utility.yul\":414:416   */\n      0x20\n        /* \"#utility.yul\":411:412   */\n      dup2\n        /* \"#utility.yul\":407:417   */\n      add\n        /* \"#utility.yul\":402:417   */\n      swap1\n      pop\n        /* \"#utility.yul\":378:491   */\n      jump(tag_330)\n    tag_332:\n        /* \"#utility.yul\":525:526   */\n      0x00\n        /* \"#utility.yul\":516:522   */\n      dup5\n        /* \"#utility.yul\":511:514   */\n      dup5\n        /* \"#utility.yul\":507:523   */\n      add\n        /* \"#utility.yul\":500:527   */\n      mstore\n        /* \"#utility.yul\":349:533   */\n      pop\n        /* \"#utility.yul\":287:533   */\n      pop\n      pop\n      pop\n      jump\t// out\n        /* \"#utility.yul\":539:641   */\n    tag_271:\n        /* \"#utility.yul\":580:586   */\n      0x00\n        /* \"#utility.yul\":631:633   */\n      0x1f\n        /* \"#utility.yul\":627:634   */\n      not\n        /* \"#utility.yul\":622:624   */\n      0x1f\n        /* \"#utility.yul\":615:620   */\n      dup4\n        /* \"#utility.yul\":611:625   */\n      add\n        /* \"#utility.yul\":607:635   */\n      and\n        /* \"#utility.yul\":597:635   */\n      swap1\n      pop\n        /* \"#utility.yul\":539:641   */\n      swap2\n      swap1\n      pop\n      jump\t// out\n        /* \"#utility.yul\":647:1024   */\n    tag_272:\n        /* \"#utility.yul\":735:738   */\n      0x00\n        /* \"#utility.yul\":763:802   */\n      tag_335\n        /* \"#utility.yul\":796:801   */\n      dup3\n        /* \"#utility.yul\":763:802   */\n      tag_268\n      jump\t// in\n    tag_335:\n        /* \"#utility.yul\":818:889   */\n      tag_336\n        /* \"#utility.yul\":882:888   */\n      dup2\n        /* \"#utility.yul\":877:880   */\n      dup6\n        /* \"#utility.yul\":818:889   */\n      tag_269\n      jump\t// in\n    tag_336:\n        /* \"#utility.yul\":811:889   */\n      swap4\n      pop\n        /* \"#utility.yul\":898:963   */\n      tag_337\n        /* \"#utility.yul\":956:962   */\n      dup2\n        /* \"#utility.yul\":951:954   */\n      dup6\n        /* \"#utility.yul\":944:948   */\n      0x20\n        /* \"#utility.yul\":937:942   */\n      dup7\n        /* \"#utility.yul\":933:949   */\n      add\n        /* \"#utility.yul\":898:963   */\n      tag_270\n      jump\t// in\n    tag_337:\n        /* \"#utility.yul\":988:1017   */\n      tag_338\n        /* \"#utility.yul\":1010:1016   */\n      dup2\n        /* \"#utility.yul\":988:1017   */\n      tag_271\n      jump\t// in\n    tag_338:\n        /* \"#utility.yul\":983:986   */\n      dup5\n        /* \"#utility.yul\":979:1018   */\n      add\n        /* \"#utility.yul\":972:1018   */\n      swap2\n      pop\n        /* \"#utility.yul\":739:1024   */\n      pop\n        /* \"#utility.yul\":647:1024   */\n      swap3\n      swap2\n      pop\n      pop\n      jump\t// out\n        /* \"#utility.yul\":1030:1343   */\n    tag_28:\n        /* \"#utility.yul\":1143:1147   */\n      0x00\n        /* \"#utility.yul\":1181:1183   */\n      0x20\n        /* \"#utility.yul\":1170:1179   */\n      dup3\n        /* \"#utility.yul\":1166:1184   */\n      add\n        /* \"#utility.yul\":1158:1184   */\n      swap1\n      pop\n        /* \"#utility.yul\":1230:1239   */\n      dup2\n        /* \"#utility.yul\":1224:1228   */\n      dup2\n        /* \"#utility.yul\":1220:1240   */\n      sub\n        /* \"#utility.yul\":1216:1217   */\n      0x00\n        /* \"#utility.yul\":1205:1214   */\n      dup4\n        /* \"#utility.yul\":1201:1218   */\n      add\n        /* \"#utility.yul\":1194:1241   */\n      mstore\n        /* \"#utility.yul\":1258:1336   */\n      tag_340\n        /* \"#utility.yul\":1331:1335   */\n      dup2\n        /* \"#utility.yul\":1322:1328   */\n      dup5\n        /* \"#utility.yul\":1258:1336   */\n      tag_272\n      jump\t// in\n    tag_340:\n        /* \"#utility.yul\":1250:1336   */\n      swap1\n      pop\n        /* \"#utility.yul\":1030:1343   */\n      swap3\n      swap2\n      pop\n      pop\n      jump\t// out\n        /* \"#utility.yul\":1349:1426   */\n    tag_273:\n        /* \"#utility.yul\":1386:1393   */\n      0x00\n        /* \"#utility.yul\":1415:1420   */\n      dup2\n        /* \"#utility.yul\":1404:1420   */\n      swap1\n      pop\n        /* \"#utility.yul\":1349:1426   */\n      swap2\n      swap1\n      pop\n      jump\t// out\n        /* \"#utility.yul\":1432:1550   */\n    tag_274:\n        /* \"#utility.yul\":1519:1543   */\n      tag_343\n        /* \"#utility.yul\":1537:1542   */\n      dup2\n        /* \"#utility.yul\":1519:1543   */\n      tag_273\n      jump\t// in\n    tag_343:\n        /* \"#utility.yul\":1514:1517   */\n      dup3\n        /* \"#utility.yul\":1507:1544   */\n      mstore\n        /* \"#utility.yul\":1432:1550   */\n      pop\n      pop\n      jump\t// out\n        /* \"#utility.yul\":1556:1778   */\n    tag_32:\n        /* \"#utility.yul\":1649:1653   */\n      0x00\n        /* \"#utility.yul\":1687:1689   */\n      0x20\n        /* \"#utility.yul\":1676:1685   */\n      dup3\n        /* \"#utility.yul\":1672:1690   */\n      add\n        /* \"#utility.yul\":1664:1690   */\n      swap1\n      pop\n        /* \"#utility.yul\":1700:1771   */\n      tag_345\n        /* \"#utility.yul\":1768:1769   */\n      0x00\n        /* \"#utility.yul\":1757:1766   */\n      dup4\n        /* \"#utility.yul\":1753:1770   */\n      add\n        /* \"#utility.yul\":1744:1750   */\n      dup5\n        /* \"#utility.yul\":1700:1771   */\n      tag_274\n      jump\t// in\n    tag_345:\n        /* \"#utility.yul\":1556:1778   */\n      swap3\n      swap2\n      pop\n      pop\n      jump\t// out\n        /* \"#utility.yul\":1865:1982   */\n    tag_276:\n        /* \"#utility.yul\":1974:1975   */\n      0x00\n        /* \"#utility.yul\":1971:1972   */\n      dup1\n        /* \"#utility.yul\":1964:1976   */\n      revert\n        /* \"#utility.yul\":2111:2237   */\n    tag_278:\n        /* \"#utility.yul\":2148:2155   */\n      0x00\n        /* \"#utility.yul\":2188:2230   */\n      0xffffffffffffffffffffffffffffffffffffffff\n        /* \"#utility.yul\":2181:2186   */\n      dup3\n        /* \"#utility.yul\":2177:2231   */\n      and\n        /* \"#utility.yul\":2166:2231   */\n      swap1\n      pop\n        /* \"#utility.yul\":2111:2237   */\n      swap2\n      swap1\n      pop\n      jump\t// out\n        /* \"#utility.yul\":2243:2339   */\n    tag_279:\n        /* \"#utility.yul\":2280:2287   */\n      0x00\n        /* \"#utility.yul\":2309:2333   */\n      tag_351\n        /* \"#utility.yul\":2327:2332   */\n      dup3\n        /* \"#utility.yul\":2309:2333   */\n      tag_278\n      jump\t// in\n    tag_351:\n        /* \"#utility.yul\":2298:2333   */\n      swap1\n      pop\n        /* \"#utility.yul\":2243:2339   */\n      swap2\n      swap1\n      pop\n      jump\t// out\n        /* \"#utility.yul\":2345:2467   */\n    tag_280:\n        /* \"#utility.yul\":2418:2442   */\n      tag_353\n        /* \"#utility.yul\":2436:2441   */\n      dup2\n        /* \"#utility.yul\":2418:2442   */\n      tag_279\n      jump\t// in\n    tag_353:\n        /* \"#utility.yul\":2411:2416   */\n      dup2\n        /* \"#utility.yul\":2408:2443   */\n      eq\n        /* \"#utility.yul\":2398:2461   */\n      tag_354\n      jumpi\n        /* \"#utility.yul\":2457:2458   */\n      0x00\n        /* \"#utility.yul\":2454:2455   */\n      dup1\n        /* \"#utility.yul\":2447:2459   */\n      revert\n        /* \"#utility.yul\":2398:2461   */\n    tag_354:\n        /* \"#utility.yul\":2345:2467   */\n      pop\n      jump\t// out\n        /* \"#utility.yul\":2473:2612   */\n    tag_281:\n        /* \"#utility.yul\":2519:2524   */\n      0x00\n        /* \"#utility.yul\":2557:2563   */\n      dup2\n        /* \"#utility.yul\":2544:2564   */\n      calldataload\n        /* \"#utility.yul\":2535:2564   */\n      swap1\n      pop\n        /* \"#utility.yul\":2573:2606   */\n      tag_356\n        /* \"#utility.yul\":2600:2605   */\n      dup2\n        /* \"#utility.yul\":2573:2606   */\n      tag_280\n      jump\t// in\n    tag_356:\n        /* \"#utility.yul\":2473:2612   */\n      swap3\n      swap2\n      pop\n      pop\n      jump\t// out\n        /* \"#utility.yul\":2618:2740   */\n    tag_282:\n        /* \"#utility.yul\":2691:2715   */\n      tag_358\n        /* \"#utility.yul\":2709:2714   */\n      dup2\n        /* \"#utility.yul\":2691:2715   */\n      tag_273\n      jump\t// in\n    tag_358:\n        /* \"#utility.yul\":2684:2689   */\n      dup2\n        /* \"#utility.yul\":2681:2716   */\n      eq\n        /* \"#utility.yul\":2671:2734   */\n      tag_359\n      jumpi\n        /* \"#utility.yul\":2730:2731   */\n      0x00\n        /* \"#utility.yul\":2727:2728   */\n      dup1\n        /* \"#utility.yul\":2720:2732   */\n      revert\n        /* \"#utility.yul\":2671:2734   */\n    tag_359:\n        /* \"#utility.yul\":2618:2740   */\n      pop\n      jump\t// out\n        /* \"#utility.yul\":2746:2885   */\n    tag_283:\n        /* \"#utility.yul\":2792:2797   */\n      0x00\n        /* \"#utility.yul\":2830:2836   */\n      dup2\n        /* \"#utility.yul\":2817:2837   */\n      calldataload\n        /* \"#utility.yul\":2808:2837   */\n      swap1\n      pop\n        /* \"#utility.yul\":2846:2879   */\n      tag_361\n        /* \"#utility.yul\":2873:2878   */\n      dup2\n        /* \"#utility.yul\":2846:2879   */\n      tag_282\n      jump\t// in\n    tag_361:\n        /* \"#utility.yul\":2746:2885   */\n      swap3\n      swap2\n      pop\n      pop\n      jump\t// out\n        /* \"#utility.yul\":2891:3365   */\n    tag_35:\n        /* \"#utility.yul\":2959:2965   */\n      0x00\n        /* \"#utility.yul\":2967:2973   */\n      dup1\n        /* \"#utility.yul\":3016:3018   */\n      0x40\n        /* \"#utility.yul\":3004:3013   */\n      dup4\n        /* \"#utility.yul\":2995:3002   */\n      dup6\n        /* \"#utility.yul\":2991:3014   */\n      sub\n        /* \"#utility.yul\":2987:3019   */\n      slt\n        /* \"#utility.yul\":2984:3103   */\n      iszero\n      tag_363\n      jumpi\n        /* \"#utility.yul\":3022:3101   */\n      tag_364\n      tag_276\n      jump\t// in\n    tag_364:\n        /* \"#utility.yul\":2984:3103   */\n    tag_363:\n        /* \"#utility.yul\":3142:3143   */\n      0x00\n        /* \"#utility.yul\":3167:3220   */\n      tag_365\n        /* \"#utility.yul\":3212:3219   */\n      dup6\n        /* \"#utility.yul\":3203:3209   */\n      dup3\n        /* \"#utility.yul\":3192:3201   */\n      dup7\n        /* \"#utility.yul\":3188:3210   */\n      add\n        /* \"#utility.yul\":3167:3220   */\n      tag_281\n      jump\t// in\n    tag_365:\n        /* \"#utility.yul\":3157:3220   */\n      swap3\n      pop\n        /* \"#utility.yul\":3113:3230   */\n      pop\n        /* \"#utility.yul\":3269:3271   */\n      0x20\n        /* \"#utility.yul\":3295:3348   */\n      tag_366\n        /* \"#utility.yul\":3340:3347   */\n      dup6\n        /* \"#utility.yul\":3331:3337   */\n      dup3\n        /* \"#utility.yul\":3320:3329   */\n      dup7\n        /* \"#utility.yul\":3316:3338   */\n      add\n        /* \"#utility.yul\":3295:3348   */\n      tag_283\n      jump\t// in\n    tag_366:\n        /* \"#utility.yul\":3285:3348   */\n      swap2\n      pop\n        /* \"#utility.yul\":3240:3358   */\n      pop\n        /* \"#utility.yul\":2891:3365   */\n      swap3\n      pop\n      swap3\n      swap1\n      pop\n      jump\t// out\n        /* \"#utility.yul\":3371:3461   */\n    tag_284:\n        /* \"#utility.yul\":3405:3412   */\n      0x00\n        /* \"#utility.yul\":3448:3453   */\n      dup2\n        /* \"#utility.yul\":3441:3454   */\n      iszero\n        /* \"#utility.yul\":3434:3455   */\n      iszero\n        /* \"#utility.yul\":3423:3455   */\n      swap1\n      pop\n        /* \"#utility.yul\":3371:3461   */\n      swap2\n      swap1\n      pop\n      jump\t// out\n        /* \"#utility.yul\":3467:3576   */\n    tag_285:\n        /* \"#utility.yul\":3548:3569   */\n      tag_369\n        /* \"#utility.yul\":3563:3568   */\n      dup2\n        /* \"#utility.yul\":3548:3569   */\n      tag_284\n      jump\t// in\n    tag_369:\n        /* \"#utility.yul\":3543:3546   */\n      dup3\n        /* \"#utility.yul\":3536:3570   */\n      mstore\n        /* \"#utility.yul\":3467:3576   */\n      pop\n      pop\n      jump\t// out\n        /* \"#utility.yul\":3582:3792   */\n    tag_38:\n        /* \"#utility.yul\":3669:3673   */\n      0x00\n        /* \"#utility.yul\":3707:3709   */\n      0x20\n        /* \"#utility.yul\":3696:3705   */\n      dup3\n        /* \"#utility.yul\":3692:3710   */\n      add\n        /* \"#utility.yul\":3684:3710   */\n      swap1\n      pop\n        /* \"#utility.yul\":3720:3785   */\n      tag_371\n        /* \"#utility.yul\":3782:3783   */\n      0x00\n        /* \"#utility.yul\":3771:3780   */\n      dup4\n        /* \"#utility.yul\":3767:3784   */\n      add\n        /* \"#utility.yul\":3758:3764   */\n      dup5\n        /* \"#utility.yul\":3720:3785   */\n      tag_285\n      jump\t// in\n    tag_371:\n        /* \"#utility.yul\":3582:3792   */\n      swap3\n      swap2\n      pop\n      pop\n      jump\t// out\n        /* \"#utility.yul\":3798:4417   */\n    tag_44:\n        /* \"#utility.yul\":3875:3881   */\n      0x00\n        /* \"#utility.yul\":3883:3889   */\n      dup1\n        /* \"#utility.yul\":3891:3897   */\n      0x00\n        /* \"#utility.yul\":3940:3942   */\n      0x60\n        /* \"#utility.yul\":3928:3937   */\n      dup5\n        /* \"#utility.yul\":3919:3926   */\n      dup7\n        /* \"#utility.yul\":3915:3938   */\n      sub\n        /* \"#utility.yul\":3911:3943   */\n      slt\n        /* \"#utility.yul\":3908:4027   */\n      iszero\n      tag_373\n      jumpi\n        /* \"#utility.yul\":3946:4025   */\n      tag_374\n      tag_276\n      jump\t// in\n    tag_374:\n        /* \"#utility.yul\":3908:4027   */\n    tag_373:\n        /* \"#utility.yul\":4066:4067   */\n      0x00\n        /* \"#utility.yul\":4091:4144   */\n      tag_375\n        /* \"#utility.yul\":4136:4143   */\n      dup7\n        /* \"#utility.yul\":4127:4133   */\n      dup3\n        /* \"#utility.yul\":4116:4125   */\n      dup8\n        /* \"#utility.yul\":4112:4134   */\n      add\n        /* \"#utility.yul\":4091:4144   */\n      tag_281\n      jump\t// in\n    tag_375:\n        /* \"#utility.yul\":4081:4144   */\n      swap4\n      pop\n        /* \"#utility.yul\":4037:4154   */\n      pop\n        /* \"#utility.yul\":4193:4195   */\n      0x20\n        /* \"#utility.yul\":4219:4272   */\n      tag_376\n        /* \"#utility.yul\":4264:4271   */\n      dup7\n        /* \"#utility.yul\":4255:4261   */\n      dup3\n        /* \"#utility.yul\":4244:4253   */\n      dup8\n        /* \"#utility.yul\":4240:4262   */\n      add\n        /* \"#utility.yul\":4219:4272   */\n      tag_281\n      jump\t// in\n    tag_376:\n        /* \"#utility.yul\":4209:4272   */\n      swap3\n      pop\n        /* \"#utility.yul\":4164:4282   */\n      pop\n        /* \"#utility.yul\":4321:4323   */\n      0x40\n        /* \"#utility.yul\":4347:4400   */\n      tag_377\n        /* \"#utility.yul\":4392:4399   */\n      dup7\n        /* \"#utility.yul\":4383:4389   */\n      dup3\n        /* \"#utility.yul\":4372:4381   */\n      dup8\n        /* \"#utility.yul\":4368:4390   */\n      add\n        /* \"#utility.yul\":4347:4400   */\n      tag_283\n      jump\t// in\n    tag_377:\n        /* \"#utility.yul\":4337:4400   */\n      swap2\n      pop\n        /* \"#utility.yul\":4292:4410   */\n      pop\n        /* \"#utility.yul\":3798:4417   */\n      swap3\n      pop\n      swap3\n      pop\n      swap3\n      jump\t// out\n        /* \"#utility.yul\":4423:4509   */\n    tag_286:\n        /* \"#utility.yul\":4458:4465   */\n      0x00\n        /* \"#utility.yul\":4498:4502   */\n      0xff\n        /* \"#utility.yul\":4491:4496   */\n      dup3\n        /* \"#utility.yul\":4487:4503   */\n      and\n        /* \"#utility.yul\":4476:4503   */\n      swap1\n      pop\n        /* \"#utility.yul\":4423:4509   */\n      swap2\n      swap1\n      pop\n      jump\t// out\n        /* \"#utility.yul\":4515:4627   */\n    tag_287:\n        /* \"#utility.yul\":4598:4620   */\n      tag_380\n        /* \"#utility.yul\":4614:4619   */\n      dup2\n        /* \"#utility.yul\":4598:4620   */\n      tag_286\n      jump\t// in\n    tag_380:\n        /* \"#utility.yul\":4593:4596   */\n      dup3\n        /* \"#utility.yul\":4586:4621   */\n      mstore\n        /* \"#utility.yul\":4515:4627   */\n      pop\n      pop\n      jump\t// out\n        /* \"#utility.yul\":4633:4847   */\n    tag_50:\n        /* \"#utility.yul\":4722:4726   */\n      0x00\n        /* \"#utility.yul\":4760:4762   */\n      0x20\n        /* \"#utility.yul\":4749:4758   */\n      dup3\n        /* \"#utility.yul\":4745:4763   */\n      add\n        /* \"#utility.yul\":4737:4763   */\n      swap1\n      pop\n        /* \"#utility.yul\":4773:4840   */\n      tag_382\n        /* \"#utility.yul\":4837:4838   */\n      0x00\n        /* \"#utility.yul\":4826:4835   */\n      dup4\n        /* \"#utility.yul\":4822:4839   */\n      add\n        /* \"#utility.yul\":4813:4819   */\n      dup5\n        /* \"#utility.yul\":4773:4840   */\n      tag_287\n      jump\t// in\n    tag_382:\n        /* \"#utility.yul\":4633:4847   */\n      swap3\n      swap2\n      pop\n      pop\n      jump\t// out\n        /* \"#utility.yul\":4853:5182   */\n    tag_57:\n        /* \"#utility.yul\":4912:4918   */\n      0x00\n        /* \"#utility.yul\":4961:4963   */\n      0x20\n        /* \"#utility.yul\":4949:4958   */\n      dup3\n        /* \"#utility.yul\":4940:4947   */\n      dup5\n        /* \"#utility.yul\":4936:4959   */\n      sub\n        /* \"#utility.yul\":4932:4964   */\n      slt\n        /* \"#utility.yul\":4929:5048   */\n      iszero\n      tag_384\n      jumpi\n        /* \"#utility.yul\":4967:5046   */\n      tag_385\n      tag_276\n      jump\t// in\n    tag_385:\n        /* \"#utility.yul\":4929:5048   */\n    tag_384:\n        /* \"#utility.yul\":5087:5088   */\n      0x00\n        /* \"#utility.yul\":5112:5165   */\n      tag_386\n        /* \"#utility.yul\":5157:5164   */\n      dup5\n        /* \"#utility.yul\":5148:5154   */\n      dup3\n        /* \"#utility.yul\":5137:5146   */\n      dup6\n        /* \"#utility.yul\":5133:5155   */\n      add\n        /* \"#utility.yul\":5112:5165   */\n      tag_283\n      jump\t// in\n    tag_386:\n        /* \"#utility.yul\":5102:5165   */\n      swap2\n      pop\n        /* \"#utility.yul\":5058:5175   */\n      pop\n        /* \"#utility.yul\":4853:5182   */\n      swap3\n      swap2\n      pop\n      pop\n      jump\t// out\n        /* \"#utility.yul\":5188:5306   */\n    tag_288:\n        /* \"#utility.yul\":5259:5281   */\n      tag_388\n        /* \"#utility.yul\":5275:5280   */\n      dup2\n        /* \"#utility.yul\":5259:5281   */\n      tag_286\n      jump\t// in\n    tag_388:\n        /* \"#utility.yul\":5252:5257   */\n      dup2\n        /* \"#utility.yul\":5249:5282   */\n      eq\n        /* \"#utility.yul\":5239:5300   */\n      tag_389\n      jumpi\n        /* \"#utility.yul\":5296:5297   */\n      0x00\n        /* \"#utility.yul\":5293:5294   */\n      dup1\n        /* \"#utility.yul\":5286:5298   */\n      revert\n        /* \"#utility.yul\":5239:5300   */\n    tag_389:\n        /* \"#utility.yul\":5188:5306   */\n      pop\n      jump\t// out\n        /* \"#utility.yul\":5312:5447   */\n    tag_289:\n        /* \"#utility.yul\":5356:5361   */\n      0x00\n        /* \"#utility.yul\":5394:5400   */\n      dup2\n        /* \"#utility.yul\":5381:5401   */\n      calldataload\n        /* \"#utility.yul\":5372:5401   */\n      swap1\n      pop\n        /* \"#utility.yul\":5410:5441   */\n      tag_391\n        /* \"#utility.yul\":5435:5440   */\n      dup2\n        /* \"#utility.yul\":5410:5441   */\n      tag_288\n      jump\t// in\n    tag_391:\n        /* \"#utility.yul\":5312:5447   */\n      swap3\n      swap2\n      pop\n      pop\n      jump\t// out\n        /* \"#utility.yul\":5453:5778   */\n    tag_64:\n        /* \"#utility.yul\":5510:5516   */\n      0x00\n        /* \"#utility.yul\":5559:5561   */\n      0x20\n        /* \"#utility.yul\":5547:5556   */\n      dup3\n        /* \"#utility.yul\":5538:5545   */\n      dup5\n        /* \"#utility.yul\":5534:5557   */\n      sub\n        /* \"#utility.yul\":5530:5562   */\n      slt\n        /* \"#utility.yul\":5527:5646   */\n      iszero\n      tag_393\n      jumpi\n        /* \"#utility.yul\":5565:5644   */\n      tag_394\n      tag_276\n      jump\t// in\n    tag_394:\n        /* \"#utility.yul\":5527:5646   */\n    tag_393:\n        /* \"#utility.yul\":5685:5686   */\n      0x00\n        /* \"#utility.yul\":5710:5761   */\n      tag_395\n        /* \"#utility.yul\":5753:5760   */\n      dup5\n        /* \"#utility.yul\":5744:5750   */\n      dup3\n        /* \"#utility.yul\":5733:5742   */\n      dup6\n        /* \"#utility.yul\":5729:5751   */\n      add\n        /* \"#utility.yul\":5710:5761   */\n      tag_289\n      jump\t// in\n    tag_395:\n        /* \"#utility.yul\":5700:5761   */\n      swap2\n      pop\n        /* \"#utility.yul\":5656:5771   */\n      pop\n        /* \"#utility.yul\":5453:5778   */\n      swap3\n      swap2\n      pop\n      pop\n      jump\t// out\n        /* \"#utility.yul\":5784:6113   */\n    tag_68:\n        /* \"#utility.yul\":5843:5849   */\n      0x00\n        /* \"#utility.yul\":5892:5894   */\n      0x20\n        /* \"#utility.yul\":5880:5889   */\n      dup3\n        /* \"#utility.yul\":5871:5878   */\n      dup5\n        /* \"#utility.yul\":5867:5890   */\n      sub\n        /* \"#utility.yul\":5863:5895   */\n      slt\n        /* \"#utility.yul\":5860:5979   */\n      iszero\n      tag_397\n      jumpi\n        /* \"#utility.yul\":5898:5977   */\n      tag_398\n      tag_276\n      jump\t// in\n    tag_398:\n        /* \"#utility.yul\":5860:5979   */\n    tag_397:\n        /* \"#utility.yul\":6018:6019   */\n      0x00\n        /* \"#utility.yul\":6043:6096   */\n      tag_399\n        /* \"#utility.yul\":6088:6095   */\n      dup5\n        /* \"#utility.yul\":6079:6085   */\n      dup3\n        /* \"#utility.yul\":6068:6077   */\n      dup6\n        /* \"#utility.yul\":6064:6086   */\n      add\n        /* \"#utility.yul\":6043:6096   */\n      tag_281\n      jump\t// in\n    tag_399:\n        /* \"#utility.yul\":6033:6096   */\n      swap2\n      pop\n        /* \"#utility.yul\":5989:6106   */\n      pop\n        /* \"#utility.yul\":5784:6113   */\n      swap3\n      swap2\n      pop\n      pop\n      jump\t// out\n        /* \"#utility.yul\":6119:6223   */\n    tag_290:\n        /* \"#utility.yul\":6164:6171   */\n      0x00\n        /* \"#utility.yul\":6193:6217   */\n      tag_401\n        /* \"#utility.yul\":6211:6216   */\n      dup3\n        /* \"#utility.yul\":6193:6217   */\n      tag_278\n      jump\t// in\n    tag_401:\n        /* \"#utility.yul\":6182:6217   */\n      swap1\n      pop\n        /* \"#utility.yul\":6119:6223   */\n      swap2\n      swap1\n      pop\n      jump\t// out\n        /* \"#utility.yul\":6229:6371   */\n    tag_291:\n        /* \"#utility.yul\":6332:6364   */\n      tag_403\n        /* \"#utility.yul\":6358:6363   */\n      dup2\n        /* \"#utility.yul\":6332:6364   */\n      tag_290\n      jump\t// in\n    tag_403:\n        /* \"#utility.yul\":6327:6330   */\n      dup3\n        /* \"#utility.yul\":6320:6365   */\n      mstore\n        /* \"#utility.yul\":6229:6371   */\n      pop\n      pop\n      jump\t// out\n        /* \"#utility.yul\":6377:6631   */\n    tag_89:\n        /* \"#utility.yul\":6486:6490   */\n      0x00\n        /* \"#utility.yul\":6524:6526   */\n      0x20\n        /* \"#utility.yul\":6513:6522   */\n      dup3\n        /* \"#utility.yul\":6509:6527   */\n      add\n        /* \"#utility.yul\":6501:6527   */\n      swap1\n      pop\n        /* \"#utility.yul\":6537:6624   */\n      tag_405\n        /* \"#utility.yul\":6621:6622   */\n      0x00\n        /* \"#utility.yul\":6610:6619   */\n      dup4\n        /* \"#utility.yul\":6606:6623   */\n      add\n        /* \"#utility.yul\":6597:6603   */\n      dup5\n        /* \"#utility.yul\":6537:6624   */\n      tag_291\n      jump\t// in\n    tag_405:\n        /* \"#utility.yul\":6377:6631   */\n      swap3\n      swap2\n      pop\n      pop\n      jump\t// out\n        /* \"#utility.yul\":6637:7111   */\n    tag_95:\n        /* \"#utility.yul\":6705:6711   */\n      0x00\n        /* \"#utility.yul\":6713:6719   */\n      dup1\n        /* \"#utility.yul\":6762:6764   */\n      0x40\n        /* \"#utility.yul\":6750:6759   */\n      dup4\n        /* \"#utility.yul\":6741:6748   */\n      dup6\n        /* \"#utility.yul\":6737:6760   */\n      sub\n        /* \"#utility.yul\":6733:6765   */\n      slt\n        /* \"#utility.yul\":6730:6849   */\n      iszero\n      tag_407\n      jumpi\n        /* \"#utility.yul\":6768:6847   */\n      tag_408\n      tag_276\n      jump\t// in\n    tag_408:\n        /* \"#utility.yul\":6730:6849   */\n    tag_407:\n        /* \"#utility.yul\":6888:6889   */\n      0x00\n        /* \"#utility.yul\":6913:6966   */\n      tag_409\n        /* \"#utility.yul\":6958:6965   */\n      dup6\n        /* \"#utility.yul\":6949:6955   */\n      dup3\n        /* \"#utility.yul\":6938:6947   */\n      dup7\n        /* \"#utility.yul\":6934:6956   */\n      add\n        /* \"#utility.yul\":6913:6966   */\n      tag_281\n      jump\t// in\n    tag_409:\n        /* \"#utility.yul\":6903:6966   */\n      swap3\n      pop\n        /* \"#utility.yul\":6859:6976   */\n      pop\n        /* \"#utility.yul\":7015:7017   */\n      0x20\n        /* \"#utility.yul\":7041:7094   */\n      tag_410\n        /* \"#utility.yul\":7086:7093   */\n      dup6\n        /* \"#utility.yul\":7077:7083   */\n      dup3\n        /* \"#utility.yul\":7066:7075   */\n      dup7\n        /* \"#utility.yul\":7062:7084   */\n      add\n        /* \"#utility.yul\":7041:7094   */\n      tag_281\n      jump\t// in\n    tag_410:\n        /* \"#utility.yul\":7031:7094   */\n      swap2\n      pop\n        /* \"#utility.yul\":6986:7104   */\n      pop\n        /* \"#utility.yul\":6637:7111   */\n      swap3\n      pop\n      swap3\n      swap1\n      pop\n      jump\t// out\n        /* \"#utility.yul\":7117:7297   */\n    tag_292:\n        /* \"#utility.yul\":7165:7242   */\n      0x4e487b7100000000000000000000000000000000000000000000000000000000\n        /* \"#utility.yul\":7162:7163   */\n      0x00\n        /* \"#utility.yul\":7155:7243   */\n      mstore\n        /* \"#utility.yul\":7262:7266   */\n      0x22\n        /* \"#utility.yul\":7259:7260   */\n      0x04\n        /* \"#utility.yul\":7252:7267   */\n      mstore\n        /* \"#utility.yul\":7286:7290   */\n      0x24\n        /* \"#utility.yul\":7283:7284   */\n      0x00\n        /* \"#utility.yul\":7276:7291   */\n      revert\n        /* \"#utility.yul\":7303:7623   */\n    tag_100:\n        /* \"#utility.yul\":7347:7353   */\n      0x00\n        /* \"#utility.yul\":7384:7385   */\n      0x02\n        /* \"#utility.yul\":7378:7382   */\n      dup3\n        /* \"#utility.yul\":7374:7386   */\n      div\n        /* \"#utility.yul\":7364:7386   */\n      swap1\n      pop\n        /* \"#utility.yul\":7431:7432   */\n      0x01\n        /* \"#utility.yul\":7425:7429   */\n      dup3\n        /* \"#utility.yul\":7421:7433   */\n      and\n        /* \"#utility.yul\":7452:7470   */\n      dup1\n        /* \"#utility.yul\":7442:7523   */\n      tag_413\n      jumpi\n        /* \"#utility.yul\":7508:7512   */\n      0x7f\n        /* \"#utility.yul\":7500:7506   */\n      dup3\n        /* \"#utility.yul\":7496:7513   */\n      and\n        /* \"#utility.yul\":7486:7513   */\n      swap2\n      pop\n        /* \"#utility.yul\":7442:7523   */\n    tag_413:\n        /* \"#utility.yul\":7570:7572   */\n      0x20\n        /* \"#utility.yul\":7562:7568   */\n      dup3\n        /* \"#utility.yul\":7559:7573   */\n      lt\n        /* \"#utility.yul\":7539:7557   */\n      dup2\n        /* \"#utility.yul\":7536:7574   */\n      sub\n        /* \"#utility.yul\":7533:7617   */\n      tag_414\n      jumpi\n        /* \"#utility.yul\":7589:7607   */\n      tag_415\n      tag_292\n      jump\t// in\n    tag_415:\n        /* \"#utility.yul\":7533:7617   */\n    tag_414:\n        /* \"#utility.yul\":7354:7623   */\n      pop\n        /* \"#utility.yul\":7303:7623   */\n      swap2\n      swap1\n      pop\n      jump\t// out\n        /* \"#utility.yul\":7629:7809   */\n    tag_293:\n        /* \"#utility.yul\":7677:7754   */\n      0x4e487b7100000000000000000000000000000000000000000000000000000000\n        /* \"#utility.yul\":7674:7675   */\n      0x00\n        /* \"#utility.yul\":7667:7755   */\n      mstore\n        /* \"#utility.yul\":7774:7778   */\n      0x11\n        /* \"#utility.yul\":7771:7772   */\n      0x04\n        /* \"#utility.yul\":7764:7779   */\n      mstore\n        /* \"#utility.yul\":7798:7802   */\n      0x24\n        /* \"#utility.yul\":7795:7796   */\n      0x00\n        /* \"#utility.yul\":7788:7803   */\n      revert\n        /* \"#utility.yul\":7815:8006   */\n    tag_125:\n        /* \"#utility.yul\":7855:7858   */\n      0x00\n        /* \"#utility.yul\":7874:7894   */\n      tag_418\n        /* \"#utility.yul\":7892:7893   */\n      dup3\n        /* \"#utility.yul\":7874:7894   */\n      tag_273\n      jump\t// in\n    tag_418:\n        /* \"#utility.yul\":7869:7894   */\n      swap2\n      pop\n        /* \"#utility.yul\":7908:7928   */\n      tag_419\n        /* \"#utility.yul\":7926:7927   */\n      dup4\n        /* \"#utility.yul\":7908:7928   */\n      tag_273\n      jump\t// in\n    tag_419:\n        /* \"#utility.yul\":7903:7928   */\n      swap3\n      pop\n        /* \"#utility.yul\":7951:7952   */\n      dup3\n        /* \"#utility.yul\":7948:7949   */\n      dup3\n        /* \"#utility.yul\":7944:7953   */\n      add\n        /* \"#utility.yul\":7937:7953   */\n      swap1\n      pop\n        /* \"#utility.yul\":7972:7975   */\n      dup1\n        /* \"#utility.yul\":7969:7970   */\n      dup3\n        /* \"#utility.yul\":7966:7976   */\n      gt\n        /* \"#utility.yul\":7963:7999   */\n      iszero\n      tag_420\n      jumpi\n        /* \"#utility.yul\":7979:7997   */\n      tag_421\n      tag_293\n      jump\t// in\n    tag_421:\n        /* \"#utility.yul\":7963:7999   */\n    tag_420:\n        /* \"#utility.yul\":7815:8006   */\n      swap3\n      swap2\n      pop\n      pop\n      jump\t// out\n        /* \"#utility.yul\":8012:8236   */\n    tag_294:\n        /* \"#utility.yul\":8152:8186   */\n      0x4f6e6c7920746865206f776e65722063616e2063616c6c20746869732066756e\n        /* \"#utility.yul\":8148:8149   */\n      0x00\n        /* \"#utility.yul\":8140:8146   */\n      dup3\n        /* \"#utility.yul\":8136:8150   */\n      add\n        /* \"#utility.yul\":8129:8187   */\n      mstore\n        /* \"#utility.yul\":8221:8228   */\n      0x6374696f6e000000000000000000000000000000000000000000000000000000\n        /* \"#utility.yul\":8216:8218   */\n      0x20\n        /* \"#utility.yul\":8208:8214   */\n      dup3\n        /* \"#utility.yul\":8204:8219   */\n      add\n        /* \"#utility.yul\":8197:8229   */\n      mstore\n        /* \"#utility.yul\":8012:8236   */\n      pop\n      jump\t// out\n        /* \"#utility.yul\":8242:8608   */\n    tag_295:\n        /* \"#utility.yul\":8384:8387   */\n      0x00\n        /* \"#utility.yul\":8405:8472   */\n      tag_424\n        /* \"#utility.yul\":8469:8471   */\n      0x25\n        /* \"#utility.yul\":8464:8467   */\n      dup4\n        /* \"#utility.yul\":8405:8472   */\n      tag_269\n      jump\t// in\n    tag_424:\n        /* \"#utility.yul\":8398:8472   */\n      swap2\n      pop\n        /* \"#utility.yul\":8481:8574   */\n      tag_425\n        /* \"#utility.yul\":8570:8573   */\n      dup3\n        /* \"#utility.yul\":8481:8574   */\n      tag_294\n      jump\t// in\n    tag_425:\n        /* \"#utility.yul\":8599:8601   */\n      0x40\n        /* \"#utility.yul\":8594:8597   */\n      dup3\n        /* \"#utility.yul\":8590:8602   */\n      add\n        /* \"#utility.yul\":8583:8602   */\n      swap1\n      pop\n        /* \"#utility.yul\":8242:8608   */\n      swap2\n      swap1\n      pop\n      jump\t// out\n        /* \"#utility.yul\":8614:9033   */\n    tag_129:\n        /* \"#utility.yul\":8780:8784   */\n      0x00\n        /* \"#utility.yul\":8818:8820   */\n      0x20\n        /* \"#utility.yul\":8807:8816   */\n      dup3\n        /* \"#utility.yul\":8803:8821   */\n      add\n        /* \"#utility.yul\":8795:8821   */\n      swap1\n      pop\n        /* \"#utility.yul\":8867:8876   */\n      dup2\n        /* \"#utility.yul\":8861:8865   */\n      dup2\n        /* \"#utility.yul\":8857:8877   */\n      sub\n        /* \"#utility.yul\":8853:8854   */\n      0x00\n        /* \"#utility.yul\":8842:8851   */\n      dup4\n        /* \"#utility.yul\":8838:8855   */\n      add\n        /* \"#utility.yul\":8831:8878   */\n      mstore\n        /* \"#utility.yul\":8895:9026   */\n      tag_427\n        /* \"#utility.yul\":9021:9025   */\n      dup2\n        /* \"#utility.yul\":8895:9026   */\n      tag_295\n      jump\t// in\n    tag_427:\n        /* \"#utility.yul\":8887:9026   */\n      swap1\n      pop\n        /* \"#utility.yul\":8614:9033   */\n      swap2\n      swap1\n      pop\n      jump\t// out\n        /* \"#utility.yul\":9039:9449   */\n    tag_137:\n        /* \"#utility.yul\":9079:9086   */\n      0x00\n        /* \"#utility.yul\":9102:9122   */\n      tag_429\n        /* \"#utility.yul\":9120:9121   */\n      dup3\n        /* \"#utility.yul\":9102:9122   */\n      tag_273\n      jump\t// in\n    tag_429:\n        /* \"#utility.yul\":9097:9122   */\n      swap2\n      pop\n        /* \"#utility.yul\":9136:9156   */\n      tag_430\n        /* \"#utility.yul\":9154:9155   */\n      dup4\n        /* \"#utility.yul\":9136:9156   */\n      tag_273\n      jump\t// in\n    tag_430:\n        /* \"#utility.yul\":9131:9156   */\n      swap3\n      pop\n        /* \"#utility.yul\":9191:9192   */\n      dup3\n        /* \"#utility.yul\":9188:9189   */\n      dup3\n        /* \"#utility.yul\":9184:9193   */\n      mul\n        /* \"#utility.yul\":9213:9243   */\n      tag_431\n        /* \"#utility.yul\":9231:9242   */\n      dup2\n        /* \"#utility.yul\":9213:9243   */\n      tag_273\n      jump\t// in\n    tag_431:\n        /* \"#utility.yul\":9202:9243   */\n      swap2\n      pop\n        /* \"#utility.yul\":9392:9393   */\n      dup3\n        /* \"#utility.yul\":9383:9390   */\n      dup3\n        /* \"#utility.yul\":9379:9394   */\n      div\n        /* \"#utility.yul\":9376:9377   */\n      dup5\n        /* \"#utility.yul\":9373:9395   */\n      eq\n        /* \"#utility.yul\":9353:9354   */\n      dup4\n        /* \"#utility.yul\":9346:9355   */\n      iszero\n        /* \"#utility.yul\":9326:9409   */\n      or\n        /* \"#utility.yul\":9303:9442   */\n      tag_432\n      jumpi\n        /* \"#utility.yul\":9422:9440   */\n      tag_433\n      tag_293\n      jump\t// in\n    tag_433:\n        /* \"#utility.yul\":9303:9442   */\n    tag_432:\n        /* \"#utility.yul\":9087:9449   */\n      pop\n        /* \"#utility.yul\":9039:9449   */\n      swap3\n      swap2\n      pop\n      pop\n      jump\t// out\n        /* \"#utility.yul\":9455:9679   */\n    tag_296:\n        /* \"#utility.yul\":9595:9629   */\n      0x45524332303a2064656372656173656420616c6c6f77616e63652062656c6f77\n        /* \"#utility.yul\":9591:9592   */\n      0x00\n        /* \"#utility.yul\":9583:9589   */\n      dup3\n        /* \"#utility.yul\":9579:9593   */\n      add\n        /* \"#utility.yul\":9572:9630   */\n      mstore\n        /* \"#utility.yul\":9664:9671   */\n      0x207a65726f000000000000000000000000000000000000000000000000000000\n        /* \"#utility.yul\":9659:9661   */\n      0x20\n        /* \"#utility.yul\":9651:9657   */\n      dup3\n        /* \"#utility.yul\":9647:9662   */\n      add\n        /* \"#utility.yul\":9640:9672   */\n      mstore\n        /* \"#utility.yul\":9455:9679   */\n      pop\n      jump\t// out\n        /* \"#utility.yul\":9685:10051   */\n    tag_297:\n        /* \"#utility.yul\":9827:9830   */\n      0x00\n        /* \"#utility.yul\":9848:9915   */\n      tag_436\n        /* \"#utility.yul\":9912:9914   */\n      0x25\n        /* \"#utility.yul\":9907:9910   */\n      dup4\n        /* \"#utility.yul\":9848:9915   */\n      tag_269\n      jump\t// in\n    tag_436:\n        /* \"#utility.yul\":9841:9915   */\n      swap2\n      pop\n        /* \"#utility.yul\":9924:10017   */\n      tag_437\n        /* \"#utility.yul\":10013:10016   */\n      dup3\n        /* \"#utility.yul\":9924:10017   */\n      tag_296\n      jump\t// in\n    tag_437:\n        /* \"#utility.yul\":10042:10044   */\n      0x40\n        /* \"#utility.yul\":10037:10040   */\n      dup3\n        /* \"#utility.yul\":10033:10045   */\n      add\n        /* \"#utility.yul\":10026:10045   */\n      swap1\n      pop\n        /* \"#utility.yul\":9685:10051   */\n      swap2\n      swap1\n      pop\n      jump\t// out\n        /* \"#utility.yul\":10057:10476   */\n    tag_178:\n        /* \"#utility.yul\":10223:10227   */\n      0x00\n        /* \"#utility.yul\":10261:10263   */\n      0x20\n        /* \"#utility.yul\":10250:10259   */\n      dup3\n        /* \"#utility.yul\":10246:10264   */\n      add\n        /* \"#utility.yul\":10238:10264   */\n      swap1\n      pop\n        /* \"#utility.yul\":10310:10319   */\n      dup2\n        /* \"#utility.yul\":10304:10308   */\n      dup2\n        /* \"#utility.yul\":10300:10320   */\n      sub\n        /* \"#utility.yul\":10296:10297   */\n      0x00\n        /* \"#utility.yul\":10285:10294   */\n      dup4\n        /* \"#utility.yul\":10281:10298   */\n      add\n        /* \"#utility.yul\":10274:10321   */\n      mstore\n        /* \"#utility.yul\":10338:10469   */\n      tag_439\n        /* \"#utility.yul\":10464:10468   */\n      dup2\n        /* \"#utility.yul\":10338:10469   */\n      tag_297\n      jump\t// in\n    tag_439:\n        /* \"#utility.yul\":10330:10469   */\n      swap1\n      pop\n        /* \"#utility.yul\":10057:10476   */\n      swap2\n      swap1\n      pop\n      jump\t// out\n        /* \"#utility.yul\":10482:10584   */\n    tag_298:\n        /* \"#utility.yul\":10524:10532   */\n      0x00\n        /* \"#utility.yul\":10571:10576   */\n      dup2\n        /* \"#utility.yul\":10568:10569   */\n      0x01\n        /* \"#utility.yul\":10564:10577   */\n      shr\n        /* \"#utility.yul\":10543:10577   */\n      swap1\n      pop\n        /* \"#utility.yul\":10482:10584   */\n      swap2\n      swap1\n      pop\n      jump\t// out\n        /* \"#utility.yul\":10590:11438   */\n    tag_299:\n        /* \"#utility.yul\":10651:10656   */\n      0x00\n        /* \"#utility.yul\":10658:10662   */\n      dup1\n        /* \"#utility.yul\":10682:10688   */\n      dup3\n        /* \"#utility.yul\":10673:10688   */\n      swap2\n      pop\n        /* \"#utility.yul\":10706:10711   */\n      dup4\n        /* \"#utility.yul\":10697:10711   */\n      swap1\n      pop\n        /* \"#utility.yul\":10720:11432   */\n    tag_442:\n        /* \"#utility.yul\":10741:10742   */\n      0x01\n        /* \"#utility.yul\":10731:10739   */\n      dup6\n        /* \"#utility.yul\":10728:10743   */\n      gt\n        /* \"#utility.yul\":10720:11432   */\n      iszero\n      tag_444\n      jumpi\n        /* \"#utility.yul\":10836:10840   */\n      dup1\n        /* \"#utility.yul\":10831:10834   */\n      dup7\n        /* \"#utility.yul\":10827:10841   */\n      div\n        /* \"#utility.yul\":10821:10825   */\n      dup2\n        /* \"#utility.yul\":10818:10842   */\n      gt\n        /* \"#utility.yul\":10815:10865   */\n      iszero\n      tag_445\n      jumpi\n        /* \"#utility.yul\":10845:10863   */\n      tag_446\n      tag_293\n      jump\t// in\n    tag_446:\n        /* \"#utility.yul\":10815:10865   */\n    tag_445:\n        /* \"#utility.yul\":10895:10896   */\n      0x01\n        /* \"#utility.yul\":10885:10893   */\n      dup6\n        /* \"#utility.yul\":10881:10897   */\n      and\n        /* \"#utility.yul\":10878:11329   */\n      iszero\n      tag_447\n      jumpi\n        /* \"#utility.yul\":11310:11314   */\n      dup1\n        /* \"#utility.yul\":11303:11308   */\n      dup3\n        /* \"#utility.yul\":11299:11315   */\n      mul\n        /* \"#utility.yul\":11290:11315   */\n      swap2\n      pop\n        /* \"#utility.yul\":10878:11329   */\n    tag_447:\n        /* \"#utility.yul\":11360:11364   */\n      dup1\n        /* \"#utility.yul\":11354:11358   */\n      dup2\n        /* \"#utility.yul\":11350:11365   */\n      mul\n        /* \"#utility.yul\":11342:11365   */\n      swap1\n      pop\n        /* \"#utility.yul\":11390:11422   */\n      tag_448\n        /* \"#utility.yul\":11413:11421   */\n      dup6\n        /* \"#utility.yul\":11390:11422   */\n      tag_298\n      jump\t// in\n    tag_448:\n        /* \"#utility.yul\":11378:11422   */\n      swap5\n      pop\n        /* \"#utility.yul\":10720:11432   */\n      jump(tag_442)\n    tag_444:\n        /* \"#utility.yul\":10590:11438   */\n      swap5\n      pop\n      swap5\n      swap3\n      pop\n      pop\n      pop\n      jump\t// out\n        /* \"#utility.yul\":11444:12517   */\n    tag_300:\n        /* \"#utility.yul\":11498:11503   */\n      0x00\n        /* \"#utility.yul\":11689:11697   */\n      dup3\n        /* \"#utility.yul\":11679:11719   */\n      tag_450\n      jumpi\n        /* \"#utility.yul\":11710:11711   */\n      0x01\n        /* \"#utility.yul\":11701:11711   */\n      swap1\n      pop\n        /* \"#utility.yul\":11712:11717   */\n      jump(tag_449)\n        /* \"#utility.yul\":11679:11719   */\n    tag_450:\n        /* \"#utility.yul\":11738:11742   */\n      dup2\n        /* \"#utility.yul\":11728:11764   */\n      tag_451\n      jumpi\n        /* \"#utility.yul\":11755:11756   */\n      0x00\n        /* \"#utility.yul\":11746:11756   */\n      swap1\n      pop\n        /* \"#utility.yul\":11757:11762   */\n      jump(tag_449)\n        /* \"#utility.yul\":11728:11764   */\n    tag_451:\n        /* \"#utility.yul\":11824:11828   */\n      dup2\n        /* \"#utility.yul\":11872:11873   */\n      0x01\n        /* \"#utility.yul\":11867:11894   */\n      dup2\n      eq\n      tag_453\n      jumpi\n        /* \"#utility.yul\":11908:11909   */\n      0x02\n        /* \"#utility.yul\":11903:12094   */\n      dup2\n      eq\n      tag_454\n      jumpi\n        /* \"#utility.yul\":11817:12094   */\n      jump(tag_452)\n        /* \"#utility.yul\":11867:11894   */\n    tag_453:\n        /* \"#utility.yul\":11885:11886   */\n      0x01\n        /* \"#utility.yul\":11876:11886   */\n      swap2\n      pop\n        /* \"#utility.yul\":11887:11892   */\n      pop\n      jump(tag_449)\n        /* \"#utility.yul\":11903:12094   */\n    tag_454:\n        /* \"#utility.yul\":11948:11951   */\n      0xff\n        /* \"#utility.yul\":11938:11946   */\n      dup5\n        /* \"#utility.yul\":11935:11952   */\n      gt\n        /* \"#utility.yul\":11932:11975   */\n      iszero\n      tag_455\n      jumpi\n        /* \"#utility.yul\":11955:11973   */\n      tag_456\n      tag_293\n      jump\t// in\n    tag_456:\n        /* \"#utility.yul\":11932:11975   */\n    tag_455:\n        /* \"#utility.yul\":12004:12012   */\n      dup4\n        /* \"#utility.yul\":12001:12002   */\n      0x02\n        /* \"#utility.yul\":11997:12013   */\n      exp\n        /* \"#utility.yul\":11988:12013   */\n      swap2\n      pop\n        /* \"#utility.yul\":12039:12042   */\n      dup5\n        /* \"#utility.yul\":12032:12037   */\n      dup3\n        /* \"#utility.yul\":12029:12043   */\n      gt\n        /* \"#utility.yul\":12026:12066   */\n      iszero\n      tag_457\n      jumpi\n        /* \"#utility.yul\":12046:12064   */\n      tag_458\n      tag_293\n      jump\t// in\n    tag_458:\n        /* \"#utility.yul\":12026:12066   */\n    tag_457:\n        /* \"#utility.yul\":12079:12084   */\n      pop\n      jump(tag_449)\n        /* \"#utility.yul\":11817:12094   */\n    tag_452:\n      pop\n        /* \"#utility.yul\":12203:12205   */\n      0x20\n        /* \"#utility.yul\":12193:12201   */\n      dup4\n        /* \"#utility.yul\":12190:12206   */\n      lt\n        /* \"#utility.yul\":12184:12187   */\n      0x0133\n        /* \"#utility.yul\":12178:12182   */\n      dup4\n        /* \"#utility.yul\":12175:12188   */\n      lt\n        /* \"#utility.yul\":12171:12207   */\n      and\n        /* \"#utility.yul\":12153:12155   */\n      0x4e\n        /* \"#utility.yul\":12143:12151   */\n      dup5\n        /* \"#utility.yul\":12140:12156   */\n      lt\n        /* \"#utility.yul\":12135:12137   */\n      0x0b\n        /* \"#utility.yul\":12129:12133   */\n      dup5\n        /* \"#utility.yul\":12126:12138   */\n      lt\n        /* \"#utility.yul\":12122:12157   */\n      and\n        /* \"#utility.yul\":12106:12217   */\n      or\n        /* \"#utility.yul\":12103:12349   */\n      iszero\n      tag_459\n      jumpi\n        /* \"#utility.yul\":12259:12267   */\n      dup3\n        /* \"#utility.yul\":12253:12257   */\n      dup3\n        /* \"#utility.yul\":12249:12268   */\n      exp\n        /* \"#utility.yul\":12240:12268   */\n      swap1\n      pop\n        /* \"#utility.yul\":12294:12297   */\n      dup4\n        /* \"#utility.yul\":12287:12292   */\n      dup2\n        /* \"#utility.yul\":12284:12298   */\n      gt\n        /* \"#utility.yul\":12281:12321   */\n      iszero\n      tag_460\n      jumpi\n        /* \"#utility.yul\":12301:12319   */\n      tag_461\n      tag_293\n      jump\t// in\n    tag_461:\n        /* \"#utility.yul\":12281:12321   */\n    tag_460:\n        /* \"#utility.yul\":12334:12339   */\n      jump(tag_449)\n        /* \"#utility.yul\":12103:12349   */\n    tag_459:\n        /* \"#utility.yul\":12374:12416   */\n      tag_462\n        /* \"#utility.yul\":12412:12415   */\n      dup5\n        /* \"#utility.yul\":12402:12410   */\n      dup5\n        /* \"#utility.yul\":12396:12400   */\n      dup5\n        /* \"#utility.yul\":12393:12394   */\n      0x01\n        /* \"#utility.yul\":12374:12416   */\n      tag_299\n      jump\t// in\n    tag_462:\n        /* \"#utility.yul\":12359:12416   */\n      swap3\n      pop\n      swap1\n      pop\n        /* \"#utility.yul\":12448:12452   */\n      dup2\n        /* \"#utility.yul\":12443:12446   */\n      dup5\n        /* \"#utility.yul\":12439:12453   */\n      div\n        /* \"#utility.yul\":12432:12437   */\n      dup2\n        /* \"#utility.yul\":12429:12454   */\n      gt\n        /* \"#utility.yul\":12426:12477   */\n      iszero\n      tag_463\n      jumpi\n        /* \"#utility.yul\":12457:12475   */\n      tag_464\n      tag_293\n      jump\t// in\n    tag_464:\n        /* \"#utility.yul\":12426:12477   */\n    tag_463:\n        /* \"#utility.yul\":12506:12510   */\n      dup2\n        /* \"#utility.yul\":12499:12504   */\n      dup2\n        /* \"#utility.yul\":12495:12511   */\n      mul\n        /* \"#utility.yul\":12486:12511   */\n      swap1\n      pop\n        /* \"#utility.yul\":11444:12517   */\n    tag_449:\n      swap4\n      swap3\n      pop\n      pop\n      pop\n      jump\t// out\n        /* \"#utility.yul\":12523:12804   */\n    tag_186:\n        /* \"#utility.yul\":12581:12586   */\n      0x00\n        /* \"#utility.yul\":12605:12628   */\n      tag_466\n        /* \"#utility.yul\":12623:12627   */\n      dup3\n        /* \"#utility.yul\":12605:12628   */\n      tag_273\n      jump\t// in\n    tag_466:\n        /* \"#utility.yul\":12597:12628   */\n      swap2\n      pop\n        /* \"#utility.yul\":12649:12674   */\n      tag_467\n        /* \"#utility.yul\":12665:12673   */\n      dup4\n        /* \"#utility.yul\":12649:12674   */\n      tag_286\n      jump\t// in\n    tag_467:\n        /* \"#utility.yul\":12637:12674   */\n      swap3\n      pop\n        /* \"#utility.yul\":12693:12797   */\n      tag_468\n        /* \"#utility.yul\":12730:12796   */\n      0xffffffffffffffffffffffffffffffffffffffffffffffffffffffffffffffff\n        /* \"#utility.yul\":12720:12728   */\n      dup5\n        /* \"#utility.yul\":12714:12718   */\n      dup5\n        /* \"#utility.yul\":12693:12797   */\n      tag_300\n      jump\t// in\n    tag_468:\n        /* \"#utility.yul\":12684:12797   */\n      swap1\n      pop\n        /* \"#utility.yul\":12523:12804   */\n      swap3\n      swap2\n      pop\n      pop\n      jump\t// out\n        /* \"#utility.yul\":12810:13033   */\n    tag_301:\n        /* \"#utility.yul\":12950:12984   */\n      0x45524332303a20617070726f76652066726f6d20746865207a65726f20616464\n        /* \"#utility.yul\":12946:12947   */\n      0x00\n        /* \"#utility.yul\":12938:12944   */\n      dup3\n        /* \"#utility.yul\":12934:12948   */\n      add\n        /* \"#utility.yul\":12927:12985   */\n      mstore\n        /* \"#utility.yul\":13019:13025   */\n      0x7265737300000000000000000000000000000000000000000000000000000000\n        /* \"#utility.yul\":13014:13016   */\n      0x20\n        /* \"#utility.yul\":13006:13012   */\n      dup3\n        /* \"#utility.yul\":13002:13017   */\n      add\n        /* \"#utility.yul\":12995:13026   */\n      mstore\n        /* \"#utility.yul\":12810:13033   */\n      pop\n      jump\t// out\n        /* \"#utility.yul\":13039:13405   */\n    tag_302:\n        /* \"#utility.yul\":13181:13184   */\n      0x00\n        /* \"#utility.yul\":13202:13269   */\n      tag_471\n        /* \"#utility.yul\":13266:13268   */\n      0x24\n        /* \"#utility.yul\":13261:13264   */\n      dup4\n        /* \"#utility.yul\":13202:13269   */\n      tag_269\n      jump\t// in\n    tag_471:\n        /* \"#utility.yul\":13195:13269   */\n      swap2\n      pop\n        /* \"#utility.yul\":13278:13371   */\n      tag_472\n        /* \"#utility.yul\":13367:13370   */\n      dup3\n        /* \"#utility.yul\":13278:13371   */\n      tag_301\n      jump\t// in\n    tag_472:\n        /* \"#utility.yul\":13396:13398   */\n      0x40\n        /* \"#utility.yul\":13391:13394   */\n      dup3\n        /* \"#utility.yul\":13387:13399   */\n      add\n        /* \"#utility.yul\":13380:13399   */\n      swap1\n      pop\n        /* \"#utility.yul\":13039:13405   */\n      swap2\n      swap1\n      pop\n      jump\t// out\n        /* \"#utility.yul\":13411:13830   */\n    tag_192:\n        /* \"#utility.yul\":13577:13581   */\n      0x00\n        /* \"#utility.yul\":13615:13617   */\n      0x20\n        /* \"#utility.yul\":13604:13613   */\n      dup3\n        /* \"#utility.yul\":13600:13618   */\n      add\n        /* \"#utility.yul\":13592:13618   */\n      swap1\n      pop\n        /* \"#utility.yul\":13664:13673   */\n      dup2\n        /* \"#utility.yul\":13658:13662   */\n      dup2\n        /* \"#utility.yul\":13654:13674   */\n      sub\n        /* \"#utility.yul\":13650:13651   */\n      0x00\n        /* \"#utility.yul\":13639:13648   */\n      dup4\n        /* \"#utility.yul\":13635:13652   */\n      add\n        /* \"#utility.yul\":13628:13675   */\n      mstore\n        /* \"#utility.yul\":13692:13823   */\n      tag_474\n        /* \"#utility.yul\":13818:13822   */\n      dup2\n        /* \"#utility.yul\":13692:13823   */\n      tag_302\n      jump\t// in\n    tag_474:\n        /* \"#utility.yul\":13684:13823   */\n      swap1\n      pop\n        /* \"#utility.yul\":13411:13830   */\n      swap2\n      swap1\n      pop\n      jump\t// out\n        /* \"#utility.yul\":13836:14057   */\n    tag_303:\n        /* \"#utility.yul\":13976:14010   */\n      0x45524332303a20617070726f766520746f20746865207a65726f206164647265\n        /* \"#utility.yul\":13972:13973   */\n      0x00\n        /* \"#utility.yul\":13964:13970   */\n      dup3\n        /* \"#utility.yul\":13960:13974   */\n      add\n        /* \"#utility.yul\":13953:14011   */\n      mstore\n        /* \"#utility.yul\":14045:14049   */\n      0x7373000000000000000000000000000000000000000000000000000000000000\n        /* \"#utility.yul\":14040:14042   */\n      0x20\n        /* \"#utility.yul\":14032:14038   */\n      dup3\n        /* \"#utility.yul\":14028:14043   */\n      add\n        /* \"#utility.yul\":14021:14050   */\n      mstore\n        /* \"#utility.yul\":13836:14057   */\n      pop\n      jump\t// out\n        /* \"#utility.yul\":14063:14429   */\n    tag_304:\n        /* \"#utility.yul\":14205:14208   */\n      0x00\n        /* \"#utility.yul\":14226:14293   */\n      tag_477\n        /* \"#utility.yul\":14290:14292   */\n      0x22\n        /* \"#utility.yul\":14285:14288   */\n      dup4\n        /* \"#utility.yul\":14226:14293   */\n      tag_269\n      jump\t// in\n    tag_477:\n        /* \"#utility.yul\":14219:14293   */\n      swap2\n      pop\n        /* \"#utility.yul\":14302:14395   */\n      tag_478\n        /* \"#utility.yul\":14391:14394   */\n      dup3\n        /* \"#utility.yul\":14302:14395   */\n      tag_303\n      jump\t// in\n    tag_478:\n        /* \"#utility.yul\":14420:14422   */\n      0x40\n        /* \"#utility.yul\":14415:14418   */\n      dup3\n        /* \"#utility.yul\":14411:14423   */\n      add\n        /* \"#utility.yul\":14404:14423   */\n      swap1\n      pop\n        /* \"#utility.yul\":14063:14429   */\n      swap2\n      swap1\n      pop\n      jump\t// out\n        /* \"#utility.yul\":14435:14854   */\n    tag_195:\n        /* \"#utility.yul\":14601:14605   */\n      0x00\n        /* \"#utility.yul\":14639:14641   */\n      0x20\n        /* \"#utility.yul\":14628:14637   */\n      dup3\n        /* \"#utility.yul\":14624:14642   */\n      add\n        /* \"#utility.yul\":14616:14642   */\n      swap1\n      pop\n        /* \"#utility.yul\":14688:14697   */\n      dup2\n        /* \"#utility.yul\":14682:14686   */\n      dup2\n        /* \"#utility.yul\":14678:14698   */\n      sub\n        /* \"#utility.yul\":14674:14675   */\n      0x00\n        /* \"#utility.yul\":14663:14672   */\n      dup4\n        /* \"#utility.yul\":14659:14676   */\n      add\n        /* \"#utility.yul\":14652:14699   */\n      mstore\n        /* \"#utility.yul\":14716:14847   */\n      tag_480\n        /* \"#utility.yul\":14842:14846   */\n      dup2\n        /* \"#utility.yul\":14716:14847   */\n      tag_304\n      jump\t// in\n    tag_480:\n        /* \"#utility.yul\":14708:14847   */\n      swap1\n      pop\n        /* \"#utility.yul\":14435:14854   */\n      swap2\n      swap1\n      pop\n      jump\t// out\n        /* \"#utility.yul\":14860:15039   */\n    tag_305:\n        /* \"#utility.yul\":15000:15031   */\n      0x45524332303a20696e73756666696369656e7420616c6c6f77616e6365000000\n        /* \"#utility.yul\":14996:14997   */\n      0x00\n        /* \"#utility.yul\":14988:14994   */\n      dup3\n        /* \"#utility.yul\":14984:14998   */\n      add\n        /* \"#utility.yul\":14977:15032   */\n      mstore\n        /* \"#utility.yul\":14860:15039   */\n      pop\n      jump\t// out\n        /* \"#utility.yul\":15045:15411   */\n    tag_306:\n        /* \"#utility.yul\":15187:15190   */\n      0x00\n        /* \"#utility.yul\":15208:15275   */\n      tag_483\n        /* \"#utility.yul\":15272:15274   */\n      0x1d\n        /* \"#utility.yul\":15267:15270   */\n      dup4\n        /* \"#utility.yul\":15208:15275   */\n      tag_269\n      jump\t// in\n    tag_483:\n        /* \"#utility.yul\":15201:15275   */\n      swap2\n      pop\n        /* \"#utility.yul\":15284:15377   */\n      tag_484\n        /* \"#utility.yul\":15373:15376   */\n      dup3\n        /* \"#utility.yul\":15284:15377   */\n      tag_305\n      jump\t// in\n    tag_484:\n        /* \"#utility.yul\":15402:15404   */\n      0x20\n        /* \"#utility.yul\":15397:15400   */\n      dup3\n        /* \"#utility.yul\":15393:15405   */\n      add\n        /* \"#utility.yul\":15386:15405   */\n      swap1\n      pop\n        /* \"#utility.yul\":15045:15411   */\n      swap2\n      swap1\n      pop\n      jump\t// out\n        /* \"#utility.yul\":15417:15836   */\n    tag_202:\n        /* \"#utility.yul\":15583:15587   */\n      0x00\n        /* \"#utility.yul\":15621:15623   */\n      0x20\n        /* \"#utility.yul\":15610:15619   */\n      dup3\n        /* \"#utility.yul\":15606:15624   */\n      add\n        /* \"#utility.yul\":15598:15624   */\n      swap1\n      pop\n        /* \"#utility.yul\":15670:15679   */\n      dup2\n        /* \"#utility.yul\":15664:15668   */\n      dup2\n        /* \"#utility.yul\":15660:15680   */\n      sub\n        /* \"#utility.yul\":15656:15657   */\n      0x00\n        /* \"#utility.yul\":15645:15654   */\n      dup4\n        /* \"#utility.yul\":15641:15658   */\n      add\n        /* \"#utility.yul\":15634:15681   */\n      mstore\n        /* \"#utility.yul\":15698:15829   */\n      tag_486\n        /* \"#utility.yul\":15824:15828   */\n      dup2\n        /* \"#utility.yul\":15698:15829   */\n      tag_306\n      jump\t// in\n    tag_486:\n        /* \"#utility.yul\":15690:15829   */\n      swap1\n      pop\n        /* \"#utility.yul\":15417:15836   */\n      swap2\n      swap1\n      pop\n      jump\t// out\n        /* \"#utility.yul\":15842:16066   */\n    tag_307:\n        /* \"#utility.yul\":15982:16016   */\n      0x45524332303a207472616e736665722066726f6d20746865207a65726f206164\n        /* \"#utility.yul\":15978:15979   */\n      0x00\n        /* \"#utility.yul\":15970:15976   */\n      dup3\n        /* \"#utility.yul\":15966:15980   */\n      add\n        /* \"#utility.yul\":15959:16017   */\n      mstore\n        /* \"#utility.yul\":16051:16058   */\n      0x6472657373000000000000000000000000000000000000000000000000000000\n        /* \"#utility.yul\":16046:16048   */\n      0x20\n        /* \"#utility.yul\":16038:16044   */\n      dup3\n        /* \"#utility.yul\":16034:16049   */\n      add\n        /* \"#utility.yul\":16027:16059   */\n      mstore\n        /* \"#utility.yul\":15842:16066   */\n      pop\n      jump\t// out\n        /* \"#utility.yul\":16072:16438   */\n    tag_308:\n        /* \"#utility.yul\":16214:16217   */\n      0x00\n        /* \"#utility.yul\":16235:16302   */\n      tag_489\n        /* \"#utility.yul\":16299:16301   */\n      0x25\n        /* \"#utility.yul\":16294:16297   */\n      dup4\n        /* \"#utility.yul\":16235:16302   */\n      tag_269\n      jump\t// in\n    tag_489:\n        /* \"#utility.yul\":16228:16302   */\n      swap2\n      pop\n        /* \"#utility.yul\":16311:16404   */\n      tag_490\n        /* \"#utility.yul\":16400:16403   */\n      dup3\n        /* \"#utility.yul\":16311:16404   */\n      tag_307\n      jump\t// in\n    tag_490:\n        /* \"#utility.yul\":16429:16431   */\n      0x40\n        /* \"#utility.yul\":16424:16427   */\n      dup3\n        /* \"#utility.yul\":16420:16432   */\n      add\n        /* \"#utility.yul\":16413:16432   */\n      swap1\n      pop\n        /* \"#utility.yul\":16072:16438   */\n      swap2\n      swap1\n      pop\n      jump\t// out\n        /* \"#utility.yul\":16444:16863   */\n    tag_207:\n        /* \"#utility.yul\":16610:16614   */\n      0x00\n        /* \"#utility.yul\":16648:16650   */\n      0x20\n        /* \"#utility.yul\":16637:16646   */\n      dup3\n        /* \"#utility.yul\":16633:16651   */\n      add\n        /* \"#utility.yul\":16625:16651   */\n      swap1\n      pop\n        /* \"#utility.yul\":16697:16706   */\n      dup2\n        /* \"#utility.yul\":16691:16695   */\n      dup2\n        /* \"#utility.yul\":16687:16707   */\n      sub\n        /* \"#utility.yul\":16683:16684   */\n      0x00\n        /* \"#utility.yul\":16672:16681   */\n      dup4\n        /* \"#utility.yul\":16668:16685   */\n      add\n        /* \"#utility.yul\":16661:16708   */\n      mstore\n        /* \"#utility.yul\":16725:16856   */\n      tag_492\n        /* \"#utility.yul\":16851:16855   */\n      dup2\n        /* \"#utility.yul\":16725:16856   */\n      tag_308\n      jump\t// in\n    tag_492:\n        /* \"#utility.yul\":16717:16856   */\n      swap1\n      pop\n        /* \"#utility.yul\":16444:16863   */\n      swap2\n      swap1\n      pop\n      jump\t// out\n        /* \"#utility.yul\":16869:17091   */\n    tag_309:\n        /* \"#utility.yul\":17009:17043   */\n      0x45524332303a207472616e7366657220746f20746865207a65726f2061646472\n        /* \"#utility.yul\":17005:17006   */\n      0x00\n        /* \"#utility.yul\":16997:17003   */\n      dup3\n        /* \"#utility.yul\":16993:17007   */\n      add\n        /* \"#utility.yul\":16986:17044   */\n      mstore\n        /* \"#utility.yul\":17078:17083   */\n      0x6573730000000000000000000000000000000000000000000000000000000000\n        /* \"#utility.yul\":17073:17075   */\n      0x20\n        /* \"#utility.yul\":17065:17071   */\n      dup3\n        /* \"#utility.yul\":17061:17076   */\n      add\n        /* \"#utility.yul\":17054:17084   */\n      mstore\n        /* \"#utility.yul\":16869:17091   */\n      pop\n      jump\t// out\n        /* \"#utility.yul\":17097:17463   */\n    tag_310:\n        /* \"#utility.yul\":17239:17242   */\n      0x00\n        /* \"#utility.yul\":17260:17327   */\n      tag_495\n        /* \"#utility.yul\":17324:17326   */\n      0x23\n        /* \"#utility.yul\":17319:17322   */\n      dup4\n        /* \"#utility.yul\":17260:17327   */\n      tag_269\n      jump\t// in\n    tag_495:\n        /* \"#utility.yul\":17253:17327   */\n      swap2\n      pop\n        /* \"#utility.yul\":17336:17429   */\n      tag_496\n        /* \"#utility.yul\":17425:17428   */\n      dup3\n        /* \"#utility.yul\":17336:17429   */\n      tag_309\n      jump\t// in\n    tag_496:\n        /* \"#utility.yul\":17454:17456   */\n      0x40\n        /* \"#utility.yul\":17449:17452   */\n      dup3\n        /* \"#utility.yul\":17445:17457   */\n      add\n        /* \"#utility.yul\":17438:17457   */\n      swap1\n      pop\n        /* \"#utility.yul\":17097:17463   */\n      swap2\n      swap1\n      pop\n      jump\t// out\n        /* \"#utility.yul\":17469:17888   */\n    tag_210:\n        /* \"#utility.yul\":17635:17639   */\n      0x00\n        /* \"#utility.yul\":17673:17675   */\n      0x20\n        /* \"#utility.yul\":17662:17671   */\n      dup3\n        /* \"#utility.yul\":17658:17676   */\n      add\n        /* \"#utility.yul\":17650:17676   */\n      swap1\n      pop\n        /* \"#utility.yul\":17722:17731   */\n      dup2\n        /* \"#utility.yul\":17716:17720   */\n      dup2\n        /* \"#utility.yul\":17712:17732   */\n      sub\n        /* \"#utility.yul\":17708:17709   */\n      0x00\n        /* \"#utility.yul\":17697:17706   */\n      dup4\n        /* \"#utility.yul\":17693:17710   */\n      add\n        /* \"#utility.yul\":17686:17733   */\n      mstore\n        /* \"#utility.yul\":17750:17881   */\n      tag_498\n        /* \"#utility.yul\":17876:17880   */\n      dup2\n        /* \"#utility.yul\":17750:17881   */\n      tag_310\n      jump\t// in\n    tag_498:\n        /* \"#utility.yul\":17742:17881   */\n      swap1\n      pop\n        /* \"#utility.yul\":17469:17888   */\n      swap2\n      swap1\n      pop\n      jump\t// out\n        /* \"#utility.yul\":17894:18119   */\n    tag_311:\n        /* \"#utility.yul\":18034:18068   */\n      0x45524332303a207472616e7366657220616d6f756e7420657863656564732062\n        /* \"#utility.yul\":18030:18031   */\n      0x00\n        /* \"#utility.yul\":18022:18028   */\n      dup3\n        /* \"#utility.yul\":18018:18032   */\n      add\n        /* \"#utility.yul\":18011:18069   */\n      mstore\n        /* \"#utility.yul\":18103:18111   */\n      0x616c616e63650000000000000000000000000000000000000000000000000000\n        /* \"#utility.yul\":18098:18100   */\n      0x20\n        /* \"#utility.yul\":18090:18096   */\n      dup3\n        /* \"#utility.yul\":18086:18101   */\n      add\n        /* \"#utility.yul\":18079:18112   */\n      mstore\n        /* \"#utility.yul\":17894:18119   */\n      pop\n      jump\t// out\n        /* \"#utility.yul\":18125:18491   */\n    tag_312:\n        /* \"#utility.yul\":18267:18270   */\n      0x00\n        /* \"#utility.yul\":18288:18355   */\n      tag_501\n        /* \"#utility.yul\":18352:18354   */\n      0x26\n        /* \"#utility.yul\":18347:18350   */\n      dup4\n        /* \"#utility.yul\":18288:18355   */\n      tag_269\n      jump\t// in\n    tag_501:\n        /* \"#utility.yul\":18281:18355   */\n      swap2\n      pop\n        /* \"#utility.yul\":18364:18457   */\n      tag_502\n        /* \"#utility.yul\":18453:18456   */\n      dup3\n        /* \"#utility.yul\":18364:18457   */\n      tag_311\n      jump\t// in\n    tag_502:\n        /* \"#utility.yul\":18482:18484   */\n      0x40\n        /* \"#utility.yul\":18477:18480   */\n      dup3\n        /* \"#utility.yul\":18473:18485   */\n      add\n        /* \"#utility.yul\":18466:18485   */\n      swap1\n      pop\n        /* \"#utility.yul\":18125:18491   */\n      swap2\n      swap1\n      pop\n      jump\t// out\n        /* \"#utility.yul\":18497:18916   */\n    tag_215:\n        /* \"#utility.yul\":18663:18667   */\n      0x00\n        /* \"#utility.yul\":18701:18703   */\n      0x20\n        /* \"#utility.yul\":18690:18699   */\n      dup3\n        /* \"#utility.yul\":18686:18704   */\n      add\n        /* \"#utility.yul\":18678:18704   */\n      swap1\n      pop\n        /* \"#utility.yul\":18750:18759   */\n      dup2\n        /* \"#utility.yul\":18744:18748   */\n      dup2\n        /* \"#utility.yul\":18740:18760   */\n      sub\n        /* \"#utility.yul\":18736:18737   */\n      0x00\n        /* \"#utility.yul\":18725:18734   */\n      dup4\n        /* \"#utility.yul\":18721:18738   */\n      add\n        /* \"#utility.yul\":18714:18761   */\n      mstore\n        /* \"#utility.yul\":18778:18909   */\n      tag_504\n        /* \"#utility.yul\":18904:18908   */\n      dup2\n        /* \"#utility.yul\":18778:18909   */\n      tag_312\n      jump\t// in\n    tag_504:\n        /* \"#utility.yul\":18770:18909   */\n      swap1\n      pop\n        /* \"#utility.yul\":18497:18916   */\n      swap2\n      swap1\n      pop\n      jump\t// out\n        /* \"#utility.yul\":18922:19088   */\n    tag_313:\n        /* \"#utility.yul\":19062:19080   */\n      0x5061757361626c653a2070617573656400000000000000000000000000000000\n        /* \"#utility.yul\":19058:19059   */\n      0x00\n        /* \"#utility.yul\":19050:19056   */\n      dup3\n        /* \"#utility.yul\":19046:19060   */\n      add\n        /* \"#utility.yul\":19039:19081   */\n      mstore\n        /* \"#utility.yul\":18922:19088   */\n      pop\n      jump\t// out\n        /* \"#utility.yul\":19094:19460   */\n    tag_314:\n        /* \"#utility.yul\":19236:19239   */\n      0x00\n        /* \"#utility.yul\":19257:19324   */\n      tag_507\n        /* \"#utility.yul\":19321:19323   */\n      0x10\n        /* \"#utility.yul\":19316:19319   */\n      dup4\n        /* \"#utility.yul\":19257:19324   */\n      tag_269\n      jump\t// in\n    tag_507:\n        /* \"#utility.yul\":19250:19324   */\n      swap2\n      pop\n        /* \"#utility.yul\":19333:19426   */\n      tag_508\n        /* \"#utility.yul\":19422:19425   */\n      dup3\n        /* \"#utility.yul\":19333:19426   */\n      tag_313\n      jump\t// in\n    tag_508:\n        /* \"#utility.yul\":19451:19453   */\n      0x20\n        /* \"#utility.yul\":19446:19449   */\n      dup3\n        /* \"#utility.yul\":19442:19454   */\n      add\n        /* \"#utility.yul\":19435:19454   */\n      swap1\n      pop\n        /* \"#utility.yul\":19094:19460   */\n      swap2\n      swap1\n      pop\n      jump\t// out\n        /* \"#utility.yul\":19466:19885   */\n    tag_223:\n        /* \"#utility.yul\":19632:19636   */\n      0x00\n        /* \"#utility.yul\":19670:19672   */\n      0x20\n        /* \"#utility.yul\":19659:19668   */\n      dup3\n        /* \"#utility.yul\":19655:19673   */\n      add\n        /* \"#utility.yul\":19647:19673   */\n      swap1\n      pop\n        /* \"#utility.yul\":19719:19728   */\n      dup2\n        /* \"#utility.yul\":19713:19717   */\n      dup2\n        /* \"#utility.yul\":19709:19729   */\n      sub\n        /* \"#utility.yul\":19705:19706   */\n      0x00\n        /* \"#utility.yul\":19694:19703   */\n      dup4\n        /* \"#utility.yul\":19690:19707   */\n      add\n        /* \"#utility.yul\":19683:19730   */\n      mstore\n        /* \"#utility.yul\":19747:19878   */\n      tag_510\n        /* \"#utility.yul\":19873:19877   */\n      dup2\n        /* \"#utility.yul\":19747:19878   */\n      tag_314\n      jump\t// in\n    tag_510:\n        /* \"#utility.yul\":19739:19878   */\n      swap1\n      pop\n        /* \"#utility.yul\":19466:19885   */\n      swap2\n      swap1\n      pop\n      jump\t// out\n        /* \"#utility.yul\":19891:20111   */\n    tag_315:\n        /* \"#utility.yul\":20031:20065   */\n      0x45524332303a206275726e2066726f6d20746865207a65726f20616464726573\n        /* \"#utility.yul\":20027:20028   */\n      0x00\n        /* \"#utility.yul\":20019:20025   */\n      dup3\n        /* \"#utility.yul\":20015:20029   */\n      add\n        /* \"#utility.yul\":20008:20066   */\n      mstore\n        /* \"#utility.yul\":20100:20103   */\n      0x7300000000000000000000000000000000000000000000000000000000000000\n        /* \"#utility.yul\":20095:20097   */\n      0x20\n        /* \"#utility.yul\":20087:20093   */\n      dup3\n        /* \"#utility.yul\":20083:20098   */\n      add\n        /* \"#utility.yul\":20076:20104   */\n      mstore\n        /* \"#utility.yul\":19891:20111   */\n      pop\n      jump\t// out\n        /* \"#utility.yul\":20117:20483   */\n    tag_316:\n        /* \"#utility.yul\":20259:20262   */\n      0x00\n        /* \"#utility.yul\":20280:20347   */\n      tag_513\n        /* \"#utility.yul\":20344:20346   */\n      0x21\n        /* \"#utility.yul\":20339:20342   */\n      dup4\n        /* \"#utility.yul\":20280:20347   */\n      tag_269\n      jump\t// in\n    tag_513:\n        /* \"#utility.yul\":20273:20347   */\n      swap2\n      pop\n        /* \"#utility.yul\":20356:20449   */\n      tag_514\n        /* \"#utility.yul\":20445:20448   */\n      dup3\n        /* \"#utility.yul\":20356:20449   */\n      tag_315\n      jump\t// in\n    tag_514:\n        /* \"#utility.yul\":20474:20476   */\n      0x40\n        /* \"#utility.yul\":20469:20472   */\n      dup3\n        /* \"#utility.yul\":20465:20477   */\n      add\n        /* \"#utility.yul\":20458:20477   */\n      swap1\n      pop\n        /* \"#utility.yul\":20117:20483   */\n      swap2\n      swap1\n      pop\n      jump\t// out\n        /* \"#utility.yul\":20489:20908   */\n    tag_227:\n        /* \"#utility.yul\":20655:20659   */\n      0x00\n        /* \"#utility.yul\":20693:20695   */\n      0x20\n        /* \"#utility.yul\":20682:20691   */\n      dup3\n        /* \"#utility.yul\":20678:20696   */\n      add\n        /* \"#utility.yul\":20670:20696   */\n      swap1\n      pop\n        /* \"#utility.yul\":20742:20751   */\n      dup2\n        /* \"#utility.yul\":20736:20740   */\n      dup2\n        /* \"#utility.yul\":20732:20752   */\n      sub\n        /* \"#utility.yul\":20728:20729   */\n      0x00\n        /* \"#utility.yul\":20717:20726   */\n      dup4\n        /* \"#utility.yul\":20713:20730   */\n      add\n        /* \"#utility.yul\":20706:20753   */\n      mstore\n        /* \"#utility.yul\":20770:20901   */\n      tag_516\n        /* \"#utility.yul\":20896:20900   */\n      dup2\n        /* \"#utility.yul\":20770:20901   */\n      tag_316\n      jump\t// in\n    tag_516:\n        /* \"#utility.yul\":20762:20901   */\n      swap1\n      pop\n        /* \"#utility.yul\":20489:20908   */\n      swap2\n      swap1\n      pop\n      jump\t// out\n        /* \"#utility.yul\":20914:21135   */\n    tag_317:\n        /* \"#utility.yul\":21054:21088   */\n      0x45524332303a206275726e20616d6f756e7420657863656564732062616c616e\n        /* \"#utility.yul\":21050:21051   */\n      0x00\n        /* \"#utility.yul\":21042:21048   */\n      dup3\n        /* \"#utility.yul\":21038:21052   */\n      add\n        /* \"#utility.yul\":21031:21089   */\n      mstore\n        /* \"#utility.yul\":21123:21127   */\n      0x6365000000000000000000000000000000000000000000000000000000000000\n        /* \"#utility.yul\":21118:21120   */\n      0x20\n        /* \"#utility.yul\":21110:21116   */\n      dup3\n        /* \"#utility.yul\":21106:21121   */\n      add\n        /* \"#utility.yul\":21099:21128   */\n      mstore\n        /* \"#utility.yul\":20914:21135   */\n      pop\n      jump\t// out\n        /* \"#utility.yul\":21141:21507   */\n    tag_318:\n        /* \"#utility.yul\":21283:21286   */\n      0x00\n        /* \"#utility.yul\":21304:21371   */\n      tag_519\n        /* \"#utility.yul\":21368:21370   */\n      0x22\n        /* \"#utility.yul\":21363:21366   */\n      dup4\n        /* \"#utility.yul\":21304:21371   */\n      tag_269\n      jump\t// in\n    tag_519:\n        /* \"#utility.yul\":21297:21371   */\n      swap2\n      pop\n        /* \"#utility.yul\":21380:21473   */\n      tag_520\n        /* \"#utility.yul\":21469:21472   */\n      dup3\n        /* \"#utility.yul\":21380:21473   */\n      tag_317\n      jump\t// in\n    tag_520:\n        /* \"#utility.yul\":21498:21500   */\n      0x40\n        /* \"#utility.yul\":21493:21496   */\n      dup3\n        /* \"#utility.yul\":21489:21501   */\n      add\n        /* \"#utility.yul\":21482:21501   */\n      swap1\n      pop\n        /* \"#utility.yul\":21141:21507   */\n      swap2\n      swap1\n      pop\n      jump\t// out\n        /* \"#utility.yul\":21513:21932   */\n    tag_231:\n        /* \"#utility.yul\":21679:21683   */\n      0x00\n        /* \"#utility.yul\":21717:21719   */\n      0x20\n        /* \"#utility.yul\":21706:21715   */\n      dup3\n        /* \"#utility.yul\":21702:21720   */\n      add\n        /* \"#utility.yul\":21694:21720   */\n      swap1\n      pop\n        /* \"#utility.yul\":21766:21775   */\n      dup2\n        /* \"#utility.yul\":21760:21764   */\n      dup2\n        /* \"#utility.yul\":21756:21776   */\n      sub\n        /* \"#utility.yul\":21752:21753   */\n      0x00\n        /* \"#utility.yul\":21741:21750   */\n      dup4\n        /* \"#utility.yul\":21737:21754   */\n      add\n        /* \"#utility.yul\":21730:21777   */\n      mstore\n        /* \"#utility.yul\":21794:21925   */\n      tag_522\n        /* \"#utility.yul\":21920:21924   */\n      dup2\n        /* \"#utility.yul\":21794:21925   */\n      tag_318\n      jump\t// in\n    tag_522:\n        /* \"#utility.yul\":21786:21925   */\n      swap1\n      pop\n        /* \"#utility.yul\":21513:21932   */\n      swap2\n      swap1\n      pop\n      jump\t// out\n        /* \"#utility.yul\":21938:22119   */\n    tag_319:\n        /* \"#utility.yul\":22078:22111   */\n      0x45524332303a206d696e7420746f20746865207a65726f206164647265737300\n        /* \"#utility.yul\":22074:22075   */\n      0x00\n        /* \"#utility.yul\":22066:22072   */\n      dup3\n        /* \"#utility.yul\":22062:22076   */\n      add\n        /* \"#utility.yul\":22055:22112   */\n      mstore\n        /* \"#utility.yul\":21938:22119   */\n      pop\n      jump\t// out\n        /* \"#utility.yul\":22125:22491   */\n    tag_320:\n        /* \"#utility.yul\":22267:22270   */\n      0x00\n        /* \"#utility.yul\":22288:22355   */\n      tag_525\n        /* \"#utility.yul\":22352:22354   */\n      0x1f\n        /* \"#utility.yul\":22347:22350   */\n      dup4\n        /* \"#utility.yul\":22288:22355   */\n      tag_269\n      jump\t// in\n    tag_525:\n        /* \"#utility.yul\":22281:22355   */\n      swap2\n      pop\n        /* \"#utility.yul\":22364:22457   */\n      tag_526\n        /* \"#utility.yul\":22453:22456   */\n      dup3\n        /* \"#utility.yul\":22364:22457   */\n      tag_319\n      jump\t// in\n    tag_526:\n        /* \"#utility.yul\":22482:22484   */\n      0x20\n        /* \"#utility.yul\":22477:22480   */\n      dup3\n        /* \"#utility.yul\":22473:22485   */\n      add\n        /* \"#utility.yul\":22466:22485   */\n      swap1\n      pop\n        /* \"#utility.yul\":22125:22491   */\n      swap2\n      swap1\n      pop\n      jump\t// out\n        /* \"#utility.yul\":22497:22916   */\n    tag_237:\n        /* \"#utility.yul\":22663:22667   */\n      0x00\n        /* \"#utility.yul\":22701:22703   */\n      0x20\n        /* \"#utility.yul\":22690:22699   */\n      dup3\n        /* \"#utility.yul\":22686:22704   */\n      add\n        /* \"#utility.yul\":22678:22704   */\n      swap1\n      pop\n        /* \"#utility.yul\":22750:22759   */\n      dup2\n        /* \"#utility.yul\":22744:22748   */\n      dup2\n        /* \"#utility.yul\":22740:22760   */\n      sub\n        /* \"#utility.yul\":22736:22737   */\n      0x00\n        /* \"#utility.yul\":22725:22734   */\n      dup4\n        /* \"#utility.yul\":22721:22738   */\n      add\n        /* \"#utility.yul\":22714:22761   */\n      mstore\n        /* \"#utility.yul\":22778:22909   */\n      tag_528\n        /* \"#utility.yul\":22904:22908   */\n      dup2\n        /* \"#utility.yul\":22778:22909   */\n      tag_320\n      jump\t// in\n    tag_528:\n        /* \"#utility.yul\":22770:22909   */\n      swap1\n      pop\n        /* \"#utility.yul\":22497:22916   */\n      swap2\n      swap1\n      pop\n      jump\t// out\n        /* \"#utility.yul\":22922:23040   */\n    tag_321:\n        /* \"#utility.yul\":23009:23033   */\n      tag_530\n        /* \"#utility.yul\":23027:23032   */\n      dup2\n        /* \"#utility.yul\":23009:23033   */\n      tag_279\n      jump\t// in\n    tag_530:\n        /* \"#utility.yul\":23004:23007   */\n      dup3\n        /* \"#utility.yul\":22997:23034   */\n      mstore\n        /* \"#utility.yul\":22922:23040   */\n      pop\n      pop\n      jump\t// out\n        /* \"#utility.yul\":23046:23268   */\n    tag_247:\n        /* \"#utility.yul\":23139:23143   */\n      0x00\n        /* \"#utility.yul\":23177:23179   */\n      0x20\n        /* \"#utility.yul\":23166:23175   */\n      dup3\n        /* \"#utility.yul\":23162:23180   */\n      add\n        /* \"#utility.yul\":23154:23180   */\n      swap1\n      pop\n        /* \"#utility.yul\":23190:23261   */\n      tag_532\n        /* \"#utility.yul\":23258:23259   */\n      0x00\n        /* \"#utility.yul\":23247:23256   */\n      dup4\n        /* \"#utility.yul\":23243:23260   */\n      add\n        /* \"#utility.yul\":23234:23240   */\n      dup5\n        /* \"#utility.yul\":23190:23261   */\n      tag_321\n      jump\t// in\n    tag_532:\n        /* \"#utility.yul\":23046:23268   */\n      swap3\n      swap2\n      pop\n      pop\n      jump\t// out\n        /* \"#utility.yul\":23274:23503   */\n    tag_322:\n        /* \"#utility.yul\":23414:23448   */\n      0x45524332305061757361626c653a20746f6b656e207472616e73666572207768\n        /* \"#utility.yul\":23410:23411   */\n      0x00\n        /* \"#utility.yul\":23402:23408   */\n      dup3\n        /* \"#utility.yul\":23398:23412   */\n      add\n        /* \"#utility.yul\":23391:23449   */\n      mstore\n        /* \"#utility.yul\":23483:23495   */\n      0x696c652070617573656400000000000000000000000000000000000000000000\n        /* \"#utility.yul\":23478:23480   */\n      0x20\n        /* \"#utility.yul\":23470:23476   */\n      dup3\n        /* \"#utility.yul\":23466:23481   */\n      add\n        /* \"#utility.yul\":23459:23496   */\n      mstore\n        /* \"#utility.yul\":23274:23503   */\n      pop\n      jump\t// out\n        /* \"#utility.yul\":23509:23875   */\n    tag_323:\n        /* \"#utility.yul\":23651:23654   */\n      0x00\n        /* \"#utility.yul\":23672:23739   */\n      tag_535\n        /* \"#utility.yul\":23736:23738   */\n      0x2a\n        /* \"#utility.yul\":23731:23734   */\n      dup4\n        /* \"#utility.yul\":23672:23739   */\n      tag_269\n      jump\t// in\n    tag_535:\n        /* \"#utility.yul\":23665:23739   */\n      swap2\n      pop\n        /* \"#utility.yul\":23748:23841   */\n      tag_536\n        /* \"#utility.yul\":23837:23840   */\n      dup3\n        /* \"#utility.yul\":23748:23841   */\n      tag_322\n      jump\t// in\n    tag_536:\n        /* \"#utility.yul\":23866:23868   */\n      0x40\n        /* \"#utility.yul\":23861:23864   */\n      dup3\n        /* \"#utility.yul\":23857:23869   */\n      add\n        /* \"#utility.yul\":23850:23869   */\n      swap1\n      pop\n        /* \"#utility.yul\":23509:23875   */\n      swap2\n      swap1\n      pop\n      jump\t// out\n        /* \"#utility.yul\":23881:24300   */\n    tag_260:\n        /* \"#utility.yul\":24047:24051   */\n      0x00\n        /* \"#utility.yul\":24085:24087   */\n      0x20\n        /* \"#utility.yul\":24074:24083   */\n      dup3\n        /* \"#utility.yul\":24070:24088   */\n      add\n        /* \"#utility.yul\":24062:24088   */\n      swap1\n      pop\n        /* \"#utility.yul\":24134:24143   */\n      dup2\n        /* \"#utility.yul\":24128:24132   */\n      dup2\n        /* \"#utility.yul\":24124:24144   */\n      sub\n        /* \"#utility.yul\":24120:24121   */\n      0x00\n        /* \"#utility.yul\":24109:24118   */\n      dup4\n        /* \"#utility.yul\":24105:24122   */\n      add\n        /* \"#utility.yul\":24098:24145   */\n      mstore\n        /* \"#utility.yul\":24162:24293   */\n      tag_538\n        /* \"#utility.yul\":24288:24292   */\n      dup2\n        /* \"#utility.yul\":24162:24293   */\n      tag_323\n      jump\t// in\n    tag_538:\n        /* \"#utility.yul\":24154:24293   */\n      swap1\n      pop\n        /* \"#utility.yul\":23881:24300   */\n      swap2\n      swap1\n      pop\n      jump\t// out\n        /* \"#utility.yul\":24306:24476   */\n    tag_324:\n        /* \"#utility.yul\":24446:24468   */\n      0x5061757361626c653a206e6f7420706175736564000000000000000000000000\n        /* \"#utility.yul\":24442:24443   */\n      0x00\n        /* \"#utility.yul\":24434:24440   */\n      dup3\n        /* \"#utility.yul\":24430:24444   */\n      add\n        /* \"#utility.yul\":24423:24469   */\n      mstore\n        /* \"#utility.yul\":24306:24476   */\n      pop\n      jump\t// out\n        /* \"#utility.yul\":24482:24848   */\n    tag_325:\n        /* \"#utility.yul\":24624:24627   */\n      0x00\n        /* \"#utility.yul\":24645:24712   */\n      tag_541\n        /* \"#utility.yul\":24709:24711   */\n      0x14\n        /* \"#utility.yul\":24704:24707   */\n      dup4\n        /* \"#utility.yul\":24645:24712   */\n      tag_269\n      jump\t// in\n    tag_541:\n        /* \"#utility.yul\":24638:24712   */\n      swap2\n      pop\n        /* \"#utility.yul\":24721:24814   */\n      tag_542\n        /* \"#utility.yul\":24810:24813   */\n      dup3\n        /* \"#utility.yul\":24721:24814   */\n      tag_324\n      jump\t// in\n    tag_542:\n        /* \"#utility.yul\":24839:24841   */\n      0x20\n        /* \"#utility.yul\":24834:24837   */\n      dup3\n        /* \"#utility.yul\":24830:24842   */\n      add\n        /* \"#utility.yul\":24823:24842   */\n      swap1\n      pop\n        /* \"#utility.yul\":24482:24848   */\n      swap2\n      swap1\n      pop\n      jump\t// out\n        /* \"#utility.yul\":24854:25273   */\n    tag_266:\n        /* \"#utility.yul\":25020:25024   */\n      0x00\n        /* \"#utility.yul\":25058:25060   */\n      0x20\n        /* \"#utility.yul\":25047:25056   */\n      dup3\n        /* \"#utility.yul\":25043:25061   */\n      add\n        /* \"#utility.yul\":25035:25061   */\n      swap1\n      pop\n        /* \"#utility.yul\":25107:25116   */\n      dup2\n        /* \"#utility.yul\":25101:25105   */\n      dup2\n        /* \"#utility.yul\":25097:25117   */\n      sub\n        /* \"#utility.yul\":25093:25094   */\n      0x00\n        /* \"#utility.yul\":25082:25091   */\n      dup4\n        /* \"#utility.yul\":25078:25095   */\n      add\n        /* \"#utility.yul\":25071:25118   */\n      mstore\n        /* \"#utility.yul\":25135:25266   */\n      tag_544\n        /* \"#utility.yul\":25261:25265   */\n      dup2\n        /* \"#utility.yul\":25135:25266   */\n      tag_325\n      jump\t// in\n    tag_544:\n        /* \"#utility.yul\":25127:25266   */\n      swap1\n      pop\n        /* \"#utility.yul\":24854:25273   */\n      swap2\n      swap1\n      pop\n      jump\t// out\n\n    auxdata: 0xa2646970667358221220e0628f489063f9613288fb5e40a29ebe6d0270b2cd09814424bfda6c6a43555c64736f6c63430008110033\n}\n",
				"bytecode": {
					"linkReferences": {},
					"object": "60806040523480156200001157600080fd5b5060026040518060400160405280600d81526020017f555344537461626c65436f696e000000000000000000000000000000000000008152506040518060400160405280600381526020017f555343000000000000000000000000000000000000000000000000000000000081525081600390816200009191906200039e565b508060049081620000a391906200039e565b5050506000600560006101000a81548160ff02191690831515021790555033600560016101000a81548173ffffffffffffffffffffffffffffffffffffffff021916908373ffffffffffffffffffffffffffffffffffffffff16021790555080600560156101000a81548160ff021916908360ff1602179055505062000485565b600081519050919050565b7f4e487b7100000000000000000000000000000000000000000000000000000000600052604160045260246000fd5b7f4e487b7100000000000000000000000000000000000000000000000000000000600052602260045260246000fd5b60006002820490506001821680620001a657607f821691505b602082108103620001bc57620001bb6200015e565b5b50919050565b60008190508160005260206000209050919050565b60006020601f8301049050919050565b600082821b905092915050565b600060088302620002267fffffffffffffffffffffffffffffffffffffffffffffffffffffffffffffffff82620001e7565b620002328683620001e7565b95508019841693508086168417925050509392505050565b6000819050919050565b6000819050919050565b60006200027f6200027962000273846200024a565b62000254565b6200024a565b9050919050565b6000819050919050565b6200029b836200025e565b620002b3620002aa8262000286565b848454620001f4565b825550505050565b600090565b620002ca620002bb565b620002d781848462000290565b505050565b5b81811015620002ff57620002f3600082620002c0565b600181019050620002dd565b5050565b601f8211156200034e576200031881620001c2565b6200032384620001d7565b8101602085101562000333578190505b6200034b6200034285620001d7565b830182620002dc565b50505b505050565b600082821c905092915050565b6000620003736000198460080262000353565b1980831691505092915050565b60006200038e838362000360565b9150826002028217905092915050565b620003a98262000124565b67ffffffffffffffff811115620003c557620003c46200012f565b5b620003d182546200018d565b620003de82828562000303565b600060209050601f83116001811462000416576000841562000401578287015190505b6200040d858262000380565b8655506200047d565b601f1984166200042686620001c2565b60005b82811015620004505784890151825560018201915060208501945060208101905062000429565b868310156200047057848901516200046c601f89168262000360565b8355505b6001600288020188555050505b505050505050565b61221380620004956000396000f3fe608060405234801561001057600080fd5b50600436106101215760003560e01c80636ecd2306116100ad578063a457c2d711610071578063a457c2d7146102e6578063a9059cbb14610316578063b2bdfa7b14610346578063dcbdac3014610364578063dd62ed3e1461038257610121565b80636ecd23061461026857806370a08231146102845780638456cb59146102b457806395d89b41146102be578063a41a016a146102dc57610121565b806323b872dd116100f457806323b872dd146101b0578063313ce567146101e057806339509351146101fe57806342966c681461022e5780635c975abb1461024a57610121565b806306fdde031461012657806307d4902014610144578063095ea7b31461016257806318160ddd14610192575b600080fd5b61012e6103b2565b60405161013b91906114b8565b60405180910390f35b61014c610444565b60405161015991906114f3565b60405180910390f35b61017c6004803603810190610177919061159d565b610476565b60405161018991906115f8565b60405180910390f35b61019a610499565b6040516101a791906114f3565b60405180910390f35b6101ca60048036038101906101c59190611613565b6104a3565b6040516101d791906115f8565b60405180910390f35b6101e86104d2565b6040516101f59190611682565b60405180910390f35b6102186004803603810190610213919061159d565b6104e9565b60405161022591906115f8565b60405180910390f35b6102486004803603810190610243919061169d565b610520565b005b6102526105f9565b60405161025f91906115f8565b60405180910390f35b610282600480360381019061027d91906116f6565b610610565b005b61029e60048036038101906102999190611723565b6106ec565b6040516102ab91906114f3565b60405180910390f35b6102bc610734565b005b6102c66107db565b6040516102d391906114b8565b60405180910390f35b6102e461086d565b005b61030060048036038101906102fb919061159d565b610915565b60405161030d91906115f8565b60405180910390f35b610330600480360381019061032b919061159d565b61098c565b60405161033d91906115f8565b60405180910390f35b61034e6109af565b60405161035b9190611771565b60405180910390f35b61036c6109d5565b60405161037991906114f3565b60405180910390f35b61039c6004803603810190610397919061178c565b6109f0565b6040516103a991906114f3565b60405180910390f35b6060600380546103c1906117fb565b80601f01602080910402602001604051908101604052809291908181526020018280546103ed906117fb565b801561043a5780601f1061040f5761010080835404028352916020019161043a565b820191906000526020600020905b81548152906001019060200180831161041d57829003601f168201915b5050505050905090565b6000610471600560019054906101000a900473ffffffffffffffffffffffffffffffffffffffff166106ec565b905090565b600080610481610a77565b905061048e818585610a7f565b600191505092915050565b6000600254905090565b6000806104ae610a77565b90506104bb858285610c48565b6104c6858585610cd4565b60019150509392505050565b6000600560159054906101000a900460ff16905090565b6000806104f4610a77565b905061051581858561050685896109f0565b610510919061185b565b610a7f565b600191505092915050565b600560019054906101000a900473ffffffffffffffffffffffffffffffffffffffff1673ffffffffffffffffffffffffffffffffffffffff163373ffffffffffffffffffffffffffffffffffffffff16146105b0576040517f08c379a00000000000000000000000000000000000000000000000000000000081526004016105a790611901565b60405180910390fd5b6105b8610f4a565b6105f6600560019054906101000a900473ffffffffffffffffffffffffffffffffffffffff166105e66109d5565b836105f19190611921565b610f94565b50565b6000600560009054906101000a900460ff16905090565b600560019054906101000a900473ffffffffffffffffffffffffffffffffffffffff1673ffffffffffffffffffffffffffffffffffffffff163373ffffffffffffffffffffffffffffffffffffffff16146106a0576040517f08c379a000000000000000000000000000000000000000000000000000000000815260040161069790611901565b60405180910390fd5b6106a8610f4a565b6106e9600560019054906101000a900473ffffffffffffffffffffffffffffffffffffffff166106d66109d5565b8360ff166106e49190611921565b611161565b50565b60008060008373ffffffffffffffffffffffffffffffffffffffff1673ffffffffffffffffffffffffffffffffffffffff168152602001908152602001600020549050919050565b600560019054906101000a900473ffffffffffffffffffffffffffffffffffffffff1673ffffffffffffffffffffffffffffffffffffffff163373ffffffffffffffffffffffffffffffffffffffff16146107c4576040517f08c379a00000000000000000000000000000000000000000000000000000000081526004016107bb90611901565b60405180910390fd5b6107cc6105f9565b6107d9576107d86112b7565b5b565b6060600480546107ea906117fb565b80601f0160208091040260200160405190810160405280929190818152602001828054610816906117fb565b80156108635780601f1061083857610100808354040283529160200191610863565b820191906000526020600020905b81548152906001019060200180831161084657829003601f168201915b5050505050905090565b600560019054906101000a900473ffffffffffffffffffffffffffffffffffffffff1673ffffffffffffffffffffffffffffffffffffffff163373ffffffffffffffffffffffffffffffffffffffff16146108fd576040517f08c379a00000000000000000000000000000000000000000000000000000000081526004016108f490611901565b60405180910390fd5b6109056105f9565b156109135761091261131a565b5b565b600080610920610a77565b9050600061092e82866109f0565b905083811015610973576040517f08c379a000000000000000000000000000000000000000000000000000000000815260040161096a906119d5565b60405180910390fd5b6109808286868403610a7f565b60019250505092915050565b600080610997610a77565b90506109a4818585610cd4565b600191505092915050565b600560019054906101000a900473ffffffffffffffffffffffffffffffffffffffff1681565b60006109df6104d2565b600a6109eb9190611b28565b905090565b6000600160008473ffffffffffffffffffffffffffffffffffffffff1673ffffffffffffffffffffffffffffffffffffffff16815260200190815260200160002060008373ffffffffffffffffffffffffffffffffffffffff1673ffffffffffffffffffffffffffffffffffffffff16815260200190815260200160002054905092915050565b600033905090565b600073ffffffffffffffffffffffffffffffffffffffff168373ffffffffffffffffffffffffffffffffffffffff1603610aee576040517f08c379a0000000000000000000000000000000000000000000000000000000008152600401610ae590611be5565b60405180910390fd5b600073ffffffffffffffffffffffffffffffffffffffff168273ffffffffffffffffffffffffffffffffffffffff1603610b5d576040517f08c379a0000000000000000000000000000000000000000000000000000000008152600401610b5490611c77565b60405180910390fd5b80600160008573ffffffffffffffffffffffffffffffffffffffff1673ffffffffffffffffffffffffffffffffffffffff16815260200190815260200160002060008473ffffffffffffffffffffffffffffffffffffffff1673ffffffffffffffffffffffffffffffffffffffff168152602001908152602001600020819055508173ffffffffffffffffffffffffffffffffffffffff168373ffffffffffffffffffffffffffffffffffffffff167f8c5be1e5ebec7d5bd14f71427d1e84f3dd0314c0f7b2291e5b200ac8c7c3b92583604051610c3b91906114f3565b60405180910390a3505050565b6000610c5484846109f0565b90507fffffffffffffffffffffffffffffffffffffffffffffffffffffffffffffffff8114610cce5781811015610cc0576040517f08c379a0000000000000000000000000000000000000000000000000000000008152600401610cb790611ce3565b60405180910390fd5b610ccd8484848403610a7f565b5b50505050565b600073ffffffffffffffffffffffffffffffffffffffff168373ffffffffffffffffffffffffffffffffffffffff1603610d43576040517f08c379a0000000000000000000000000000000000000000000000000000000008152600401610d3a90611d75565b60405180910390fd5b600073ffffffffffffffffffffffffffffffffffffffff168273ffffffffffffffffffffffffffffffffffffffff1603610db2576040517f08c379a0000000000000000000000000000000000000000000000000000000008152600401610da990611e07565b60405180910390fd5b610dbd83838361137d565b60008060008573ffffffffffffffffffffffffffffffffffffffff1673ffffffffffffffffffffffffffffffffffffffff16815260200190815260200160002054905081811015610e43576040517f08c379a0000000000000000000000000000000000000000000000000000000008152600401610e3a90611e99565b60405180910390fd5b8181036000808673ffffffffffffffffffffffffffffffffffffffff1673ffffffffffffffffffffffffffffffffffffffff16815260200190815260200160002081905550816000808573ffffffffffffffffffffffffffffffffffffffff1673ffffffffffffffffffffffffffffffffffffffff168152602001908152602001600020600082825401925050819055508273ffffffffffffffffffffffffffffffffffffffff168473ffffffffffffffffffffffffffffffffffffffff167fddf252ad1be2c89b69c2b068fc378daa952ba7f163c4a11628f55a4df523b3ef84604051610f3191906114f3565b60405180910390a3610f448484846113d5565b50505050565b610f526105f9565b15610f92576040517f08c379a0000000000000000000000000000000000000000000000000000000008152600401610f8990611f05565b60405180910390fd5b565b600073ffffffffffffffffffffffffffffffffffffffff168273ffffffffffffffffffffffffffffffffffffffff1603611003576040517f08c379a0000000000000000000000000000000000000000000000000000000008152600401610ffa90611f97565b60405180910390fd5b61100f8260008361137d565b60008060008473ffffffffffffffffffffffffffffffffffffffff1673ffffffffffffffffffffffffffffffffffffffff16815260200190815260200160002054905081811015611095576040517f08c379a000000000000000000000000000000000000000000000000000000000815260040161108c90612029565b60405180910390fd5b8181036000808573ffffffffffffffffffffffffffffffffffffffff1673ffffffffffffffffffffffffffffffffffffffff1681526020019081526020016000208190555081600260008282540392505081905550600073ffffffffffffffffffffffffffffffffffffffff168373ffffffffffffffffffffffffffffffffffffffff167fddf252ad1be2c89b69c2b068fc378daa952ba7f163c4a11628f55a4df523b3ef8460405161114891906114f3565b60405180910390a361115c836000846113d5565b505050565b600073ffffffffffffffffffffffffffffffffffffffff168273ffffffffffffffffffffffffffffffffffffffff16036111d0576040517f08c379a00000000000000000000000000000000000000000000000000000000081526004016111c790612095565b60405180910390fd5b6111dc6000838361137d565b80600260008282546111ee919061185b565b92505081905550806000808473ffffffffffffffffffffffffffffffffffffffff1673ffffffffffffffffffffffffffffffffffffffff168152602001908152602001600020600082825401925050819055508173ffffffffffffffffffffffffffffffffffffffff16600073ffffffffffffffffffffffffffffffffffffffff167fddf252ad1be2c89b69c2b068fc378daa952ba7f163c4a11628f55a4df523b3ef8360405161129f91906114f3565b60405180910390a36112b3600083836113d5565b5050565b6112bf610f4a565b6001600560006101000a81548160ff0219169083151502179055507f62e78cea01bee320cd4e420270b5ea74000d11b0c9f74754ebdbfc544b05a258611303610a77565b60405161131091906120c4565b60405180910390a1565b6113226113da565b6000600560006101000a81548160ff0219169083151502179055507f5db9ee0a495bf2e6ff9c91a7834c1ba4fdd244a5e8aa4e537bd38aeae4b073aa611366610a77565b60405161137391906120c4565b60405180910390a1565b611388838383611423565b6113906105f9565b156113d0576040517f08c379a00000000000000000000000000000000000000000000000000000000081526004016113c790612151565b60405180910390fd5b505050565b505050565b6113e26105f9565b611421576040517f08c379a0000000000000000000000000000000000000000000000000000000008152600401611418906121bd565b60405180910390fd5b565b505050565b600081519050919050565b600082825260208201905092915050565b60005b83811015611462578082015181840152602081019050611447565b60008484015250505050565b6000601f19601f8301169050919050565b600061148a82611428565b6114948185611433565b93506114a4818560208601611444565b6114ad8161146e565b840191505092915050565b600060208201905081810360008301526114d2818461147f565b905092915050565b6000819050919050565b6114ed816114da565b82525050565b600060208201905061150860008301846114e4565b92915050565b600080fd5b600073ffffffffffffffffffffffffffffffffffffffff82169050919050565b600061153e82611513565b9050919050565b61154e81611533565b811461155957600080fd5b50565b60008135905061156b81611545565b92915050565b61157a816114da565b811461158557600080fd5b50565b60008135905061159781611571565b92915050565b600080604083850312156115b4576115b361150e565b5b60006115c28582860161155c565b92505060206115d385828601611588565b9150509250929050565b60008115159050919050565b6115f2816115dd565b82525050565b600060208201905061160d60008301846115e9565b92915050565b60008060006060848603121561162c5761162b61150e565b5b600061163a8682870161155c565b935050602061164b8682870161155c565b925050604061165c86828701611588565b9150509250925092565b600060ff82169050919050565b61167c81611666565b82525050565b60006020820190506116976000830184611673565b92915050565b6000602082840312156116b3576116b261150e565b5b60006116c184828501611588565b91505092915050565b6116d381611666565b81146116de57600080fd5b50565b6000813590506116f0816116ca565b92915050565b60006020828403121561170c5761170b61150e565b5b600061171a848285016116e1565b91505092915050565b6000602082840312156117395761173861150e565b5b60006117478482850161155c565b91505092915050565b600061175b82611513565b9050919050565b61176b81611750565b82525050565b60006020820190506117866000830184611762565b92915050565b600080604083850312156117a3576117a261150e565b5b60006117b18582860161155c565b92505060206117c28582860161155c565b9150509250929050565b7f4e487b7100000000000000000000000000000000000000000000000000000000600052602260045260246000fd5b6000600282049050600182168061181357607f821691505b602082108103611826576118256117cc565b5b50919050565b7f4e487b7100000000000000000000000000000000000000000000000000000000600052601160045260246000fd5b6000611866826114da565b9150611871836114da565b92508282019050808211156118895761188861182c565b5b92915050565b7f4f6e6c7920746865206f776e65722063616e2063616c6c20746869732066756e60008201527f6374696f6e000000000000000000000000000000000000000000000000000000602082015250565b60006118eb602583611433565b91506118f68261188f565b604082019050919050565b6000602082019050818103600083015261191a816118de565b9050919050565b600061192c826114da565b9150611937836114da565b9250828202611945816114da565b9150828204841483151761195c5761195b61182c565b5b5092915050565b7f45524332303a2064656372656173656420616c6c6f77616e63652062656c6f7760008201527f207a65726f000000000000000000000000000000000000000000000000000000602082015250565b60006119bf602583611433565b91506119ca82611963565b604082019050919050565b600060208201905081810360008301526119ee816119b2565b9050919050565b60008160011c9050919050565b6000808291508390505b6001851115611a4c57808604811115611a2857611a2761182c565b5b6001851615611a375780820291505b8081029050611a45856119f5565b9450611a0c565b94509492505050565b600082611a655760019050611b21565b81611a735760009050611b21565b8160018114611a895760028114611a9357611ac2565b6001915050611b21565b60ff841115611aa557611aa461182c565b5b8360020a915084821115611abc57611abb61182c565b5b50611b21565b5060208310610133831016604e8410600b8410161715611af75782820a905083811115611af257611af161182c565b5b611b21565b611b048484846001611a02565b92509050818404811115611b1b57611b1a61182c565b5b81810290505b9392505050565b6000611b33826114da565b9150611b3e83611666565b9250611b6b7fffffffffffffffffffffffffffffffffffffffffffffffffffffffffffffffff8484611a55565b905092915050565b7f45524332303a20617070726f76652066726f6d20746865207a65726f2061646460008201527f7265737300000000000000000000000000000000000000000000000000000000602082015250565b6000611bcf602483611433565b9150611bda82611b73565b604082019050919050565b60006020820190508181036000830152611bfe81611bc2565b9050919050565b7f45524332303a20617070726f766520746f20746865207a65726f20616464726560008201527f7373000000000000000000000000000000000000000000000000000000000000602082015250565b6000611c61602283611433565b9150611c6c82611c05565b604082019050919050565b60006020820190508181036000830152611c9081611c54565b9050919050565b7f45524332303a20696e73756666696369656e7420616c6c6f77616e6365000000600082015250565b6000611ccd601d83611433565b9150611cd882611c97565b602082019050919050565b60006020820190508181036000830152611cfc81611cc0565b9050919050565b7f45524332303a207472616e736665722066726f6d20746865207a65726f20616460008201527f6472657373000000000000000000000000000000000000000000000000000000602082015250565b6000611d5f602583611433565b9150611d6a82611d03565b604082019050919050565b60006020820190508181036000830152611d8e81611d52565b9050919050565b7f45524332303a207472616e7366657220746f20746865207a65726f206164647260008201527f6573730000000000000000000000000000000000000000000000000000000000602082015250565b6000611df1602383611433565b9150611dfc82611d95565b604082019050919050565b60006020820190508181036000830152611e2081611de4565b9050919050565b7f45524332303a207472616e7366657220616d6f756e742065786365656473206260008201527f616c616e63650000000000000000000000000000000000000000000000000000602082015250565b6000611e83602683611433565b9150611e8e82611e27565b604082019050919050565b60006020820190508181036000830152611eb281611e76565b9050919050565b7f5061757361626c653a2070617573656400000000000000000000000000000000600082015250565b6000611eef601083611433565b9150611efa82611eb9565b602082019050919050565b60006020820190508181036000830152611f1e81611ee2565b9050919050565b7f45524332303a206275726e2066726f6d20746865207a65726f2061646472657360008201527f7300000000000000000000000000000000000000000000000000000000000000602082015250565b6000611f81602183611433565b9150611f8c82611f25565b604082019050919050565b60006020820190508181036000830152611fb081611f74565b9050919050565b7f45524332303a206275726e20616d6f756e7420657863656564732062616c616e60008201527f6365000000000000000000000000000000000000000000000000000000000000602082015250565b6000612013602283611433565b915061201e82611fb7565b604082019050919050565b6000602082019050818103600083015261204281612006565b9050919050565b7f45524332303a206d696e7420746f20746865207a65726f206164647265737300600082015250565b600061207f601f83611433565b915061208a82612049565b602082019050919050565b600060208201905081810360008301526120ae81612072565b9050919050565b6120be81611533565b82525050565b60006020820190506120d960008301846120b5565b92915050565b7f45524332305061757361626c653a20746f6b656e207472616e7366657220776860008201527f696c652070617573656400000000000000000000000000000000000000000000602082015250565b600061213b602a83611433565b9150612146826120df565b604082019050919050565b6000602082019050818103600083015261216a8161212e565b9050919050565b7f5061757361626c653a206e6f7420706175736564000000000000000000000000600082015250565b60006121a7601483611433565b91506121b282612171565b602082019050919050565b600060208201905081810360008301526121d68161219a565b905091905056fea2646970667358221220e0628f489063f9613288fb5e40a29ebe6d0270b2cd09814424bfda6c6a43555c64736f6c63430008110033",
					"opcodes": "PUSH1 0x80 PUSH1 0x40 MSTORE CALLVALUE DUP1 ISZERO PUSH3 0x11 JUMPI PUSH1 0x0 DUP1 REVERT JUMPDEST POP PUSH1 0x2 PUSH1 0x40 MLOAD DUP1 PUSH1 0x40 ADD PUSH1 0x40 MSTORE DUP1 PUSH1 0xD DUP2 MSTORE PUSH1 0x20 ADD PUSH32 0x555344537461626C65436F696E00000000000000000000000000000000000000 DUP2 MSTORE POP PUSH1 0x40 MLOAD DUP1 PUSH1 0x40 ADD PUSH1 0x40 MSTORE DUP1 PUSH1 0x3 DUP2 MSTORE PUSH1 0x20 ADD PUSH32 0x5553430000000000000000000000000000000000000000000000000000000000 DUP2 MSTORE POP DUP2 PUSH1 0x3 SWAP1 DUP2 PUSH3 0x91 SWAP2 SWAP1 PUSH3 0x39E JUMP JUMPDEST POP DUP1 PUSH1 0x4 SWAP1 DUP2 PUSH3 0xA3 SWAP2 SWAP1 PUSH3 0x39E JUMP JUMPDEST POP POP POP PUSH1 0x0 PUSH1 0x5 PUSH1 0x0 PUSH2 0x100 EXP DUP2 SLOAD DUP2 PUSH1 0xFF MUL NOT AND SWAP1 DUP4 ISZERO ISZERO MUL OR SWAP1 SSTORE POP CALLER PUSH1 0x5 PUSH1 0x1 PUSH2 0x100 EXP DUP2 SLOAD DUP2 PUSH20 0xFFFFFFFFFFFFFFFFFFFFFFFFFFFFFFFFFFFFFFFF MUL NOT AND SWAP1 DUP4 PUSH20 0xFFFFFFFFFFFFFFFFFFFFFFFFFFFFFFFFFFFFFFFF AND MUL OR SWAP1 SSTORE POP DUP1 PUSH1 0x5 PUSH1 0x15 PUSH2 0x100 EXP DUP2 SLOAD DUP2 PUSH1 0xFF MUL NOT AND SWAP1 DUP4 PUSH1 0xFF AND MUL OR SWAP1 SSTORE POP POP PUSH3 0x485 JUMP JUMPDEST PUSH1 0x0 DUP2 MLOAD SWAP1 POP SWAP2 SWAP1 POP JUMP JUMPDEST PUSH32 0x4E487B7100000000000000000000000000000000000000000000000000000000 PUSH1 0x0 MSTORE PUSH1 0x41 PUSH1 0x4 MSTORE PUSH1 0x24 PUSH1 0x0 REVERT JUMPDEST PUSH32 0x4E487B7100000000000000000000000000000000000000000000000000000000 PUSH1 0x0 MSTORE PUSH1 0x22 PUSH1 0x4 MSTORE PUSH1 0x24 PUSH1 0x0 REVERT JUMPDEST PUSH1 0x0 PUSH1 0x2 DUP3 DIV SWAP1 POP PUSH1 0x1 DUP3 AND DUP1 PUSH3 0x1A6 JUMPI PUSH1 0x7F DUP3 AND SWAP2 POP JUMPDEST PUSH1 0x20 DUP3 LT DUP2 SUB PUSH3 0x1BC JUMPI PUSH3 0x1BB PUSH3 0x15E JUMP JUMPDEST JUMPDEST POP SWAP2 SWAP1 POP JUMP JUMPDEST PUSH1 0x0 DUP2 SWAP1 POP DUP2 PUSH1 0x0 MSTORE PUSH1 0x20 PUSH1 0x0 KECCAK256 SWAP1 POP SWAP2 SWAP1 POP JUMP JUMPDEST PUSH1 0x0 PUSH1 0x20 PUSH1 0x1F DUP4 ADD DIV SWAP1 POP SWAP2 SWAP1 POP JUMP JUMPDEST PUSH1 0x0 DUP3 DUP3 SHL SWAP1 POP SWAP3 SWAP2 POP POP JUMP JUMPDEST PUSH1 0x0 PUSH1 0x8 DUP4 MUL PUSH3 0x226 PUSH32 0xFFFFFFFFFFFFFFFFFFFFFFFFFFFFFFFFFFFFFFFFFFFFFFFFFFFFFFFFFFFFFFFF DUP3 PUSH3 0x1E7 JUMP JUMPDEST PUSH3 0x232 DUP7 DUP4 PUSH3 0x1E7 JUMP JUMPDEST SWAP6 POP DUP1 NOT DUP5 AND SWAP4 POP DUP1 DUP7 AND DUP5 OR SWAP3 POP POP POP SWAP4 SWAP3 POP POP POP JUMP JUMPDEST PUSH1 0x0 DUP2 SWAP1 POP SWAP2 SWAP1 POP JUMP JUMPDEST PUSH1 0x0 DUP2 SWAP1 POP SWAP2 SWAP1 POP JUMP JUMPDEST PUSH1 0x0 PUSH3 0x27F PUSH3 0x279 PUSH3 0x273 DUP5 PUSH3 0x24A JUMP JUMPDEST PUSH3 0x254 JUMP JUMPDEST PUSH3 0x24A JUMP JUMPDEST SWAP1 POP SWAP2 SWAP1 POP JUMP JUMPDEST PUSH1 0x0 DUP2 SWAP1 POP SWAP2 SWAP1 POP JUMP JUMPDEST PUSH3 0x29B DUP4 PUSH3 0x25E JUMP JUMPDEST PUSH3 0x2B3 PUSH3 0x2AA DUP3 PUSH3 0x286 JUMP JUMPDEST DUP5 DUP5 SLOAD PUSH3 0x1F4 JUMP JUMPDEST DUP3 SSTORE POP POP POP POP JUMP JUMPDEST PUSH1 0x0 SWAP1 JUMP JUMPDEST PUSH3 0x2CA PUSH3 0x2BB JUMP JUMPDEST PUSH3 0x2D7 DUP2 DUP5 DUP5 PUSH3 0x290 JUMP JUMPDEST POP POP POP JUMP JUMPDEST JUMPDEST DUP2 DUP2 LT ISZERO PUSH3 0x2FF JUMPI PUSH3 0x2F3 PUSH1 0x0 DUP3 PUSH3 0x2C0 JUMP JUMPDEST PUSH1 0x1 DUP2 ADD SWAP1 POP PUSH3 0x2DD JUMP JUMPDEST POP POP JUMP JUMPDEST PUSH1 0x1F DUP3 GT ISZERO PUSH3 0x34E JUMPI PUSH3 0x318 DUP2 PUSH3 0x1C2 JUMP JUMPDEST PUSH3 0x323 DUP5 PUSH3 0x1D7 JUMP JUMPDEST DUP2 ADD PUSH1 0x20 DUP6 LT ISZERO PUSH3 0x333 JUMPI DUP2 SWAP1 POP JUMPDEST PUSH3 0x34B PUSH3 0x342 DUP6 PUSH3 0x1D7 JUMP JUMPDEST DUP4 ADD DUP3 PUSH3 0x2DC JUMP JUMPDEST POP POP JUMPDEST POP POP POP JUMP JUMPDEST PUSH1 0x0 DUP3 DUP3 SHR SWAP1 POP SWAP3 SWAP2 POP POP JUMP JUMPDEST PUSH1 0x0 PUSH3 0x373 PUSH1 0x0 NOT DUP5 PUSH1 0x8 MUL PUSH3 0x353 JUMP JUMPDEST NOT DUP1 DUP4 AND SWAP2 POP POP SWAP3 SWAP2 POP POP JUMP JUMPDEST PUSH1 0x0 PUSH3 0x38E DUP4 DUP4 PUSH3 0x360 JUMP JUMPDEST SWAP2 POP DUP3 PUSH1 0x2 MUL DUP3 OR SWAP1 POP SWAP3 SWAP2 POP POP JUMP JUMPDEST PUSH3 0x3A9 DUP3 PUSH3 0x124 JUMP JUMPDEST PUSH8 0xFFFFFFFFFFFFFFFF DUP2 GT ISZERO PUSH3 0x3C5 JUMPI PUSH3 0x3C4 PUSH3 0x12F JUMP JUMPDEST JUMPDEST PUSH3 0x3D1 DUP3 SLOAD PUSH3 0x18D JUMP JUMPDEST PUSH3 0x3DE DUP3 DUP3 DUP6 PUSH3 0x303 JUMP JUMPDEST PUSH1 0x0 PUSH1 0x20 SWAP1 POP PUSH1 0x1F DUP4 GT PUSH1 0x1 DUP2 EQ PUSH3 0x416 JUMPI PUSH1 0x0 DUP5 ISZERO PUSH3 0x401 JUMPI DUP3 DUP8 ADD MLOAD SWAP1 POP JUMPDEST PUSH3 0x40D DUP6 DUP3 PUSH3 0x380 JUMP JUMPDEST DUP7 SSTORE POP PUSH3 0x47D JUMP JUMPDEST PUSH1 0x1F NOT DUP5 AND PUSH3 0x426 DUP7 PUSH3 0x1C2 JUMP JUMPDEST PUSH1 0x0 JUMPDEST DUP3 DUP2 LT ISZERO PUSH3 0x450 JUMPI DUP5 DUP10 ADD MLOAD DUP3 SSTORE PUSH1 0x1 DUP3 ADD SWAP2 POP PUSH1 0x20 DUP6 ADD SWAP5 POP PUSH1 0x20 DUP2 ADD SWAP1 POP PUSH3 0x429 JUMP JUMPDEST DUP7 DUP4 LT ISZERO PUSH3 0x470 JUMPI DUP5 DUP10 ADD MLOAD PUSH3 0x46C PUSH1 0x1F DUP10 AND DUP3 PUSH3 0x360 JUMP JUMPDEST DUP4 SSTORE POP JUMPDEST PUSH1 0x1 PUSH1 0x2 DUP9 MUL ADD DUP9 SSTORE POP POP POP JUMPDEST POP POP POP POP POP POP JUMP JUMPDEST PUSH2 0x2213 DUP1 PUSH3 0x495 PUSH1 0x0 CODECOPY PUSH1 0x0 RETURN INVALID PUSH1 0x80 PUSH1 0x40 MSTORE CALLVALUE DUP1 ISZERO PUSH2 0x10 JUMPI PUSH1 0x0 DUP1 REVERT JUMPDEST POP PUSH1 0x4 CALLDATASIZE LT PUSH2 0x121 JUMPI PUSH1 0x0 CALLDATALOAD PUSH1 0xE0 SHR DUP1 PUSH4 0x6ECD2306 GT PUSH2 0xAD JUMPI DUP1 PUSH4 0xA457C2D7 GT PUSH2 0x71 JUMPI DUP1 PUSH4 0xA457C2D7 EQ PUSH2 0x2E6 JUMPI DUP1 PUSH4 0xA9059CBB EQ PUSH2 0x316 JUMPI DUP1 PUSH4 0xB2BDFA7B EQ PUSH2 0x346 JUMPI DUP1 PUSH4 0xDCBDAC30 EQ PUSH2 0x364 JUMPI DUP1 PUSH4 0xDD62ED3E EQ PUSH2 0x382 JUMPI PUSH2 0x121 JUMP JUMPDEST DUP1 PUSH4 0x6ECD2306 EQ PUSH2 0x268 JUMPI DUP1 PUSH4 0x70A08231 EQ PUSH2 0x284 JUMPI DUP1 PUSH4 0x8456CB59 EQ PUSH2 0x2B4 JUMPI DUP1 PUSH4 0x95D89B41 EQ PUSH2 0x2BE JUMPI DUP1 PUSH4 0xA41A016A EQ PUSH2 0x2DC JUMPI PUSH2 0x121 JUMP JUMPDEST DUP1 PUSH4 0x23B872DD GT PUSH2 0xF4 JUMPI DUP1 PUSH4 0x23B872DD EQ PUSH2 0x1B0 JUMPI DUP1 PUSH4 0x313CE567 EQ PUSH2 0x1E0 JUMPI DUP1 PUSH4 0x39509351 EQ PUSH2 0x1FE JUMPI DUP1 PUSH4 0x42966C68 EQ PUSH2 0x22E JUMPI DUP1 PUSH4 0x5C975ABB EQ PUSH2 0x24A JUMPI PUSH2 0x121 JUMP JUMPDEST DUP1 PUSH4 0x6FDDE03 EQ PUSH2 0x126 JUMPI DUP1 PUSH4 0x7D49020 EQ PUSH2 0x144 JUMPI DUP1 PUSH4 0x95EA7B3 EQ PUSH2 0x162 JUMPI DUP1 PUSH4 0x18160DDD EQ PUSH2 0x192 JUMPI JUMPDEST PUSH1 0x0 DUP1 REVERT JUMPDEST PUSH2 0x12E PUSH2 0x3B2 JUMP JUMPDEST PUSH1 0x40 MLOAD PUSH2 0x13B SWAP2 SWAP1 PUSH2 0x14B8 JUMP JUMPDEST PUSH1 0x40 MLOAD DUP1 SWAP2 SUB SWAP1 RETURN JUMPDEST PUSH2 0x14C PUSH2 0x444 JUMP JUMPDEST PUSH1 0x40 MLOAD PUSH2 0x159 SWAP2 SWAP1 PUSH2 0x14F3 JUMP JUMPDEST PUSH1 0x40 MLOAD DUP1 SWAP2 SUB SWAP1 RETURN JUMPDEST PUSH2 0x17C PUSH1 0x4 DUP1 CALLDATASIZE SUB DUP2 ADD SWAP1 PUSH2 0x177 SWAP2 SWAP1 PUSH2 0x159D JUMP JUMPDEST PUSH2 0x476 JUMP JUMPDEST PUSH1 0x40 MLOAD PUSH2 0x189 SWAP2 SWAP1 PUSH2 0x15F8 JUMP JUMPDEST PUSH1 0x40 MLOAD DUP1 SWAP2 SUB SWAP1 RETURN JUMPDEST PUSH2 0x19A PUSH2 0x499 JUMP JUMPDEST PUSH1 0x40 MLOAD PUSH2 0x1A7 SWAP2 SWAP1 PUSH2 0x14F3 JUMP JUMPDEST PUSH1 0x40 MLOAD DUP1 SWAP2 SUB SWAP1 RETURN JUMPDEST PUSH2 0x1CA PUSH1 0x4 DUP1 CALLDATASIZE SUB DUP2 ADD SWAP1 PUSH2 0x1C5 SWAP2 SWAP1 PUSH2 0x1613 JUMP JUMPDEST PUSH2 0x4A3 JUMP JUMPDEST PUSH1 0x40 MLOAD PUSH2 0x1D7 SWAP2 SWAP1 PUSH2 0x15F8 JUMP JUMPDEST PUSH1 0x40 MLOAD DUP1 SWAP2 SUB SWAP1 RETURN JUMPDEST PUSH2 0x1E8 PUSH2 0x4D2 JUMP JUMPDEST PUSH1 0x40 MLOAD PUSH2 0x1F5 SWAP2 SWAP1 PUSH2 0x1682 JUMP JUMPDEST PUSH1 0x40 MLOAD DUP1 SWAP2 SUB SWAP1 RETURN JUMPDEST PUSH2 0x218 PUSH1 0x4 DUP1 CALLDATASIZE SUB DUP2 ADD SWAP1 PUSH2 0x213 SWAP2 SWAP1 PUSH2 0x159D JUMP JUMPDEST PUSH2 0x4E9 JUMP JUMPDEST PUSH1 0x40 MLOAD PUSH2 0x225 SWAP2 SWAP1 PUSH2 0x15F8 JUMP JUMPDEST PUSH1 0x40 MLOAD DUP1 SWAP2 SUB SWAP1 RETURN JUMPDEST PUSH2 0x248 PUSH1 0x4 DUP1 CALLDATASIZE SUB DUP2 ADD SWAP1 PUSH2 0x243 SWAP2 SWAP1 PUSH2 0x169D JUMP JUMPDEST PUSH2 0x520 JUMP JUMPDEST STOP JUMPDEST PUSH2 0x252 PUSH2 0x5F9 JUMP JUMPDEST PUSH1 0x40 MLOAD PUSH2 0x25F SWAP2 SWAP1 PUSH2 0x15F8 JUMP JUMPDEST PUSH1 0x40 MLOAD DUP1 SWAP2 SUB SWAP1 RETURN JUMPDEST PUSH2 0x282 PUSH1 0x4 DUP1 CALLDATASIZE SUB DUP2 ADD SWAP1 PUSH2 0x27D SWAP2 SWAP1 PUSH2 0x16F6 JUMP JUMPDEST PUSH2 0x610 JUMP JUMPDEST STOP JUMPDEST PUSH2 0x29E PUSH1 0x4 DUP1 CALLDATASIZE SUB DUP2 ADD SWAP1 PUSH2 0x299 SWAP2 SWAP1 PUSH2 0x1723 JUMP JUMPDEST PUSH2 0x6EC JUMP JUMPDEST PUSH1 0x40 MLOAD PUSH2 0x2AB SWAP2 SWAP1 PUSH2 0x14F3 JUMP JUMPDEST PUSH1 0x40 MLOAD DUP1 SWAP2 SUB SWAP1 RETURN JUMPDEST PUSH2 0x2BC PUSH2 0x734 JUMP JUMPDEST STOP JUMPDEST PUSH2 0x2C6 PUSH2 0x7DB JUMP JUMPDEST PUSH1 0x40 MLOAD PUSH2 0x2D3 SWAP2 SWAP1 PUSH2 0x14B8 JUMP JUMPDEST PUSH1 0x40 MLOAD DUP1 SWAP2 SUB SWAP1 RETURN JUMPDEST PUSH2 0x2E4 PUSH2 0x86D JUMP JUMPDEST STOP JUMPDEST PUSH2 0x300 PUSH1 0x4 DUP1 CALLDATASIZE SUB DUP2 ADD SWAP1 PUSH2 0x2FB SWAP2 SWAP1 PUSH2 0x159D JUMP JUMPDEST PUSH2 0x915 JUMP JUMPDEST PUSH1 0x40 MLOAD PUSH2 0x30D SWAP2 SWAP1 PUSH2 0x15F8 JUMP JUMPDEST PUSH1 0x40 MLOAD DUP1 SWAP2 SUB SWAP1 RETURN JUMPDEST PUSH2 0x330 PUSH1 0x4 DUP1 CALLDATASIZE SUB DUP2 ADD SWAP1 PUSH2 0x32B SWAP2 SWAP1 PUSH2 0x159D JUMP JUMPDEST PUSH2 0x98C JUMP JUMPDEST PUSH1 0x40 MLOAD PUSH2 0x33D SWAP2 SWAP1 PUSH2 0x15F8 JUMP JUMPDEST PUSH1 0x40 MLOAD DUP1 SWAP2 SUB SWAP1 RETURN JUMPDEST PUSH2 0x34E PUSH2 0x9AF JUMP JUMPDEST PUSH1 0x40 MLOAD PUSH2 0x35B SWAP2 SWAP1 PUSH2 0x1771 JUMP JUMPDEST PUSH1 0x40 MLOAD DUP1 SWAP2 SUB SWAP1 RETURN JUMPDEST PUSH2 0x36C PUSH2 0x9D5 JUMP JUMPDEST PUSH1 0x40 MLOAD PUSH2 0x379 SWAP2 SWAP1 PUSH2 0x14F3 JUMP JUMPDEST PUSH1 0x40 MLOAD DUP1 SWAP2 SUB SWAP1 RETURN JUMPDEST PUSH2 0x39C PUSH1 0x4 DUP1 CALLDATASIZE SUB DUP2 ADD SWAP1 PUSH2 0x397 SWAP2 SWAP1 PUSH2 0x178C JUMP JUMPDEST PUSH2 0x9F0 JUMP JUMPDEST PUSH1 0x40 MLOAD PUSH2 0x3A9 SWAP2 SWAP1 PUSH2 0x14F3 JUMP JUMPDEST PUSH1 0x40 MLOAD DUP1 SWAP2 SUB SWAP1 RETURN JUMPDEST PUSH1 0x60 PUSH1 0x3 DUP1 SLOAD PUSH2 0x3C1 SWAP1 PUSH2 0x17FB JUMP JUMPDEST DUP1 PUSH1 0x1F ADD PUSH1 0x20 DUP1 SWAP2 DIV MUL PUSH1 0x20 ADD PUSH1 0x40 MLOAD SWAP1 DUP2 ADD PUSH1 0x40 MSTORE DUP1 SWAP3 SWAP2 SWAP1 DUP2 DUP2 MSTORE PUSH1 0x20 ADD DUP3 DUP1 SLOAD PUSH2 0x3ED SWAP1 PUSH2 0x17FB JUMP JUMPDEST DUP1 ISZERO PUSH2 0x43A JUMPI DUP1 PUSH1 0x1F LT PUSH2 0x40F JUMPI PUSH2 0x100 DUP1 DUP4 SLOAD DIV MUL DUP4 MSTORE SWAP2 PUSH1 0x20 ADD SWAP2 PUSH2 0x43A JUMP JUMPDEST DUP3 ADD SWAP2 SWAP1 PUSH1 0x0 MSTORE PUSH1 0x20 PUSH1 0x0 KECCAK256 SWAP1 JUMPDEST DUP2 SLOAD DUP2 MSTORE SWAP1 PUSH1 0x1 ADD SWAP1 PUSH1 0x20 ADD DUP1 DUP4 GT PUSH2 0x41D JUMPI DUP3 SWAP1 SUB PUSH1 0x1F AND DUP3 ADD SWAP2 JUMPDEST POP POP POP POP POP SWAP1 POP SWAP1 JUMP JUMPDEST PUSH1 0x0 PUSH2 0x471 PUSH1 0x5 PUSH1 0x1 SWAP1 SLOAD SWAP1 PUSH2 0x100 EXP SWAP1 DIV PUSH20 0xFFFFFFFFFFFFFFFFFFFFFFFFFFFFFFFFFFFFFFFF AND PUSH2 0x6EC JUMP JUMPDEST SWAP1 POP SWAP1 JUMP JUMPDEST PUSH1 0x0 DUP1 PUSH2 0x481 PUSH2 0xA77 JUMP JUMPDEST SWAP1 POP PUSH2 0x48E DUP2 DUP6 DUP6 PUSH2 0xA7F JUMP JUMPDEST PUSH1 0x1 SWAP2 POP POP SWAP3 SWAP2 POP POP JUMP JUMPDEST PUSH1 0x0 PUSH1 0x2 SLOAD SWAP1 POP SWAP1 JUMP JUMPDEST PUSH1 0x0 DUP1 PUSH2 0x4AE PUSH2 0xA77 JUMP JUMPDEST SWAP1 POP PUSH2 0x4BB DUP6 DUP3 DUP6 PUSH2 0xC48 JUMP JUMPDEST PUSH2 0x4C6 DUP6 DUP6 DUP6 PUSH2 0xCD4 JUMP JUMPDEST PUSH1 0x1 SWAP2 POP POP SWAP4 SWAP3 POP POP POP JUMP JUMPDEST PUSH1 0x0 PUSH1 0x5 PUSH1 0x15 SWAP1 SLOAD SWAP1 PUSH2 0x100 EXP SWAP1 DIV PUSH1 0xFF AND SWAP1 POP SWAP1 JUMP JUMPDEST PUSH1 0x0 DUP1 PUSH2 0x4F4 PUSH2 0xA77 JUMP JUMPDEST SWAP1 POP PUSH2 0x515 DUP2 DUP6 DUP6 PUSH2 0x506 DUP6 DUP10 PUSH2 0x9F0 JUMP JUMPDEST PUSH2 0x510 SWAP2 SWAP1 PUSH2 0x185B JUMP JUMPDEST PUSH2 0xA7F JUMP JUMPDEST PUSH1 0x1 SWAP2 POP POP SWAP3 SWAP2 POP POP JUMP JUMPDEST PUSH1 0x5 PUSH1 0x1 SWAP1 SLOAD SWAP1 PUSH2 0x100 EXP SWAP1 DIV PUSH20 0xFFFFFFFFFFFFFFFFFFFFFFFFFFFFFFFFFFFFFFFF AND PUSH20 0xFFFFFFFFFFFFFFFFFFFFFFFFFFFFFFFFFFFFFFFF AND CALLER PUSH20 0xFFFFFFFFFFFFFFFFFFFFFFFFFFFFFFFFFFFFFFFF AND EQ PUSH2 0x5B0 JUMPI PUSH1 0x40 MLOAD PUSH32 0x8C379A000000000000000000000000000000000000000000000000000000000 DUP2 MSTORE PUSH1 0x4 ADD PUSH2 0x5A7 SWAP1 PUSH2 0x1901 JUMP JUMPDEST PUSH1 0x40 MLOAD DUP1 SWAP2 SUB SWAP1 REVERT JUMPDEST PUSH2 0x5B8 PUSH2 0xF4A JUMP JUMPDEST PUSH2 0x5F6 PUSH1 0x5 PUSH1 0x1 SWAP1 SLOAD SWAP1 PUSH2 0x100 EXP SWAP1 DIV PUSH20 0xFFFFFFFFFFFFFFFFFFFFFFFFFFFFFFFFFFFFFFFF AND PUSH2 0x5E6 PUSH2 0x9D5 JUMP JUMPDEST DUP4 PUSH2 0x5F1 SWAP2 SWAP1 PUSH2 0x1921 JUMP JUMPDEST PUSH2 0xF94 JUMP JUMPDEST POP JUMP JUMPDEST PUSH1 0x0 PUSH1 0x5 PUSH1 0x0 SWAP1 SLOAD SWAP1 PUSH2 0x100 EXP SWAP1 DIV PUSH1 0xFF AND SWAP1 POP SWAP1 JUMP JUMPDEST PUSH1 0x5 PUSH1 0x1 SWAP1 SLOAD SWAP1 PUSH2 0x100 EXP SWAP1 DIV PUSH20 0xFFFFFFFFFFFFFFFFFFFFFFFFFFFFFFFFFFFFFFFF AND PUSH20 0xFFFFFFFFFFFFFFFFFFFFFFFFFFFFFFFFFFFFFFFF AND CALLER PUSH20 0xFFFFFFFFFFFFFFFFFFFFFFFFFFFFFFFFFFFFFFFF AND EQ PUSH2 0x6A0 JUMPI PUSH1 0x40 MLOAD PUSH32 0x8C379A000000000000000000000000000000000000000000000000000000000 DUP2 MSTORE PUSH1 0x4 ADD PUSH2 0x697 SWAP1 PUSH2 0x1901 JUMP JUMPDEST PUSH1 0x40 MLOAD DUP1 SWAP2 SUB SWAP1 REVERT JUMPDEST PUSH2 0x6A8 PUSH2 0xF4A JUMP JUMPDEST PUSH2 0x6E9 PUSH1 0x5 PUSH1 0x1 SWAP1 SLOAD SWAP1 PUSH2 0x100 EXP SWAP1 DIV PUSH20 0xFFFFFFFFFFFFFFFFFFFFFFFFFFFFFFFFFFFFFFFF AND PUSH2 0x6D6 PUSH2 0x9D5 JUMP JUMPDEST DUP4 PUSH1 0xFF AND PUSH2 0x6E4 SWAP2 SWAP1 PUSH2 0x1921 JUMP JUMPDEST PUSH2 0x1161 JUMP JUMPDEST POP JUMP JUMPDEST PUSH1 0x0 DUP1 PUSH1 0x0 DUP4 PUSH20 0xFFFFFFFFFFFFFFFFFFFFFFFFFFFFFFFFFFFFFFFF AND PUSH20 0xFFFFFFFFFFFFFFFFFFFFFFFFFFFFFFFFFFFFFFFF AND DUP2 MSTORE PUSH1 0x20 ADD SWAP1 DUP2 MSTORE PUSH1 0x20 ADD PUSH1 0x0 KECCAK256 SLOAD SWAP1 POP SWAP2 SWAP1 POP JUMP JUMPDEST PUSH1 0x5 PUSH1 0x1 SWAP1 SLOAD SWAP1 PUSH2 0x100 EXP SWAP1 DIV PUSH20 0xFFFFFFFFFFFFFFFFFFFFFFFFFFFFFFFFFFFFFFFF AND PUSH20 0xFFFFFFFFFFFFFFFFFFFFFFFFFFFFFFFFFFFFFFFF AND CALLER PUSH20 0xFFFFFFFFFFFFFFFFFFFFFFFFFFFFFFFFFFFFFFFF AND EQ PUSH2 0x7C4 JUMPI PUSH1 0x40 MLOAD PUSH32 0x8C379A000000000000000000000000000000000000000000000000000000000 DUP2 MSTORE PUSH1 0x4 ADD PUSH2 0x7BB SWAP1 PUSH2 0x1901 JUMP JUMPDEST PUSH1 0x40 MLOAD DUP1 SWAP2 SUB SWAP1 REVERT JUMPDEST PUSH2 0x7CC PUSH2 0x5F9 JUMP JUMPDEST PUSH2 0x7D9 JUMPI PUSH2 0x7D8 PUSH2 0x12B7 JUMP JUMPDEST JUMPDEST JUMP JUMPDEST PUSH1 0x60 PUSH1 0x4 DUP1 SLOAD PUSH2 0x7EA SWAP1 PUSH2 0x17FB JUMP JUMPDEST DUP1 PUSH1 0x1F ADD PUSH1 0x20 DUP1 SWAP2 DIV MUL PUSH1 0x20 ADD PUSH1 0x40 MLOAD SWAP1 DUP2 ADD PUSH1 0x40 MSTORE DUP1 SWAP3 SWAP2 SWAP1 DUP2 DUP2 MSTORE PUSH1 0x20 ADD DUP3 DUP1 SLOAD PUSH2 0x816 SWAP1 PUSH2 0x17FB JUMP JUMPDEST DUP1 ISZERO PUSH2 0x863 JUMPI DUP1 PUSH1 0x1F LT PUSH2 0x838 JUMPI PUSH2 0x100 DUP1 DUP4 SLOAD DIV MUL DUP4 MSTORE SWAP2 PUSH1 0x20 ADD SWAP2 PUSH2 0x863 JUMP JUMPDEST DUP3 ADD SWAP2 SWAP1 PUSH1 0x0 MSTORE PUSH1 0x20 PUSH1 0x0 KECCAK256 SWAP1 JUMPDEST DUP2 SLOAD DUP2 MSTORE SWAP1 PUSH1 0x1 ADD SWAP1 PUSH1 0x20 ADD DUP1 DUP4 GT PUSH2 0x846 JUMPI DUP3 SWAP1 SUB PUSH1 0x1F AND DUP3 ADD SWAP2 JUMPDEST POP POP POP POP POP SWAP1 POP SWAP1 JUMP JUMPDEST PUSH1 0x5 PUSH1 0x1 SWAP1 SLOAD SWAP1 PUSH2 0x100 EXP SWAP1 DIV PUSH20 0xFFFFFFFFFFFFFFFFFFFFFFFFFFFFFFFFFFFFFFFF AND PUSH20 0xFFFFFFFFFFFFFFFFFFFFFFFFFFFFFFFFFFFFFFFF AND CALLER PUSH20 0xFFFFFFFFFFFFFFFFFFFFFFFFFFFFFFFFFFFFFFFF AND EQ PUSH2 0x8FD JUMPI PUSH1 0x40 MLOAD PUSH32 0x8C379A000000000000000000000000000000000000000000000000000000000 DUP2 MSTORE PUSH1 0x4 ADD PUSH2 0x8F4 SWAP1 PUSH2 0x1901 JUMP JUMPDEST PUSH1 0x40 MLOAD DUP1 SWAP2 SUB SWAP1 REVERT JUMPDEST PUSH2 0x905 PUSH2 0x5F9 JUMP JUMPDEST ISZERO PUSH2 0x913 JUMPI PUSH2 0x912 PUSH2 0x131A JUMP JUMPDEST JUMPDEST JUMP JUMPDEST PUSH1 0x0 DUP1 PUSH2 0x920 PUSH2 0xA77 JUMP JUMPDEST SWAP1 POP PUSH1 0x0 PUSH2 0x92E DUP3 DUP7 PUSH2 0x9F0 JUMP JUMPDEST SWAP1 POP DUP4 DUP2 LT ISZERO PUSH2 0x973 JUMPI PUSH1 0x40 MLOAD PUSH32 0x8C379A000000000000000000000000000000000000000000000000000000000 DUP2 MSTORE PUSH1 0x4 ADD PUSH2 0x96A SWAP1 PUSH2 0x19D5 JUMP JUMPDEST PUSH1 0x40 MLOAD DUP1 SWAP2 SUB SWAP1 REVERT JUMPDEST PUSH2 0x980 DUP3 DUP7 DUP7 DUP5 SUB PUSH2 0xA7F JUMP JUMPDEST PUSH1 0x1 SWAP3 POP POP POP SWAP3 SWAP2 POP POP JUMP JUMPDEST PUSH1 0x0 DUP1 PUSH2 0x997 PUSH2 0xA77 JUMP JUMPDEST SWAP1 POP PUSH2 0x9A4 DUP2 DUP6 DUP6 PUSH2 0xCD4 JUMP JUMPDEST PUSH1 0x1 SWAP2 POP POP SWAP3 SWAP2 POP POP JUMP JUMPDEST PUSH1 0x5 PUSH1 0x1 SWAP1 SLOAD SWAP1 PUSH2 0x100 EXP SWAP1 DIV PUSH20 0xFFFFFFFFFFFFFFFFFFFFFFFFFFFFFFFFFFFFFFFF AND DUP2 JUMP JUMPDEST PUSH1 0x0 PUSH2 0x9DF PUSH2 0x4D2 JUMP JUMPDEST PUSH1 0xA PUSH2 0x9EB SWAP2 SWAP1 PUSH2 0x1B28 JUMP JUMPDEST SWAP1 POP SWAP1 JUMP JUMPDEST PUSH1 0x0 PUSH1 0x1 PUSH1 0x0 DUP5 PUSH20 0xFFFFFFFFFFFFFFFFFFFFFFFFFFFFFFFFFFFFFFFF AND PUSH20 0xFFFFFFFFFFFFFFFFFFFFFFFFFFFFFFFFFFFFFFFF AND DUP2 MSTORE PUSH1 0x20 ADD SWAP1 DUP2 MSTORE PUSH1 0x20 ADD PUSH1 0x0 KECCAK256 PUSH1 0x0 DUP4 PUSH20 0xFFFFFFFFFFFFFFFFFFFFFFFFFFFFFFFFFFFFFFFF AND PUSH20 0xFFFFFFFFFFFFFFFFFFFFFFFFFFFFFFFFFFFFFFFF AND DUP2 MSTORE PUSH1 0x20 ADD SWAP1 DUP2 MSTORE PUSH1 0x20 ADD PUSH1 0x0 KECCAK256 SLOAD SWAP1 POP SWAP3 SWAP2 POP POP JUMP JUMPDEST PUSH1 0x0 CALLER SWAP1 POP SWAP1 JUMP JUMPDEST PUSH1 0x0 PUSH20 0xFFFFFFFFFFFFFFFFFFFFFFFFFFFFFFFFFFFFFFFF AND DUP4 PUSH20 0xFFFFFFFFFFFFFFFFFFFFFFFFFFFFFFFFFFFFFFFF AND SUB PUSH2 0xAEE JUMPI PUSH1 0x40 MLOAD PUSH32 0x8C379A000000000000000000000000000000000000000000000000000000000 DUP2 MSTORE PUSH1 0x4 ADD PUSH2 0xAE5 SWAP1 PUSH2 0x1BE5 JUMP JUMPDEST PUSH1 0x40 MLOAD DUP1 SWAP2 SUB SWAP1 REVERT JUMPDEST PUSH1 0x0 PUSH20 0xFFFFFFFFFFFFFFFFFFFFFFFFFFFFFFFFFFFFFFFF AND DUP3 PUSH20 0xFFFFFFFFFFFFFFFFFFFFFFFFFFFFFFFFFFFFFFFF AND SUB PUSH2 0xB5D JUMPI PUSH1 0x40 MLOAD PUSH32 0x8C379A000000000000000000000000000000000000000000000000000000000 DUP2 MSTORE PUSH1 0x4 ADD PUSH2 0xB54 SWAP1 PUSH2 0x1C77 JUMP JUMPDEST PUSH1 0x40 MLOAD DUP1 SWAP2 SUB SWAP1 REVERT JUMPDEST DUP1 PUSH1 0x1 PUSH1 0x0 DUP6 PUSH20 0xFFFFFFFFFFFFFFFFFFFFFFFFFFFFFFFFFFFFFFFF AND PUSH20 0xFFFFFFFFFFFFFFFFFFFFFFFFFFFFFFFFFFFFFFFF AND DUP2 MSTORE PUSH1 0x20 ADD SWAP1 DUP2 MSTORE PUSH1 0x20 ADD PUSH1 0x0 KECCAK256 PUSH1 0x0 DUP5 PUSH20 0xFFFFFFFFFFFFFFFFFFFFFFFFFFFFFFFFFFFFFFFF AND PUSH20 0xFFFFFFFFFFFFFFFFFFFFFFFFFFFFFFFFFFFFFFFF AND DUP2 MSTORE PUSH1 0x20 ADD SWAP1 DUP2 MSTORE PUSH1 0x20 ADD PUSH1 0x0 KECCAK256 DUP2 SWAP1 SSTORE POP DUP2 PUSH20 0xFFFFFFFFFFFFFFFFFFFFFFFFFFFFFFFFFFFFFFFF AND DUP4 PUSH20 0xFFFFFFFFFFFFFFFFFFFFFFFFFFFFFFFFFFFFFFFF AND PUSH32 0x8C5BE1E5EBEC7D5BD14F71427D1E84F3DD0314C0F7B2291E5B200AC8C7C3B925 DUP4 PUSH1 0x40 MLOAD PUSH2 0xC3B SWAP2 SWAP1 PUSH2 0x14F3 JUMP JUMPDEST PUSH1 0x40 MLOAD DUP1 SWAP2 SUB SWAP1 LOG3 POP POP POP JUMP JUMPDEST PUSH1 0x0 PUSH2 0xC54 DUP5 DUP5 PUSH2 0x9F0 JUMP JUMPDEST SWAP1 POP PUSH32 0xFFFFFFFFFFFFFFFFFFFFFFFFFFFFFFFFFFFFFFFFFFFFFFFFFFFFFFFFFFFFFFFF DUP2 EQ PUSH2 0xCCE JUMPI DUP2 DUP2 LT ISZERO PUSH2 0xCC0 JUMPI PUSH1 0x40 MLOAD PUSH32 0x8C379A000000000000000000000000000000000000000000000000000000000 DUP2 MSTORE PUSH1 0x4 ADD PUSH2 0xCB7 SWAP1 PUSH2 0x1CE3 JUMP JUMPDEST PUSH1 0x40 MLOAD DUP1 SWAP2 SUB SWAP1 REVERT JUMPDEST PUSH2 0xCCD DUP5 DUP5 DUP5 DUP5 SUB PUSH2 0xA7F JUMP JUMPDEST JUMPDEST POP POP POP POP JUMP JUMPDEST PUSH1 0x0 PUSH20 0xFFFFFFFFFFFFFFFFFFFFFFFFFFFFFFFFFFFFFFFF AND DUP4 PUSH20 0xFFFFFFFFFFFFFFFFFFFFFFFFFFFFFFFFFFFFFFFF AND SUB PUSH2 0xD43 JUMPI PUSH1 0x40 MLOAD PUSH32 0x8C379A000000000000000000000000000000000000000000000000000000000 DUP2 MSTORE PUSH1 0x4 ADD PUSH2 0xD3A SWAP1 PUSH2 0x1D75 JUMP JUMPDEST PUSH1 0x40 MLOAD DUP1 SWAP2 SUB SWAP1 REVERT JUMPDEST PUSH1 0x0 PUSH20 0xFFFFFFFFFFFFFFFFFFFFFFFFFFFFFFFFFFFFFFFF AND DUP3 PUSH20 0xFFFFFFFFFFFFFFFFFFFFFFFFFFFFFFFFFFFFFFFF AND SUB PUSH2 0xDB2 JUMPI PUSH1 0x40 MLOAD PUSH32 0x8C379A000000000000000000000000000000000000000000000000000000000 DUP2 MSTORE PUSH1 0x4 ADD PUSH2 0xDA9 SWAP1 PUSH2 0x1E07 JUMP JUMPDEST PUSH1 0x40 MLOAD DUP1 SWAP2 SUB SWAP1 REVERT JUMPDEST PUSH2 0xDBD DUP4 DUP4 DUP4 PUSH2 0x137D JUMP JUMPDEST PUSH1 0x0 DUP1 PUSH1 0x0 DUP6 PUSH20 0xFFFFFFFFFFFFFFFFFFFFFFFFFFFFFFFFFFFFFFFF AND PUSH20 0xFFFFFFFFFFFFFFFFFFFFFFFFFFFFFFFFFFFFFFFF AND DUP2 MSTORE PUSH1 0x20 ADD SWAP1 DUP2 MSTORE PUSH1 0x20 ADD PUSH1 0x0 KECCAK256 SLOAD SWAP1 POP DUP2 DUP2 LT ISZERO PUSH2 0xE43 JUMPI PUSH1 0x40 MLOAD PUSH32 0x8C379A000000000000000000000000000000000000000000000000000000000 DUP2 MSTORE PUSH1 0x4 ADD PUSH2 0xE3A SWAP1 PUSH2 0x1E99 JUMP JUMPDEST PUSH1 0x40 MLOAD DUP1 SWAP2 SUB SWAP1 REVERT JUMPDEST DUP2 DUP2 SUB PUSH1 0x0 DUP1 DUP7 PUSH20 0xFFFFFFFFFFFFFFFFFFFFFFFFFFFFFFFFFFFFFFFF AND PUSH20 0xFFFFFFFFFFFFFFFFFFFFFFFFFFFFFFFFFFFFFFFF AND DUP2 MSTORE PUSH1 0x20 ADD SWAP1 DUP2 MSTORE PUSH1 0x20 ADD PUSH1 0x0 KECCAK256 DUP2 SWAP1 SSTORE POP DUP2 PUSH1 0x0 DUP1 DUP6 PUSH20 0xFFFFFFFFFFFFFFFFFFFFFFFFFFFFFFFFFFFFFFFF AND PUSH20 0xFFFFFFFFFFFFFFFFFFFFFFFFFFFFFFFFFFFFFFFF AND DUP2 MSTORE PUSH1 0x20 ADD SWAP1 DUP2 MSTORE PUSH1 0x20 ADD PUSH1 0x0 KECCAK256 PUSH1 0x0 DUP3 DUP3 SLOAD ADD SWAP3 POP POP DUP2 SWAP1 SSTORE POP DUP3 PUSH20 0xFFFFFFFFFFFFFFFFFFFFFFFFFFFFFFFFFFFFFFFF AND DUP5 PUSH20 0xFFFFFFFFFFFFFFFFFFFFFFFFFFFFFFFFFFFFFFFF AND PUSH32 0xDDF252AD1BE2C89B69C2B068FC378DAA952BA7F163C4A11628F55A4DF523B3EF DUP5 PUSH1 0x40 MLOAD PUSH2 0xF31 SWAP2 SWAP1 PUSH2 0x14F3 JUMP JUMPDEST PUSH1 0x40 MLOAD DUP1 SWAP2 SUB SWAP1 LOG3 PUSH2 0xF44 DUP5 DUP5 DUP5 PUSH2 0x13D5 JUMP JUMPDEST POP POP POP POP JUMP JUMPDEST PUSH2 0xF52 PUSH2 0x5F9 JUMP JUMPDEST ISZERO PUSH2 0xF92 JUMPI PUSH1 0x40 MLOAD PUSH32 0x8C379A000000000000000000000000000000000000000000000000000000000 DUP2 MSTORE PUSH1 0x4 ADD PUSH2 0xF89 SWAP1 PUSH2 0x1F05 JUMP JUMPDEST PUSH1 0x40 MLOAD DUP1 SWAP2 SUB SWAP1 REVERT JUMPDEST JUMP JUMPDEST PUSH1 0x0 PUSH20 0xFFFFFFFFFFFFFFFFFFFFFFFFFFFFFFFFFFFFFFFF AND DUP3 PUSH20 0xFFFFFFFFFFFFFFFFFFFFFFFFFFFFFFFFFFFFFFFF AND SUB PUSH2 0x1003 JUMPI PUSH1 0x40 MLOAD PUSH32 0x8C379A000000000000000000000000000000000000000000000000000000000 DUP2 MSTORE PUSH1 0x4 ADD PUSH2 0xFFA SWAP1 PUSH2 0x1F97 JUMP JUMPDEST PUSH1 0x40 MLOAD DUP1 SWAP2 SUB SWAP1 REVERT JUMPDEST PUSH2 0x100F DUP3 PUSH1 0x0 DUP4 PUSH2 0x137D JUMP JUMPDEST PUSH1 0x0 DUP1 PUSH1 0x0 DUP5 PUSH20 0xFFFFFFFFFFFFFFFFFFFFFFFFFFFFFFFFFFFFFFFF AND PUSH20 0xFFFFFFFFFFFFFFFFFFFFFFFFFFFFFFFFFFFFFFFF AND DUP2 MSTORE PUSH1 0x20 ADD SWAP1 DUP2 MSTORE PUSH1 0x20 ADD PUSH1 0x0 KECCAK256 SLOAD SWAP1 POP DUP2 DUP2 LT ISZERO PUSH2 0x1095 JUMPI PUSH1 0x40 MLOAD PUSH32 0x8C379A000000000000000000000000000000000000000000000000000000000 DUP2 MSTORE PUSH1 0x4 ADD PUSH2 0x108C SWAP1 PUSH2 0x2029 JUMP JUMPDEST PUSH1 0x40 MLOAD DUP1 SWAP2 SUB SWAP1 REVERT JUMPDEST DUP2 DUP2 SUB PUSH1 0x0 DUP1 DUP6 PUSH20 0xFFFFFFFFFFFFFFFFFFFFFFFFFFFFFFFFFFFFFFFF AND PUSH20 0xFFFFFFFFFFFFFFFFFFFFFFFFFFFFFFFFFFFFFFFF AND DUP2 MSTORE PUSH1 0x20 ADD SWAP1 DUP2 MSTORE PUSH1 0x20 ADD PUSH1 0x0 KECCAK256 DUP2 SWAP1 SSTORE POP DUP2 PUSH1 0x2 PUSH1 0x0 DUP3 DUP3 SLOAD SUB SWAP3 POP POP DUP2 SWAP1 SSTORE POP PUSH1 0x0 PUSH20 0xFFFFFFFFFFFFFFFFFFFFFFFFFFFFFFFFFFFFFFFF AND DUP4 PUSH20 0xFFFFFFFFFFFFFFFFFFFFFFFFFFFFFFFFFFFFFFFF AND PUSH32 0xDDF252AD1BE2C89B69C2B068FC378DAA952BA7F163C4A11628F55A4DF523B3EF DUP5 PUSH1 0x40 MLOAD PUSH2 0x1148 SWAP2 SWAP1 PUSH2 0x14F3 JUMP JUMPDEST PUSH1 0x40 MLOAD DUP1 SWAP2 SUB SWAP1 LOG3 PUSH2 0x115C DUP4 PUSH1 0x0 DUP5 PUSH2 0x13D5 JUMP JUMPDEST POP POP POP JUMP JUMPDEST PUSH1 0x0 PUSH20 0xFFFFFFFFFFFFFFFFFFFFFFFFFFFFFFFFFFFFFFFF AND DUP3 PUSH20 0xFFFFFFFFFFFFFFFFFFFFFFFFFFFFFFFFFFFFFFFF AND SUB PUSH2 0x11D0 JUMPI PUSH1 0x40 MLOAD PUSH32 0x8C379A000000000000000000000000000000000000000000000000000000000 DUP2 MSTORE PUSH1 0x4 ADD PUSH2 0x11C7 SWAP1 PUSH2 0x2095 JUMP JUMPDEST PUSH1 0x40 MLOAD DUP1 SWAP2 SUB SWAP1 REVERT JUMPDEST PUSH2 0x11DC PUSH1 0x0 DUP4 DUP4 PUSH2 0x137D JUMP JUMPDEST DUP1 PUSH1 0x2 PUSH1 0x0 DUP3 DUP3 SLOAD PUSH2 0x11EE SWAP2 SWAP1 PUSH2 0x185B JUMP JUMPDEST SWAP3 POP POP DUP2 SWAP1 SSTORE POP DUP1 PUSH1 0x0 DUP1 DUP5 PUSH20 0xFFFFFFFFFFFFFFFFFFFFFFFFFFFFFFFFFFFFFFFF AND PUSH20 0xFFFFFFFFFFFFFFFFFFFFFFFFFFFFFFFFFFFFFFFF AND DUP2 MSTORE PUSH1 0x20 ADD SWAP1 DUP2 MSTORE PUSH1 0x20 ADD PUSH1 0x0 KECCAK256 PUSH1 0x0 DUP3 DUP3 SLOAD ADD SWAP3 POP POP DUP2 SWAP1 SSTORE POP DUP2 PUSH20 0xFFFFFFFFFFFFFFFFFFFFFFFFFFFFFFFFFFFFFFFF AND PUSH1 0x0 PUSH20 0xFFFFFFFFFFFFFFFFFFFFFFFFFFFFFFFFFFFFFFFF AND PUSH32 0xDDF252AD1BE2C89B69C2B068FC378DAA952BA7F163C4A11628F55A4DF523B3EF DUP4 PUSH1 0x40 MLOAD PUSH2 0x129F SWAP2 SWAP1 PUSH2 0x14F3 JUMP JUMPDEST PUSH1 0x40 MLOAD DUP1 SWAP2 SUB SWAP1 LOG3 PUSH2 0x12B3 PUSH1 0x0 DUP4 DUP4 PUSH2 0x13D5 JUMP JUMPDEST POP POP JUMP JUMPDEST PUSH2 0x12BF PUSH2 0xF4A JUMP JUMPDEST PUSH1 0x1 PUSH1 0x5 PUSH1 0x0 PUSH2 0x100 EXP DUP2 SLOAD DUP2 PUSH1 0xFF MUL NOT AND SWAP1 DUP4 ISZERO ISZERO MUL OR SWAP1 SSTORE POP PUSH32 0x62E78CEA01BEE320CD4E420270B5EA74000D11B0C9F74754EBDBFC544B05A258 PUSH2 0x1303 PUSH2 0xA77 JUMP JUMPDEST PUSH1 0x40 MLOAD PUSH2 0x1310 SWAP2 SWAP1 PUSH2 0x20C4 JUMP JUMPDEST PUSH1 0x40 MLOAD DUP1 SWAP2 SUB SWAP1 LOG1 JUMP JUMPDEST PUSH2 0x1322 PUSH2 0x13DA JUMP JUMPDEST PUSH1 0x0 PUSH1 0x5 PUSH1 0x0 PUSH2 0x100 EXP DUP2 SLOAD DUP2 PUSH1 0xFF MUL NOT AND SWAP1 DUP4 ISZERO ISZERO MUL OR SWAP1 SSTORE POP PUSH32 0x5DB9EE0A495BF2E6FF9C91A7834C1BA4FDD244A5E8AA4E537BD38AEAE4B073AA PUSH2 0x1366 PUSH2 0xA77 JUMP JUMPDEST PUSH1 0x40 MLOAD PUSH2 0x1373 SWAP2 SWAP1 PUSH2 0x20C4 JUMP JUMPDEST PUSH1 0x40 MLOAD DUP1 SWAP2 SUB SWAP1 LOG1 JUMP JUMPDEST PUSH2 0x1388 DUP4 DUP4 DUP4 PUSH2 0x1423 JUMP JUMPDEST PUSH2 0x1390 PUSH2 0x5F9 JUMP JUMPDEST ISZERO PUSH2 0x13D0 JUMPI PUSH1 0x40 MLOAD PUSH32 0x8C379A000000000000000000000000000000000000000000000000000000000 DUP2 MSTORE PUSH1 0x4 ADD PUSH2 0x13C7 SWAP1 PUSH2 0x2151 JUMP JUMPDEST PUSH1 0x40 MLOAD DUP1 SWAP2 SUB SWAP1 REVERT JUMPDEST POP POP POP JUMP JUMPDEST POP POP POP JUMP JUMPDEST PUSH2 0x13E2 PUSH2 0x5F9 JUMP JUMPDEST PUSH2 0x1421 JUMPI PUSH1 0x40 MLOAD PUSH32 0x8C379A000000000000000000000000000000000000000000000000000000000 DUP2 MSTORE PUSH1 0x4 ADD PUSH2 0x1418 SWAP1 PUSH2 0x21BD JUMP JUMPDEST PUSH1 0x40 MLOAD DUP1 SWAP2 SUB SWAP1 REVERT JUMPDEST JUMP JUMPDEST POP POP POP JUMP JUMPDEST PUSH1 0x0 DUP2 MLOAD SWAP1 POP SWAP2 SWAP1 POP JUMP JUMPDEST PUSH1 0x0 DUP3 DUP3 MSTORE PUSH1 0x20 DUP3 ADD SWAP1 POP SWAP3 SWAP2 POP POP JUMP JUMPDEST PUSH1 0x0 JUMPDEST DUP4 DUP2 LT ISZERO PUSH2 0x1462 JUMPI DUP1 DUP3 ADD MLOAD DUP2 DUP5 ADD MSTORE PUSH1 0x20 DUP2 ADD SWAP1 POP PUSH2 0x1447 JUMP JUMPDEST PUSH1 0x0 DUP5 DUP5 ADD MSTORE POP POP POP POP JUMP JUMPDEST PUSH1 0x0 PUSH1 0x1F NOT PUSH1 0x1F DUP4 ADD AND SWAP1 POP SWAP2 SWAP1 POP JUMP JUMPDEST PUSH1 0x0 PUSH2 0x148A DUP3 PUSH2 0x1428 JUMP JUMPDEST PUSH2 0x1494 DUP2 DUP6 PUSH2 0x1433 JUMP JUMPDEST SWAP4 POP PUSH2 0x14A4 DUP2 DUP6 PUSH1 0x20 DUP7 ADD PUSH2 0x1444 JUMP JUMPDEST PUSH2 0x14AD DUP2 PUSH2 0x146E JUMP JUMPDEST DUP5 ADD SWAP2 POP POP SWAP3 SWAP2 POP POP JUMP JUMPDEST PUSH1 0x0 PUSH1 0x20 DUP3 ADD SWAP1 POP DUP2 DUP2 SUB PUSH1 0x0 DUP4 ADD MSTORE PUSH2 0x14D2 DUP2 DUP5 PUSH2 0x147F JUMP JUMPDEST SWAP1 POP SWAP3 SWAP2 POP POP JUMP JUMPDEST PUSH1 0x0 DUP2 SWAP1 POP SWAP2 SWAP1 POP JUMP JUMPDEST PUSH2 0x14ED DUP2 PUSH2 0x14DA JUMP JUMPDEST DUP3 MSTORE POP POP JUMP JUMPDEST PUSH1 0x0 PUSH1 0x20 DUP3 ADD SWAP1 POP PUSH2 0x1508 PUSH1 0x0 DUP4 ADD DUP5 PUSH2 0x14E4 JUMP JUMPDEST SWAP3 SWAP2 POP POP JUMP JUMPDEST PUSH1 0x0 DUP1 REVERT JUMPDEST PUSH1 0x0 PUSH20 0xFFFFFFFFFFFFFFFFFFFFFFFFFFFFFFFFFFFFFFFF DUP3 AND SWAP1 POP SWAP2 SWAP1 POP JUMP JUMPDEST PUSH1 0x0 PUSH2 0x153E DUP3 PUSH2 0x1513 JUMP JUMPDEST SWAP1 POP SWAP2 SWAP1 POP JUMP JUMPDEST PUSH2 0x154E DUP2 PUSH2 0x1533 JUMP JUMPDEST DUP2 EQ PUSH2 0x1559 JUMPI PUSH1 0x0 DUP1 REVERT JUMPDEST POP JUMP JUMPDEST PUSH1 0x0 DUP2 CALLDATALOAD SWAP1 POP PUSH2 0x156B DUP2 PUSH2 0x1545 JUMP JUMPDEST SWAP3 SWAP2 POP POP JUMP JUMPDEST PUSH2 0x157A DUP2 PUSH2 0x14DA JUMP JUMPDEST DUP2 EQ PUSH2 0x1585 JUMPI PUSH1 0x0 DUP1 REVERT JUMPDEST POP JUMP JUMPDEST PUSH1 0x0 DUP2 CALLDATALOAD SWAP1 POP PUSH2 0x1597 DUP2 PUSH2 0x1571 JUMP JUMPDEST SWAP3 SWAP2 POP POP JUMP JUMPDEST PUSH1 0x0 DUP1 PUSH1 0x40 DUP4 DUP6 SUB SLT ISZERO PUSH2 0x15B4 JUMPI PUSH2 0x15B3 PUSH2 0x150E JUMP JUMPDEST JUMPDEST PUSH1 0x0 PUSH2 0x15C2 DUP6 DUP3 DUP7 ADD PUSH2 0x155C JUMP JUMPDEST SWAP3 POP POP PUSH1 0x20 PUSH2 0x15D3 DUP6 DUP3 DUP7 ADD PUSH2 0x1588 JUMP JUMPDEST SWAP2 POP POP SWAP3 POP SWAP3 SWAP1 POP JUMP JUMPDEST PUSH1 0x0 DUP2 ISZERO ISZERO SWAP1 POP SWAP2 SWAP1 POP JUMP JUMPDEST PUSH2 0x15F2 DUP2 PUSH2 0x15DD JUMP JUMPDEST DUP3 MSTORE POP POP JUMP JUMPDEST PUSH1 0x0 PUSH1 0x20 DUP3 ADD SWAP1 POP PUSH2 0x160D PUSH1 0x0 DUP4 ADD DUP5 PUSH2 0x15E9 JUMP JUMPDEST SWAP3 SWAP2 POP POP JUMP JUMPDEST PUSH1 0x0 DUP1 PUSH1 0x0 PUSH1 0x60 DUP5 DUP7 SUB SLT ISZERO PUSH2 0x162C JUMPI PUSH2 0x162B PUSH2 0x150E JUMP JUMPDEST JUMPDEST PUSH1 0x0 PUSH2 0x163A DUP7 DUP3 DUP8 ADD PUSH2 0x155C JUMP JUMPDEST SWAP4 POP POP PUSH1 0x20 PUSH2 0x164B DUP7 DUP3 DUP8 ADD PUSH2 0x155C JUMP JUMPDEST SWAP3 POP POP PUSH1 0x40 PUSH2 0x165C DUP7 DUP3 DUP8 ADD PUSH2 0x1588 JUMP JUMPDEST SWAP2 POP POP SWAP3 POP SWAP3 POP SWAP3 JUMP JUMPDEST PUSH1 0x0 PUSH1 0xFF DUP3 AND SWAP1 POP SWAP2 SWAP1 POP JUMP JUMPDEST PUSH2 0x167C DUP2 PUSH2 0x1666 JUMP JUMPDEST DUP3 MSTORE POP POP JUMP JUMPDEST PUSH1 0x0 PUSH1 0x20 DUP3 ADD SWAP1 POP PUSH2 0x1697 PUSH1 0x0 DUP4 ADD DUP5 PUSH2 0x1673 JUMP JUMPDEST SWAP3 SWAP2 POP POP JUMP JUMPDEST PUSH1 0x0 PUSH1 0x20 DUP3 DUP5 SUB SLT ISZERO PUSH2 0x16B3 JUMPI PUSH2 0x16B2 PUSH2 0x150E JUMP JUMPDEST JUMPDEST PUSH1 0x0 PUSH2 0x16C1 DUP5 DUP3 DUP6 ADD PUSH2 0x1588 JUMP JUMPDEST SWAP2 POP POP SWAP3 SWAP2 POP POP JUMP JUMPDEST PUSH2 0x16D3 DUP2 PUSH2 0x1666 JUMP JUMPDEST DUP2 EQ PUSH2 0x16DE JUMPI PUSH1 0x0 DUP1 REVERT JUMPDEST POP JUMP JUMPDEST PUSH1 0x0 DUP2 CALLDATALOAD SWAP1 POP PUSH2 0x16F0 DUP2 PUSH2 0x16CA JUMP JUMPDEST SWAP3 SWAP2 POP POP JUMP JUMPDEST PUSH1 0x0 PUSH1 0x20 DUP3 DUP5 SUB SLT ISZERO PUSH2 0x170C JUMPI PUSH2 0x170B PUSH2 0x150E JUMP JUMPDEST JUMPDEST PUSH1 0x0 PUSH2 0x171A DUP5 DUP3 DUP6 ADD PUSH2 0x16E1 JUMP JUMPDEST SWAP2 POP POP SWAP3 SWAP2 POP POP JUMP JUMPDEST PUSH1 0x0 PUSH1 0x20 DUP3 DUP5 SUB SLT ISZERO PUSH2 0x1739 JUMPI PUSH2 0x1738 PUSH2 0x150E JUMP JUMPDEST JUMPDEST PUSH1 0x0 PUSH2 0x1747 DUP5 DUP3 DUP6 ADD PUSH2 0x155C JUMP JUMPDEST SWAP2 POP POP SWAP3 SWAP2 POP POP JUMP JUMPDEST PUSH1 0x0 PUSH2 0x175B DUP3 PUSH2 0x1513 JUMP JUMPDEST SWAP1 POP SWAP2 SWAP1 POP JUMP JUMPDEST PUSH2 0x176B DUP2 PUSH2 0x1750 JUMP JUMPDEST DUP3 MSTORE POP POP JUMP JUMPDEST PUSH1 0x0 PUSH1 0x20 DUP3 ADD SWAP1 POP PUSH2 0x1786 PUSH1 0x0 DUP4 ADD DUP5 PUSH2 0x1762 JUMP JUMPDEST SWAP3 SWAP2 POP POP JUMP JUMPDEST PUSH1 0x0 DUP1 PUSH1 0x40 DUP4 DUP6 SUB SLT ISZERO PUSH2 0x17A3 JUMPI PUSH2 0x17A2 PUSH2 0x150E JUMP JUMPDEST JUMPDEST PUSH1 0x0 PUSH2 0x17B1 DUP6 DUP3 DUP7 ADD PUSH2 0x155C JUMP JUMPDEST SWAP3 POP POP PUSH1 0x20 PUSH2 0x17C2 DUP6 DUP3 DUP7 ADD PUSH2 0x155C JUMP JUMPDEST SWAP2 POP POP SWAP3 POP SWAP3 SWAP1 POP JUMP JUMPDEST PUSH32 0x4E487B7100000000000000000000000000000000000000000000000000000000 PUSH1 0x0 MSTORE PUSH1 0x22 PUSH1 0x4 MSTORE PUSH1 0x24 PUSH1 0x0 REVERT JUMPDEST PUSH1 0x0 PUSH1 0x2 DUP3 DIV SWAP1 POP PUSH1 0x1 DUP3 AND DUP1 PUSH2 0x1813 JUMPI PUSH1 0x7F DUP3 AND SWAP2 POP JUMPDEST PUSH1 0x20 DUP3 LT DUP2 SUB PUSH2 0x1826 JUMPI PUSH2 0x1825 PUSH2 0x17CC JUMP JUMPDEST JUMPDEST POP SWAP2 SWAP1 POP JUMP JUMPDEST PUSH32 0x4E487B7100000000000000000000000000000000000000000000000000000000 PUSH1 0x0 MSTORE PUSH1 0x11 PUSH1 0x4 MSTORE PUSH1 0x24 PUSH1 0x0 REVERT JUMPDEST PUSH1 0x0 PUSH2 0x1866 DUP3 PUSH2 0x14DA JUMP JUMPDEST SWAP2 POP PUSH2 0x1871 DUP4 PUSH2 0x14DA JUMP JUMPDEST SWAP3 POP DUP3 DUP3 ADD SWAP1 POP DUP1 DUP3 GT ISZERO PUSH2 0x1889 JUMPI PUSH2 0x1888 PUSH2 0x182C JUMP JUMPDEST JUMPDEST SWAP3 SWAP2 POP POP JUMP JUMPDEST PUSH32 0x4F6E6C7920746865206F776E65722063616E2063616C6C20746869732066756E PUSH1 0x0 DUP3 ADD MSTORE PUSH32 0x6374696F6E000000000000000000000000000000000000000000000000000000 PUSH1 0x20 DUP3 ADD MSTORE POP JUMP JUMPDEST PUSH1 0x0 PUSH2 0x18EB PUSH1 0x25 DUP4 PUSH2 0x1433 JUMP JUMPDEST SWAP2 POP PUSH2 0x18F6 DUP3 PUSH2 0x188F JUMP JUMPDEST PUSH1 0x40 DUP3 ADD SWAP1 POP SWAP2 SWAP1 POP JUMP JUMPDEST PUSH1 0x0 PUSH1 0x20 DUP3 ADD SWAP1 POP DUP2 DUP2 SUB PUSH1 0x0 DUP4 ADD MSTORE PUSH2 0x191A DUP2 PUSH2 0x18DE JUMP JUMPDEST SWAP1 POP SWAP2 SWAP1 POP JUMP JUMPDEST PUSH1 0x0 PUSH2 0x192C DUP3 PUSH2 0x14DA JUMP JUMPDEST SWAP2 POP PUSH2 0x1937 DUP4 PUSH2 0x14DA JUMP JUMPDEST SWAP3 POP DUP3 DUP3 MUL PUSH2 0x1945 DUP2 PUSH2 0x14DA JUMP JUMPDEST SWAP2 POP DUP3 DUP3 DIV DUP5 EQ DUP4 ISZERO OR PUSH2 0x195C JUMPI PUSH2 0x195B PUSH2 0x182C JUMP JUMPDEST JUMPDEST POP SWAP3 SWAP2 POP POP JUMP JUMPDEST PUSH32 0x45524332303A2064656372656173656420616C6C6F77616E63652062656C6F77 PUSH1 0x0 DUP3 ADD MSTORE PUSH32 0x207A65726F000000000000000000000000000000000000000000000000000000 PUSH1 0x20 DUP3 ADD MSTORE POP JUMP JUMPDEST PUSH1 0x0 PUSH2 0x19BF PUSH1 0x25 DUP4 PUSH2 0x1433 JUMP JUMPDEST SWAP2 POP PUSH2 0x19CA DUP3 PUSH2 0x1963 JUMP JUMPDEST PUSH1 0x40 DUP3 ADD SWAP1 POP SWAP2 SWAP1 POP JUMP JUMPDEST PUSH1 0x0 PUSH1 0x20 DUP3 ADD SWAP1 POP DUP2 DUP2 SUB PUSH1 0x0 DUP4 ADD MSTORE PUSH2 0x19EE DUP2 PUSH2 0x19B2 JUMP JUMPDEST SWAP1 POP SWAP2 SWAP1 POP JUMP JUMPDEST PUSH1 0x0 DUP2 PUSH1 0x1 SHR SWAP1 POP SWAP2 SWAP1 POP JUMP JUMPDEST PUSH1 0x0 DUP1 DUP3 SWAP2 POP DUP4 SWAP1 POP JUMPDEST PUSH1 0x1 DUP6 GT ISZERO PUSH2 0x1A4C JUMPI DUP1 DUP7 DIV DUP2 GT ISZERO PUSH2 0x1A28 JUMPI PUSH2 0x1A27 PUSH2 0x182C JUMP JUMPDEST JUMPDEST PUSH1 0x1 DUP6 AND ISZERO PUSH2 0x1A37 JUMPI DUP1 DUP3 MUL SWAP2 POP JUMPDEST DUP1 DUP2 MUL SWAP1 POP PUSH2 0x1A45 DUP6 PUSH2 0x19F5 JUMP JUMPDEST SWAP5 POP PUSH2 0x1A0C JUMP JUMPDEST SWAP5 POP SWAP5 SWAP3 POP POP POP JUMP JUMPDEST PUSH1 0x0 DUP3 PUSH2 0x1A65 JUMPI PUSH1 0x1 SWAP1 POP PUSH2 0x1B21 JUMP JUMPDEST DUP2 PUSH2 0x1A73 JUMPI PUSH1 0x0 SWAP1 POP PUSH2 0x1B21 JUMP JUMPDEST DUP2 PUSH1 0x1 DUP2 EQ PUSH2 0x1A89 JUMPI PUSH1 0x2 DUP2 EQ PUSH2 0x1A93 JUMPI PUSH2 0x1AC2 JUMP JUMPDEST PUSH1 0x1 SWAP2 POP POP PUSH2 0x1B21 JUMP JUMPDEST PUSH1 0xFF DUP5 GT ISZERO PUSH2 0x1AA5 JUMPI PUSH2 0x1AA4 PUSH2 0x182C JUMP JUMPDEST JUMPDEST DUP4 PUSH1 0x2 EXP SWAP2 POP DUP5 DUP3 GT ISZERO PUSH2 0x1ABC JUMPI PUSH2 0x1ABB PUSH2 0x182C JUMP JUMPDEST JUMPDEST POP PUSH2 0x1B21 JUMP JUMPDEST POP PUSH1 0x20 DUP4 LT PUSH2 0x133 DUP4 LT AND PUSH1 0x4E DUP5 LT PUSH1 0xB DUP5 LT AND OR ISZERO PUSH2 0x1AF7 JUMPI DUP3 DUP3 EXP SWAP1 POP DUP4 DUP2 GT ISZERO PUSH2 0x1AF2 JUMPI PUSH2 0x1AF1 PUSH2 0x182C JUMP JUMPDEST JUMPDEST PUSH2 0x1B21 JUMP JUMPDEST PUSH2 0x1B04 DUP5 DUP5 DUP5 PUSH1 0x1 PUSH2 0x1A02 JUMP JUMPDEST SWAP3 POP SWAP1 POP DUP2 DUP5 DIV DUP2 GT ISZERO PUSH2 0x1B1B JUMPI PUSH2 0x1B1A PUSH2 0x182C JUMP JUMPDEST JUMPDEST DUP2 DUP2 MUL SWAP1 POP JUMPDEST SWAP4 SWAP3 POP POP POP JUMP JUMPDEST PUSH1 0x0 PUSH2 0x1B33 DUP3 PUSH2 0x14DA JUMP JUMPDEST SWAP2 POP PUSH2 0x1B3E DUP4 PUSH2 0x1666 JUMP JUMPDEST SWAP3 POP PUSH2 0x1B6B PUSH32 0xFFFFFFFFFFFFFFFFFFFFFFFFFFFFFFFFFFFFFFFFFFFFFFFFFFFFFFFFFFFFFFFF DUP5 DUP5 PUSH2 0x1A55 JUMP JUMPDEST SWAP1 POP SWAP3 SWAP2 POP POP JUMP JUMPDEST PUSH32 0x45524332303A20617070726F76652066726F6D20746865207A65726F20616464 PUSH1 0x0 DUP3 ADD MSTORE PUSH32 0x7265737300000000000000000000000000000000000000000000000000000000 PUSH1 0x20 DUP3 ADD MSTORE POP JUMP JUMPDEST PUSH1 0x0 PUSH2 0x1BCF PUSH1 0x24 DUP4 PUSH2 0x1433 JUMP JUMPDEST SWAP2 POP PUSH2 0x1BDA DUP3 PUSH2 0x1B73 JUMP JUMPDEST PUSH1 0x40 DUP3 ADD SWAP1 POP SWAP2 SWAP1 POP JUMP JUMPDEST PUSH1 0x0 PUSH1 0x20 DUP3 ADD SWAP1 POP DUP2 DUP2 SUB PUSH1 0x0 DUP4 ADD MSTORE PUSH2 0x1BFE DUP2 PUSH2 0x1BC2 JUMP JUMPDEST SWAP1 POP SWAP2 SWAP1 POP JUMP JUMPDEST PUSH32 0x45524332303A20617070726F766520746F20746865207A65726F206164647265 PUSH1 0x0 DUP3 ADD MSTORE PUSH32 0x7373000000000000000000000000000000000000000000000000000000000000 PUSH1 0x20 DUP3 ADD MSTORE POP JUMP JUMPDEST PUSH1 0x0 PUSH2 0x1C61 PUSH1 0x22 DUP4 PUSH2 0x1433 JUMP JUMPDEST SWAP2 POP PUSH2 0x1C6C DUP3 PUSH2 0x1C05 JUMP JUMPDEST PUSH1 0x40 DUP3 ADD SWAP1 POP SWAP2 SWAP1 POP JUMP JUMPDEST PUSH1 0x0 PUSH1 0x20 DUP3 ADD SWAP1 POP DUP2 DUP2 SUB PUSH1 0x0 DUP4 ADD MSTORE PUSH2 0x1C90 DUP2 PUSH2 0x1C54 JUMP JUMPDEST SWAP1 POP SWAP2 SWAP1 POP JUMP JUMPDEST PUSH32 0x45524332303A20696E73756666696369656E7420616C6C6F77616E6365000000 PUSH1 0x0 DUP3 ADD MSTORE POP JUMP JUMPDEST PUSH1 0x0 PUSH2 0x1CCD PUSH1 0x1D DUP4 PUSH2 0x1433 JUMP JUMPDEST SWAP2 POP PUSH2 0x1CD8 DUP3 PUSH2 0x1C97 JUMP JUMPDEST PUSH1 0x20 DUP3 ADD SWAP1 POP SWAP2 SWAP1 POP JUMP JUMPDEST PUSH1 0x0 PUSH1 0x20 DUP3 ADD SWAP1 POP DUP2 DUP2 SUB PUSH1 0x0 DUP4 ADD MSTORE PUSH2 0x1CFC DUP2 PUSH2 0x1CC0 JUMP JUMPDEST SWAP1 POP SWAP2 SWAP1 POP JUMP JUMPDEST PUSH32 0x45524332303A207472616E736665722066726F6D20746865207A65726F206164 PUSH1 0x0 DUP3 ADD MSTORE PUSH32 0x6472657373000000000000000000000000000000000000000000000000000000 PUSH1 0x20 DUP3 ADD MSTORE POP JUMP JUMPDEST PUSH1 0x0 PUSH2 0x1D5F PUSH1 0x25 DUP4 PUSH2 0x1433 JUMP JUMPDEST SWAP2 POP PUSH2 0x1D6A DUP3 PUSH2 0x1D03 JUMP JUMPDEST PUSH1 0x40 DUP3 ADD SWAP1 POP SWAP2 SWAP1 POP JUMP JUMPDEST PUSH1 0x0 PUSH1 0x20 DUP3 ADD SWAP1 POP DUP2 DUP2 SUB PUSH1 0x0 DUP4 ADD MSTORE PUSH2 0x1D8E DUP2 PUSH2 0x1D52 JUMP JUMPDEST SWAP1 POP SWAP2 SWAP1 POP JUMP JUMPDEST PUSH32 0x45524332303A207472616E7366657220746F20746865207A65726F2061646472 PUSH1 0x0 DUP3 ADD MSTORE PUSH32 0x6573730000000000000000000000000000000000000000000000000000000000 PUSH1 0x20 DUP3 ADD MSTORE POP JUMP JUMPDEST PUSH1 0x0 PUSH2 0x1DF1 PUSH1 0x23 DUP4 PUSH2 0x1433 JUMP JUMPDEST SWAP2 POP PUSH2 0x1DFC DUP3 PUSH2 0x1D95 JUMP JUMPDEST PUSH1 0x40 DUP3 ADD SWAP1 POP SWAP2 SWAP1 POP JUMP JUMPDEST PUSH1 0x0 PUSH1 0x20 DUP3 ADD SWAP1 POP DUP2 DUP2 SUB PUSH1 0x0 DUP4 ADD MSTORE PUSH2 0x1E20 DUP2 PUSH2 0x1DE4 JUMP JUMPDEST SWAP1 POP SWAP2 SWAP1 POP JUMP JUMPDEST PUSH32 0x45524332303A207472616E7366657220616D6F756E7420657863656564732062 PUSH1 0x0 DUP3 ADD MSTORE PUSH32 0x616C616E63650000000000000000000000000000000000000000000000000000 PUSH1 0x20 DUP3 ADD MSTORE POP JUMP JUMPDEST PUSH1 0x0 PUSH2 0x1E83 PUSH1 0x26 DUP4 PUSH2 0x1433 JUMP JUMPDEST SWAP2 POP PUSH2 0x1E8E DUP3 PUSH2 0x1E27 JUMP JUMPDEST PUSH1 0x40 DUP3 ADD SWAP1 POP SWAP2 SWAP1 POP JUMP JUMPDEST PUSH1 0x0 PUSH1 0x20 DUP3 ADD SWAP1 POP DUP2 DUP2 SUB PUSH1 0x0 DUP4 ADD MSTORE PUSH2 0x1EB2 DUP2 PUSH2 0x1E76 JUMP JUMPDEST SWAP1 POP SWAP2 SWAP1 POP JUMP JUMPDEST PUSH32 0x5061757361626C653A2070617573656400000000000000000000000000000000 PUSH1 0x0 DUP3 ADD MSTORE POP JUMP JUMPDEST PUSH1 0x0 PUSH2 0x1EEF PUSH1 0x10 DUP4 PUSH2 0x1433 JUMP JUMPDEST SWAP2 POP PUSH2 0x1EFA DUP3 PUSH2 0x1EB9 JUMP JUMPDEST PUSH1 0x20 DUP3 ADD SWAP1 POP SWAP2 SWAP1 POP JUMP JUMPDEST PUSH1 0x0 PUSH1 0x20 DUP3 ADD SWAP1 POP DUP2 DUP2 SUB PUSH1 0x0 DUP4 ADD MSTORE PUSH2 0x1F1E DUP2 PUSH2 0x1EE2 JUMP JUMPDEST SWAP1 POP SWAP2 SWAP1 POP JUMP JUMPDEST PUSH32 0x45524332303A206275726E2066726F6D20746865207A65726F20616464726573 PUSH1 0x0 DUP3 ADD MSTORE PUSH32 0x7300000000000000000000000000000000000000000000000000000000000000 PUSH1 0x20 DUP3 ADD MSTORE POP JUMP JUMPDEST PUSH1 0x0 PUSH2 0x1F81 PUSH1 0x21 DUP4 PUSH2 0x1433 JUMP JUMPDEST SWAP2 POP PUSH2 0x1F8C DUP3 PUSH2 0x1F25 JUMP JUMPDEST PUSH1 0x40 DUP3 ADD SWAP1 POP SWAP2 SWAP1 POP JUMP JUMPDEST PUSH1 0x0 PUSH1 0x20 DUP3 ADD SWAP1 POP DUP2 DUP2 SUB PUSH1 0x0 DUP4 ADD MSTORE PUSH2 0x1FB0 DUP2 PUSH2 0x1F74 JUMP JUMPDEST SWAP1 POP SWAP2 SWAP1 POP JUMP JUMPDEST PUSH32 0x45524332303A206275726E20616D6F756E7420657863656564732062616C616E PUSH1 0x0 DUP3 ADD MSTORE PUSH32 0x6365000000000000000000000000000000000000000000000000000000000000 PUSH1 0x20 DUP3 ADD MSTORE POP JUMP JUMPDEST PUSH1 0x0 PUSH2 0x2013 PUSH1 0x22 DUP4 PUSH2 0x1433 JUMP JUMPDEST SWAP2 POP PUSH2 0x201E DUP3 PUSH2 0x1FB7 JUMP JUMPDEST PUSH1 0x40 DUP3 ADD SWAP1 POP SWAP2 SWAP1 POP JUMP JUMPDEST PUSH1 0x0 PUSH1 0x20 DUP3 ADD SWAP1 POP DUP2 DUP2 SUB PUSH1 0x0 DUP4 ADD MSTORE PUSH2 0x2042 DUP2 PUSH2 0x2006 JUMP JUMPDEST SWAP1 POP SWAP2 SWAP1 POP JUMP JUMPDEST PUSH32 0x45524332303A206D696E7420746F20746865207A65726F206164647265737300 PUSH1 0x0 DUP3 ADD MSTORE POP JUMP JUMPDEST PUSH1 0x0 PUSH2 0x207F PUSH1 0x1F DUP4 PUSH2 0x1433 JUMP JUMPDEST SWAP2 POP PUSH2 0x208A DUP3 PUSH2 0x2049 JUMP JUMPDEST PUSH1 0x20 DUP3 ADD SWAP1 POP SWAP2 SWAP1 POP JUMP JUMPDEST PUSH1 0x0 PUSH1 0x20 DUP3 ADD SWAP1 POP DUP2 DUP2 SUB PUSH1 0x0 DUP4 ADD MSTORE PUSH2 0x20AE DUP2 PUSH2 0x2072 JUMP JUMPDEST SWAP1 POP SWAP2 SWAP1 POP JUMP JUMPDEST PUSH2 0x20BE DUP2 PUSH2 0x1533 JUMP JUMPDEST DUP3 MSTORE POP POP JUMP JUMPDEST PUSH1 0x0 PUSH1 0x20 DUP3 ADD SWAP1 POP PUSH2 0x20D9 PUSH1 0x0 DUP4 ADD DUP5 PUSH2 0x20B5 JUMP JUMPDEST SWAP3 SWAP2 POP POP JUMP JUMPDEST PUSH32 0x45524332305061757361626C653A20746F6B656E207472616E73666572207768 PUSH1 0x0 DUP3 ADD MSTORE PUSH32 0x696C652070617573656400000000000000000000000000000000000000000000 PUSH1 0x20 DUP3 ADD MSTORE POP JUMP JUMPDEST PUSH1 0x0 PUSH2 0x213B PUSH1 0x2A DUP4 PUSH2 0x1433 JUMP JUMPDEST SWAP2 POP PUSH2 0x2146 DUP3 PUSH2 0x20DF JUMP JUMPDEST PUSH1 0x40 DUP3 ADD SWAP1 POP SWAP2 SWAP1 POP JUMP JUMPDEST PUSH1 0x0 PUSH1 0x20 DUP3 ADD SWAP1 POP DUP2 DUP2 SUB PUSH1 0x0 DUP4 ADD MSTORE PUSH2 0x216A DUP2 PUSH2 0x212E JUMP JUMPDEST SWAP1 POP SWAP2 SWAP1 POP JUMP JUMPDEST PUSH32 0x5061757361626C653A206E6F7420706175736564000000000000000000000000 PUSH1 0x0 DUP3 ADD MSTORE POP JUMP JUMPDEST PUSH1 0x0 PUSH2 0x21A7 PUSH1 0x14 DUP4 PUSH2 0x1433 JUMP JUMPDEST SWAP2 POP PUSH2 0x21B2 DUP3 PUSH2 0x2171 JUMP JUMPDEST PUSH1 0x20 DUP3 ADD SWAP1 POP SWAP2 SWAP1 POP JUMP JUMPDEST PUSH1 0x0 PUSH1 0x20 DUP3 ADD SWAP1 POP DUP2 DUP2 SUB PUSH1 0x0 DUP4 ADD MSTORE PUSH2 0x21D6 DUP2 PUSH2 0x219A JUMP JUMPDEST SWAP1 POP SWAP2 SWAP1 POP JUMP INVALID LOG2 PUSH5 0x6970667358 0x22 SLT KECCAK256 0xE0 PUSH3 0x8F4890 PUSH4 0xF9613288 0xFB 0x5E BLOCKHASH LOG2 SWAP15 0xBE PUSH14 0x270B2CD09814424BFDA6C6A4355 0x5C PUSH5 0x736F6C6343 STOP ADDMOD GT STOP CALLER "
				},
				"gasEstimates": {
					"creation": {
						"codeDepositCost": "1744600",
						"executionCost": "infinite",
						"totalCost": "infinite"
					},
					"external": {
						"_owner()": "2630",
						"allowance(address,address)": "infinite",
						"approve(address,uint256)": "infinite",
						"balanceOf(address)": "2886",
						"burn(uint256)": "infinite",
						"decimals()": "2574",
						"decreaseAllowance(address,uint256)": "infinite",
						"increaseAllowance(address,uint256)": "infinite",
						"mint(uint8)": "infinite",
						"name()": "infinite",
						"ownerBal()": "4802",
						"pause()": "infinite",
						"paused()": "2590",
						"symbol()": "infinite",
						"totalSupply()": "2527",
						"transfer(address,uint256)": "infinite",
						"transferFrom(address,address,uint256)": "infinite",
						"unitsPerToken()": "infinite",
						"uppause()": "infinite"
					}
				},
				"methodIdentifiers": {
					"_owner()": "b2bdfa7b",
					"allowance(address,address)": "dd62ed3e",
					"approve(address,uint256)": "095ea7b3",
					"balanceOf(address)": "70a08231",
					"burn(uint256)": "42966c68",
					"decimals()": "313ce567",
					"decreaseAllowance(address,uint256)": "a457c2d7",
					"increaseAllowance(address,uint256)": "39509351",
					"mint(uint8)": "6ecd2306",
					"name()": "06fdde03",
					"ownerBal()": "07d49020",
					"pause()": "8456cb59",
					"paused()": "5c975abb",
					"symbol()": "95d89b41",
					"totalSupply()": "18160ddd",
					"transfer(address,uint256)": "a9059cbb",
					"transferFrom(address,address,uint256)": "23b872dd",
					"unitsPerToken()": "dcbdac30",
					"uppause()": "a41a016a"
				}
			},
			"storageLayout": {
				"storage": [
					{
						"astId": 123,
						"contract": "contracts/stable-coins/ERC20USDStableCoin.sol:ERC20USDStableCoin",
						"label": "_balances",
						"offset": 0,
						"slot": "0",
						"type": "t_mapping(t_address,t_uint256)"
					},
					{
						"astId": 129,
						"contract": "contracts/stable-coins/ERC20USDStableCoin.sol:ERC20USDStableCoin",
						"label": "_allowances",
						"offset": 0,
						"slot": "1",
						"type": "t_mapping(t_address,t_mapping(t_address,t_uint256))"
					},
					{
						"astId": 131,
						"contract": "contracts/stable-coins/ERC20USDStableCoin.sol:ERC20USDStableCoin",
						"label": "_totalSupply",
						"offset": 0,
						"slot": "2",
						"type": "t_uint256"
					},
					{
						"astId": 133,
						"contract": "contracts/stable-coins/ERC20USDStableCoin.sol:ERC20USDStableCoin",
						"label": "_name",
						"offset": 0,
						"slot": "3",
						"type": "t_string_storage"
					},
					{
						"astId": 135,
						"contract": "contracts/stable-coins/ERC20USDStableCoin.sol:ERC20USDStableCoin",
						"label": "_symbol",
						"offset": 0,
						"slot": "4",
						"type": "t_string_storage"
					},
					{
						"astId": 17,
						"contract": "contracts/stable-coins/ERC20USDStableCoin.sol:ERC20USDStableCoin",
						"label": "_paused",
						"offset": 0,
						"slot": "5",
						"type": "t_bool"
					},
					{
						"astId": 864,
						"contract": "contracts/stable-coins/ERC20USDStableCoin.sol:ERC20USDStableCoin",
						"label": "_owner",
						"offset": 1,
						"slot": "5",
						"type": "t_address_payable"
					},
					{
						"astId": 866,
						"contract": "contracts/stable-coins/ERC20USDStableCoin.sol:ERC20USDStableCoin",
						"label": "_decimals",
						"offset": 21,
						"slot": "5",
						"type": "t_uint8"
					}
				],
				"types": {
					"t_address": {
						"encoding": "inplace",
						"label": "address",
						"numberOfBytes": "20"
					},
					"t_address_payable": {
						"encoding": "inplace",
						"label": "address payable",
						"numberOfBytes": "20"
					},
					"t_bool": {
						"encoding": "inplace",
						"label": "bool",
						"numberOfBytes": "1"
					},
					"t_mapping(t_address,t_mapping(t_address,t_uint256))": {
						"encoding": "mapping",
						"key": "t_address",
						"label": "mapping(address => mapping(address => uint256))",
						"numberOfBytes": "32",
						"value": "t_mapping(t_address,t_uint256)"
					},
					"t_mapping(t_address,t_uint256)": {
						"encoding": "mapping",
						"key": "t_address",
						"label": "mapping(address => uint256)",
						"numberOfBytes": "32",
						"value": "t_uint256"
					},
					"t_string_storage": {
						"encoding": "bytes",
						"label": "string",
						"numberOfBytes": "32"
					},
					"t_uint256": {
						"encoding": "inplace",
						"label": "uint256",
						"numberOfBytes": "32"
					},
					"t_uint8": {
						"encoding": "inplace",
						"label": "uint8",
						"numberOfBytes": "1"
					}
				}
			},
			"userdoc": {
				"kind": "user",
				"methods": {
					"decimals()": {
						"notice": "Two decimal places as this is a current representation"
					},
					"unitsPerToken()": {
						"notice": "The number of units per one of the Token"
					}
				},
				"version": 1
			}
		}
	}
}